S00E0000626C696E6B792E737265638D
S3151C0008006F4010106F40D00F6F40900F6F40500F0D
S3151C0008106F40100F6F40D00E6F40900E6F40500E01
S3151C0008206F40100E6F40D00D6F40900D6F40500DF5
S3151C0008306F40100D6F40D00C6F40900C6F40500CE9
S3151C0008406F40100C6F40D00B6F40900B6F40500BDD
S3151C0008506F40100B6F40D00A6F40900A6F40500AD1
S3151C0008606F40100A6F40D0096F4090096F405009C5
S3151C0008706F4010096F40D0086F4090086F405008B9
S3151C0009004111714522C406C6EF4040012A8411C517
S3151C000910232005001105EF80E0692285B2402244A0
S3151C00092041018280011106CE22CC26CA4AC84EC677
S3151C00093052C456C25AC00DE1B706051C3706051C23
S3151C0009409386460613060601930500143795051C67
S3151C0009501305C5CBEF500039B70900FFB3F93501B4
S3151C0009602E84638D0900B706051C3706051C938665
S3151C00097006071306060193051014C9BF81EDB706B9
S3151C000980051C3706051C9386860913060601930566
S3151C00099020146DBF2A89B28A368B3A8AEF20C06131
S3151C0009A011ED630D0A00B706051C3706051C938658
S3151C0009B0060B130606019305501449BFEF10F07180
S3151C0009C083240900B377940063170B029DE78149C2
S3151C0009D0630C0A02B3355001E20563050B00B70729
S3151C0009E00004DD8D5286C18D13054900EF20C02CF5
S3151C0009F0D289814411A8E31CF4FC63870A0093473F
S3151C000A00F4FFE58F2320F900EF209070638B090219
S3151C000A1019E1EF80D02FEF20A05693176500AA840A
S3151C000A2063CD0700EF80C06B83240900B377940065
S3151C000A3063140B0285E7EF80406D370500017D15B9
S3151C000A40E98CF240624426854249D244B249224A84
S3151C000A50924A024B05618280E31FF4FCE38D0AFC7B
S3151C000A601344F4FF658C23208900F1B7011106CECF
S3151C000A7022CC0DE1B706051C3706051C93864606D7
S3151C000A80130646029305401D3795051C1305C5CB59
S3151C000A90EF504025B70700FFED8F81CFB706051C29
S3151C000AA03706051C93864610130646029305501DF1
S3151C000AB0E1BF2A842EC6EF80A062B245084093C5CA
S3151C000AC0F5FFE98D0CC02AC6EF802064F240624413
S3151C000AD032450561828059BF2E86AA853715001CB2
S3151C000AE08146130565AD6F30B017797106D622D4D1
S3151C000AF026D24AD04ECE52CC56CA0DE1B706051C9C
S3151C000B003706051C938646061306C6039305202145
S3151C000B103795051C1305C5CBEF50C01CB70700FF46
S3151C000B20ED8F81CFB706051C3706051C9386C612AA
S3151C000B301306C60393053021E1BF2A849309C50019
S3151C000B402EC6EF1090591C40B245084837090001C3
S3151C000B50DD8D0CC081447D19370A00020C406312DE
S3151C000B60350393C4F4FFED8C04C0EF20705A084083
S3151C000B70B250225492540259F249624AD24A4561F1
S3151C000B8082801841832A4500B37727011316570024
S3151C000B90B3F6B7006345060089E65685C1B7E39EE2
S3151C000BA0D7FE9316770063D30600DD8CB3E54501AB
S3151C000BB0EF206026DDB715BFB2862E86AA853715AF
S3151C000BC0001C130565BB6F30B0090111B70700FF88
S3151C000BD006CE22CC26CA4AC84EC652C4F18F8DC335
S3151C000BE0B706051C3706051C938606071306060062
S3151C000BF09305600C3795051C1305C5CBEF50800E6D
S3151C000C00B28401EEB706051C3706051C93868609B9
S3151C000C10130606009305700CF1BF2A892E8AB68925
S3151C000C20EF20803911ED638D0900B706051C3706C8
S3151C000C30051C9386060B130606009305A00C5DBFC8
S3151C000C40EF10B04903240900D2854A85793D3364E7
S3151C000C504401B3779400639497060327090093C74E
S3151C000C60F4FF8149F98F2320F900EF20704A638F26
S3151C000C70090219E1EF80B009EF2080309317650057
S3151C000C802A8463C10702EF80A04503240900B3F739
S3151C000C9084006397970093C4F4FFE18C232099008A
S3151C000CA0EF80A046370500017D15698C2285F24030
S3151C000CB06244D2444249B249224A05618280638C0D
S3151C000CC00900B70500054E86C58D13054900EF10B2
S3151C000CD0B07E014459BF0324090041BF08418280EC
S3151C000CE0411122C42A8426C206C69304C400EF10EE
S3151C000CF0D03E5C4091EB2285EF30D0482244B24076
S3151C000D00924441016F20D040084863129502B706F1
S3151C000D10051C3706051C3795051C938606151306F8
S3151C000D200605930520271305C5CBEF40B07BB705F9
S3151C000D300002EF20400E75BF19C1084D8280014587
S3151C000D4082800CCD8280411122C42A8426C24AC0CC
S3151C000D5006C6EF80E0388344540413094402E204B7
S3151C000D60E184634B9002FD57A302F404EF80E03943
S3151C000D70EF8000378344440413090401E204E18430
S3151C000D8063489002FD572302F4042244B240924465
S3151C000D90024941016F8060375C50F1D74A85EF10DC
S3151C000DA0B07D19C1EF204020FD14E204E18455BF3B
S3151C000DB01C48E9DB4A85EF10307C19C1EF20C01EA8
S3151C000DC0FD14E204E1846DBF011106CE22CC2AC6B5
S3151C000DD0EF8000313245005DEF802033F240133541
S3151C000DE0140062440561828041114AC03289304137
S3151C000DF026C2045D22C406C62A840DE21C41014596
S3151C000E0091E70844EF20802723240400850404DC92
S3151C000E10B240224492440249410182806310090275
S3151C000E204841EF50C0065C4038400145BA9718440B
S3151C000E305CC0E3EDE7FC1C405CC0C9BF4845EF50F5
S3151C000E4000053C4058441440B307F0403E9758C434
S3151C000E506375D7001844BA975CC489470145E317E4
S3151C000E60F9FACDD4FD145DB7AA87B0432E8501CE01
S3151C000E70D84794473297D8C76364D7009843D8C7D6
S3151C000E80CC476F50C0008280397106DE22DC26DA20
S3151C000E904AD84ED652D456D25AD032C60DE1B706CF
S3151C000EA0051C3706051C9386C6381306462593056E
S3151C000EB0A02E3795051C1305C5CBEF40B0622A84BE
S3151C000EC0AE89B68491ED3C4181CFB706051C370629
S3151C000ED0051C93864639130646259305B02ED1BFAD
S3151C000EE089476391F402585C8547630DF700B70682
S3151C000EF0051C3706051C9386C63E13064625930518
S3151C000F00C02E45BFEF20400B19EDB247014989CFD2
S3151C000F10B706051C3706051C9386060B13064625C5
S3151C000F209305F02E79B70149894A7D5A130B0401A2
S3151C000F3061A0B24789E7EF80401D01457DA063157E
S3151C000F4009002808EF204031EF80201CEF10F01814
S3151C000F50EF80001983474404E207E1876394470145
S3151C000F602302040483475404E207E1876394470180
S3151C000F70A3020404EF8060196C002808EF30E021FE
S3151C000F803DEDEF80E015185C5C5C6310F702EF80AA
S3151C000F90C017B2455A85EF10904D22856D33EF2050
S3151C000FA0301711E9EF80A05639A0EF800016228574
S3151C000FB0593BEF20F0150549EF808012185C5C5CEC
S3151C000FC06364F700E39754F72686CE852285293D70
S3151C000FD05C5089C713054402EF10105A01C5014520
S3151C000FE0EF80E052EF8060120545F2506254D254F5
S3151C000FF04259B259225A925A025B21618280228539
S3151C0010009933EF20F01015BF397106DE22DC26DA83
S3151C0010104AD84ED652D432C60DE1B706051C370641
S3151C001020051C9386C6431306C62B9305C0663795C7
S3151C001030051C1305C5CBEF40F04A2A842E8991ED79
S3151C0010403C4181CFB706051C3706051C9386864492
S3151C0010501306C62B93050067D9BFEF10F07519ED63
S3151C001060B247814489CFB706051C3706051C9386F3
S3151C001070060B1306C62B9305506755BF8144FD59B5
S3151C001080130A4402BDA0B24789E7EF800008014558
S3151C00109079A081E42808EF20201CEF800007EF10C0
S3151C0010A0D003EF80E00383474404E207E18763949F
S3151C0010B037012302040483475404E207E18763943F
S3151C0010C03701A3020404EF8040046C002808EF30AB
S3151C0010D0C00C3DE12285CD3939C9B2455285EF1088
S3151C0010E0103922858D31EF20B00219E1EF802042A4
S3151C0010F08544EF70F07E1C5CD9D7CA852285444492
S3151C001100A5335C5044C489CB13054402EF10D0466A
S3151C00111001C50145EF80A03FEF70307F0545F250B9
S3151C0011206254D2544259B259225A21618280228574
S3151C0011301939EF20E07D6DBF22853131EF20407DCE
S3151C0011402285593155D5A1B7411106C622C426C2DE
S3151C0011500DE1B706051C3706051C9386C638130613
S3151C001160062E9305B0753795051C1305C5CBEF40A8
S3151C00117070372A843C4189ED89CFB706051C370692
S3151C001180051C9386464A1306062E9305C075E1BFB9
S3151C00119081EFB706051C3706051C9386864F13067A
S3151C0011A0062E9305D075C1B7185D814709C74445FE
S3151C0011B06539854744C4B240224492443E85410168
S3151C0011C08280397106DE22DC26DA4AD84ED652D403
S3151C0011D056D232C60DE1B706051C3706051C93868A
S3151C0011E0C64313068629930540503795051C1305DF
S3151C0011F0C5CBEF40302F2A84AE8991ED3C4181CF7F
S3151C001200B706051C3706051C9386864413068629D5
S3151C00121093058050D9BFEF10305A19EDB2470149DA
S3151C00122089CFB706051C3706051C9386060B1306C5
S3151C00123086299305D05055BF01497D5A930A44020D
S3151C00124085A8B24789E7EF70506C014541A8631524
S3151C00125009002808EF204000EF70306BEF10E067A4
S3151C001260EF70106883474404E207E18763944701E3
S3151C0012702302040483475404E207E187639447016D
S3151C001280A3020404EF7070686C002808EF20F0704D
S3151C00129025E52285153E21CDB2455685EF10301D1C
S3151C0012A022855534EF20C06619E1EF80402605499A
S3151C0012B0EF701063045CD1D4CE852285FD146D3687
S3151C0012C004DC1C4889CB13050401EF10F02A01C568
S3151C0012D00145EF80C023EF7050630545F250625400
S3151C0012E0D2544259B259225A925A2161828022857D
S3151C0012F0993CEF20E06165BF2285B134EF20406147
S3151C0013002285D9344DD591B7011106CE0DE1B7060C
S3151C001310051C3706051C3795051C93864651130676
S3151C001320462F9305E0781305C5CBEF40B01B2AC6A4
S3151C001330EF70105B3245085D2AC6EF70105DF240F7
S3151C001340324505618280011106CE22CC0DE1B7061D
S3151C001350051C3706051C3795051C9386C6381306CF
S3151C001360C6309305F0791305C5CBEF40B0172A8418
S3151C001370EF7010571C5C485C1D8D2AC6EF70F05828
S3151C001380F2406244324505618280011106CE22CCB0
S3151C00139026CA4AC84EC60DE1B706051C3706051CEB
S3151C0013A09386C638130686269305C03B3795051CBF
S3151C0013B01305C5CBEF4010132A84328991ED3C41AD
S3151C0013C081CFB706051C3706051C938646391306BE
S3151C0013D086269305D03BD9BF09475C5C6390E60221
S3151C0013E00547638DE700B706051C3706051C938663
S3151C0013F0C63E130686269305E03B4DBF185C636606
S3151C001400F700894701456392F602834454041C5C29
S3151C0014103686228593998401C13A93D98941FD5711
S3151C0014206397F9025C5089EB0545F2406244D2444D
S3151C0014304249B2490561828013054402EF10D0135C
S3151C00144065D5E30309FE85472320F900F1BF850412
S3151C001450E204E184A3029404C1BF011106CE0DE18E
S3151C001460B706051C3706051C9386C6381306462880
S3151C001470930540463795051C1305C5CBEF409006D2
S3151C0014803C4181CFB706051C3706051C9386C65101
S3151C0014901306462893058046F1BF1C4191EF1C4557
S3151C0014A081CFB706051C3706051C93868653130683
S3151C0014B046289305D0467DBF185D545D8147637AE7
S3151C0014C0D70283475504050718DD93968701E186E5
S3151C0014D07D576394E6025C5199E3854719A8130569
S3151C0014E045022EC6EF105009B24565D9FDD5854774
S3151C0014F09CC1F2403E85056182808507E207E18733
S3151C001500A302F504D9BF011106CE22CC26CA4AC8AD
S3151C0015104EC652C40DE1B706051C3706051C93863C
S3151C001520C6381306862C9305F06F3795051C1305D4
S3151C001530C5CBEF40207B2A84B28991ED3C4181CFFB
S3151C001540B706051C3706051C9386464A1306862CC9
S3151C00155093050070D9BF032984030145630309025F
S3151C0015608344440422850932139A84017D19135A33
S3151C0015708A41232C2403FD576318FA021C4891EB5D
S3151C0015800545F2406244D2444249B249224A0561A9
S3151C001590828013050401EF10207E7DD1E38209FEB3
S3151C0015A0854723A0F900E9BF8504E204E1842302F0
S3151C0015B09404F9B705E5B706051C3706051C8565B1
S3151C0015C03795051C41119386C638130646359385F7
S3151C0015D0D5901305C5CB06C6EF40C070085D133504
S3151C0015E01500828005E5B706051C3706051C8565B2
S3151C0015F03795051C41119386C63813060637938505
S3151C00160055931305C5CB06C6EF40C06D1C5D485DE2
S3151C0016101D8D1335150082801DE1B706051C370686
S3151C001620051C3795051C41119386C6381306463290
S3151C0016309305007B1305C5CB06C6EF40A06A085D63
S3151C0016408280397106DE22DC26DA4AD84ED652D47E
S3151C0016502EC60DE1B706051C3706051C9386C64328
S3151C0016601306862A930550593795051C1305C5CBB9
S3151C001670EF4040673C412A8481CFB706051C3706DC
S3151C001680051C9386C6511306862A93059059E9BFF5
S3151C001690EF10901205E1B2478144014991CFB7067C
S3151C0016A0051C3706051C9386060B1306862A93050E
S3151C0016B0E0595DBF81440149FD59130A440279A8CA
S3151C0016C0B24785E381CCB706051C3706051C9386F5
S3151C0016D0C6591306862A9305505E79B7EF70F02219
S3151C0016E075A0631509002808EF101037EF70F0215C
S3151C0016F0EF10A01EEF70D01E83474404E207E1875B
S3151C001700639437012302040483475404E207E187E8
S3151C00171063943701A3020404EF70301F6C00280881
S3151C001720EF20B02759E12285EFF00FEA2DC91C40A6
S3151C00173089EBEF70F01A0844EF10B009AA84EF7019
S3151C001740D01CB2455285EF1080522285EFF0AFDFD8
S3151C001750EF20001C19E1EF70905B0549EF705018E3
S3151C0017601C5CB9DFFD171CDC1C4081E7EF10D02C7C
S3151C00177008C41C4889CB13050401EF10E05F01C5A2
S3151C0017800145EF70D058EF7050188544F2506254E2
S3151C00179026854259D254B259225A21618280228509
S3151C0017A0EFF06FDAEF20C0164DBF2285EFF0AFD9F0
S3151C0017B0EF2000162285EFF02FE145D1E1D8EF701E
S3151C0017C030125C50814589C71C5895459C439D8D9C
S3151C0017D008448144EF10B016EF70301345BF011159
S3151C0017E02AC606CEEF70D00F32451C4189EB084540
S3151C0017F02AC6EF709011F240324505618280014580
S3151C001800C5BF1DE1B706051C3706051C3795051C0B
S3151C00181041119386C65C1306061E93057023130599
S3151C001820C5CB06C6EF40004C1841AA87014511E3FB
S3151C00183088478280011106CE22CC26CA0DE1B70646
S3151C001840051C3706051C3795051C9386865D1306F5
S3151C0018508621930590281305C5CBEF40A048044567
S3151C0018602A842EC6EF108073B245639BA4005C4489
S3151C001870054585075CC4F2406244D24405618280FA
S3151C0018802285C1336DD95C4485075CC4EDB7411113
S3151C00189006C622C426C24AC00DE1B706051C370679
S3151C0018A0051C3795051C9386865D1306C61F930576
S3151C0018B020251305C5CBEF40E042032985002A8469
S3151C0018C0EF10C06D8144631DA9005C448544FD175F
S3151C0018D05CC499E78146014681452285EFF0CFDA43
S3151C0018E0B240224426850249924441018280B79720
S3151C0018F0051C9386072E01479387072E214603A8AE
S3151C0019000600631708000E07BA978CC3C8C38280EB
S3151C0019100507A106E315C7FE8280B797051C9386AB
S3151C001920072E01479387072E2146CC426399A500B3
S3151C0019300E07BA9723A0070023A20700828005077B
S3151C001940A106E314C7FE8280411106C622C40DE11E
S3151C001950B706051C3706051C3795051C9386C63825
S3151C001960130646349305B07B1305C5CBEF40803771
S3151C0019702A84653722852244B24041016F3080009B
S3151C0019803797051C9306072E81471307072E2146FA
S3151C001990CC426396A5008E07BA978843828085073A
S3151C0019A0A106E397C7FE01458280011122CC2EC6F3
S3151C0019B02A8432C406CEEF70A072834744047D5736
S3151C0019C0B245E207E18722466394E700230204043A
S3151C0019D0834754047D57E207E1876394E700A3021B
S3151C0019E004042EC632C4EF7040721C5CB2452246FB
S3151C0019F089E713054402EF10003322856244F24046
S3151C001A0005616FF04FB4011106CE22CC0DE1B7066D
S3151C001A10051C3706051C3795051C9386C638130608
S3151C001A20861B930530101305C5CBEF40A02B2A84CB
S3151C001A302EC6EF70E06A3040585C1440232C04021A
S3151C001A40B307E60254C03387F600918FB6975CC481
S3151C001A50FD572302F404A302F404B24518C495E10D
S3151C001A601C4889CB13050401EF10003101C5014543
S3151C001A70EF70F029EF706069F2406244054505611C
S3151C001A80828013050401EF70E05213054402EF70C7
S3151C001A906052CDB7011106CE22CC26CA4AC80DE12A
S3151C001AA0B706051C3706051C3795051C9386065E6E
S3151C001AB01306C61C930560171305C5CBEF40802281
S3151C001AC0AA843305B5022EC6328913050505EF20F7
S3151C001AD0F0642A84B24511C985E108C02CC044DCD7
S3151C001AE0854522850D37230624052285F24062444E
S3151C001AF0D244424905618280930705051CC1F9BF82
S3151C001B0041112A868145054522C406C661372A84A9
S3151C001B1001CD23240500232005002326050081462C
S3151C001B2001468145EFF04FB62285B2402244410161
S3151C001B308280411106C622C40DE1B706051C370674
S3151C001B40051C93864660130646239305E02C3795A1
S3151C001B50051C1305C5CBEF40E0182E84637DB5002C
S3151C001B60B706051C3706051C9386466113064623D5
S3151C001B709305F02CE9BF09468145293F11C100DDBB
S3151C001B80B2402244410182802CC582802845828035
S3151C001B900345C504828018455C410841BA973385C4
S3151C001BA0A7406363E500198D8280011106CE22CC05
S3151C001BB026CA4AC84EC652C40DE2B716051C3706BD
S3151C001BC0051C938646821306467D9305404437952D
S3151C001BD0051C1305C5CBEF40E01040411C452A8966
S3151C001BE02E8AB3898740B28463733601B289330760
S3151C001BF0340163FDE700B716051C3706051C9386E2
S3151C001C00C6831306467D9305E044D1B70325890197
S3151C001C104E86D2852295EF40802763F99902832749
S3151C001C2089003386344163FDC700B716051C370689
S3151C001C30051C938646871306467D9305604541BF62
S3151C001C4003258901B3053A01EF40602483278900E7
S3151C001C5026946363F4001D8C23228900F24062449F
S3151C001C6026854249D244B249224A05618280011125
S3151C001C7022CC06CE26CA4AC84EC652C4368463E354
S3151C001C80C600328445C004411845B30997406373A6
S3151C001C903401A289328AAE872A8963723603B71643
S3151C001CA0051C3706051C9386C68A1306C67E930535
S3151C001CB000483795051C1305C5CBEF40A002B3861B
S3151C001CC03401637DD700B716051C3706051C9386A1
S3151C001CD0868C1306C67E93051048E1BF0C4D4E86B6
S3151C001CE03E85A695EF40A01A63F68902637D8A009D
S3151C001CF0B716051C3706051C938606901306C67E6A
S3151C001D00930590487DB783258901330634414E954A
S3151C001D10EF40E01783278900A29463E3F4009D8CAF
S3151C001D20232099002285F2406244D2444249B2499A
S3151C001D30224A05618280B716051C3716051C379585
S3151C001D40051C411193864691130646809305804CCB
S3151C001D501305C5CB06C6EF30F078797106D622D4AA
S3151C001D6026D24AD04ECE52CC56CA8DE1B716051C89
S3151C001D703706051C9386C695130646709305102DCB
S3151C001D803795051C1305C5CBEF30D0752A8401ED9C
S3151C001D90B716051C3706051C9386869613064670D1
S3151C001DA09305202DF1BF8344C5012E8AB2898588EF
S3151C001DB0B68A8A04A1CAEF70A0322285E93B2A8919
S3151C001DC063E5A4020145EF70C03B1C4881CFB716E2
S3151C001DD0051C3706051C93868697130646709305C5
S3151C001DE0502F79BFEF10801B08C8EF70003263EAD2
S3151C001DF02403D686014681450145EF20E01E228537
S3151C001E0023280400493B2A8963EDA4008144B2506F
S3151C001E102254268502599254F249624AD24A456195
S3151C001E20828085C0CA8626866C002285832A040089
S3151C001E303D3DB2473309994063FBF9022320540107
S3151C001E408149CA864E86D28522851535AA845DDDD2
S3151C001E50EF00B0285C4889CB48488146014681453D
S3151C001E60EF20C005232A0400EF10902A4DB7BE8927
S3151C001E70C9BF797106D622D426D24AD04ECE52CCB0
S3151C001E8056CA5AC88DE1B716051C3706051C93861B
S3151C001E90C69513060674930550363795051C13050F
S3151C001EA0C5CBEF3030642A8401EDB716051C370606
S3151C001EB0051C938686961306067493056036F1BF39
S3151C001EC08344C5012E8AB2898588B68A8A04E13183
S3151C001ED02A8963EEA4008144B250225426850259F5
S3151C001EE09254F249624AD24A424B4561828085C06D
S3151C001EF0AA8626866C002285032B04008D3BB247DE
S3151C001F003309994063F8F902232064018149CA8682
S3151C001F104E86D2852285A13BAA8455DD5C48CDDF41
S3151C001F2048485687814601468145EF003021232AC1
S3151C001F3004005DB7BE89E1BF1DE1B716051C370657
S3151C001F40051C3795051C4111938686961306066556
S3151C001F509305B0161305C5CB06C6EF30B05883479C
S3151C001F60C501898B99E36F20F02113064002814538
S3151C001F706F30D07D1DE1B716051C3706051C37953D
S3151C001F80051C4111938686961306C6759305003D5E
S3151C001F901305C5CB06C6EF30F0541C4148411D8DB8
S3151C001FA0133515008280797106D622D426D24AD0E2
S3151C001FB04ECE52CC56CA0DE1B716051C3706051C6B
S3151C001FC03795051C93868696130646669305101947
S3151C001FD01305C5CBEF3010512A8483290502EF70F7
S3151C001FE020101C480145A1E758483E8529E3044CAE
S3151C001FF0032984009305500526854A86832AC40036
S3151C002000034AC401EF3090746383A4002D33130676
S3151C002010000281452285EF307073054504CC2324CC
S3151C002020240123265401230E4401232034032AC6EB
S3151C002030EF70A00DB2502254324592540259F24907
S3151C002040624AD24A456182801DE1B716051C3706D5
S3151C002050051C3795051C41119386869613068669C1
S3151C0020609305B01D1305C5CB06C6EF30B0471C4102
S3151C002070184554413305F7007D15158D6363E5003E
S3151C002080198D8280397106DE22DC26DA4AD84ED6B4
S3151C00209052D436C68DE1B716051C3706051C938629
S3151C0020A0069B1306466D930540203795051C1305A4
S3151C0020B0C5CBEF3030432A8401EDB716051C370615
S3151C0020C0051C938686961306466D93055020F1BF14
S3151C0020D08347C5012E8A3289858B85C393094600A1
S3151C0020E0636E3601B716051C3706051C9386C69B00
S3151C0020F01306466D930500214DBFB289B24785E391
S3151C00210022859937AA844ACAA5EC8144F2506254A6
S3151C00211026854259D254B259225A216182802808F6
S3151C002120EF200003EF60D07B2285393FAA846376BB
S3151C00213035050145EF70E0045C4881CFB716051CD8
S3151C0021403706051C9386069E1306466D930590223C
S3151C002150A9BFEF00B06448C8EF60307BB24681452A
S3151C00216001460145EF1050686C00232A040028081C
S3151C002170EF20A00245D9C9D479B7EF601079E5BF25
S3151C0021808347C401858B9DEF63739900CA8426CA55
S3151C0021905246D2852285113CAA8425D92285E53A48
S3151C0021A05C44E365F5F6EF0040731C4889CB084890
S3151C0021B0814601468145EF10705023280400EF101C
S3151C0021C02075A9B7E3E334F511464C082285F13A8C
S3151C0021D0C1B7397106DE22DC26DA4AD84ED68DE125
S3151C0021E0B716051C3706051C9386069B1306866EBA
S3151C0021F09305B0263795051C1305C5CBEF30902EDD
S3151C0022002A8401EDB716051C3706051C938686968F
S3151C0022101306866E9305C026F1BF8347C501AE849F
S3151C002220B689858B328999C313094600228532C625
S3151C002230213D324632CE11E98144F2506254268544
S3151C0022404259D254B259216182808347C401858B7D
S3151C00225085EF6373C5002A8632CE7246A685228513
S3151C002260A932AA8471D922853D325C44E367F5FC08
S3151C0022701C48E1D708484E87814601468145EF0038
S3151C002280E06B2328040055BFE36825FB11466C0848
S3151C0022902285213AD9B7411106C622C40DE1B716CB
S3151C0022A0051C3706051C3795051C93868696130652
S3151C0022B046779305703E1305C5CBEF30B022034419
S3151C0022C0C5015933B24005880A043335A40022449B
S3151C0022D013451500410182801DE1B716051C370602
S3151C0022E0051C3795051C4111938686961306866B2D
S3151C0022F09305301F1305C5CB06C6EF30B01E61B85B
S3151C0023001DE1B716051C3706051C3795051C411122
S3151C00231093868696130686679305E01B1305C5CB25
S3151C00232006C6EF30301CAA8791E1854598470145C2
S3151C0023306364B700CCC705458280411106C622C41A
S3151C0023400DE1B716051C3706051C3795051C93862B
S3151C0023508696130686789305A0401305C5CBEF30E9
S3151C00236070181C492A84014591CB08482E87814642
S3151C00237001468145E123054523280400B240224439
S3151C00238041018280411106C622C40DE1B716051C07
S3151C0023903706051C3795051C938686961306C67A42
S3151C0023A0930580421305C5CBEF30D0135C492A84B4
S3151C0023B0014591CB48482E87814601468145BD2B58
S3151C0023C00545232A0400B2402244410182800111A2
S3151C0023D026CA4AC806CE22CC4EC652C48547AA84F3
S3151C0023E02E896316F6029147054A63EFA702B716B4
S3151C0023F0051C3706051C938646A1130646639305E2
S3151C002400800E3795051C1305C5CBEF30B00D014A60
S3151C00241001EDB716051C3706051C9386C6A31306C5
S3151C00242046639305E00EF1BF63FD2401B716051C38
S3151C0024303706051C938646A5130646639305000FAF
S3151C002440C9B763130900054913855402EF20004DD3
S3151C0024502A8415C9930945028504268693055005C9
S3151C0024604E85EF30B02E6383A900F130130640026F
S3151C00247081452285EF30902D232C340104C423265C
S3151C0024802401230E44012285F2406244D24442496F
S3151C002490B249224A05618280011106CE22CC26CA87
S3151C0024A00DE1B716051C3706051C93868696130682
S3151C0024B0C671930570333795051C1305C5CBEF30D4
S3151C0024C070028347C5012A84858BA1C3EFF0AFEC4C
S3151C0024D09147AA8663FFA70011466C00228504401B
S3151C0024E0EFF0EFF8324504C0F2406244D244056175
S3151C0024F0828001CDB716051C3706051C9386C6A718
S3151C0025001306C671930500357DB70145F1BF0CD185
S3151C0025108280085182800345C50105898280184145
S3151C002520AA8729CB584113068500584358C1631402
S3151C002530C700584558C1D8438328C700D8435843B9
S3151C002540D8C36314E600D847D8C3D843AE864847D9
S3151C0025501307850813038509038E06000308070065
S3151C0025606318C801630A080005078506E316E3FE1F
S3151C002570E396A8FC01458280828079715AC82A8B11
S3151C0025800325480826D24ECEB70400809319260090
S3151C0025904AD056CA2E89B28A93C4F4FF4E86930536
S3151C0025A0500A22D452CC5EC662C466C23E8A42849B
S3151C0025B006D6B68BC68C135CF701F98CEF30101956
S3151C0025C083274408F119BE9993F909FF630F090E75
S3151C0025D0CA8593078408130709018386050023808F
S3151C0025E0D7008386050089C685058507E397E5FE22
S3151C0025F0A30B0408914763F3970091442320940886
S3151C0026002322940A130584052324040AEF60D01B95
S3151C0026101305C406EF60501B154703264408B30474
S3151C0026209740D686E6851305440060D064D420DC2A
S3151C002630232C0408EF603071232C045013068042AF
S3151C0026408145230E04501305040FEF3030109307F9
S3151C002650C43D232AF40E93074444232CF40E9307FB
S3151C002660C44A232EF40E8547232CF418B737CDAB5A
S3151C0026709387E7302320F41AB7176DE69387472311
S3151C0026802322F41AB7E705009387C7EE2324F41A0E
S3151C002690AD472316F41A230F0450E2865E86DA85AC
S3151C0026A04E85EF70C02808C063040A0023208A00E8
S3151C0026B0B250225492540259F249624AD24A424BAF
S3151C0026C0B24B224C924C45618280230404081DB7F0
S3151C0026D0797122D43794051C4AD01309043226D2A8
S3151C0026E04ECEAA8483290900832749000325490065
S3151C0026F006D6238F0750130585052EC6EF6090114D
S3151C002700FD5713040432B2456391F40299CD832517
S3151C00271049002254B2509254F249130589000259B9
S3151C0027209385850545616F60900A5C40CE94A4CF65
S3151C00273063FE3401484C4C402254B2509254025908
S3151C002740F2499385850545616F60F00908504C4038
S3151C00275093858505EF6030095C5063F3F40044D023
S3151C002760B250225492540259F24945618280B716DE
S3151C002770051C3716051C3795051C41119386C6D2B8
S3151C002780130686B0930540721305C5CB06C6EF30FB
S3151C0027906055411122C42A841305050F06C6EF3065
S3151C0027A0500F8347D45199EB03254408EF20801D15
S3151C0027B022852244B24041016F20C01C0547E38993
S3151C0027C0E7FE09476383E702B716051C3716051C87
S3151C0027D085653795051C938646D3130686C993854E
S3151C0027E055F81305C5CBEF30E04FB24022444101EA
S3151C0027F0828011E5B797051C93870732C84381462B
S3151C002800014611056F60305411E5B797051C938777
S3151C0028100732C843032505088280011106CE22CC47
S3151C00282026CA4AC80DE1B716051C3716051C37956E
S3151C002830051C938686D61306C6B2930550781305D7
S3151C002840C5CBEF30204A3794051C38559307043204
S3151C002850A107AA84130404320149631AF7047C5D98
S3151C002860130584026385A704B9E35C5C9385C406DF
S3151C0028708DEF5C4003A904089385840583A707088C
S3151C0028802E852EC63339F900EF60C07803A50408DF
S3151C0028903C4013491900B24563F3A70028C0D14731
S3151C0028A03305F502130444042295EF604072F2408E
S3151C0028B062444A85D24442490561828041110545DC
S3151C0028C006C6EF60D044B797051CB2409387073203
S3151C0028D023A4070A41016F60F042B797051C938732
S3151C0028E00732D85F0507D8DF8280B797051C03A57A
S3151C0028F007328280B797051C9387073203A5C70A40
S3151C002900828015E9B797051C93870732C84305E5EE
S3151C002910B716051C3716051C85653795051C411110
S3151C002920938686D7130646B69385E5941305C5CBC1
S3151C00293006C6EF30203B130585088280011106CEA2
S3151C00294022CC26CA4AC815E1B716051C3716051C23
S3151C0029508565938606D8130686CF938505353795E8
S3151C002960051C1305C5CBEF30E0372A843A8981C68E
S3151C002970832785519CC28347C4510947230EE450C3
S3151C002980114793F7F70F6364C7043797051C1307A2
S3151C002990C7D20A063A961842028703278451D98D54
S3151C0029A0232CB45031A0032784510507232CE45053
S3151C0029B00547638FE7020545F2406244D24442490B
S3151C0029C0056182800947E39DE7FC0145F5B783262F
S3151C0029D084517D57E38EE6FCB716051C3716051C7D
S3151C0029E08565938606D9130686CF9385353985BFAB
S3151C0029F07C5C89CFB716051C3716051C8565938626
S3151C002A0006DB130686CF9385E53991BFB794051C63
S3151C002A1093870432DC5F93840432B1E79305840503
S3151C002A202E852EC6EF60005F83270408B840B2458A
S3151C002A306373F700BCC05147B387E7021385440490
S3151C002A403E95EF60C058DC400327040883A707089F
S3151C002A50E3F3E7F66305090085472320F90085475C
S3151C002A6023A8F40A89BF9305C40613858402D1BF23
S3151C002A70011106CE22CC26CA4AC815E1B716051C7A
S3151C002A803716051C8565938606D8130646D193858D
S3151C002A90053D3795051C1305C5CBEF30A02489478A
S3151C002AA00347C551230EF550832785512A84850774
S3151C002AB0232CF5508547639DE7067C5D89CFB716A9
S3151C002AC0051C3716051C8565938606DB130646D141
S3151C002AD09385653F7DBFB794051C93870432DC5FE5
S3151C002AE02E8993840432B9EB930585052E852EC653
S3151C002AF0EF60405283270408B840B2456373F70061
S3151C002B00BCC05147B387E702138544043E95EF606A
S3151C002B10004CDC400327040883A7070863FAE70078
S3151C002B206305090085472320F900854723A8F40A75
S3151C002B30F2406244D2444249056182809305C5062F
S3151C002B4013858402E9B7011122CC3794051C93071F
S3151C002B500432D85F06CE26CA4AC84EC652C456C2CE
S3151C002B605AC0631D070E03AA070013040432050A84
S3151C002B7023A0470163110A049C539C4395C3B716B3
S3151C002B80051C3716051C85653795051C938606DFBF
S3151C002B90130686BA938515AD1305C5CBEF30801485
S3151C002BA01C50584C18D05CCC8327440B8507232A11
S3151C002BB0F40AEF6040485C5081496372FA045C4039
S3151C002BC0514783A70708B387E702A297F8438547AF
S3151C002BD063F3E70085498327840B99E3EF70002490
S3151C002BE08327040B91C38549F24062444E85D24427
S3151C002BF04249B249224A924A024B05618280930A93
S3151C002C004404514B1C509C4381E7FD575CD045BF87
S3151C002C101C50DC47C447BC4CE36AFAFE1389840586
S3151C002C204A85EF60203FFC5C89C71385C406EF60AC
S3151C002C30603E03A504083C4063F3A70028C0330587
S3151C002C406503CA855695EF6080385C4003A7040867
S3151C002C5083A70708E368F7FA85496DB703A7870BAF
S3151C002C608149050723ACE70AEF70401BB5BF41112C
S3151C002C7006C622C415E1B716051C3716051C856544
S3151C002C803795051C938686E6130606BD938525C2D5
S3151C002C901305C5CBEF300005B797051C9387073284
S3151C002CA02E84CC439385C506EF60E03322852244EF
S3151C002CB0B2408545410129BC011106CE15E1B71666
S3151C002CC0051C3716051C8565938686E6130686BE87
S3151C002CD0938535C33795051C1305C5CBEF3080008E
S3151C002CE0B797051C93870732D85F09EFB716051CE3
S3151C002CF03716051C8565938646E7130686BE93859F
S3151C002D0075C3C9BFD843B7060080D58D6CD7CC43D5
S3151C002D1032C69385C506EF60802B3246F240854548
S3151C002D203285056175B2011106CE22CC15E1B716A6
S3151C002D30051C3716051C85653795051C938686E686
S3151C002D40130686C09385D5C41305C5CBEF20907991
S3151C002D50B797051C938707322E84CC4332C69385BE
S3151C002D60C506EF60C026324611C27D5422856244D8
S3151C002D70F240B2850561A9BA5C45011126CAC44751
S3151C002D8006CE22CC95E0B716051C3716051C8565A4
S3151C002D903795051C938606E9130686C29385D5C707
S3151C002DA01305C5CBEF2010749385C4062E852EC63D
S3151C002DB03794051CEF60002693070432DC5F13046E
S3151C002DC00432B2451305840285E7938584052E8556
S3151C002DD02EC6EF60202483A704083840B2456373CF
S3151C002DE0F7003CC05147B387E702130544043E95E0
S3151C002DF0EF60E01D5C4003A70408014583A7070894
S3151C002E0063F6E70085472328F40A0545F240624429
S3151C002E10D24405618280011122CC3794051C13070C
S3151C002E200432585F06CE26CA15E3B716051C37169C
S3151C002E30051C8565938606EA130646C4938545CB11
S3151C002E403795051C1305C5CBEF20D06937070080C5
S3151C002E504445D98D0CC189ECB716051C3716051CC3
S3151C002E608565938606E9130646C49385C5CBC9BFFB
S3151C002E70EF60401A938584052E852EC613040432F2
S3151C002E80EF60401983A704083840B2456373F70006
S3151C002E903CC05147B387E702130544043E95EF60D7
S3151C002EA000135C4003A7040883A7070863F5E70023
S3151C002EB085472328F40AF2406244D2440561828085
S3151C002EC0411122C43794051C93070432D85F06C6E9
S3151C002ED001CB054723A8E70AB24022444101828060
S3151C002EE0130404322328040A5C4037A7A5A513073C
S3151C002EF0575A83A747089043631BE600D44363983D
S3151C002F00C60098476315D700DC476388E70048402E
S3151C002F104C4093858508EF60906F3C40D1453387C4
S3151C002F20B702B306E400F04205CAB0461387C604CE
S3151C002F305042B0C66314E6005842B8C651473387A0
S3151C002F40E70222973847584758C03CC05C409387D5
S3151C002F50070F23A0F11A49B795E3B716051C3716B8
S3151C002F60051C85653795051C938606ED1306C6BBA1
S3151C002F70938595C01305C5CBEF20D056FD1745B7D5
S3151C002F80B797051C93870732D843D443685783A643
S3151C002F900608D8439547958F7CD78280B797051C22
S3151C002FA093870732C8438280B797051C93870732DD
S3151C002FB0054723A8E70A8280B797051C9387073223
S3151C002FC003A7870A054509C7C85F133515000605FB
S3151C002FD082805DC1011126CAB794051C1387043271
S3151C002FE054438327050806CE83A6060822CC938461
S3151C002FF0043263FBD706785563480700D8408326FE
S3151C00300007081547158F78D5D146B387D70213877E
S3151C0030104404BA9738556313F704930585052A8427
S3151C0030202E852EC6EF50107FDC40B24503A507083F
S3151C003030BC402320A40863F3A700A8C0D1473305CE
S3151C003040F502B797051C938747363E95EF503078A7
S3151C0030500545F2406244D24405618280DC4083A768
S3151C00306007082320F508EDB75C430325450A83A70B
S3151C00307007083335F500F1BF0145828009E9014592
S3151C00308082800145F2406244D2440561828001116E
S3151C00309026CAB794051C9387043222CCC04306CE9D
S3151C0030A0938404326303A402B716051C3716051C49
S3151C0030B085653795051C938606EE130686CA938589
S3151C0030C0B5031305C5CBEF20F0418327840A95E38E
S3151C0030D0B716051C3716051C85653795051C938682
S3151C0030E086EF130686CA9385C5031305C5CBEF2049
S3151C0030F0703F832604080327440AFD172324F40A79
S3151C003100E381E6F8BDFF930584052E852EC6EF5098
S3151C00311070700325440A9547B245898F7CD4BC4000
S3151C0031202320A40863F3A700A8C0D1473305F502E2
S3151C003130938444042695EF5090690545A1B775C143
S3151C0031408326850A011122CC06CE26CA2A8495E23C
S3151C003150B716051C3716051C85653795051C938601
S3151C00316086EF130606CC9385A5081305C5CBEF2061
S3151C00317070378327450A63F3B700AE870327040815
S3151C003180630CF70805466399C608B794051C938615
S3151C0031900432D4429384043263938602B716051C08
S3151C0031A03716051C85653795051C938606F113068F
S3151C0031B006CC9385550A1305C5CBEF20B032745443
S3151C0031C02320F40863C606009546B387F6407CD4D4
S3151C0031D0D1463307D702938744043E973C54639DDC
S3151C0031E0E702930584052E852EC6EF50B062032593
S3151C0031F00408BC40B24563F3A700A8C0D1473305F9
S3151C003200F5026244F240D244B797051C93874736B1
S3151C00321005613E956F50B05BF2406244D244056135
S3151C0032208280828001C50325050A82800145828031
S3151C00323019C12320B50A8280B797051C138707324C
S3151C00324058439387073219C7D44303A7860A050731
S3151C00325023A4E60AC8438280B797051C93870732C6
S3151C00326003A7470B9C4318C15CC18280011122CC69
S3151C00327026CA52C4AA843794051C06CE4AC84EC612
S3151C003280EF5010669307043203A7C70A3795051C2F
S3151C00329013040432050723A6E70ADC43130A453642
S3151C0032A0E1E344C00327C40A85476310F7061305E8
S3151C0032B04536EF50305013058405EF50B04F1305BB
S3151C0032C0C406EF50304F13050408EF50B04E1305DB
S3151C0032D04409EF50304E9309C40B4E85EF50904D68
S3151C0032E01309040D4A85EF50F04C13058402EF5068
S3151C0032F0704C1305440EEF50F04B13058400EF5031
S3151C003300704B23203403232E24018327840F03A50B
S3151C00331004088507232CF40E23AEF4083C4063F303
S3151C003320A70028C0D1473305F5029385840552951D
S3151C003330EF50F049EF50705D8327840A95CF5C40AF
S3151C00334003A7070883A704086378F7026244F240C0
S3151C003350D2444249B249224A014505616F60201B8D
S3151C0033608327840ADDF35C4003A7070883A70408A8
S3151C003370E3EDE7F844C051BFF2406244D2444249EF
S3151C003380B249224A0561828079714AD02A8913156D
S3151C00339026004ECE52CC56CA5AC85EC606D622D473
S3151C0033A026D22E8AB289B68A3A8BBE8BEF1000576C
S3151C0033B031CDAA8413050052EF1040562A842A8E5A
S3151C0033C039C11306C50A23229508A30E0550854547
S3151C0033D04A85EF50705E81482288DE875A87D686DA
S3151C0033E04E86D2854A85EFF04F9922854135054593
S3151C0033F0B250225492540259F249624AD24A424B62
S3151C003400B24B456182802685EF10C0577D55CDB7DE
S3151C003410411122C43794051C13040432B715051C2C
S3151C0034203795001C9307C40F370700808146130687
S3151C003430800C938585F21305A51326C24AC006C6C1
S3151C00344005499937AA84631B2503EF108019AA84A2
S3151C00345063162503EF60A00B5C40B2409387070FF1
S3151C00346023A0F11AFD575CD02324940A23200400C0
S3151C00347022449244024941016F60A004FD576393A4
S3151C003480F402B716051C3716051C85653795051CF1
S3151C003490938606F3130606B49385B5831305C5CB2D
S3151C0034A0EF205004B24022449244024941018280DA
S3151C0034B05849011106CE22CC26CA0DE3B716051CA7
S3151C0034C03716051C3795051C938646F4130646A924
S3151C0034D09305502B1305C5CBEF20D0002A8413056A
S3151C0034E000522EC6EF108043AA842A8E7D55B24701
S3151C0034F08DC4584893088401268823A2E4080547EE
S3151C003500A38EE45018485444035684004C4008408B
S3151C003510EFF0AF862685993B0545F2406244D244BE
S3151C00352005618280411122C426C23794051CAA84D7
S3151C00353006C64AC013040432EF50903A91E0444048
S3151C003540138984054A85EF50F02CFC5C89C71385CA
S3151C003550C406EF50302C8327840F8507232CF40ECA
S3151C0035605C4063969704CA851305440EEF503026BB
S3151C0035708327041085072320F410EF501039832766
S3151C003580840AA9CB5C40639797045C5C85CFB7160D
S3151C003590051C3716051C3795051C938686F61306DF
S3151C0035A0C6AA9305804E1305C5CBEF20A0738327AF
S3151C0035B0C40A2685FD172326F40AEFF08F9DEF50CB
S3151C0035C0902765BF2244B2409244024901454101FD
S3151C0035D06F50F073B24022449244024941018280EA
S3151C0035E001112AC606CEEF50B02F324511E5B7970A
S3151C0035F0051C93870732C843032505082AC6EF50C6
S3151C003600D030F240324505618280011106CE22CCB3
S3151C00361026CA4AC84EC652C40DE1B716051C371633
S3151C003620051C3795051C938686D7130646AD930550
S3151C003630E0571305C5CBEF20E06A3794051C13042D
S3151C003640043258402A890145630E2703EF5050293E
S3151C003650032A0402832489068329C401EF50F02A15
S3151C003660094563814403638F340193078400639384
S3151C003670F4020327C90719E70347C9518546638323
S3151C003680E6000D45F2406244D2444249B249224A00
S3151C003690056182801304440E1145E38584FEFDD02A
S3151C0036A00545CDB7011106CE22CC26CA4AC891477C
S3151C0036B063F2B702B716051C3716051C3795051C91
S3151C0036C0938646F8130646AE930580611305C5CB53
S3151C0036D0EF2040612EC62A84EF509020B24511E49B
S3151C0036E0B797051C93870732C0430327440A638A8E
S3151C0036F0E5083799051C13090932637BB70883272C
S3151C00370049008144638A87008327490083A40708EC
S3151C003710B3B4950093C41400832704086314F700FC
S3151C0037202320B40878542322B40A6346070015479D
S3151C003730B305B7406CD4D146B387D70213074904E7
S3151C003740BA973854631BF702930584052E852EC63B
S3151C003750EF50500C0325040883270904B24563F473
S3151C003760A7002320A904D1473305F502B797051CEA
S3151C003770938747363E95EF50900581C40145EF501F
S3151C00378010596244F240D244424905616F50F01709
S3151C00379083244900818C93B41400BDBF411122C4FB
S3151C0037A026C23794051CAA8406C64AC013040432D2
S3151C0037B0EF50101391E04440138984054A85EF505D
S3151C0037C07005FC5C89C71385C406EF50B004CA8516
S3151C0037D013058400EF50A07F83C7C45105476314AB
S3151C0037E0F700238E0450EF5050128327840A99C782
S3151C0037F0EF50100FEF503004EF5030115C406396C1
S3151C00380097048327840A9DCB5C5C8DC3B716051C65
S3151C0038103716051C3795051C938686F6130686AF48
S3151C0038209305A06F1305C5CBEF20C04B2244B240B5
S3151C00383092440249014541016F50704D184483273B
S3151C003840C40A631AF70023220400B240224492449D
S3151C0038500249410182802244B240924402494101FC
S3151C0038606FF00FE6011106CE22CC26CA0DE1B71663
S3151C003870051C3716051C3795051C938686D613061C
S3151C00388006B29305E0741305C5CBEF20A04537940B
S3151C003890051C93070432DC43AA8413040432638494
S3151C0038A0A706EF50F003B854930784006317F70478
S3151C0038B0FC5C130784026382E704A1E393858405F9
S3151C0038C02E852EC6EF50007583A704083840B245D6
S3151C0038D06373F7003CC05147B387E70213054404E2
S3151C0038E03E95EF50C06E5C4003A7040883A70708EB
S3151C0038F06365F7000145EF5090416244F240D244A3
S3151C00390005616F509000F2406244D244056182808A
S3151C003910797122D43794051C93070432DC5F06D6D2
S3151C00392026D24AD04ECE52CC95E3B716051C371676
S3151C003930051C85653795051C938606FA130646B540
S3151C0039409385A58A1305C5CBEF20C0391304043211
S3151C003950EF5000795C5CFD175CDC5C5C91CF01452B
S3151C0039602AC6EF50807AB2502254324592540259DC
S3151C003970F249624A456182808327C40A8144E5D3A1
S3151C00398013094404D149054A1C548DEB99C0EF50C8
S3151C003990806A8324840B99C80549EFF0CF9A19C114
S3151C0039A02328240BFD14F5F8232C040A8327040B67
S3151C0039B0DDD70145EF50B03505455DB75C58C447AA
S3151C0039C01385C406EF500065938584052E852EC687
S3151C0039D0EF50406403A504083C40B24563F3A700BE
S3151C0039E028C0330535034A95EF50605E5C4003A73B
S3151C0039F0040883A70708E369F7F82328440B69B76B
S3151C003A0001E9014521A0F240014505616F503030A6
S3151C003A10B797051C93870732DC5F011106CE8DC351
S3151C003A20B716051C3716051C3795051C938686F696
S3151C003A30130686AC930520551305C5CBEF20802AAB
S3151C003A402AC6EFE09FE932458145EFE07FC8C935BC
S3151C003A505DD9F24005618280011106CE22CC26CAB0
S3151C003A600DE1B716051C3716051C938686FB130637
S3151C003A7086AB9305C04F3795051C1305C5CBEF20A8
S3151C003A80602681EDB716051C3716051C9386C6FCE9
S3151C003A90130686AB9305D04FF9BFB794051C9384C8
S3151C003AA00432DC5C81CFB716051C3716051C9386C1
S3151C003AB086F6130686AB9305E04F75BF2A842EC681
S3151C003AC0EFE0BFE11840B2458840B307B7001CC001
S3151C003AD0637CE50063ECE700253D0DE16244F240A2
S3151C003AE0D24405616F50B02263E4E700E376F5FE2D
S3151C003AF081453385A740EFE0BFBDF9BFF240624464
S3151C003B00D24405618280411122C426C24AC006C61F
S3151C003B102E843289AA8411E5B797051C9387073230
S3151C003B20C443938784085CC083A7040804C01CC8CC
S3151C003B3083A744085CCC83A7C4091CC483A7440A76
S3151C003B40232C04005CC89547638DF604B797051CA7
S3151C003B5093870732DC43639A970223260400630883
S3151C003B60090483A644081306500A368783450700B2
S3151C003B70B307D740638BC50289832310F402B24076
S3151C003B802244924402494101828054C48D47E398E1
S3151C003B90F6FCEFE09FD4FC5C99C389475CC48D3B63
S3151C003BA07DBF26859D3448C45DBF0507C1B723105C
S3151C003BB00402F1B79C41797126D206D622D44AD08A
S3151C003BC04ECE52CC56CA5AC85EC68144B9C7DC41D1
S3151C003BD0938A8500DC43DCC163945701DC45DCC158
S3151C003BE0DC41B2892E8403ABC7002A898144930B1E
S3151C003BF040025C40DC435CC06394FA005C445CC0DD
S3151C003C00B38574035C40CE86054603AAC7008504AB
S3151C003C105285CA95CD3DE31E4BFDB25022542685D6
S3151C003C2002599254F249624AD24A424BB24B4561FE
S3151C003C30828001114AC806CE22CC26CA4EC652C460
S3151C003C4056C22A89EF204068BD4763F3A702B71600
S3151C003C50051C3716051C85653795051C938646FE7F
S3151C003C60130646B79385659B1305C5CBEF208007C6
S3151C003C70B794051C93840432EFE03FC68149938AAE
S3151C003C804409130AC0F9CA8533853A01EFE03F8916
S3151C003C902A840DEDB119E39849FF8850CA85EFE0D7
S3151C003CA01F882A8405E5C84CCA85EFE05F872A84ED
S3151C003CB011EDCA8513858400EFE07F862A8419E5F9
S3151C003CC0CA851385440EEFE09F852A84913122858F
S3151C003CD0F2406244D2444249B249224A924A0561A0
S3151C003CE08280397122DC26DA52D456D22EC606DEE2
S3151C003CF04AD84ED65AD05ECE2A8AB28AB794051CAA
S3151C003D00EFE0BFBD9387043283A7C70AB2450144BF
S3151C003D1063E9F5069384043281490144938B440973
S3151C003D2013094002130BC0F933052403B3853B0169
S3151C003D300546B1195295BD3D2A94E39769FF330593
S3151C003D4024038C5009465295B5352A943305240311
S3151C003D50CC4C09465295B93D2A9433052403114689
S3151C003D609385440E5295B9352A94330524030D4682
S3151C003D709385840052953D3D2A9463840A0023A0B2
S3151C003D800A0079362285F2506254D2544259B259ED
S3151C003D90225A925A025BF24B21618280011122CC7B
S3151C003DA03794051C130404325C5C06CE95C3B71607
S3151C003DB0051C3716051C85653795051C938686F6E6
S3151C003DC0130646B89385F5A51305C5CBEF10907160
S3151C003DD02AC6EFE09FB08327840B3245F2403E95FE
S3151C003DE0232CA40A6244056125B6411106C622C4C9
S3151C003DF026C24AC015E1B716051C3716051C856573
S3151C003E003795051C938686D7130686B9938525A7F1
S3151C003E101305C5CBEF10106D2A84EFE01FAC22856D
S3151C003E20EFF0AFFE894701496313F50613098405B4
S3151C003E304A85EF50201EEF50A02A7C5C81CB1305CF
S3151C003E40C406EF50201D8547230FF450EF50E02B7E
S3151C003E50B794051C138704328327040838439384BC
S3151C003E6004326373F700BCC05147B387E70213855E
S3151C003E704404CA8505493E95EF506015DC4003276E
S3151C003E80040883A7070863F4E70023A8240B493416
S3151C003E90B24022444A859244024941018280011162
S3151C003EA006CEEF50E023B797051C03A507322AC69A
S3151C003EB0EF50A025F240324505618280011106CEE5
S3151C003EC022CC26CA15E1B716051C3716051C8565B6
S3151C003ED0938606D8130646CE9385D52D3795051C95
S3151C003EE01305C5CBEF10106032C636C42A84AE84C7
S3151C003EF0EF50001FA246324681C6832784519CC2BE
S3151C003F008347C4510947230EE450114793F7F70F13
S3151C003F106367C7043797051C130707D40A063A9626
S3151C003F201842028783258451CD8C232C945031A0B2
S3151C003F30032784510507232CE45005476382E704B5
S3151C003F4005452AC6EF50601CF24062443245D244F5
S3151C003F50056182800947E39AE7FC0145DDB78326A4
S3151C003F6084517D57E38BE6FCB716051C3716051CDA
S3151C003F708565938606D9130646CE9385E530B9BF6B
S3151C003F80930584052E852EC6B794051CEF50800814
S3151C003F901387043283270408384393840432B245BA
S3151C003FA06373F700BCC05147B387E702138544040B
S3151C003FB03E95EF50C0017C5C89CFB716051C3716A1
S3151C003FC0051C8565938606DB130646CE9385D5317F
S3151C003FD031B7DC400327040883A70708E3F2E7F69A
S3151C003FE00145EF50C052A9BF797122D426D24AD0BE
S3151C003FF04ECE36C63794051C06D62A89AE84B2899F
S3151C004000EF50000E93070432DC43094713040432B5
S3151C00401083C7C751B2466307F7025C401349F9FFD1
S3151C004020054703A587513379A90023AC27515C406A
S3151C004030238EE75081CA36858545EFE06FE9014539
S3151C004040EF50E04CEF50600CEF508009638709007D
S3151C0040505C4083A7875123A0F9005C4009470145B2
S3151C00406083C7C751631BF7005C4093C4F4FF054527
S3151C00407003A78751F98C23AC97505C40238E0750BD
S3151C0040802AC6EF508008B250225432459254025927
S3151C004090F24945618280011122CC26CA3794051C3F
S3151C0040A0AA8406CE2EC6EF50A00393070432DC4327
S3151C0040B013040432324583A7875181EF5C400547C0
S3151C0040C0238EE75019C58545EFE08FE00145EF507B
S3151C0040D00044EF508003EF50A0005C4003A58751BD
S3151C0040E009C55C4099CC23AC07505C40238E075015
S3151C0040F02AC6EF508001F24062443245D244056123
S3151C00410082801307F5FF23ACE750C5B7011122CCFB
S3151C00411026CA06CEB794051C938404322A8411E160
S3151C004120C0402EC6EF40D07BDC40B24503A587516C
S3151C0041308327845193C5F5FFFD8D232CB4502AC6C5
S3151C004140EF40B07CF24062443245D2440561828025
S3151C004150011106CE15E1B716051C3716051C85651B
S3151C0041603795051C93868600130686C6938505CE51
S3151C0041701305C5CBEF1010372AC6EF407076B797DC
S3151C004180051C93870732324503A7470B9C43F24015
S3151C00419018C15CC105616F405077011106CE22CC57
S3151C0041A015E1B716051C3716051C85659386860012
S3151C0041B0130606C8938565CF3795051C1305C5CB15
S3151C0041C0EF10503289EDB716051C3716051C856590
S3151C0041D093864601130606C8938575CFF1BF2AC67A
S3151C0041E02EC4EF40F06FB797051C93870732944394
S3151C0041F0D8433245A2450347E75111C7DC43238FF9
S3151C004200075005440DA898417D5601446305C70215
S3151C00421083A7470B0328050050416305F800054496
S3151C00422063FBC600B387C64063FEE7001D8F98C1BB
S3151C004230EFF08F820144EF40506D2285F2406244BC
S3151C0042400561828023A005006DBF411122C43794ED
S3151C004250051C06C626C24AC013044442EF405068D9
S3151C0042601C409DEB130944004A85EF40B05493044F
S3151C00427084012685EF4010540146C145114523266D
S3151C004280240304D8EFD01F8108C019C5B715051C17
S3151C00429093858518EFD0AFE52244B240924402497B
S3151C0042A041016F409066411106C64CC108C9AA87D8
S3151C0042B06363B602184D158E0545637BE600938530
S3151C0042C04700B797051C03A54745EF40D05101454C
S3151C0042D0B240410182806375D6000545E3FAD5FEDE
S3151C0042E093854700B797051C03A50745F9BF011120
S3151C0042F056C2AA8A1305C00222CC26CA4AC84EC672
S3151C00430052C406CEAE843289368ABA89012D2A84D5
S3151C00431021C9230405028DE0B716051C3716051C9A
S3151C0043203795051C938606191306C6039305501666
S3151C0043301305C5CBEF10101B093F130544002320A2
S3151C004340540104CC232E440123203403EF40D047D0
S3151C004350630809008347840293E747002304F40299
S3151C0043602285F2406244D2444249B249224A924AC8
S3151C00437005618280011106CE0DE1B716051C3716A4
S3151C004380051C3795051C9386C61A130686149305B9
S3151C004390E03F1305C5CBEF10F0142AC6EF4050546E
S3151C0043A03245484D2AC6EF405056F240324505610B
S3151C0043B08280011106CE0DE1B716051C3716051CA9
S3151C0043C03795051C9386C61A1306C6159305E04039
S3151C0043D01305C5CBEF1010112AC62EC4EF40505042
S3151C0043E03245A245F2404CCD05616F401052011179
S3151C0043F006CE0DE1B716051C3716051C3795051C90
S3151C0044009386C61A130646139305503E1305C5CB51
S3151C004410EF10500D2AC6EF40B04C324503458502BD
S3151C00442005892AC6EF40704EF240324505618280EE
S3151C004430B797051C03A587451DE1B716051C37163E
S3151C004440051C3795051C41119386461B1306C6068B
S3151C0044509305C01A1305C5CB06C6EF10B00882809B
S3151C0044600111B68732C63E86B797051C2AC203A51C
S3151C00447047422EC479578A85814606CE3AC0EFC07C
S3151C004480DFF0F24005618280B797051C83A747427F
S3151C004490011106CE8DE3B716051C3716051C37957C
S3151C0044A0051C9386861D130606179305A043130544
S3151C0044B0C5CBEF1030033687FD5636C02AC22EC434
S3151C0044C032C68A8581463A863E85EFC0FF9BF240FE
S3151C0044D0056182801DE1B716051C3716051C37952C
S3151C0044E0051C41119386C61A1306C60D9305601F3B
S3151C0044F01305C5CB06C6EF10E07E0841828001116C
S3151C00450006CE0DE1B716051C3716051C3795051C7E
S3151C0045109386C61A1306C6099305E01B1305C5CB5D
S3151C004520EF10407C2AC62EC4EF40903B3245A24574
S3151C0045308347850289C993E747002304F502F240A5
S3151C00454005616F40903CED9BCDBF011106CE0DE180
S3151C004550B716051C3716051C3795051C9386C61AF7
S3151C0045601306060B9305301D1305C5CBEF1080777C
S3151C0045702AC6EF40F0363245034585020981058976
S3151C0045802AC6EF409038F2403245056182801DE113
S3151C004590B716051C3716051C3795051C4111938645
S3151C0045A0C61A1306C6089305501B1305C5CB06C6AB
S3151C0045B0EF104073084D82801DE1B716051C371697
S3151C0045C0051C3795051C41119386C61A1306860CC5
S3151C0045D09305C01E1305C5CB06C6EF10A070484137
S3151C0045E08280411106C69531B797051C93874742B1
S3151C0045F098430DE3B716051C3716051C3795051C85
S3151C0046009386461E13064602930530111305C5CB29
S3151C004610EF10406D37070080B715051C3745001C89
S3151C00462093874703110781461306800C9385C51E85
S3151C00463013054574EFE05FD555DDB240410182801C
S3151C004640797106D622D40DE1B716051C3716051C42
S3151C0046503795051C9386C61A13064605930520181E
S3151C0046601305C5CBEF1000683794051C1304444290
S3151C0046701C402A88014595C7B6882EC832CA42CC2A
S3151C004680954663C4B6023AC6EFE01F933247894784
S3151C00469081463A866303F500014608400C08EFC0C4
S3151C0046A0AFFEB250225445618280814646860C0874
S3151C0046B03E85EFC09FCDF5B7011126CAB794051CE0
S3151C0046C006CE22CC93844442DC54984309EB98587A
S3151C0046D0F2406244D8D49CD8D24405618280DC471F
S3151C0046E0C0479043930544002E852EC632C4EF4026
S3151C0046F070121C502285829783478402B24522463B
S3151C004700918BF9D31C4CB2976378F600C8545CC0E5
S3151C00471000C8EF40500D4DBF01478146814522859B
S3151C00472005375DF1B716051C3716051C3795051C94
S3151C0047309386461F130606129305D0391305C5CB5F
S3151C004740EF10405A397126DA52D4B794051C379AA1
S3151C004750051C56D206DE22DC4AD84ED69384444229
S3151C004760A54A130A4AD5DC54984315CFDC470144A5
S3151C00477083A90700EFE06F96EFF06FF29C5C2A8925
S3151C0047806366F50288DC41C09C58904313361600BC
S3151C0047908840B3852941EFD04FA1EFF06F9701ED0B
S3151C0047A0EF40F05609A805448149E9B7313723ACD7
S3151C0047B02403EFF0EF95884001460C08EFC07FA05C
S3151C0047C05DD1C24763D60700F2456245D247829740
S3151C0047D0C247E3C207FE62445C4889C7130544000E
S3151C0047E0EF405003EFF0AFEB9C5C2A866375F50037
S3151C0047F02AC6D9353246C24790DCE3EEFAFA8A0756
S3151C004800D2979C4382870146E36435F9EFF04F90BB
S3151C004810DC54DC47C04713054400EF40A07F8347A8
S3151C004820840213F747001DCF0C4CCE864A86CE95C4
S3151C0048302285953C1DC9014781464E8681452285A8
S3151C004840013505E5B716051C3716051C9386461F4C
S3151C0048501306C60E930510213795051C1305C5CBEB
S3151C004860EF104048F99B2304F4021C5022858297C2
S3151C00487099B7834784020C4CD24693E7170023044E
S3151C004880F402B69522850534E30705F21C502285F1
S3151C004890829783478402918BE38F07F01C4C524608
S3151C0048A0014781463E9681452285593BE31505F015
S3151C0048B0B716051C3716051C9386461F130646108D
S3151C0048C09305C03251BF83478402F99B2304F4022B
S3151C0048D0DDB583478402D24593E717002304F4020F
S3151C0048E00CCC81EDB716051C3716051C9386C61F06
S3151C0048F0130646109305403485B7B286B2952285B9
S3151C0049005D3255BD8347840213F727005DFF228560
S3151C004910952855B54CD1828048518280411122C4BC
S3151C00492006C626C29377F5002A8481C7137405FF31
S3151C0049304104EFD09FFA03A7C11E9387C11E19E736
S3151C00494037A7051C13070701419B98C31387011F33
S3151C004950144311663D16369463788600EFE05FFBC0
S3151C004960EF502049814409A8E3FA86FE844300C31C
S3151C004970B694EFE0FFF9EDD4B2402244268592446A
S3151C004980410182801DC1B716051C3716051C3795BB
S3151C004990051C4111938606301306462F93051008F5
S3151C0049A01305C5CB06C6EF10E033828023A8011E73
S3151C0049B0828003A5011F9167C1173385A74082809A
S3151C00500097510500938101C817A10500130181BFA3
S3151C00501017B5FFFF1305057F731055309752050012
S3151C005020938242E117530500130383ED23A002006C
S3151C0050309102E3ED62FE171500001305C5D1EF00C2
S3151C005040B04EEF00B059EF806074EF4050790245C6
S3151C0050504C000146EF4010566F00D04D8280000078
S3151C005060000000000000000000000000000000001E
S3151C005070000000000000000000000000000000000E
S3151C00508000000000000000000000000000000000FE
S3151C00509000000000000000000000000000000000EE
S3151C0050A000000000000000000000000000000000DE
S3151C0050B000000000000000000000000000000000CE
S3151C0050C000000000000000000000000000000000BE
S3151C0050D000000000000000000000000000000000AE
S3151C0050E0000000000000000000000000000000009E
S3151C0050F0000000000000000000000000000000008E
S3151C00510073900234F322203463C4021A93F2F23FE2
S3151C005110E11263C50200F11263CC020AF3220034C9
S3151C00512073100134174105000321C133130181F7A4
S3151C00513006C20EC612C816CA1ACC1ECE22D026D23B
S3151C0051402AD42ED632D836DA3ADC3EDEC2C0C6C2E5
S3151C005150CAC4CEC6D2C8D6CADACCDECEE2D0E6D215
S3151C005160EAD4EED6F2D8F6DAFADCFEDE7327103471
S3151C005170F32700303AC13EC3F392023416C4EF4003
S3151C005180F03D8A421A4373901234731003309240D6
S3151C005190B2414242D2426243F243025492542255D5
S3151C0051A0B2554256D2566257F25706489648264979
S3151C0051B0B649464AD64A664BF64B065C965C265D55
S3151C0051C0B65D465ED65E665FF65F22417300203092
S3151C0051D0914263C4A206970200009382E2000A056C
S3151C0051E0AA9282826F0080056F0000016F00600129
S3151C0051F06F00C0016F006002130500087330053094
S3151C00520025A0130500087320053039A83725000092
S3151C005210130505807320053001A8372500001305EA
S3151C00522005807330053009A0F32210349102739067
S3151C0052301234F32200347300203039A2F3220034D6
S3151C005240130181F706C20EC612C816CA1ACC1ECE88
S3151C00525022D026D22AD42ED632D836DA3ADC3EDEF4
S3151C005260C2C0C6C2CAC4CEC6D2C8D6CADACCDECE64
S3151C005270E2D0E6D2EAD4EED6F2D8F6DAFADCFEDED4
S3151C00528073271034F32700303AC13EC393024700FC
S3151C00529016C19302810816C4174405000324C408CA
S3151C0052A0232024008A84174105000321A11B75A015
S3151C0052B0F3220034130181F706C20EC612C816CAA1
S3151C0052C01ACC1ECE22D026D22AD42ED632D836DAE4
S3151C0052D03ADC3EDEC2C0C6C2CAC4CEC6D2C8D6CA14
S3151C0052E0DACCDECEE2D0E6D2EAD4EED6F2D8F6DAC4
S3151C0052F0FADCFEDE73271034F32700303AC13EC3B6
S3151C0053009302810816C4174405000324E4012320D4
S3151C00531024008A84174105000321C114F323203479
S3151C00532093F3F33F1303700063986300EFD0BF81C0
S3151C00533011C125A0268125A817410500032181122C
S3151C005340EF40D021268125A0F3222034732310346C
S3151C005350F323003073005010C5BFEFD07FB617443F
S3151C0053600500032464FC03210400EF4000041744D9
S3151C0053700500032464FB1A45EF40605917440500D9
S3151C005380032484FA2243232064008A421A4373901E
S3151C0053901234731003309240B2414242D2426243ED
S3151C0053A0F243025492542255B2554256D256625773
S3151C0053B0F257064896482649B649464AD64A664B87
S3151C0053C0F64B065C965C265DB65D465ED65E665FF3
S3151C0053D0F65F22417300203013000000130000000A
S3151C0053E0130000001300000013000000130000004F
S3151C0053F0130000001300000013000000130000003F
S3151C00540073100134174105000321C1051301010066
S3151C00541013018108130181F706C20EC612C816CAEB
S3151C0054201ACC1ECE22D026D22AD42ED632D836DA82
S3151C0054303ADC3EDEC2C0C6C2CAC4CEC6D2C8D6CAB2
S3151C005440DACCDECEE2D0E6D2EAD4EED6F2D8F6DA62
S3151C005450FADCFEDE73271034F32700303AC13EC354
S3151C005460F392023416C406C29743050083A3C3EB0A
S3151C00547003A103001A45EF408049EF301073974390
S3151C005480050083A363EA03A103009743050083A3D6
S3151C005490A3E9224323A06300B7120000938202886B
S3151C0054A073A042308A421A4373901234731003302D
S3151C0054B09240B2414242D2426243F2430254925457
S3151C0054C02255B2554256D2566257F257064896484E
S3151C0054D02649B649464AD64A664BF64B065C965C46
S3151C0054E0265DB65D465ED65E665FF65F8A402241E5
S3151C0054F0730020301300000013000000130000008E
S3151C005500930385F723A2030023A4A30023A6330039
S3151C00551023A8430023AA030023AC030023AE0300E5
S3151C00552023A0030223A2030223A4C30223A603026D
S3151C00553023A8030223AA030223AC030223AE0302FD
S3151C00554023A0030423A2030423A4030423A6030405
S3151C00555023A8030423AA030423AC030423AE0304D5
S3151C00556023A0030623A2030623A4030623A60306DD
S3151C00557023A8030623AA030623AC030623AE0306AD
S3151C00558023A0B30823A2D30893020000638702005A
S3151C005590F11323A00300FD12D5BF1E8582801300C4
S3151C0055A0000013000000130000001300000013008D
S3151C0055B0000013000000130000001300000013007D
S3151C0055C0000013000000130000001300000013006D
S3151C0055D0000013000000130000001300000013005D
S3151C0055E0000013000000130000001300000013004D
S3151C0055F0000013000000130000001300000001004F
S3151C00560017410500032101E68A421A43739012349E
S3151C005610731003309240B2414242D2426243F2437B
S3151C005620025492542255B2554256D2566257F257DC
S3151C005630064896482649B649464AD64A664BF64B0C
S3151C005640065C965C265DB65D465ED65E665FF65F5C
S3151C005650224182801300000013000000130000008A
S3151C00566013000000130000001300000013000000CC
S3151C00567013000000130000001300000013000000BC
S3151C00568013000000130000001300000013000000AC
S3151C005690130000001300000013000000130000009C
S3151C0056A0130000001300000013000000130000008C
S3151C0056B0130000001300000013000000130000007C
S3151C0056C0130000001300000013000000130000006C
S3151C0056D0130000001300000013000000130000005C
S3151C0056E0130000001300000013000000130000004C
S3151C0056F0130000001300000013000000130000003C
S3151C00570083220500638202021303800893030300AD
S3151C00571063EC630063EA620033836240137303FF26
S3151C005720232065001A8511A0014582800000000017
S3151C0057300000000000000000000000000000000047
S3151C005740000000000000000000000000011122CE35
S3151C00575000102326A4FE2324B4FE19A88327C4FE06
S3151C00576085072326F4FE832784FE85072324F4FE5F
S3151C0057708327C4FE03C70700832784FE83C707004D
S3151C0057806317F7008327C4FE83C70700E1FB832743
S3151C005790C4FE83C707003E87832784FE83C7070092
S3151C0057A0B307F7403E85724405618280011122CE03
S3151C0057B000102326A4FE2324B4FE2322C4FE05A027
S3151C0057C08327C4FE85072326F4FE832784FE8507CC
S3151C0057D02324F4FE832744FEFD172322F4FE83278D
S3151C0057E044FE85C38327C4FE03C70700832784FEA4
S3151C0057F083C707006317F7008327C4FE83C7070008
S3151C005800E1F3832744FE99E3814721A88327C4FE3D
S3151C00581083C707003E87832784FE83C70700B30719
S3151C005820F7403E85724405618280797122D6001844
S3151C005830232EA4FC232604FE19A88327C4FE850751
S3151C0058402326F4FE8327C4FD8507232EF4FC832719
S3151C005850C4FD83C70700F5F38327C4FE3E85325477
S3151C00586045618280797122D60018232EA4FC232C34
S3151C005870B4FC232604FE19A88327C4FE8507232609
S3151C005880F4FE8327C4FD8507232EF4FC8327C4FD61
S3151C00589083C7070099C70327C4FE832784FDE36DCE
S3151C0058A0F7FC8327C4FE3E8532544561828079719C
S3151C0058B022D60018232EA4FC232CB4FC8327C4FD5B
S3151C0058C02326F4FE0DA0032784FD93071700232C23
S3151C0058D0F4FC8327C4FD93861700232ED4FC0347B0
S3151C0058E007002380E700832784FD83C70700E1FFA9
S3151C0058F08327C4FE3E85325445618280797122D647
S3151C0059000018232EA4FC232CB4FC232AC4FC8327B6
S3151C005910C4FD2326F4FE0DA0032784FD9307170060
S3151C005920232CF4FC8327C4FD93861700232ED4FC5A
S3151C005930034707002380E700832744FD1387F7FFEF
S3151C005940232AE4FC91C7832784FD83C70700E9F754
S3151C0059508327C4FE3E85325445618280011122CEC6
S3151C00596000102326A4FE2324B4FE31A08327C4FEE4
S3151C00597085072326F4FE8327C4FE83C7070099CB1D
S3151C0059808327C4FE03C70700832784FE93F7F70FFC
S3151C005990E31EF7FC8327C4FE83C7070099E38147F0
S3151C0059A019A08327C4FE3E857244056182807971E5
S3151C0059B006D622D40018232EA4FC232CB4FC0325C3
S3151C0059C0C4FDA5352A878327C4FDBA972326F4FE72
S3151C0059D031A08327C4FEFD172326F4FE0327C4FE2D
S3151C0059E08327C4FD63FCE7008327C4FE03C70700A7
S3151C0059F0832784FD93F7F70FE31DF7FC8327C4FE6B
S3151C005A0003C70700832784FD93F7F70F6304F7008A
S3151C005A10814719A08327C4FE3E85B2502254456196
S3151C005A208280797122D60018232EA4FC232CB4FC68
S3151C005A30232AC4FC8327C4FD2326F4FE15A0832732
S3151C005A4044FDFD17232AF4FC8327C4FE1387170085
S3151C005A502326E4FE032784FD1377F70F2380E70034
S3151C005A60832744FDE9FF8327C4FD3E8532544561E7
S3151C005A708280797122D60018232EA4FC232CB4FC18
S3151C005A80232AC4FC8327C4FD2326F4FE832784FD16
S3151C005A902324F4FE35A0032784FE93071700232432
S3151C005AA0F4FE8327C4FE938617002326D4FE0347E1
S3151C005AB007002380E700832744FDFD17232AF4FCF7
S3151C005AC0832744FDE9FB8327C4FD3E85325445618B
S3151C005AD08280797122D60018232EA4FC232CB4FCB8
S3151C005AE0232AC4FC8327C4FD2326F4FE832784FDB6
S3151C005AF02324F4FE032784FD8327C4FD6315F700C6
S3151C005B008327C4FD61A80327C4FD832784FD637C0A
S3151C005B10F70235A0032784FE930717002324F4FEFF
S3151C005B208327C4FE938617002326D4FE034707004B
S3151C005B302380E700832744FDFD17232AF4FC8327D3
S3151C005B4044FDE9FB91A8832744FDFD170327C4FDEB
S3151C005B50BA972326F4FE832744FDFD17032784FDED
S3151C005B60BA972324F4FE35A0032784FE9307F7FF78
S3151C005B702324F4FE8327C4FE9386F7FF2326D4FE34
S3151C005B80034707002380E700832744FDFD17232ACC
S3151C005B90F4FC832744FDE9FB8327C4FD3E85325470
S3151C005BA045618280797122D60018232EA4FC232CF1
S3151C005BB0B4FC232AC4FC8327C4FD2326F4FE8327B6
S3151C005BC084FD2324F4FE05A08327C4FE8507232613
S3151C005BD0F4FE832784FE85072324F4FE832744FDD5
S3151C005BE0FD17232AF4FC832744FD99CB8327C4FE87
S3151C005BF003C70700832784FE83C70700E306F7FC59
S3151C005C00832744FD89CF8327C4FE83C707003E87AD
S3151C005C10832784FE83C70700B307F74011A081477B
S3151C005C203E85325445618280797122D60018232E16
S3151C005C30A4FC232CB4FC232AC4FC8327C4FD2326E2
S3151C005C40F4FE05A8832784FD13F7F70F8327C4FEEC
S3151C005C50938617002326D4FE83C707006316F70016
S3151C005C608327C4FEFD1711A8832744FDFD17232A8D
S3151C005C70F4FC832744FDF9F781473E853254456180
S3151C005C80828001CE93070002918F6349F000330591
S3151C005C90F040014733D5A500BA85828033D7C500AD
S3151C005CA03355C500B395F5004D8DFDB701CE930751
S3151C005CB00002918F6349F000B305F0400147B3150C
S3151C005CC0B5003A8582803317C500B395C500335598
S3151C005CD0F500C98DFDB74111194506C6692B054549
S3151C005CE0EF30507B83A7011A4111328806C6AA8859
S3151C005CF02E873686C847630D0800B797051C938701
S3151C005D0007CBB795051CC686938505CC7520E13750
S3151C005D103798051C9307C8CB1308C8CBDDB74111B0
S3151C005D20B286014606C67D3FAA85814601460145C7
S3151C005D306F1020094111814522C406C62A84EF1022
S3151C005D40400E03A5C1195C5D91C382972285EF3075
S3151C005D5070740111B70700003707000022CC130727
S3151C005D60070013840700198C26CA4AC84EC606CEDD
S3151C005D700984814413890700F159631A940062440B
S3151C005D80F240D2444249B24905616FF02FADB38748
S3151C005D9034038504CA9783A7C7FF8297F9BF397155
S3151C005DA036D6741006CE3AD83EDA42DC46DE36C605
S3151C005DB0E923F2402161828039713EDA32D42E8683
S3151C005DC0AA8503A5011A36D6341006CE3AD842DC6B
S3151C005DD046DE36C65D23F24021618280411122C413
S3151C005DE026C237040000B70400009387040013047E
S3151C005DF004001D8C4AC006C609849384040001490C
S3151C005E0063198902B7040000EFF04FA537040000A0
S3151C005E1093870400130404001D8C098493840400D6
S3151C005E200149631D8900B240224492440249410142
S3151C005E3082809C40050991048297D9B79C4005092C
S3151C005E4091048297F9BF39713EDA83A7011A32D4BD
S3151C005E5036D62ED23AD842DC46DE8C4754102A86D9
S3151C005E603E8506CE36C6112BF240216182803971E1
S3151C005E7032D436D63AD83EDA42DC46DE2E860C457D
S3151C005E80341006CE36C6D529F24021618280B3C7AE
S3151C005E90A5008D8B3307C50081E78D4763EFC700CF
S3151C005EA0AA876369E500828083C605008507850588
S3151C005EB0A38FD7FEE3EAE7FE828093773500BDEB1E
S3151C005EC0AA879376C7FF138606FE63FCC70683A3C1
S3151C005ED0050083A2450083AF850003AFC50083AED2
S3151C005EE0050103AE450103A3850183A8C50193855E
S3151C005EF045029387470203A8C5FF23AE77FC23A060
S3151C005F0057FE23A2F7FF23A4E7FF23A6D7FF23A848
S3151C005F10C7FF23AA67FE23AC17FF23AE07FF75B77F
S3151C005F2083C6050085078505A38FD7FE93F6370024
S3151C005F30E5FA41BFAA87DDBF90419107910523AEC3
S3151C005F40C7FEE3EBD7FEE3E7E7F682803D482A87E8
S3151C005F506373C8029377F700BDEFADE5937606FF32
S3151C005F603D8ABA960CC34CC30CC74CC74107E36B9E
S3151C005F70D7FE11E28280B306C8408A06970200004B
S3151C005F8096966780A6002307B700A306B7002306CC
S3151C005F90B700A305B7002305B700A304B700230465
S3151C005FA0B700A303B7002303B700A302B70023025D
S3151C005FB0B700A301B7002301B700A300B700230055
S3151C005FC0B700828093F5F50F93968500D58D939631
S3151C005FD00501D58D61B7939627009702000096960A
S3151C005FE08682E78086FA9680C1171D8F3E96E374DB
S3151C005FF0C8F8A5B7397122DC2A842E852EC606DE82
S3151C006000E124B797051C938707CF3ED485473ED618
S3151C0060101C10B2453ECA89473ECC1C5C2AD20505DB
S3151C0060202ED02ACE0C4491E722852EC6EF10E01006
S3151C006030B2458397C50013972701634B07008966F2
S3151C006040F851D58F2396F500F977FD17F98FFCD1FA
S3151C00605050082285EF10A054FD5711E1A947F250B4
S3151C00606062543E8521618280AA8503A5011A59B70F
S3151C006070411122C42E848C4126C206C6AA8491C113
S3151C006080C53FA2852244B2402685924441016F1029
S3151C006090203783A7011A638FA7087C45011122CCE0
S3151C0060A026CA4AC806CE4EC62A848144130900084D
S3151C0060B085EB2C4081C52285EF1080348325841402
S3151C0060C095CD9304C414638B950203A90500228500
S3151C0060D0EF100033CA85C5BFA6958C4189E991048A
S3151C0060E06C44E39B24FF2285EF108031D9B783A92A
S3151C0060F005002285EF10C030CE85CDB76C4881C512
S3151C0061002285EF10E02F1C5C99CF5C5C2285829760
S3151C0061108325042E89C922856244F240D244424911
S3151C006120B2490561B1B7F2406244D2444249B24910
S3151C0061300561828082800327C52D15EB41119305CD
S3151C006140000822C406C62A84EF10701B232EA42C1A
S3151C006150FD5709C993070508232005001105E31DF2
S3151C006160F5FE8147B24022443E854101828081472B
S3151C0061703E858280411126C206C622C44AC07D477E
S3151C006180AA846376B700594718C17D5531A8832761
S3151C006190C52D32892E8499CF9315240003A4C42DB2
S3151C0061A0A295884123A02501B2402244924402496B
S3151C0061B04101828049376DD1C9BFFD4763F6B700DF
S3151C0061C0D9471CC17D5582808327C52D011122CC40
S3151C0061D006CE2E862A8491C713972500BA97984314
S3151C0061E019EB228532C6F928AA85228562443246D5
S3151C0061F0F24005614DA0854601456308D700FD5652
S3151C0062006319D700D9471CC00545F2406244056195
S3151C00621082802E8523A0070002970145FDB7FD4706
S3151C00622063F4B7007D5582808327C52D411122C496
S3151C00623026C206C6AA842E849DC783A7C42D1317FF
S3151C006240240005453E971C4395C3FD560945638F9F
S3151C006250D70085460D45638BD70022852320070072
S3151C0062608297014521A0C13D69D97D55B240224482
S3151C006270924441018280AA8503A5011A3DBF2E8640
S3151C006280AA8503A5011AFDB503A5011A6DB5AA8534
S3151C00629003A5011A69B7411122C426C2AA842E85F8
S3151C0062A0B28506C623AC0126EF307021FD57631656
S3151C0062B0F50083A7812791C39CC0B2402244924417
S3151C0062C0410182806F30F01EAA87850703C7F7FF3E
S3151C0062D06DFF3385A7407D1582801C46797122D4BB
S3151C0062E006D626D24AD04ECE52CC56CA5AC85EC6FE
S3151C0062F062C4328485E3232206000145B25022542F
S3151C00630092540259F249624AD24A424BB24B224C2F
S3151C00631045618280FC512E8913972701635A070415
S3151C00632004422A8AFD5B1C4499E701452324040088
S3151C00633023220400E1B783A9440003AB0400814A6D
S3151C00634013DC290063CB8A011C4493F9C9FFA10401
S3151C006350B389374123243401F9B783250B004A86B8
S3151C0063605285EF00D079110B63077501850AD9BFD9
S3151C006370EF10E02265BF7D5555BF6971232481123C
S3151C00638023202113232E3111232C411123261112D4
S3151C00639023229112232A51112328611123267111BC
S3151C0063A023248111232291112320A111EEDFAA8916
S3151C0063B02E84328A368909C51C5D99E3EF00F05795
S3151C0063C08317C40013972701634B0700896678500F
