S00E0000626C696E6B792E737265638D
S3151C0008006F4010106F40D00F6F40900F6F40500F0D
S3151C0008106F40100F6F40D00E6F40900E6F40500E01
S3151C0008206F40100E6F40D00D6F40900D6F40500DF5
S3151C0008306F40100D6F40D00C6F40900C6F40500CE9
S3151C0008406F40100C6F40D00B6F40900B6F40500BDD
S3151C0008506F40100B6F40D00A6F40900A6F40500AD1
S3151C0008606F40100A6F40D0096F4090096F405009C5
S3151C0008706F4010096F40D0086F4090086F405008B9
S3151C0009004111714522C406C6EF30107F2A8411C5D9
S3151C000910232005001105EF8080162285B240224453
S3151C00092041018280011106CE22CC26CA4AC84EC677
S3151C00093052C456C25AC00DE1B706051C3706051C23
S3151C0009409386460613060601930500143725051CD7
S3151C0009501305858AEF40B065B70900FFB3F9350169
S3151C0009602E84638D0900B706051C3706051C938665
S3151C00097006071306060193051014C9BF81EDB706B9
S3151C000980051C3706051C9386860913060601930566
S3151C00099020146DBF2A89B28A368B3A8AEF20C06131
S3151C0009A011ED630D0A00B706051C3706051C938658
S3151C0009B0060B130606019305501449BFEF10F07180
S3151C0009C083240900B377940063170B029DE78149C2
S3151C0009D0630C0A02B3355001E20563050B00B70729
S3151C0009E00004DD8D5286C18D13054900EF20C02CF5
S3151C0009F0D289814411A8E31CF4FC63870A0093473F
S3151C000A00F4FFE58F2320F900EF20506E638B09025B
S3151C000A1019E1EF800050EF20A05693176500AA84B9
S3151C000A2063CD0700EF80A00F83240900B3779400E1
S3151C000A3063140B0285E7EF802011370500017D1535
S3151C000A40E98CF240624426854249D244B249224A84
S3151C000A50924A024B05618280E31FF4FCE38D0AFC7B
S3151C000A601344F4FF658C23208900F1B7011106CECF
S3151C000A7022CC0DE1B706051C3706051C93864606D7
S3151C000A80130646029305401D3725051C1305858A4A
S3151C000A90EF40F051B70700FFED8F81CFB706051C5D
S3151C000AA03706051C93864610130646029305501DF1
S3151C000AB0E1BF2A842EC6EF808006B245084093C546
S3151C000AC0F5FFE98D0CC02AC6EF800008F24062448F
S3151C000AD032450561828059BF2E86AA853715001CB2
S3151C000AE08146130565AD6F307015797106D622D413
S3151C000AF026D24AD04ECE52CC56CA0DE1B706051C9C
S3151C000B003706051C938646061306C6039305202145
S3151C000B103725051C1305858AEF407049B70700FF6A
S3151C000B20ED8F81CFB706051C3706051C9386C612AA
S3151C000B301306C60393053021E1BF2A849309C50019
S3151C000B402EC6EF1090591C40B245084837090001C3
S3151C000B50DD8D0CC081447D19370A00020C406312DE
S3151C000B60350393C4F4FFED8C04C0EF2030580840C5
S3151C000B70B250225492540259F249624AD24A4561F1
S3151C000B8082801841832A4500B37727011316570024
S3151C000B90B3F6B7006345060089E65685C1B7E39EE2
S3151C000BA0D7FE9316770063D30600DD8CB3E54501AB
S3151C000BB0EF206026DDB715BFB2862E86AA853715AF
S3151C000BC0001C130565BB6F3070070111B70700FFCA
S3151C000BD006CE22CC26CA4AC84EC652C4F18F8DC335
S3151C000BE0B706051C3706051C938606071306060062
S3151C000BF09305600C3725051C1305858AEF40303B91
S3151C000C00B28401EEB706051C3706051C93868609B9
S3151C000C10130606009305700CF1BF2A892E8AB68925
S3151C000C20EF20803911ED638D0900B706051C3706C8
S3151C000C30051C9386060B130606009305A00C5DBFC8
S3151C000C40EF10B04903240900D2854A85793D3364E7
S3151C000C504401B3779400639497060327090093C74E
S3151C000C60F4FF8149F98F2320F900EF203048638F68
S3151C000C70090219E1EF80E029EF2080309317650007
S3151C000C802A8463C10702EF70906903240900B3F735
S3151C000C9084006397970093C4F4FFE18C232099008A
S3151C000CA0EF70906A370500017D15698C2285F2402C
S3151C000CB06244D2444249B249224A05618280638C0D
S3151C000CC00900B70500054E86C58D13054900EF10B2
S3151C000CD0B07E014459BF0324090041BF08418280EC
S3151C000CE0411122C42A8426C206C69304C400EF10EE
S3151C000CF0D03E5C4091EB2285EF3090462244B240B8
S3151C000D00924441016F20903E084863129502B70633
S3151C000D10051C3706051C3725051C93860615130668
S3151C000D200605930520271305858AEF405028B7052D
S3151C000D300002EF20400E75BF19C1084D8280014587
S3151C000D4082800CCD8280411122C42A8426C24AC0CC
S3151C000D5006C6EF70D05C8344540413094402E204B3
S3151C000D60E184634B9002FD57A302F404EF70D05D3F
S3151C000D70EF70F05A8344440413090401E204E1842D
S3151C000D8063489002FD572302F4042244B240924465
S3151C000D90024941016F70505B5C50F1D74A85EF10D8
S3151C000DA0B07D19C1EF204020FD14E204E18455BF3B
S3151C000DB01C48E9DB4A85EF10307C19C1EF20C01EA8
S3151C000DC0FD14E204E1846DBF011106CE22CC2AC6B5
S3151C000DD0EF70F0543245005DEF701057F24013353A
S3151C000DE0140062440561828041114AC03289304137
S3151C000DF026C2045D22C406C62A840DE21C41014596
S3151C000E0091E70844EF20802723240400850404DC92
S3151C000E10B240224492440249410182806310090275
S3151C000E204841EF4070335C4038400145BA9718443E
S3151C000E305CC0E3EDE7FC1C405CC0C9BF4845EF4005
S3151C000E40B0313C4058441440B307F0403E9758C458
S3151C000E506375D7001844BA975CC489470145E317E4
S3151C000E60F9FACDD4FD145DB7AA87B0432E8501CE01
S3151C000E70D84794473297D8C76364D7009843D8C7D6
S3151C000E80CC476F40702D8280397106DE22DC26DA53
S3151C000E904AD84ED652D456D25AD032C60DE1B706CF
S3151C000EA0051C3706051C9386C6381306462593056E
S3151C000EB0A02E3725051C1305858AEF40500F2A8462
S3151C000EC0AE89B68491ED3C4181CFB706051C370629
S3151C000ED0051C93864639130646259305B02ED1BFAD
S3151C000EE089476391F402585C8547630DF700B70682
S3151C000EF0051C3706051C9386C63E13064625930518
S3151C000F00C02E45BFEF20400B19EDB247014989CFD2
S3151C000F10B706051C3706051C9386060B13064625C5
S3151C000F209305F02E79B70149894A7D5A130B0401A2
S3151C000F3061A0B24789E7EF70304101457DA063157A
S3151C000F4009002808EF200031EF701040EF10F01850
S3151C000F50EF70F03C83474404E207E1876394470142
S3151C000F602302040483475404E207E1876394470180
S3151C000F70A3020404EF70503D6C002808EF30A01F3C
S3151C000F803DEDEF70D039185C5C5C6310F702EF70B6
S3151C000F90B03BB2455A85EF10904D22856D33EF203C
S3151C000FA0F01411E9EF70F07639A0EF70F039228554
S3151C000FB0593BEF20B0130549EF707036185C5C5C2A
S3151C000FC06364F700E39754F72686CE852285293D70
S3151C000FD05C5089C713054402EF10105A01C5014520
S3151C000FE0EF703073EF7050360545F2506254D25490
S3151C000FF04259B259225A925A025B21618280228539
S3151C0010009933EF20B00E15BF397106DE22DC26DAC5
S3151C0010104AD84ED652D432C60DE1B706051C370641
S3151C001020051C9386C6431306C62B9305C066372537
S3151C001030051C1305858AEF4080772A842E8991ED3D
S3151C0010403C4181CFB706051C3706051C9386864492
S3151C0010501306C62B93050067D9BFEF10F07519ED63
S3151C001060B247814489CFB706051C3706051C9386F3
S3151C001070060B1306C62B9305506755BF8144FD59B5
S3151C001080130A4402BDA0B24789E7EF70F02B014555
S3151C00109079A081E42808EF20E01BEF70F02AEF10FE
S3151C0010A0D003EF70D02783474404E207E18763949B
S3151C0010B037012302040483475404E207E18763943F
S3151C0010C03701A3020404EF7030286C002808EF30A7
S3151C0010D0800A3DE12285CD3939C9B2455285EF10CA
S3151C0010E0103922858D31EF20700019E1EF70706286
S3151C0010F08544EF70D0221C5CD9D7CA85228544440E
S3151C001100A5335C5044C489CB13054402EF10D0466A
S3151C00111001C50145EF70F05FEF7010230545F250D5
S3151C0011206254D2544259B259225A21618280228574
S3151C0011301939EF20A07B6DBF22853131EF20007B52
S3151C0011402285593155D5A1B7411106C622C426C2DE
S3151C0011500DE1B706051C3706051C9386C638130613
S3151C001160062E9305B0753725051C1305858AEF4099
S3151C00117000642A843C4189ED89CFB706051C3706D5
S3151C001180051C9386464A1306062E9305C075E1BFB9
S3151C00119081EFB706051C3706051C9386864F13067A
S3151C0011A0062E9305D075C1B7185D814709C74445FE
S3151C0011B06539854744C4B240224492443E85410168
S3151C0011C08280397106DE22DC26DA4AD84ED652D403
S3151C0011D056D232C60DE1B706051C3706051C93868A
S3151C0011E0C64313068629930540503725051C13054F
S3151C0011F0858AEF40C05B2A84AE8991ED3C4181CF44
S3151C001200B706051C3706051C9386864413068629D5
S3151C00121093058050D9BFEF10305A19EDB2470149DA
S3151C00122089CFB706051C3706051C9386060B1306C5
S3151C00123086299305D05055BF01497D5A930A44020D
S3151C00124085A8B24789E7EF703010014541A86315A0
S3151C00125009002808EF200000EF70100FEF10E06760
S3151C001260EF70F00B83474404E207E1876394470160
S3151C0012702302040483475404E207E187639447016D
S3151C001280A3020404EF70500C6C002808EF20B06E0B
S3151C00129025E52285153E21CDB2455685EF10301D1C
S3151C0012A022855534EF20806419E1EF70904605497C
S3151C0012B0EF70F006045CD1D4CE852285FD146D3604
S3151C0012C004DC1C4889CB13050401EF10F02A01C568
S3151C0012D00145EF701044EF7030070545F25062541B
S3151C0012E0D2544259B259225A925A2161828022857D
S3151C0012F0993CEF20A05F65BF2285B134EF20005FCB
S3151C0013002285D9344DD591B7011106CE0DE1B7060C
S3151C001310051C3706051C3725051C938646511306E6
S3151C001320462F9305E0781305858AEF4040482AC668
S3151C001330EF70E07E3245085D2AC6EF70F000F24081
S3151C001340324505618280011106CE22CC0DE1B7061D
S3151C001350051C3706051C3725051C9386C63813063F
S3151C001360C6309305F0791305858AEF4040442A84DC
S3151C001370EF70E07A1C5C485C1D8D2AC6EF70C07C41
S3151C001380F2406244324505618280011106CE22CCB0
S3151C00139026CA4AC84EC60DE1B706051C3706051CEB
S3151C0013A09386C638130686269305C03B3725051C2F
S3151C0013B01305858AEF40A03F2A84328991ED3C4172
S3151C0013C081CFB706051C3706051C938646391306BE
S3151C0013D086269305D03BD9BF09475C5C6390E60221
S3151C0013E00547638DE700B706051C3706051C938663
S3151C0013F0C63E130686269305E03B4DBF185C636606
S3151C001400F700894701456392F602834454041C5C29
S3151C0014103686228593998401C13A93D98941FD5711
S3151C0014206397F9025C5089EB0545F2406244D2444D
S3151C0014304249B2490561828013054402EF10D0135C
S3151C00144065D5E30309FE85472320F900F1BF850412
S3151C001450E204E184A3029404C1BF011106CE0DE18E
S3151C001460B706051C3706051C9386C6381306462880
S3151C001470930540463725051C1305858AEF40203306
S3151C0014803C4181CFB706051C3706051C9386C65101
S3151C0014901306462893058046F1BF1C4191EF1C4557
S3151C0014A081CFB706051C3706051C93868653130683
S3151C0014B046289305D0467DBF185D545D8147637AE7
S3151C0014C0D70283475504050718DD93968701E186E5
S3151C0014D07D576394E6025C5199E3854719A8130569
S3151C0014E045022EC6EF105009B24565D9FDD5854774
S3151C0014F09CC1F2403E85056182808507E207E18733
S3151C001500A302F504D9BF011106CE22CC26CA4AC8AD
S3151C0015104EC652C40DE1B706051C3706051C93863C
S3151C001520C6381306862C9305F06F3725051C130544
S3151C001530858AEF40C0272A84B28991ED3C4181CF30
S3151C001540B706051C3706051C9386464A1306862CC9
S3151C00155093050070D9BF032984030145630309025F
S3151C0015608344440422850932139A84017D19135A33
S3151C0015708A41232C2403FD576318FA021C4891EB5D
S3151C0015800545F2406244D2444249B249224A0561A9
S3151C001590828013050401EF10207E7DD1E38209FEB3
S3151C0015A0854723A0F900E9BF8504E204E1842302F0
S3151C0015B09404F9B705E5B706051C3706051C8565B1
S3151C0015C03725051C41119386C63813064635938567
S3151C0015D0D5901305858A06C6EF40601D085D133538
S3151C0015E01500828005E5B706051C3706051C8565B2
S3151C0015F03725051C41119386C63813060637938575
S3151C00160055931305858A06C6EF40601A1C5D485D16
S3151C0016101D8D1335150082801DE1B706051C370686
S3151C001620051C3725051C41119386C6381306463200
S3151C0016309305007B1305858A06C6EF404017085D97
S3151C0016408280397106DE22DC26DA4AD84ED652D47E
S3151C0016502EC60DE1B706051C3706051C9386C64328
S3151C0016601306862A930550593725051C1305858AAA
S3151C001670EF40E0133C412A8481CFB706051C370690
S3151C001680051C9386C6511306862A93059059E9BFF5
S3151C001690EF10901205E1B2478144014991CFB7067C
S3151C0016A0051C3706051C9386060B1306862A93050E
S3151C0016B0E0595DBF81440149FD59130A440279A8CA
S3151C0016C0B24785E381CCB706051C3706051C9386F5
S3151C0016D0C6591306862A9305505E79B7EF70C04625
S3151C0016E075A0631509002808EF10D036EF70C045A9
S3151C0016F0EF10A01EEF70A04283474404E207E18767
S3151C001700639437012302040483475404E207E187E8
S3151C00171063943701A3020404EF7000436C0028088D
S3151C001720EF20702559E12285EFF00FEA2DC91C40E8
S3151C00173089EBEF70C03E0844EF10B009AA84EF7025
S3151C001740A040B2455285EF1080522285EFF0AFDFE4
S3151C001750EF20C01919E1EF70C07B0549EF70203CE2
S3151C0017601C5CB9DFFD171CDC1C4081E7EF10902CBC
S3151C00177008C41C4889CB13050401EF10E05F01C5A2
S3151C0017800145EF700079EF70203C8544F25062549D
S3151C00179026854259D254B259225A21618280228509
S3151C0017A0EFF06FDAEF2080144DBF2285EFF0AFD932
S3151C0017B0EF20C0132285EFF02FE145D1E1D8EF7061
S3151C0017C000365C50814589C71C5895459C439D8DA8
S3151C0017D008448144EF107016EF70003745BF0111A5
S3151C0017E02AC606CEEF70A03332451C4189EB08454C
S3151C0017F02AC6EF706035F24032450561828001458C
S3151C001800C5BF1DE1B706051C3706051C3725051C7B
S3151C00181041119386C65C1306061E93057023130599
S3151C001820858A06C6EF30B0781841AA87014511E3B0
S3151C00183088478280011106CE22CC26CA0DE1B70646
S3151C001840051C3706051C3725051C9386865D130665
S3151C0018508621930590281305858AEF30507504451B
S3151C0018602A842EC6EF108073B245639BA4005C4489
S3151C001870054585075CC4F2406244D24405618280FA
S3151C0018802285C1336DD95C4485075CC4EDB7411113
S3151C00189006C622C426C24AC00DE1B706051C370679
S3151C0018A0051C3725051C9386865D1306C61F9305E6
S3151C0018B020251305858AEF30906F032985002A841D
S3151C0018C0EF10C06D8144631DA9005C448544FD175F
S3151C0018D05CC499E78146014681452285EFF0CFDA43
S3151C0018E0B240224426850249924441018280B72790
S3151C0018F0051C938607EC0147938707EC214603A832
S3151C0019000600631708000E07BA978CC3C8C38280EB
S3151C0019100507A106E315C7FE8280B727051C93861B
S3151C00192007EC0147938707EC2146CC426399A50037
S3151C0019300E07BA9723A0070023A20700828005077B
S3151C001940A106E314C7FE8280411106C622C40DE11E
S3151C001950B706051C3706051C3725051C9386C63895
S3151C001960130646349305B07B1305858AEF30306425
S3151C0019702A84653722852244B24041016F20507E5D
S3151C0019803727051C930607EC8147130707EC2146EE
S3151C001990CC426396A5008E07BA978843828085073A
S3151C0019A0A106E397C7FE01458280011122CC2EC6F3
S3151C0019B02A8432C406CEEF708016834744047D57B2
S3151C0019C0B245E207E18722466394E700230204043A
S3151C0019D0834754047D57E207E1876394E700A3021B
S3151C0019E004042EC632C4EF7020161C5CB245224677
S3151C0019F089E713054402EF10003322856244F24046
S3151C001A0005616FF04FB4011106CE22CC0DE1B7066D
S3151C001A10051C3706051C3725051C9386C638130678
S3151C001A20861B930530101305858AEF3050582A847F
S3151C001A302EC6EF70C00E3040585C1440232C040296
S3151C001A40B307E60254C03387F600918FB6975CC481
S3151C001A50FD572302F404A302F404B24518C495E10D
S3151C001A601C4889CB13050401EF10003101C5014543
S3151C001A70EF70204AEF70400DF24062440545056147
S3151C001A80828013050401EF60907F13054402EF600A
S3151C001A90107FCDB7011106CE22CC26CA4AC80DE14D
S3151C001AA0B706051C3706051C3725051C9386065EDE
S3151C001AB01306C61C930560171305858AEF30304F35
S3151C001AC0AA843305B5022EC6328913050505EF20F7
S3151C001AD0B0622A84B24511C985E108C02CC044DC19
S3151C001AE0854522850D37230624052285F24062444E
S3151C001AF0D244424905618280930705051CC1F9BF82
S3151C001B0041112A868145054522C406C661372A84A9
S3151C001B1001CD23240500232005002326050081462C
S3151C001B2001468145EFF04FB62285B2402244410161
S3151C001B308280411106C622C40DE1B706051C370674
S3151C001B40051C93864660130646239305E02C372511
S3151C001B50051C1305858AEF3090452E84637DB500E0
S3151C001B60B706051C3706051C9386466113064623D5
S3151C001B709305F02CE9BF09468145293F11C100DDBB
S3151C001B80B2402244410182802CC582802845828035
S3151C001B900345C504828018455C410841BA973385C4
S3151C001BA0A7406363E500198D8280011106CE22CC05
S3151C001BB026CA4AC84EC652C40DE2B716051C3706BD
S3151C001BC0051C938646821306467D9305404437259D
S3151C001BD0051C1305858AEF30903D40411C452A891A
S3151C001BE02E8AB3898740B28463733601B289330760
S3151C001BF0340163FDE700B716051C3706051C9386E2
S3151C001C00C6831306467D9305E044D1B70325890197
S3151C001C104E86D2852295EF30305463F9990283277C
S3151C001C2089003386344163FDC700B716051C370689
S3151C001C30051C938646871306467D9305604541BF62
S3151C001C4003258901B3053A01EF301051832789001A
S3151C001C5026946363F4001D8C23228900F24062449F
S3151C001C6026854249D244B249224A05618280011125
S3151C001C7022CC06CE26CA4AC84EC652C4368463E354
S3151C001C80C600328445C004411845B30997406373A6
S3151C001C903401A289328AAE872A8963723603B71643
S3151C001CA0051C3706051C9386C68A1306C67E930535
S3151C001CB000483725051C1305858AEF30502FB3863F
S3151C001CC03401637DD700B716051C3706051C9386A1
S3151C001CD0868C1306C67E93051048E1BF0C4D4E86B6
S3151C001CE03E85A695EF30504763F68902637D8A00D0
S3151C001CF0B716051C3706051C938606901306C67E6A
S3151C001D00930590487DB783258901330634414E954A
S3151C001D10EF30904483278900A29463E3F4009D8CE2
S3151C001D20232099002285F2406244D2444249B2499A
S3151C001D30224A05618280B716051C3716051C3725F5
S3151C001D40051C411193864691130646809305804CCB
S3151C001D501305858A06C6EF309025797106D622D4DE
S3151C001D6026D24AD04ECE52CC56CA8DE1B716051C89
S3151C001D703706051C9386C695130646709305102DCB
S3151C001D803725051C1305858AEF3070222A8401ED40
S3151C001D90B716051C3706051C9386869613064670D1
S3151C001DA09305202DF1BF8344C5012E8AB2898588EF
S3151C001DB0B68A8A04A1CAEF6090562285E93B2A8915
S3151C001DC063E5A4020145EF60B05F1C4881CFB716DE
S3151C001DD0051C3706051C93868697130646709305C5
S3151C001DE0502F79BFEF10801B08C8EF60F05563EACF
S3151C001DF02403D686014681450145EF20A01C228579
S3151C001E0023280400493B2A8963EDA4008144B2506F
S3151C001E102254268502599254F249624AD24A456195
S3151C001E20828085C0CA8626866C002285832A040089
S3151C001E303D3DB2473309994063FBF9022320540107
S3151C001E408149CA864E86D28522851535AA845DDDD2
S3151C001E50EF00B0285C4889CB48488146014681453D
S3151C001E60EF208003232A0400EF1050284DB7BE89AB
S3151C001E70C9BF797106D622D426D24AD04ECE52CCB0
S3151C001E8056CA5AC88DE1B716051C3706051C93861B
S3151C001E90C69513060674930550363725051C13057F
S3151C001EA0858AEF30D0102A8401EDB716051C37063B
S3151C001EB0051C938686961306067493056036F1BF39
S3151C001EC08344C5012E8AB2898588B68A8A04E13183
S3151C001ED02A8963EEA4008144B250225426850259F5
S3151C001EE09254F249624AD24A424B4561828085C06D
S3151C001EF0AA8626866C002285032B04008D3BB247DE
S3151C001F003309994063F8F902232064018149CA8682
S3151C001F104E86D2852285A13BAA8455DD5C48CDDF41
S3151C001F2048485687814601468145EF003021232AC1
S3151C001F3004005DB7BE89E1BF1DE1B716051C370657
S3151C001F40051C3725051C41119386869613060665C6
S3151C001F509305B0161305858A06C6EF3050058347D0
S3151C001F60C501898B99E36F20B01F1306400281457A
S3151C001F706F30702A1DE1B716051C3706051C372560
S3151C001F80051C4111938686961306C6759305003D5E
S3151C001F901305858A06C6EF3090011C4148411D8DEC
S3151C001FA0133515008280797106D622D426D24AD0E2
S3151C001FB04ECE52CC56CA0DE1B716051C3706051C6B
S3151C001FC03725051C938686961306466693051019B7
S3151C001FD01305858AEF30A07D2A8483290502EF60CC
S3151C001FE010341C480145A1E758483E8529E3044C9A
S3151C001FF0032984009305500526854A86832AC40036
S3151C002000034AC401EF3030216383A4002D33130629
S3151C002010000281452285EF301020054504CC23247F
S3151C002020240123265401230E4401232034032AC6EB
S3151C002030EF609031B2502254324592540259F24903
S3151C002040624AD24A456182801DE1B716051C3706D5
S3151C002050051C3725051C4111938686961306866931
S3151C0020609305B01D1305858A06C6EF3040741C41C6
S3151C002070184554413305F7007D15158D6363E5003E
S3151C002080198D8280397106DE22DC26DA4AD84ED6B4
S3151C00209052D436C68DE1B716051C3706051C938629
S3151C0020A0069B1306466D930540203725051C130514
S3151C0020B0858AEF30C06F2A8401EDB716051C3706DA
S3151C0020C0051C938686961306466D93055020F1BF14
S3151C0020D08347C5012E8A3289858B85C393094600A1
S3151C0020E0636E3601B716051C3706051C9386C69B00
S3151C0020F01306466D930500214DBFB289B24785E391
S3151C00210022859937AA844ACAA5EC8144F2506254A6
S3151C00211026854259D254B259225A216182802808F6
S3151C002120EF20C000EF60B01F2285393FAA8463767A
S3151C00213035050145EF60D0285C4881CFB716051CD4
S3151C0021403706051C9386069E1306466D930590223C
S3151C002150A9BFEF00B06448C8EF60101FB2468145A6
S3151C00216001460145EF1010666C00232A040028085E
S3151C002170EF20600045D9C9D479B7EF60F01CE5BFE4
S3151C0021808347C401858B9DEF63739900CA8426CA55
S3151C0021905246D2852285113CAA8425D92285E53A48
S3151C0021A05C44E365F5F6EF0040731C4889CB084890
S3151C0021B0814601468145EF10304E23280400EF105E
S3151C0021C0E072A9B7E3E334F511464C082285F13ACF
S3151C0021D0C1B7397106DE22DC26DA4AD84ED68DE125
S3151C0021E0B716051C3706051C9386069B1306866EBA
S3151C0021F09305B0263725051C1305858AEF30205B11
S3151C0022002A8401EDB716051C3706051C938686968F
S3151C0022101306866E9305C026F1BF8347C501AE849F
S3151C002220B689858B328999C313094600228532C625
S3151C002230213D324632CE11E98144F2506254268544
S3151C0022404259D254B259216182808347C401858B7D
S3151C00225085EF6373C5002A8632CE7246A685228513
S3151C002260A932AA8471D922853D325C44E367F5FC08
S3151C0022701C48E1D708484E87814601468145EF0038
S3151C002280E06B2328040055BFE36825FB11466C0848
S3151C0022902285213AD9B7411106C622C40DE1B716CB
S3151C0022A0051C3706051C3725051C938686961306C2
S3151C0022B046779305703E1305858AEF30404F0344DD
S3151C0022C0C5015933B24005880A043335A40022449B
S3151C0022D013451500410182801DE1B716051C370602
S3151C0022E0051C3725051C4111938686961306866B9D
S3151C0022F09305301F1305858A06C6EF30404B61B81F
S3151C0023001DE1B716051C3706051C3725051C411192
S3151C00231093868696130686679305E01B1305858AA6
S3151C00232006C6EF30C048AA8791E185459847014506
S3151C0023306364B700CCC705458280411106C622C41A
S3151C0023400DE1B716051C3706051C3725051C93869B
S3151C0023508696130686789305A0401305858AEF306A
S3151C00236000451C492A84014591CB08482E87814685
S3151C00237001468145E123054523280400B240224439
S3151C00238041018280411106C622C40DE1B716051C07
S3151C0023903706051C3725051C938686961306C67AB2
S3151C0023A0930580421305858AEF3060405C492A8478
S3151C0023B0014591CB48482E87814601468145BD2B58
S3151C0023C00545232A0400B2402244410182800111A2
S3151C0023D026CA4AC806CE22CC4EC652C48547AA84F3
S3151C0023E02E896316F6029147054A63EFA702B716B4
S3151C0023F0051C3706051C938646A1130646639305E2
S3151C002400800E3725051C1305858AEF30403A014A94
S3151C00241001EDB716051C3706051C9386C6A31306C5
S3151C00242046639305E00EF1BF63FD2401B716051C38
S3151C0024303706051C938646A5130646639305000FAF
S3151C002440C9B763130900054913855402EF20C04A16
S3151C0024502A8415C9930945028504268693055005C9
S3151C0024604E85EF30405B6383A900F13013064002B2
S3151C00247081452285EF30205A232C340104C423269F
S3151C0024802401230E44012285F2406244D24442496F
S3151C002490B249224A05618280011106CE22CC26CA87
S3151C0024A00DE1B716051C3706051C93868696130682
S3151C0024B0C671930570333725051C1305858AEF30C5
S3151C0024C0002F8347C5012A84858BA1C3EFF0AFEC8F
S3151C0024D09147AA8663FFA70011466C00228504401B
S3151C0024E0EFF0EFF8324504C0F2406244D244056175
S3151C0024F0828001CDB716051C3706051C9386C6A718
S3151C0025001306C671930500357DB70145F1BF0CD185
S3151C0025108280085182800345C50105898280184145
S3151C002520AA8729CB584113068500584358C1631402
S3151C002530C700584558C1D8438328C700D8435843B9
S3151C002540D8C36314E600D847D8C3D843AE864847D9
S3151C0025501307850813038509038E06000308070065
S3151C0025606318C801630A080005078506E316E3FE1F
S3151C002570E396A8FC01458280828079715AC82A8B11
S3151C0025800325480826D24ECEB70400809319260090
S3151C0025904AD056CA2E89B28A93C4F4FF4E86930536
S3151C0025A0500A22D452CC5EC662C466C23E8A42849B
S3151C0025B006D6B68BC68C135CF701F98CEF30A0459A
S3151C0025C083274408F119BE9993F909FF630F090E75
S3151C0025D0CA8593078408130709018386050023808F
S3151C0025E0D7008386050089C685058507E397E5FE22
S3151C0025F0A30B0408914763F3970091442320940886
S3151C0026002322940A130584052324040AEF606048D8
S3151C0026101305C406EF60E047154703264408B304B8
S3151C0026209740D686E6851305440060D064D420DC2A
S3151C002630232C0408EF607011232C044C13068042D3
S3151C0026408145230E044C1305040BEF30C03C930745
S3151C002650C439232AF40A93074440232CF40A93070B
S3151C002660C446232EF40A8547232CF414B737CDAB66
S3151C0026709387E7302320F416B7176DE69387472315
S3151C0026802322F416B7E705009387C7EE2324F41616
S3151C002690AD472316F416230F044CE2865E86DA85B4
S3151C0026A04E85EF60104908C063040A0023208A0087
S3151C0026B0B250225492540259F249624AD24A424BAF
S3151C0026C0B24B224C924C45618280230404081DB7F0
S3151C0026D0797122D43724051C4AD0130904F026D25A
S3151C0026E04ECEAA8483290900832749000325490065
S3151C0026F006D6238F074C130585052EC6EF60203E94
S3151C002700FD57130404F0B2456391F40299CD832559
S3151C00271049002254B2509254F249130589000259B9
S3151C0027209385850545616F6020375C40CE94A4CFA8
S3151C00273063FE3401484C4C402254B2509254025908
S3151C002740F2499385850545616F60803608504C407B
S3151C00275093858505EF60C0355C5063F3F40044D067
S3151C002760B250225492540259F24945618280B716DE
S3151C002770051C3716051C3725051C41119386C6D228
S3151C002780130686B09305A0711305858A06C6EF301D
S3151C0027900002411122C42A841305050B06C6EF301C
S3151C0027A0E03B8347D44D99EB03254408EF20401B9F
S3151C0027B022852244B24041016F20801A0547E389D5
S3151C0027C0E7FE09476383E702B716051C3716051C87
S3151C0027D085653725051C938646D3130686C99385BE
S3151C0027E045F61305858AEF20907CB24022444101B0
S3151C0027F0828011E5B727051C938707F0C8438146DD
S3151C002800014611056F60607411E5B727051C938797
S3151C00281007F0C843032505088280011106CE22CC89
S3151C00282026CA4AC80DE1B716051C3716051C3725DE
S3151C002830051C938686D61306C6B29305B077130578
S3151C002840858AEF20D0763724051C3855930704F06B
S3151C002850A107AA84130404F00149631AF7047C5DDA
S3151C002860130584026385A704B9E35C5C9385C406DF
S3151C0028708DEF5C4003A904089385840583A707088C
S3151C0028802E852EC63339F900EF60602503A5040892
S3151C0028903C4013491900B24563F3A70028C0D14731
S3151C0028A03305F502130444042295EF60E01EF24042
S3151C0028B062444A85D24442490561828041110545DC
S3151C0028C006C6EF600065B727051CB240938707F064
S3151C0028D023A4070A41016F602063B727051C938751
S3151C0028E007F0D85F0507D8DF8280B727051C03A52C
S3151C0028F007F08280B727051C938707F003A5C70A34
S3151C002900828015E9B727051C938707F0C84305E5A0
S3151C002910B716051C3716051C85653725051C411180
S3151C002920938686D7130646B6938545941305858AE2
S3151C00293006C6EF20D067130585088280011106CED6
S3151C00294022CC26CA4AC815E1B716051C3716051C23
S3151C0029508565938606D8130686CF9385F53237256B
S3151C002960051C1305858AEF2090642A843A8981C642
S3151C0029708327854D9CC28347C44D0947230EE44CCF
S3151C002980114793F7F70F6364C7043727051C130712
S3151C00299087910A063A96184202870327844DD98DD9
S3151C0029A0232CB44C31A00327844D0507232CE44C5F
S3151C0029B00547638FE7020545F2406244D24442490B
S3151C0029C0056182800947E39DE7FC0145F5B783262F
S3151C0029D0844D7D57E38EE6FCB716051C3716051C81
S3151C0029E08565938606D9130686CF9385253785BFBD
S3151C0029F07C5C89CFB716051C3716051C8565938626
S3151C002A0006DB130686CF9385D53791BFB724051CE5
S3151C002A10938704F0DC5F938404F0B1E79305840587
S3151C002A202E852EC6EF60A00B83270408B840B2453E
S3151C002A306373F700BCC05147B387E7021385440490
S3151C002A403E95EF606005DC400327040883A7070852
S3151C002A50E3F3E7F66305090085472320F90085475C
S3151C002A6023A8F40A89BF9305C40613858402D1BF23
S3151C002A70011106CE22CC26CA4AC815E1B716051C7A
S3151C002A803716051C8565938606D8130646D193858D
S3151C002A90F53A3725051C1305858AEF2050518947C1
S3151C002AA00347C54D230EF54C8327854D2A84850780
S3151C002AB0232CF54C8547639DE7067C5D89CFB716AD
S3151C002AC0051C3716051C8565938606DB130646D141
S3151C002AD09385553D7DBFB724051C938704F0DC5FA9
S3151C002AE02E89938404F0B9EB930585052E852EC695
S3151C002AF0EF50F07E83270408B840B2456373F70095
S3151C002B00BCC05147B387E702138544043E95EF507A
S3151C002B10B078DC400327040883A7070863FAE7009C
S3151C002B206305090085472320F900854723A8F40A75
S3151C002B30F2406244D2444249056182809305C5062F
S3151C002B4013858402E9B7011122CC3724051C93078F
S3151C002B5004F0D85F06CE26CA4AC84EC652C456C210
S3151C002B605AC0631D070E03AA0700130404F0050AC6
S3151C002B7023A0470163110A049C539C4395C3B716B3
S3151C002B80051C3716051C85653725051C938606DF2F
S3151C002B90130686BA938505AB1305858AEF2030414B
S3151C002BA01C50584C18D05CCC8327440B8507232A11
S3151C002BB0F40AEF50F0745C5081496372FA045C406D
S3151C002BC0514783A70708B387E702A297F8438547AF
S3151C002BD063F3E70085498327840B99E3EF60504133
S3151C002BE08327040B91C38549F24062444E85D24427
S3151C002BF04249B249224A924A024B05618280930A93
S3151C002C004404514B1C509C4381E7FD575CD045BF87
S3151C002C101C50DC47C447BC4CE36AFAFE1389840586
S3151C002C204A85EF50D06BFC5C89C71385C406EF50F0
S3151C002C30106B03A504083C4063F3A70028C03305AA
S3151C002C406503CA855695EF5030655C4003A704089A
S3151C002C5083A70708E368F7FA85496DB703A7870BAF
S3151C002C608149050723ACE70AEF609038B5BF4111CF
S3151C002C7006C622C415E1B716051C3716051C856544
S3151C002C803725051C938686E6130606BD938515C057
S3151C002C901305858AEF20B031B727051C938707F0EB
S3151C002CA02E84CC439385C506EF5090602285224422
S3151C002CB0B2408545410129BC011106CE15E1B71666
S3151C002CC0051C3716051C8565938686E6130686BE87
S3151C002CD0938525C13725051C1305858AEF20302DC4
S3151C002CE0B727051C938707F0D85F09EFB716051C95
S3151C002CF03716051C8565938646E7130686BE93859F
S3151C002D0065C1C9BFD843B7060080D58D6CD7CC43E7
S3151C002D1032C69385C506EF5030583246F24085457B
S3151C002D203285056175B2011106CE22CC15E1B716A6
S3151C002D30051C3716051C85653725051C938686E6F6
S3151C002D40130686C09385C5C21305858AEF203026D7
S3151C002D50B727051C938707F02E84CC4332C6938570
S3151C002D60C506EF507053324611C27D54228562440B
S3151C002D70F240B2850561A9BA5C45011126CAC44751
S3151C002D8006CE22CC95E0B716051C3716051C8565A4
S3151C002D903725051C938606E9130686C29385C5C589
S3151C002DA01305858AEF20B0209385C4062E852EC672
S3151C002DB03724051CEF50B052930704F0DC5F130454
S3151C002DC004F0B2451305840285E7938584052E8598
S3151C002DD02EC6EF50D05083A704083840B245637303
S3151C002DE0F7003CC05147B387E702130544043E95E0
S3151C002DF0EF50904A5C4003A70408014583A70708C7
S3151C002E0063F6E70085472328F40A0545F240624429
S3151C002E10D24405618280011122CC3724051C13077C
S3151C002E2004F0585F06CE26CA15E3B716051C3716DE
S3151C002E30051C8565938606EA130646C4938535C923
S3151C002E403725051C1305858AEF2070163707008069
S3151C002E504445D98D0CC189ECB716051C3716051CC3
S3151C002E608565938606E9130646C49385B5C9C9BF0D
S3151C002E70EF50F046938584052E852EC6130404F068
S3151C002E80EF50F04583A704083840B2456373F7003A
S3151C002E903CC05147B387E702130544043E95EF50E7
S3151C002EA0B03F5C4003A7040883A7070863F5E70047
S3151C002EB085472328F40AF2406244D2440561828085
S3151C002EC0411122C43724051C930704F0D85F06C69B
S3151C002ED001CB054723A8E70AB24022444101828060
S3151C002EE0130404F02328040A5C4037A7A5A513077E
S3151C002EF0575A83A747089043631BE600D44363983D
S3151C002F00C60098476315D700DC476388E70048402E
S3151C002F104C4093858508EF60D00C3C40D1453387E7
S3151C002F20B702B306E400F04205CAB0461387C604CE
S3151C002F305042B0C66314E6005842B8C651473387A0
S3151C002F40E70222973847584758C03CC05C409387D5
S3151C002F50070B23A0F11A49B795E3B716051C3716BC
S3151C002F60051C85653725051C938606ED1306C6BB11
S3151C002F70938585BE1305858AEF207003FD1745B71B
S3151C002F80B727051C938707F0D843D443685783A6F5
S3151C002F900608D8439547958F7CD78280B727051C92
S3151C002FA0938707F0C8438280B727051C938707F0D1
S3151C002FB0054723A8E70A8280B727051C938707F0D5
S3151C002FC003A7870A054509C7C85F133515000605FB
S3151C002FD082805DC1011126CAB724051C138704F023
S3151C002FE054438327050806CE83A6060822CC938461
S3151C002FF004F063FBD706785563480700D840832640
S3151C00300007081547158F78D5D146B387D70213877E
S3151C0030104404BA9738556313F704930585052A8427
S3151C0030202E852EC6EF50B02BDC40B24503A50708F3
S3151C003030BC402320A40863F3A700A8C0D1473305CE
S3151C003040F502B727051C938747F43E95EF50D0240D
S3151C0030500545F2406244D24405618280DC4083A768
S3151C00306007082320F508EDB75C430325450A83A70B
S3151C00307007083335F500F1BF0145828009E9014592
S3151C00308082800145F2406244D2440561828001116E
S3151C00309026CAB724051C938704F022CCC04306CE4F
S3151C0030A0938404F06302A402B716051C3716051C8C
S3151C0030B085653725051C938606EE130686CAE90523
S3151C0030C01305858AEF20A06E8327840A8DE3B71625
S3151C0030D0051C3716051C85653725051C938686EF4A
S3151C0030E0130686CAED051305858AEF20406C8326D8
S3151C0030F004080327440AFD172324F40AE383E6F88D
S3151C003100C9F3930584052E852EC6EF50501D032545
S3151C003110440A9547B245898F7CD4BC402320A40819
S3151C00312063F3A700A8C0D1473305F5029384440472
S3151C0031302695EF5070160545B1B775C18326850ACD
S3151C003140011122CC06CE26CA2A8495E2B716051C86
S3151C0031503716051C85653725051C938686EF1306D1
S3151C00316006CC938595061305858AEF204064832734
S3151C003170450A63F3B700AE8703270408630CF708F8
S3151C00318005466399C608B724051C938604F0D442E9
S3151C003190938404F063938602B716051C3716051C28
S3151C0031A085653725051C938606F1130606CC938583
S3151C0031B045081305858AEF20805F74542320F40884
S3151C0031C063C606009546B387F6407CD4D1463307C2
S3151C0031D0D702938744043E973C54639DE7029305AC
S3151C0031E084052E852EC6EF50900F03250408BC407F
S3151C0031F0B24563F3A700A8C0D1473305F502624464
S3151C003200F240D244B727051C938747F405613E95C7
S3151C0032106F509008F2406244D244056182808280DD
S3151C00322001C50325050A82800145828019C1232018
S3151C003230B50A8280B727051C138707F05843938766
S3151C00324007F019C7D44303A7860A050723A4E60A71
S3151C003250C8438280B727051C938707F003A7470B33
S3151C0032609C4318C15CC18280011122CC26CA52C45F
S3151C003270AA843724051C06CE4AC84EC6EF50300A0F
S3151C003280930704F003A7C70A3725051C130404F08B
S3151C003290050723A6E70ADC43130A45F4E1E344C009
S3151C0032A00327C40A85476310F706130545F4EF5038
S3151C0032B0007D13058405EF50807C1305C406EF5072
S3151C0032C0007C13050408EF50807B13054409EF505E
S3151C0032D0007B9309C40B4E85EF50607A1309040DCD
S3151C0032E04A85EF50C07913058402EF5040791305C7
S3151C0032F0440EEF50C07813058400EF50407823200D
S3151C0033003403232E24018327840F03A50408850771
S3151C003310232CF40E23AEF4083C4063F3A70028C00C
S3151C003320D1473305F502938584055295EF50C07637
S3151C003330EF5090018327840A95CF5C4003A70708AA
S3151C00334083A704086378F7026244F240D2444249D8
S3151C003350B249224A014505616F50B03B8327840A56
S3151C003360DDF35C4003A7070883A70408E3EDE7F831
S3151C00337044C051BFF2406244D2444249B249224A37
S3151C0033800561828079714AD02A891315260006D6D2
S3151C00339022D426D22ECE32CC36CA3AC83EC6EF101E
S3151C0033A0A05539C1AA841305004EEF10E0542A8497
S3151C0033B02A8EF2456246D2464247B2471DC12A882A
S3151C0033C023229508A30E054C81484A85EFF0EF9AF7
S3151C0033D02285593D0545B2502254925402594561E5
S3151C0033E082802685EF10C0577D55F5B7411122C442
S3151C0033F03724051C130404F0B715051C3795001C4F
S3151C0034009307C40F3707008081461306800C9385EB
S3151C00341085F2130585B726C24AC006C605499D37DF
S3151C003420AA84631B2503EF108019AA84631625033F
S3151C003430EF50302E5C40B2409387070B23A0F11A45
S3151C003440FD575CD02324940A232004002244924472
S3151C003450024941016F503027FD576393F402B7169A
S3151C003460051C3716051C85653725051C938606F332
S3151C003470130606B4938515831305858AEF2020331E
S3151C003480B2402244924402494101828058490111AA
S3151C00349006CE22CC26CA0DE3B716051C3716051C0C
S3151C0034A03725051C938646F4130646A99305102B4F
S3151C0034B01305858AEF20A02F2A841305004E2EC6DD
S3151C0034C0EF108043AA842A8E7D55B2478DC4584876
S3151C0034D093088401268823A2E4080547A38EE44C9E
S3151C0034E018485444035684004C400840EFF0EF88BB
S3151C0034F026859D3B0545F2406244D2440561828087
S3151C003500411122C426C23724051CAA8406C64AC0F9
S3151C003510130404F0EF50A06091E044401389840525
S3151C0035204A85EF50C05BFC5C89C71385C406EF5007
S3151C003530005B8327840F8507232CF40E5C4063965F
S3151C0035409704CA851305440EEF50005583270410B3
S3151C00355085072320F410EF50205F8327840AA9CB0C
S3151C0035605C40639797045C5C85CFB716051C3716C1
S3151C003570051C3725051C938686F61306C6AA9305D5
S3151C003580E04D1305858AEF2080228327C40A2685F1
S3151C003590FD172326F40AEFF0CF9FEF50605665BF48
S3151C0035A02244B24092440249014541016F507016B3
S3151C0035B0B2402244924402494101828001112AC62A
S3151C0035C006CEEF50C055324511E5B727051C93872B
S3151C0035D007F0C843032505082AC6EF50E056F240FB
S3151C0035E0324505618280011106CE22CC26CA4AC804
S3151C0035F04EC652C40DE1B716051C3716051C3725D9
S3151C003600051C938686D7130646AD930540571305AE
S3151C003610858AEF20C0193724051C130404F0584072
S3151C0036202A890145630E2703EF50604F032A0402C3
S3151C003630832489068329C401EF50005109456381FF
S3151C0036404403638F3401930784006393F4020327B6
S3151C003650C90719E70347C94D85466383E6000D452F
S3151C003660F2406244D2444249B249224A05618280F0
S3151C0036701304440E1145E38584FEFDD00545CDB7E4
S3151C003680011106CE22CC26CA4AC8914763F2B7025C
S3151C003690B716051C3716051C3725051C938646F8D8
S3151C0036A0130646AE9305E0601305858AEF202010AD
S3151C0036B02EC62A84EF50A046B24511E4B727051C36
S3151C0036C0938707F0C0430327440A638AE508372912
S3151C0036D0051C130909F0637BB7088327490081443D
S3151C0036E0638A87008327490083A40708B3B495001F
S3151C0036F093C41400832704086314F7002320B4081A
S3151C00370078542322B40A634607001547B305B7400D
S3151C0037106CD4D146B387D70213074904BA973854D9
S3151C003720631BF702930584052E852EC6EF50203B9E
S3151C0037300325040883270904B24563F4A700232044
S3151C003740A904D1473305F502B727051C938747F40F
S3151C0037503E95EF50603481C40145EF50807B624436
S3151C003760F240D244424905616F50003E8324490011
S3151C003770818C93B41400BDBF411122C426C23724C8
S3151C003780051CAA8406C64AC0130404F0EF5020394F
S3151C00379091E04440138984054A85EF504034FC5C13
S3151C0037A089C71385C406EF508033CA851305840068
S3151C0037B0EF50802E83C7C44D05476314F700238E34
S3151C0037C0044CEF5060388327840A99C7EF50203584
S3151C0037D0EF500033EF5040375C40639697048327C5
S3151C0037E0840A9DCB5C5C8DC3B716051C3716051C5D
S3151C0037F03725051C938686F6130686AF9305006F40
S3151C0038001305858AEF10B07A2244B24092440249CD
S3151C003810014541016F50E06F18448327C40A631A9F
S3151C003820F70023220400B24022449244024941017B
S3151C00383082802244B2409244024941016FF04FE813
S3151C003840011106CE22CC26CA0DE1B716051C371669
S3151C003850051C3725051C938686D6130606B29305CA
S3151C00386040741305858AEF1090743724051C930742
S3151C00387004F0DC43AA84130404F06384A706EF5007
S3151C003880002AB854930784006317F704FC5C1307DB
S3151C00389084026382E704A1E3938584052E852EC6E4
S3151C0038A0EF50E02383A704083840B2456373F70042
S3151C0038B03CC05147B387E702130544043E95EF50BD
S3151C0038C0A01D5C4003A7040883A707086365F700CF
S3151C0038D00145EF5000646244F240D24405616F50CA
S3151C0038E0A026F2406244D24405618280797122D4BA
S3151C0038F03724051C930704F0DC5F06D626D24AD073
S3151C0039004ECE52CC95E3B716051C3716051C85659D
S3151C0039103725051C938606FA130646B59385058A34
S3151C0039201305858AEF10B068130404F0EF50201FAE
S3151C0039305C5CFD175CDC5C5C91CF01452AC6EF50D4
S3151C003940A020B2502254324592540259F249624A7E
S3151C003950456182808327C40A8144E5D31309440444
S3151C003960D149054A1C548DEB99C0EF50601983242C
S3151C003970840B99C80549EFF00F9D19C12328240B08
S3151C003980FD14F5F8232C040A8327040BDDD7014507
S3151C003990EF50205805455DB75C58C4471385C406CF
S3151C0039A0EF50E013938584052E852EC6EF50201309
S3151C0039B003A504083C40B24563F3A70028C03305A1
S3151C0039C035034A95EF50400D5C4003A7040883A7B6
S3151C0039D00708E369F7F82328440B69B701E9014591
S3151C0039E021A0F240014505616F50A052B727051C66
S3151C0039F0938707F0DC5F011106CE8DC3B716051C35
S3151C003A003716051C3725051C938686F6130686ACC9
S3151C003A10930580541305858AEF1070592AC6EFE06A
S3151C003A20DFEB32458145EFE0BFCAC9355DD9F240AF
S3151C003A3005618280011106CE22CC26CA0DE1B7167D
S3151C003A40051C3716051C938686FB130686AB930549
S3151C003A50204F3725051C1305858AEF10505581ED1F
S3151C003A60B716051C3716051C9386C6FC130686ABB3
S3151C003A709305304FF9BFB724051C938404F0DC5C16
S3151C003A8081CFB716051C3716051C938686F61306BA
S3151C003A9086AB9305404F75BF2A842EC6EFE0FFE325
S3151C003AA01840B2458840B307B7001CC0637CE500CC
S3151C003AB063ECE700253D0DE16244F240D24405610A
S3151C003AC06F50204563E4E700E376F5FE81453385B8
S3151C003AD0A740EFE0FFBFF9BFF2406244D244056144
S3151C003AE08280411122C426C24AC006C62E8432894F
S3151C003AF0AA8411E5B727051C938707F0C44393874F
S3151C003B0084085CC083A7040804C01CC883A7440897
S3151C003B105CCC83A7C4091CC483A7440A232C0400B9
S3151C003B205CC89547638DF604B727051C938707F079
S3151C003B30DC43639A9702232604006308090483A6C0
S3151C003B4044081306500A368783450700B307D74037
S3151C003B50638BC50289832310F402B240224492442B
S3151C003B6002494101828054C48D47E398F6FCEFE07C
S3151C003B70DFD6FC5C99C389475CC48D3B7DBF26851B
S3151C003B809D3448C45DBF0507C1B723100402F1B7B5
S3151C003B909C41797126D206D622D44AD04ECE52CC1E
S3151C003BA056CA5AC85EC68144B9C7DC41938A850089
S3151C003BB0DC43DCC163945701DC45DCC1DC41B289C2
S3151C003BC02E8403ABC7002A898144930B40025C40B8
S3151C003BD0DC435CC06394FA005C445CC0B38574032C
S3151C003BE05C40CE86054603AAC70085045285CA9545
S3151C003BF0CD3DE31E4BFDB2502254268502599254EC
S3151C003C00F249624AD24A424BB24B4561828001114B
S3151C003C104AC806CE22CC26CA4EC652C456C22A89C9
S3151C003C20EF202017BD4763F3A702B716051C3716EE
S3151C003C30051C85653725051C938646FE130646B767
S3151C003C40938555991305858AEF107036B724051C84
S3151C003C50938404F0EFE07FC88149938A4409130AD0
S3151C003C60C0F9CA8533853A01EFE07F8B2A840DEDB6
S3151C003C70B119E39849FF8850CA85EFE05F8A2A8408
S3151C003C8005E5C84CCA85EFE09F892A8411EDCA85D3
S3151C003C9013858400EFE0BF882A8419E5CA8513853D
S3151C003CA0440EEFE0DF872A8491312285F24062447C
S3151C003CB0D2444249B249224A924A056182803971EC
S3151C003CC022DC26DA52D456D22EC606DE4AD84ED668
S3151C003CD05AD05ECE2A8AB28AB724051CEFE0FFBFF3
S3151C003CE0938704F083A7C70AB245014463E9F50626
S3151C003CF0938404F081490144938B440913094002BF
S3151C003D00130BC0F933052403B3853B010546B119D2
S3151C003D105295BD3D2A94E39769FF330524038C50C5
S3151C003D2009465295B5352A9433052403CC4C0946CD
S3151C003D305295B93D2A943305240311469385440EA6
S3151C003D405295B9352A94330524030D469385840070
S3151C003D5052953D3D2A9463840A0023A00A007936B5
S3151C003D602285F2506254D2544259B259225A925A5E
S3151C003D70025BF24B21618280011122CC3724051C87
S3151C003D80130404F05C5C06CE95C3B716051C3716E7
S3151C003D90051C85653725051C938686F6130646B8CD
S3151C003DA09385E5A31305858AEF1070202AC6EFE0DC
S3151C003DB0DFB28327840B3245F2403E95232CA40A9E
S3151C003DC06244056125B6411106C622C426C24AC0F4
S3151C003DD015E1B716051C3716051C85653725051C08
S3151C003DE0938686D7130686B9938515A51305858AEA
S3151C003DF0EF10F01B2A84EFE05FAE2285EFF0AFFEDA
S3151C003E00894701496313F506130984054A85EF4062
S3151C003E10104DEF40D0507C5C81CB1305C406EF409F
S3151C003E20104C8547230FF44CEF401052B724051C49
S3151C003E30138704F0832704083843938404F06373C0
S3151C003E40F700BCC05147B387E70213854404CA85F3
S3151C003E5005493E95EF405044DC400327040883A7E0
S3151C003E60070863F4E70023A8240B4934B240224414
S3151C003E704A859244024941018280011106CEEF40D7
S3151C003E80104AB727051C03A507F02AC6EF40D04BDE
S3151C003E90F240324505618280011106CE22CC26CA2B
S3151C003EA015E1B716051C3716051C8565938606D8BD
S3151C003EB0130646CE9385C52B3725051C1305858A07
S3151C003EC0EF10F00E32C636C42A84AE84EF4030455D
S3151C003ED0A246324681C68327844D9CC28347C44D65
S3151C003EE00947230EE44C114793F7F70F6367C70482
S3151C003EF03727051C1307C7920A063A9618420287EB
S3151C003F008325844DCD8C232C944C31A00327844DC2
S3151C003F100507232CE44C05476382E70405452AC69E
S3151C003F20EF409042F24062443245D24405618280A1
S3151C003F300947E39AE7FC0145DDB78326844D7D5787
S3151C003F40E38BE6FCB716051C3716051C85659386A0
S3151C003F5006D9130646CE9385D52EB9BF930584057F
S3151C003F602E852EC6B724051CEF407037138704F028
S3151C003F70832704083843938404F0B2456373F7001F
S3151C003F80BCC05147B387E702138544043E95EF40F6
S3151C003F90B0307C5C89CFB716051C3716051C8565A9
S3151C003FA0938606DB130646CE9385C52F31B7DC40B8
S3151C003FB00327040883A70708E3F2E7F60145EF4049
S3151C003FC05075A9BF797122D426D24AD04ECE36C698
S3151C003FD03724051C06D62A89AE84B289EF403034B4
S3151C003FE0930704F0DC430947130404F083C7C74D49
S3151C003FF0B2466307F7025C401349F9FF054703A560
S3151C004000874D3379A90023AC274D5C40238EE74CA2
S3151C00401081CA36858545EFE0AFEB0145EF40706FF1
S3151C004020EF409032EF40B02F638709005C4083A7B6
S3151C004030874D23A0F9005C400947014583C7C74D3E
S3151C004040631BF7005C4093C4F4FF054503A7874D2B
S3151C004050F98C23AC974C5C40238E074C2AC6EF4048
S3151C004060B02EB2502254324592540259F24945613F
S3151C0040708280011122CC26CA3724051CAA8406CEAE
S3151C0040802EC6EF40D029930704F0DC43130404F03A
S3151C004090324583A7874D81EF5C400547238EE74C4D
S3151C0040A019C58545EFE0CFE20145EF409066EF402C
S3151C0040B0B029EF40D0265C4003A5874D09C55C405E
S3151C0040C099CC23AC074C5C40238E074C2AC6EF4088
S3151C0040D0B027F24062443245D24405618280130700
S3151C0040E0F5FF23ACE74CC5B7011122CC26CA06CE78
S3151C0040F0B724051C938404F02A8411E1C0402EC603
S3151C004100EF40F021DC40B24503A5874D8327844D43
S3151C00411093C5F5FFFD8D232CB44C2AC6EF40D02247
S3151C004120F24062443245D24405618280011106CEBA
S3151C00413015E1B716051C3716051C85653725051CA4
S3151C00414093868600130686C69385F5CB1305858A4A
S3151C004150EF10E0652AC6EF40901CB727051C938715
S3151C00416007F0324503A7470B9C43F24018C15CC1BC
S3151C00417005616F40701D011106CE22CC15E1B716E4
S3151C004180051C3716051C856593868600130606C80E
S3151C004190938555CD3725051C1305858AEF1020619F
S3151C0041A089EDB716051C3716051C856593864601D1
S3151C0041B0130606C8938565CDF1BF2AC62EC4EF40EB
S3151C0041C01016B727051C938707F09443D84332452E
S3151C0041D0A2450347E74D11C7DC43238F074C054413
S3151C0041E00DA898417D5601446305C70283A7470B5A
S3151C0041F00328050050416305F800054463FBC6000F
S3151C004200B387C64063FEE7001D8F98C1EFF08F840D
S3151C0042100144EF4070132285F2406244056182809E
S3151C00422023A005006DBF411122C43724051C06C6F8
S3151C00423026C24AC013044400EF40700E1C409DEB7E
S3151C004240130944004A85EF40900393048401268594
S3151C004250EF40F0020146C14511452326240304D82C
S3151C004260EFD05F8308C019C5B715051C9385851843
S3151C004270EFD0EFE72244B2409244024941016F401D
S3151C004280B00C411106C64CC108C9AA876363B602A5
S3151C004290184D158E0545637BE60093854700B727A9
S3151C0042A0051C03A54703EF40B0000145B240410180
S3151C0042B082806375D6000545E3FAD5FE93854700D3
S3151C0042C0B727051C03A50703F9BF011156C2AA8A05
S3151C0042D01305C00222CC26CA4AC84EC652C406CEF4
S3151C0042E0AE843289368ABA89012D2A8421C92304CF
S3151C0042F005028DE0B716051C3716051C3725051C4F
S3151C004300938606191306C603930550161305858A4C
S3151C004310EF10E049093F130544002320540104CC47
S3151C004320232E440123203403EF40A07663080900A2
S3151C0043308347840293E747002304F4022285F24054
S3151C0043406244D2444249B249224A924A0561828059
S3151C004350011106CE0DE1B716051C3716051C3725AF
S3151C004360051C9386C61A130686149305E03F13058F
S3151C004370858AEF10C0432AC6EF40607A3245484D05
S3151C0043802AC6EF40607CF2403245056182800111ED
S3151C00439006CE0DE1B716051C3716051C3725051C60
S3151C0043A09386C61A1306C6159305E0401305858A1F
S3151C0043B0EF10E03F2AC62EC4EF4060763245A24578
S3151C0043C0F2404CCD05616F402078011106CE0DE1FF
S3151C0043D0B716051C3716051C3725051C9386C61AE9
S3151C0043E0130646139305503E1305858AEF10203C91
S3151C0043F02AC6EF40C07232450345850205892AC686
S3151C004400EF408074F240324505618280B727051C57
S3151C00441003A587031DE1B716051C3716051C372592
S3151C004420051C41119386461B1306C6069305C01A26
S3151C0044301305858A06C6EF10803782800111B68760
S3151C00444032C63E86B727051C2AC203A547002EC4C2
S3151C00445079578A85814606CE3AC0EFC01FF3F240D3
S3151C00446005618280B727051C83A74700011106CE6C
S3151C0044708DE3B716051C3716051C3725051C9386B8
S3151C004480861D130606179305A0431305858AEF1090
S3151C00449000323687FD5636C02AC22EC432C68A85DD
S3151C0044A081463A863E85EFC03F9EF240056182807A
S3151C0044B01DE1B716051C3716051C3725051C4111B1
S3151C0044C09386C61A1306C60D9305601F1305858AA7
S3151C0044D006C6EF10C02D08418280011106CE0DE1E3
S3151C0044E0B716051C3716051C3725051C9386C61AD8
S3151C0044F01306C6099305E01B1305858AEF10202BAE
S3151C0045002AC62EC4EF40A0613245A24583478502C8
S3151C00451089C993E747002304F502F24005616F4001
S3151C004520A062ED9BCDBF011106CE0DE1B716051C91
S3151C0045303716051C3725051C9386C61A1306060B4B
S3151C0045409305301D1305858AEF1060262AC6EF4099
S3151C004550005D324503458502098105892AC6EF405F
S3151C004560A05EF2403245056182801DE1B716051C2E
S3151C0045703716051C3725051C41119386C61A1306CA
S3151C004580C6089305501B1305858A06C6EF10202204
S3151C004590084D82801DE1B716051C3716051C3725EC
S3151C0045A0051C41119386C61A1306860C9305C01E5C
S3151C0045B01305858A06C6EF10801F4841828041116B
S3151C0045C006C69531B727051C9387470098430DE30C
S3151C0045D0B716051C3716051C3725051C9386461E63
S3151C0045E013064602930530111305858AEF10201C0D
S3151C0045F037070080B715051C3745001C93874703F2
S3151C004600110781461306800C9385C51E130505727A
S3151C004610EFE05FD755DDB24041018280797106D645
S3151C00462022D40DE1B716051C3716051C3725051CAB
S3151C0046309386C61A13064605930520181305858A04
S3151C004640EF10E0163724051C130444001C402A886E
S3151C004650014595C7B6882EC832CA42CC954663C456
S3151C004660B6023AC6EFE05F953247894781463A86DD
S3151C0046706303F500014608400C08EFC0FF80B250EA
S3151C004680225445618280814646860C083E85EFC0D1
S3151C004690DFCFF5B7011126CAB724051C06CE22CCDE
S3151C0046A093844400DC54984309EB9858F2406244C6
S3151C0046B0D8D49CD8D24405618280DC47C04790433D
S3151C0046C0930544002E852EC632C4EF4040411C5033
S3151C0046D02285829783478402B2452246918BF9D361
S3151C0046E01C4CB2976378F600C8545CC000C8EF40F7
S3151C0046F0203C4DBF014781468145228505375DF12A
S3151C004700B716051C3716051C3725051C9386461F30
S3151C004710130606129305D0391305858AEF10200956
S3151C004720397126DA52D4B724051C372A051C56D2F1
S3151C00473006DE22DC4AD84ED693844400A54A130AC8
S3151C0047400A94DC54984315CFDC47014483A907001F
S3151C004750EFE0AF98EFF06FF29C5C2A896366F50276
S3151C00476088DC41C09C589043133616008840B3859C
S3151C0047702941EFD08FA3EFF06F9701EDEF406079E1
S3151C00478009A805448149E9B7313723AC2403EFF066
S3151C004790EF95884001460C08EFC0BFA25DD1C24709
S3151C0047A063D60700F2456245D2478297C247E3C2E9
S3151C0047B007FE62445C4889C713054400EF4020325B
S3151C0047C0EFF0AFEB9C5C2A866375F5002AC6D935DB
S3151C0047D03246C24790DCE3EEFAFA8A07D2979C432C
S3151C0047E082870146E36435F9EFF04F90DC54DC47D1
S3151C0047F0C04713054400EF40802E8347840213F7FD
S3151C00480047001DCF0C4CCE864A86CE952285953CFC
S3151C0048101DC9014781464E8681452285013505E520
S3151C004820B716051C3716051C9386461F1306C60E9F
S3151C004830930510213725051C1305858AEF00307753
S3151C004840F99B2304F4021C502285829799B783474F
S3151C00485084020C4CD24693E717002304F402B69547
S3151C00486022850534E30705F21C502285829783476F
S3151C0048708402918BE38F07F01C4C524601478146FC
S3151C0048803E9681452285593BE31505F0B716051C56
S3151C0048903716051C9386461F130646109305C03211
S3151C0048A051BF83478402F99B2304F402DDB5834779
S3151C0048B08402D24593E717002304F4020CCC81ED45
S3151C0048C0B716051C3716051C9386C61F13064610FD
S3151C0048D09305403485B7B286B29522855D3255BDA7
S3151C0048E08347840213F727005DFF2285952855B55B
S3151C0048F04CD1828048518280411122C406C626C2F0
S3151C0049009377F5002A8481C7137405FF4104EFD001
S3151C004910DFFC03A7C11E9387C11E19E73737051C89
S3151C004920130707B1419B98C31387011F14431166D4
S3151C0049303D16369463788600EFE05FFBEF40B06867
S3151C004940814409A8E3FA86FE844300C3B694EFE0CB
S3151C004950FFF9EDD4B240224426859244410182805F
S3151C0049601DC1B716051C3716051C3725051C41111C
S3151C004970938606301306462F930510081305858A61
S3151C00498006C6EF00D062828023A8011E828003A582
S3111C004990011F9167C1173385A740828068
S3151C00500097E1040093810186172105001301816F26
S3151C00501017B5FFFF1305057F7310553097E2040083
S3151C0050209382429F17E30400130383AB23A0020061
S3151C0050309102E3ED62FE170500001305657EEF0085
S3151C005040407BEF005006EF9070543705101A13057D
S3151C00505005002320050002454C000146EF40C072A6
S3151C0050606F00E07982800000000000000000000054
S3151C005070000000000000000000000000000000000E
S3151C00508000000000000000000000000000000000FE
S3151C00509000000000000000000000000000000000EE
S3151C0050A000000000000000000000000000000000DE
S3151C0050B000000000000000000000000000000000CE
S3151C0050C000000000000000000000000000000000BE
S3151C0050D000000000000000000000000000000000AE
S3151C0050E0000000000000000000000000000000009E
S3151C0050F0000000000000000000000000000000008E
S3151C00510073900234F322203463C4021A93F2F23FE2
S3151C005110E11263C50200F11263CC020AF3220034C9
S3151C0051207310013417D104000321C1F1130181F757
S3151C00513006C20EC612C816CA1ACC1ECE22D026D23B
S3151C0051402AD42ED632D836DA3ADC3EDEC2C0C6C2E5
S3151C005150CAC4CEC6D2C8D6CADACCDECEE2D0E6D215
S3151C005160EAD4EED6F2D8F6DAFADCFEDE7327103471
S3151C005170F32700303AC13EC3F392023416C4EF4003
S3151C005180205B8A421A437390123473100330924088
S3151C005190B2414242D2426243F243025492542255D5
S3151C0051A0B2554256D2566257F25706489648264979
S3151C0051B0B649464AD64A664BF64B065C965C265D55
S3151C0051C0B65D465ED65E665FF65F22417300203092
S3151C0051D0914263C4A206970200009382E2000A056C
S3151C0051E0AA9282826F0080056F0000016F00600129
S3151C0051F06F00C0016F006002130500087330053094
S3151C00520025A0130500087320053039A83725000092
S3151C005210130505807320053001A8372500001305EA
S3151C00522005807330053009A0F32210349102739067
S3151C0052301234F32200347300203039A2F3220034D6
S3151C005240130181F706C20EC612C816CA1ACC1ECE88
S3151C00525022D026D22AD42ED632D836DA3ADC3EDEF4
S3151C005260C2C0C6C2CAC4CEC6D2C8D6CADACCDECE64
S3151C005270E2D0E6D2EAD4EED6F2D8F6DAFADCFEDED4
S3151C00528073271034F32700303AC13EC393024700FC
S3151C00529016C19302810816C417D404000324C4C67D
S3151C0052A0232024008A8417D104000321A1D975A0C8
S3151C0052B0F3220034130181F706C20EC612C816CAA1
S3151C0052C01ACC1ECE22D026D22AD42ED632D836DAE4
S3151C0052D03ADC3EDEC2C0C6C2CAC4CEC6D2C8D6CA14
S3151C0052E0DACCDECEE2D0E6D2EAD4EED6F2D8F6DAC4
S3151C0052F0FADCFEDE73271034F32700303AC13EC3B6
S3151C0053009302810816C417D404000324E4BF232087
S3151C00531024008A8417D104000321C1D2F32320342C
S3151C00532093F3F33F1303700063986300EFD0BF81C0
S3151C00533011C125A0268125A817D10400032181D0DF
S3151C005340EF40003F268125A0F3222034732310341E
S3151C005350F323003073005010C5BFEFD07FB617D4AF
S3151C0053600400032464BA03210400EF30502417D42C
S3151C0053700400032464B91A45EF30B07917D404002D
S3151C005380032484B82243232064008A421A43739060
S3151C0053901234731003309240B2414242D2426243ED
S3151C0053A0F243025492542255B2554256D256625773
S3151C0053B0F257064896482649B649464AD64A664B87
S3151C0053C0F64B065C965C265DB65D465ED65E665FF3
S3151C0053D0F65F22417300203013000000130000000A
S3151C0053E0130000001300000013000000130000004F
S3151C0053F0130000001300000013000000130000003F
S3151C0054007310013417D104000321C1C31301010019
S3151C00541013018108130181F706C20EC612C816CAEB
S3151C0054201ACC1ECE22D026D22AD42ED632D836DA82
S3151C0054303ADC3EDEC2C0C6C2CAC4CEC6D2C8D6CAB2
S3151C005440DACCDECEE2D0E6D2EAD4EED6F2D8F6DA62
S3151C005450FADCFEDE73271034F32700303AC13EC354
S3151C005460F392023416C406C297D3040083A3C3A9BD
S3151C00547003A103001A45EF30D069EF30501397D3C0
S3151C005480040083A363A803A1030097D3040083A38A
S3151C005490A3A7224323A06300B712000093820288AD
S3151C0054A073A042308A421A4373901234731003302D
S3151C0054B09240B2414242D2426243F2430254925457
S3151C0054C02255B2554256D2566257F257064896484E
S3151C0054D02649B649464AD64A664BF64B065C965C46
S3151C0054E0265DB65D465ED65E665FF65F8A402241E5
S3151C0054F0730020301300000013000000130000008E
S3151C005500930385F723A2030023A4A30023A6330039
S3151C00551023A8430023AA030023AC030023AE0300E5
S3151C00552023A0030223A2030223A4C30223A603026D
S3151C00553023A8030223AA030223AC030223AE0302FD
S3151C00554023A0030423A2030423A4030423A6030405
S3151C00555023A8030423AA030423AC030423AE0304D5
S3151C00556023A0030623A2030623A4030623A60306DD
S3151C00557023A8030623AA030623AC030623AE0306AD
S3151C00558023A0B30823A2D30893020000638702005A
S3151C005590F11323A00300FD12D5BF1E8582801300C4
S3151C0055A0000013000000130000001300000013008D
S3151C0055B0000013000000130000001300000013007D
S3151C0055C0000013000000130000001300000013006D
S3151C0055D0000013000000130000001300000013005D
S3151C0055E0000013000000130000001300000013004D
S3151C0055F0000013000000130000001300000001004F
S3151C00560017D10400032101A48A421A437390123451
S3151C005610731003309240B2414242D2426243F2437B
S3151C005620025492542255B2554256D2566257F257DC
S3151C005630064896482649B649464AD64A664BF64B0C
S3151C005640065C965C265DB65D465ED65E665FF65F5C
S3151C005650224182801300000013000000130000008A
S3151C00566013000000130000001300000013000000CC
S3151C00567013000000130000001300000013000000BC
S3151C00568013000000130000001300000013000000AC
S3151C005690130000001300000013000000130000009C
S3151C0056A0130000001300000013000000130000008C
S3151C0056B0130000001300000013000000130000007C
S3151C0056C0130000001300000013000000130000006C
S3151C0056D0130000001300000013000000130000005C
S3151C0056E0130000001300000013000000130000004C
S3151C0056F0130000001300000013000000130000003C
S3151C00570083220500638202021303800893030300AD
S3151C00571063EC630063EA620033836240137303FF26
S3151C005720232065001A8511A0014582800000000017
S3151C0057300000000000000000000000000000000047
S3151C00574000000000000000000000000001CE9307CE
S3151C0057500002918F6349F0003305F040014733D5B1
S3151C005760A500BA85828033D7C5003355C500B395CD
S3151C005770F5004D8DFDB701CE93070002918F63494D
S3151C005780F000B305F0400147B315B5003A85828099
S3151C0057903317C500B395C5003355F500C98DFDB744
S3151C0057A04111194506C6692B0545EF30F06B83A7D9
S3151C0057B0011A4111328806C6AA882E873686C84722
S3151C0057C0630D0800B727051C9387C789B725051CD9
S3151C0057D0C6869385C58A7520E1373728051C93072D
S3151C0057E0888A1308888ADDB74111B286014606C627
S3151C0057F07D3FAA858146014601456F10200941114E
S3151C005800814522C406C62A84EF10400E03A5C11981
S3151C0058105C5D91C382972285EF3010650111B70735
S3151C00582000003707000022CC13070700138407006B
S3151C005830198C26CA4AC84EC606CE098481441389C9
S3151C0058400700F159631A94006244F240D24442495B
S3151C005850B24905616FF01F81B38734038504CA976B
S3151C00586083A7C7FF8297F9BF397136D6741006CE47
S3151C0058703AD83EDA42DC46DE36C6E923F2402161DE
S3151C005880828039713EDA32D42E86AA8503A5011A86
S3151C00589036D6341006CE3AD842DC46DE36C65D23F2
S3151C0058A0F24021618280411122C426C237040000C5
S3151C0058B0B704000093870400130404001D8C4AC01F
S3151C0058C006C6098493840400014963198902B70436
S3151C0058D00000EFF02FF9370400009387040013042F
S3151C0058E004001D8C0984938404000149631D8900EE
S3151C0058F0B240224492440249410182809C400509DF
S3151C00590091048297D9B79C40050991048297F9BFE7
S3151C00591039713EDA83A7011A32D436D62ED23AD83A
S3151C00592042DC46DE8C4754102A863E8506CE36C699
S3151C005930112BF24021618280397132D436D63AD885
S3151C0059403EDA42DC46DE2E860C45341006CE36C6C2
S3151C005950D529F24021618280B3C7A5008D8B330700
S3151C005960C50081E78D4763EFC700AA876369E50019
S3151C005970828083C6050085078505A38FD7FEE3EACB
S3151C005980E7FE828093773500BDEBAA879376C7FF27
S3151C005990138606FE63FCC70683A3050083A2450087
S3151C0059A083AF850003AFC50083AE050103AE450179
S3151C0059B003A3850183A8C5019385450293874702E6
S3151C0059C003A8C5FF23AE77FC23A057FE23A2F7FF2F
S3151C0059D023A4E7FF23A6D7FF23A8C7FF23AA67FE96
S3151C0059E023AC17FF23AE07FF75B783C605008507D3
S3151C0059F08505A38FD7FE93F63700E5FA41BFAA8724
S3151C005A00DDBF90419107910523AEC7FEE3EBD7FEA0
S3151C005A10E3E7E7F682803D482A876373C8029377DB
S3151C005A20F700BDEFADE5937606FF3D8ABA960CC32B
S3151C005A304CC30CC74CC74107E36BD7FE11E28280EF
S3151C005A40B306C8408A069702000096966780A60091
S3151C005A502307B700A306B7002306B700A305B700A4
S3151C005A602305B700A304B7002304B700A303B7009C
S3151C005A702303B700A302B7002302B700A301B70094
S3151C005A802301B700A300B7002300B700828093F55B
S3151C005A90F50F93968500D58D93960501D58D61B727
S3151C005AA0939627009702000096968682E78086FAD0
S3151C005AB09680C1171D8F3E96E374C8F8A5B7397139
S3151C005AC022DC2A842E852EC606DEE124B727051C79
S3151C005AD09387C78D3ED485473ED61C10B2453ECA19
S3151C005AE089473ECC1C5C2AD205052ED02ACE0C44F6
S3151C005AF091E722852EC6EF10E010B2458397C500AC
S3151C005B0013972701634B07008966F851D58F239697
S3151C005B10F500F977FD17F98FFCD150082285EF1097
S3151C005B20A054FD5711E1A947F25062543E852161EC
S3151C005B308280AA8503A5011A59B7411122C42E8455
S3151C005B408C4126C206C6AA8491C1C53FA2852244A1
S3151C005B50B2402685924441016F10203783A7011A53
S3151C005B60638FA7087C45011122CC26CA4AC806CEDB
S3151C005B704EC62A8481441309000885EB2C4081C536
S3151C005B802285EF1080348325841495CD9304C41488
S3151C005B90638B950203A905002285EF100033CA8585
S3151C005BA0C5BFA6958C4189E991046C44E39B24FFEF
S3151C005BB02285EF108031D9B783A905002285EF1005
S3151C005BC0C030CE85CDB76C4881C52285EF10E02F3D
S3151C005BD01C5C99CF5C5C228582978325042E89C91F
S3151C005BE022856244F240D2444249B2490561B1B7AA
S3151C005BF0F2406244D2444249B249056182808280A5
S3151C005C000327C52D15EB41119305000822C406C6B2
S3151C005C102A84EF10701B232EA42CFD5709C9930749
S3151C005C200508232005001105E31DF5FE8147B2403A
S3151C005C3022443E854101828081473E8582804111F6
S3151C005C4026C206C622C44AC07D47AA846376B7000C
S3151C005C50594718C17D5531A88327C52D32892E84F5
S3151C005C6099CF9315240003A4C42DA295884123A083
S3151C005C702501B2402244924402494101828049379F
S3151C005C806DD1C9BFFD4763F6B700D9471CC17D5509
S3151C005C9082808327C52D011122CC06CE2E862A840E
S3151C005CA091C713972500BA97984319EB228532C6DC
S3151C005CB0F928AA85228562443246F24005614DA028
S3151C005CC0854601456308D700FD566319D700D94799
S3151C005CD01CC00545F2406244056182802E8523A0C6
S3151C005CE0070002970145FDB7FD4763F4B7007D55D4
S3151C005CF082808327C52D411122C426C206C6AA84CA
S3151C005D002E849DC783A7C42D1317240005453E97D3
S3151C005D101C4395C3FD560945638FD70085460D4523
S3151C005D20638BD7002285232007008297014521A07B
S3151C005D30C13D69D97D55B2402244924441018280BD
S3151C005D40AA8503A5011A3DBF2E86AA8503A5011A9D
S3151C005D50FDB503A5011A6DB5AA8503A5011A69B778
S3151C005D60411122C426C2AA842E85B28506C623AC3E
S3151C005D700126EF301012FD576316F50083A7812705
S3151C005D8091C39CC0B24022449244410182806F3030
S3151C005D90900FAA87850703C7F7FF6DFF3385A740BA
S3151C005DA07D1582801C46797122D406D626D24AD00D
S3151C005DB04ECE52CC56CA5AC85EC662C4328485E3DD
S3151C005DC0232206000145B250225492540259F2492C
S3151C005DD0624AD24A424BB24B224C45618280FC51EC
S3151C005DE02E8913972701635A070404422A8AFD5BEE
S3151C005DF01C4499E701452324040023220400E1B72F
S3151C005E0083A9440003AB0400814A13DC290063CB3D
S3151C005E108A011C4493F9C9FFA104B3893741232481
S3151C005E203401F9B783250B004A865285EF00D079D9
S3151C005E30110B63077501850AD9BFEF10E02265BFF8
S3151C005E407D5555BF69712324811223202113232ECE
S3151C005E503111232C41112326111223229112232A9C
S3151C005E605111232861112326711123248111232208
S3151C005E7091112320A111EEDFAA892E84328A36893C
S3151C005E8009C51C5D99E3EF00F0578317C4001397EF
S3151C005E902701634B070089667850D58F2316F400BB
S3151C005EA0F977FD17F98F7CD08357C400A18BA5C346
S3151C005EB01C48B1CF8357C4002947E98B6390E7067A
S3151C005EC08317E40063CC0704CA865286A2854E85D6
S3151C005ED0EF00D005AA8B8320C112032481125E8594
S3151C005EE083244112032901128329C111032A81111A
S3151C005EF0832A4111032B0111832BC110032C811002
S3151C005F00832C4110032D0110FE5D55618280A285F4
S3151C005F104E85EF00500A59DDFD5B75BF130BC1049E
S3151C005F20DAC082C482C25A8702D202CE02D002D4FE
S3151C005F30814BD2849306500283C7040099C3639C89
S3151C005F40D706B38A444163880A02A6472320470121
S3151C005F5023225701D697BEC496479D46210785071F
S3151C005F60BEC263D9F6009000A2854E85253D6317F7
S3151C005F7005765A87D69B83C70400638A0778138ADB
S3151C005F801400A30D0102FD54814A014D294C930CAA
S3151C005F90A0021308A005A54503460A00050A930698
S3151C005FA006FE6364D866B727051C8A06938787AEE8
S3151C005FB0BE9694428286850441B7B726051C9386F5
S3151C005FC0068E36D293760D026382064E1D09137910
S3151C005FD089FF83280900832C4900130C89009376BA
S3151C005FE01D0081CEB3E6980189CA93060003230ED1
S3151C005FF0D102A30EC102136D2D00137DFDBFADA4EE
S3151C0060004E853AC8EF10A04148412AD459332AD0AC
S3151C0060104E85EF10C0400845825742472ACEB5DB55
S3151C0060202DD983460500B5D6136D0D409DB7834605
S3151C006030B103A5F293060002A30DD10299BF136DFD
S3151C0060401D0081BF832A09001109E3D40AF4B30A8F
S3151C0060505041136D4D0035BF9306B002F1BF034688
S3151C0060600A0093061A006318960383240900130674
S3151C006070490063D30400FD543289368A19BFB384A0
S3151C0060808403850603C6F6FFAA94130506FDE3F8EA
S3151C006090A5FE368A29B78144CDBF136D0D08D5BD23
S3151C0060A0D286814AB38A8A03130606FD8506B29AEE
S3151C0060B003C6F6FF130506FDE3F6A5FED9BF034688
S3151C0060C00A00930680066316D600050A136D0D207A
S3151C0060D0C9B5136D0D0475BD03460A009306C006AB
S3151C0060E06316D600050A136D0D0265B5136D0D01F9
S3151C0060F04DB583260900130C4900A30D0102230686
S3151C006100D1088544814C1309C10869A2136D0D0180
S3151C00611093760D02B9C61D09137989FF83280900D8
S3151C006120832C4900130C890063DE0C00B308104154
S3151C006130B336100133039041B30CD3409306D002FF
S3151C006140A30DD102FD566398D43863950C3EA54623
S3151C00615063E2163F93880803A307110F1309F10E78
S3151C006160D9A693760D01130C490091C68328090004
S3151C00617093DCF84155BF93760D048328090089C624
S3151C006180C20893D80841EDB793760D20F5D2E208E4
S3151C00619093D88841F1BF13760D0283260900110995
S3151C0061A019C693D7FB4123A07601DCC259B31376DB
S3151C0061B00D0101C623A07601ADBB13760D0409C6DD
S3151C0061C0DE872390F600B5B393770D20E5D7DE87DF
S3151C0061D02380F600B9BB136D0D0193760D029DCE7F
S3151C0061E01D09137989FF83280900832C4900130C88
S3151C0061F08900137DFDBF8146A30D01027D56638F69
S3151C006200C42C6A86B3E59801137DFDF76398052CAB
S3151C0062106383043E05466396C62C2DBF93760D01FB
S3151C006220130C490081C68328090031A093760D04FE
S3151C00623089C683580900814C6DBF93760D20E5D61F
S3151C00624083480900CDBFE17693C60683231ED1027F
S3151C00625083280900B726051C9386468F130C490014
S3151C006260814C136D2D0036D2894679B7A30D0102D8
S3151C006270FD56130C4900032909006388D41C268685
S3151C00628081454A853AC8EF101002814C424719C114
S3151C006290B304254166CC63D39C0026CC8346B1034C
S3151C0062A081C6E24785073ECC937D2D0063850D0094
S3151C0062B0E24789073ECC93774D083ED6A1E7E247D5
S3151C0062C0B386FA406350D004B727051CC14813880F
S3151C0062D047C51D43164623200701A645050613057B
S3151C0062E0870063CCD83254C3AE96B6C4B2C29D46A0
S3151C0062F02A8763D9C6009000A2854E856534631F24
S3151C006300053C5A878346B1039DC61306B10310C3C9
S3151C0063100546964650C326468506B6C20506B2C431
S3151C0063201D4621076359D6009000A2854E859D3CCB
S3151C0063306316053A5A8763870D02701810C30946FF
S3151C006340964650C326468506B6C20906B2C41D46E5
S3151C00635021076359D6009000A2854E85A134631F80
S3151C00636005365A87B257930600086395D704E24749
S3151C006370B38DFA406350B00541489D489646B727F1
S3151C006380051C938747C61CC32646850693058700AE
S3151C006390634EB82B2322B701B29DEEC4B6C21D466E
S3151C0063A02E876359D6009000A2854E85E53A631761
S3151C0063B005325A87B38C9C4063509005C14D1D48CD
S3151C0063C09646B727051C938747C61CC326468506D3
S3151C0063D09305870063C19D2B23229701B29CE6C4BB
S3151C0063E0B6C21D462E876359D6009000A2854E85DF
