S00E0000626C696E6B792E737265638D
S3151C0008006F0000106F00C00F6F00800F6F00400F4D
S3151C0008106F40A0446F00C00E6F00800E6F00400E2C
S3151C0008206F00000E6F00C00D6F00800D6F00400D35
S3151C0008306F00000D6F00C00C6F00800C6F00400C29
S3151C0008406F00000C6F00C00B6F00800B6F00400B1D
S3151C0008506F00000B6F00C00A6F00800A6F00400A11
S3151C0008606F00000A6F00C0096F0080096F00400905
S3151C0008706F0000096F00C0086F0080086F004008F9
S3151C000880971101009381817E176101001301817C00
S3151C00089017050000130505F7731055309722010044
S3151C0008A09382C297172301001303C3A323A002003C
S3151C0008B09102E3ED62FE1705000013054571EF007A
S3151C0008C0206EEF00607902454C000146EF40204047
S3151C0008D06F00C06D82800000000000000000000058
S3151C0008E000000000000000000000000000000000E6
S3151C0008F000000000000000000000000000000000D6
S3151C00090073900234F322203463C4021A93F2F23F2A
S3151C000910E11263C50200F11263CC020AF322003411
S3151C00092073100134172101000321C1BD130181F786
S3151C00093006C20EC612C816CA1ACC1ECE22D026D283
S3151C0009402AD42ED632D836DA3ADC3EDEC2C0C6C22D
S3151C000950CAC4CEC6D2C8D6CADACCDECEE2D0E6D25D
S3151C000960EAD4EED6F2D8F6DAFADCFEDE73271034B9
S3151C000970F32700303AC13EC3F392023416C4EF404B
S3151C000980C0308A421A43739012347310033092405B
S3151C000990B2414242D2426243F2430254925422551D
S3151C0009A0B2554256D2566257F257064896482649C1
S3151C0009B0B649464AD64A664BF64B065C965C265D9D
S3151C0009C0B65D465ED65E665FF65F224173002030DA
S3151C0009D0914263C4A206970200009382E2000A05B4
S3151C0009E0AA9282826F0080056F0000016F00600171
S3151C0009F06F00C0016F0060021305000873300530DC
S3151C000A0025A0130500087320053039A837250000DA
S3151C000A10130505807320053001A837250000130532
S3151C000A2005807330053009A0F322103491027390AF
S3151C000A301234F32200347300203039A2F32200341E
S3151C000A40130181F706C20EC612C816CA1ACC1ECED0
S3151C000A5022D026D22AD42ED632D836DA3ADC3EDE3C
S3151C000A60C2C0C6C2CAC4CEC6D2C8D6CADACCDECEAC
S3151C000A70E2D0E6D2EAD4EED6F2D8F6DAFADCFEDE1C
S3151C000A8073271034F32700303AC13EC39302470044
S3151C000A9016C19302810816C4172401000324C492AC
S3151C000AA0232024008A84172101000321A1A575A0F7
S3151C000AB0F3220034130181F706C20EC612C816CAE9
S3151C000AC01ACC1ECE22D026D22AD42ED632D836DA2C
S3151C000AD03ADC3EDEC2C0C6C2CAC4CEC6D2C8D6CA5C
S3151C000AE0DACCDECEE2D0E6D2EAD4EED6F2D8F6DA0C
S3151C000AF0FADCFEDE73271034F32700303AC13EC3FE
S3151C000B009302810816C4172401000324E48B2320B6
S3151C000B1024008A84172101000321C19EF32320345B
S3151C000B2093F3F33F1303700063986300EF60604513
S3151C000B3011C125A0268125A8172101000321819C0E
S3151C000B40EF40A014268125A0F322203473231034F1
S3151C000B50F323003073005010C5BFEF60A078172434
S3151C000B6001000324648603210400EF30B018172407
S3151C000B700100032464851A45EF30505317240100E5
S3151C000B80032484842243232064008A421A437390DC
S3151C000B901234731003309240B2414242D242624335
S3151C000BA0F243025492542255B2554256D2566257BB
S3151C000BB0F257064896482649B649464AD64A664BCF
S3151C000BC0F64B065C965C265DB65D465ED65E665F3B
S3151C000BD0F65F224173002030130000001300000052
S3151C000BE01300000013000000130000001300000097
S3151C000BF01300000013000000130000001300000087
S3151C000C0073100134172101000321C18F1301010048
S3151C000C1013018108130181F706C20EC612C816CA33
S3151C000C201ACC1ECE22D026D22AD42ED632D836DACA
S3151C000C303ADC3EDEC2C0C6C2CAC4CEC6D2C8D6CAFA
S3151C000C40DACCDECEE2D0E6D2EAD4EED6F2D8F6DAAA
S3151C000C50FADCFEDE73271034F32700303AC13EC39C
S3151C000C60F392023416C406C29713010083A3C375FC
S3151C000C7003A103001A45EF307043EF30B0079713FA
S3151C000C80010083A3637403A103009713010083A3CC
S3151C000C90A373224323A06300B71200009382028829
S3151C000CA073A042308A421A43739012347310033075
S3151C000CB09240B2414242D2426243F243025492549F
S3151C000CC02255B2554256D2566257F2570648964896
S3151C000CD02649B649464AD64A664BF64B065C965C8E
S3151C000CE0265DB65D465ED65E665FF65F8A4022412D
S3151C000CF073002030130000001300000013000000D6
S3151C000D00930385F723A2030023A4A30023A6330081
S3151C000D1023A8430023AA030023AC030023AE03002D
S3151C000D2023A0030223A2030223A4C30223A60302B5
S3151C000D3023A8030223AA030223AC030223AE030245
S3151C000D4023A0030423A2030423A4030423A603044D
S3151C000D5023A8030423AA030423AC030423AE03041D
S3151C000D6023A0030623A2030623A4030623A6030625
S3151C000D7023A8030623AA030623AC030623AE0306F5
S3151C000D8023A0B30823A2D3089302000063870200A2
S3151C000D90F11323A00300FD12D5BF1E85828013000C
S3151C000DA000001300000013000000130000001300D5
S3151C000DB000001300000013000000130000001300C5
S3151C000DC000001300000013000000130000001300B5
S3151C000DD000001300000013000000130000001300A5
S3151C000DE00000130000001300000013000000130095
S3151C000DF00000130000001300000013000000010097
S3151C000E0017110100032101708A421A437390123490
S3151C000E10731003309240B2414242D2426243F243C3
S3151C000E20025492542255B2554256D2566257F25724
S3151C000E30064896482649B649464AD64A664BF64B54
S3151C000E40065C965C265DB65D465ED65E665FF65FA4
S3151C000E5022418280130000001300000013000000D2
S3151C000E601300000013000000130000001300000014
S3151C000E701300000013000000130000001300000004
S3151C000E8013000000130000001300000013000000F4
S3151C000E9013000000130000001300000013000000E4
S3151C000EA013000000130000001300000013000000D4
S3151C000EB013000000130000001300000013000000C4
S3151C000EC013000000130000001300000013000000B4
S3151C000ED013000000130000001300000013000000A4
S3151C000EE01300000013000000130000001300000094
S3151C000EF01300000013000000130000001300000084
S3151C000F0083220500638202021303800893030300F5
S3151C000F1063EC630063EA620033836240137303FF6E
S3151C000F20232065001A8511A001458280000000005F
S3151C000F30000000000000000000000000000000008F
S3151C000F4000000000000000000000000041111945CF
S3151C000F5006C6EF0070210545EF30304583A7011A00
S3151C000F604111328806C6AA882E873686C847630D65
S3151C000F700800B717011C93870752B715011CC686B4
S3151C000F80938505537D20D9373718011C9307C85202
S3151C000F901308C852DDB74111B286014606C67D3F0D
S3151C000FA0AA858146014601456F10C05041118145F5
S3151C000FB022C406C62A84EF10E05503A5C1195C5D40
S3151C000FC091C382972285EF30503E0111B727011C31
S3151C000FD03727011C22CC1307878613848786198C16
S3151C000FE026CA4AC84EC606CE0984814413898786FA
S3151C000FF0F159631A94006244F240D2444249B24900
S3151C00100005616FF03F8DB38734038504CA9783A7A8
S3151C001010C7FF8297F9BF397136D6741006CE3AD8F7
S3151C0010203EDA42DC46DE36C6EF005024F240216131
S3151C001030828039713EDA32D42E86AA8503A5011A1E
S3151C00104036D6341006CE3AD842DC46DE36C6EF001B
S3151C001050F021F24021618280411122C426C237242C
S3151C001060011CB724011C93878486130484861D8C5B
S3151C0010704AC006C609849384848601496319890279
S3151C001080B724011CEFF01F853724011C9387848627
S3151C001090130484861D8C0984938484860149631DEC
S3151C0010A08900B240224492440249410182809C40FC
S3151C0010B0050991048297D9B79C400509910482972A
S3151C0010C0F9BF797106D622D426D24AD04ECE52CC3E
S3151C0010D056CA5AC85EC662C49387B500594763751B
S3151C0010E0F70293F487FF63D20402B1471CC1014582
S3151C0010F0B250225492540259F249624AD24A424B85
S3151C001100B24B224C45618280C144E3E0B4FEAA89FD
S3151C001110EF3050339307701F138981C263EC97021B
S3151C001120138784004A974043930687FF93D734005E
S3151C0011306316D40040478907630C87045C405844F7
S3151C0011401444F19BA297D8C614C7D843136717003B
S3151C001150D8C3B5A813D794009307F00301CB9147C6
S3151C00116063EDE70693D764009387870313871700FD
S3151C0011700E074A974043930587FF3D456309B40014
S3151C0011805840719B33069740635CC508FD1785075D
S3151C0011900324090193068900938501C36303D40EB6
S3151C0011A058403D46719B330597406356A60893E706
S3151C0011B014005CC033069400232AC9002328C900E6
S3151C0011C09367150054C614C65CC2229708C34E8585
S3151C0011D0EF3090271305840021BFD14763E5E70054
S3151C0011E09307B70561B79307400563E7E70093D7F5
S3151C0011F0C4009387E7069DBF9307401563E7E70086
S3151C00120093D7F4009387770795B7930640559307B2
S3151C001210E007E3EDE6F493D724019387C707B9B734
S3151C0012205444634806001C44D4C79CC6B307E40058
S3151C00123029BF3684A1B7232AD9002328D90063489D
S3151C001240050022975C4393E717005CC349B79306D6
S3151C001250F01F0328490063EEE6100D831356274042
S3151C00126085460507B396C6000E074A97B3E60601E0
S3151C0012702322D9001443130687FF50C414C400C389
S3151C001280C0C613D7274005433313E3000327490081
S3151C001290636C6704B376670099E6F19B0603B37625
S3151C0012A067009107E5DE3D4E93963700CA96368851
S3151C0012B03E850324C80063190415050513773500FC
S3151C0012C0210865FB13F73700631907180327490024
S3151C0012D09347F3FFF98F2322F900032749000603DE
S3151C0012E06364670063180318832B890003A44B00EF
S3151C0012F0937AC4FF63E79A0033879A40BD4763C15C
S3151C001300E72403A4011E03A7411AFD57269463155F
S3151C001310F7164104A2854E85D521FD572A8B6306F7
S3151C001320F51CB3875B016374F50063902B1D9386D4
S3151C001330011B9842138C011B229798C26394671554
S3151C0013409396470163900614832789005694136469
S3151C0013501400C0C383270C0083A6C11D63F4F600CA
S3151C00136023AEF11C83A6811D63F1F61823ACF11C78
S3151C001370ADAA13569700914663ECC60293566700B6
S3151C00138093868603138616000E064A96130586FF59
S3151C00139010426315C50689860547B316D700B3E602
S3151C0013A006012322D90048C410C400C540C6D1BDBD
S3151C0013B0D14663E5C6009306B605E9B79306400514
S3151C0013C063E7C6009356C7009386E60665BF930679
S3151C0013D0401563E7C6009356F700938676075DB7FC
S3151C0013E0130540559306E007E36EC5F8935627018F
S3151C0013F09386C60741BF10466306C5005442F19A40
S3151C001400E36BD7FE484645B758405044719BB3081A
S3151C001410974063571E0393E714005CC01C44B30635
S3151C00142094002297D0C71CC6232AD9002328D9008A
S3151C00143093E71800CCC68CC6DCC22320170141BB1F
S3151C00144063CB080022975C4393E717005CC31C44DC
S3151C001450D0C71CC6ADBB3284B9BD138786FF944268
S3151C001460FD17E381E6E695BD91070603B376670093
S3151C001470E5DE1DBDAA87DDBF8567BD073E94FD77EA
S3151C0014807D8C49BD03A6411AFD56631FD60623A2B1
S3151C001490611B93757B0089C5A147B385B7402E9BFD
S3151C0014A08567BE955A94FD177D8C338A8540D285F7
S3151C0014B04E85A926FD576314F5005A85014A8327D4
S3151C0014C00C003305654123246901D2972A9A136AB5
S3151C0014D01A002320FC0023224B01E38D2BE73D47FA
S3151C0014E0636A570385472322FB0083278900DC4355
S3151C0014F0F19B3387974063E59700BD4763C2E704BA
S3151C0015004E85EF306074E5B6B307FB40BA972320CF
S3151C001510FC0041B783A74B0013844AFF6198858B57
S3151C001520C18F23A2FB009546B3878B00D4C394C7F7
S3151C001530E37287E293858B004E85EF10C05B19BD65
S3151C0015400324890093E714005CC0B307940023248A
S3151C001550F900EDBEB3C7A5008D8B3307C50081E727
S3151C0015608D4763EFC700AA876369E500828083C63F
S3151C001570050085078505A38FD7FEE3EAE7FE828073
S3151C00158093773500BDEBAA879376C7FF138606FEB5
S3151C00159063FCC70683A3050083A2450083AF8500B1
S3151C0015A003AFC50083AE050103AE450103A3850148
S3151C0015B083A8C501938545029387470203A8C5FFE7
S3151C0015C023AE77FC23A057FE23A2F7FF23A4E7FF35
S3151C0015D023A6D7FF23A8C7FF23AA67FE23AC17FFA2
S3151C0015E023AE07FF75B783C6050085078505A38F40
S3151C0015F0D7FE93F63700E5FA41BFAA87DDBF9041B7
S3151C0016009107910523AEC7FEE3EBD7FEE3E7E7F6AA
S3151C00161082803D482A876373C8029377F700BDEF23
S3151C001620ADE5937606FF3D8ABA960CC34CC30CC730
S3151C0016304CC74107E36BD7FE11E28280B306C84054
S3151C0016408A069702000096966780A6002307B700B5
S3151C001650A306B7002306B700A305B7002305B700EA
S3151C001660A304B7002304B700A303B7002303B700E2
S3151C001670A302B7002302B700A301B7002301B700DA
S3151C001680A300B7002300B700828093F5F50F93964D
S3151C0016908500D58D93960501D58D61B79396270048
S3151C0016A09702000096968682E78086FA9680C11776
S3151C0016B01D8F3E96E374C8F8A5B7397122DC2A84BF
S3151C0016C02E852EC606DED52CB717011C938707560A
S3151C0016D03ED485473ED61C10B2453ECA89473ECCF1
S3151C0016E01C5C2AD205052ED02ACE0C4491E72285F5
S3151C0016F02EC6EF10A013B2458397C500139727017A
S3151C001700634B07008966F851D58F2396F500F97748
S3151C001710FD17F98FFCD150082285EF106058FD5734
S3151C00172011E1A947F25062543E8521618280AA8547
S3151C00173003A5011A59B7411122C42E848C4126C215
S3151C00174006C6AA8491C1C53FA2852244B2402685FD
S3151C001750924441016F10203A83A7011A638FA70890
S3151C0017607C45011122CC26CA4AC806CE4EC62A84FE
S3151C00177081441309000885EB2C4081C52285EF1096
S3151C00178080378325841495CD9304C414638B9502EA
S3151C00179003A905002285EF100036CA85C5BFA6958C
S3151C0017A08C4189E991046C44E39B24FF2285EF104C
S3151C0017B08034D9B783A905002285EF10C033CE85A6
S3151C0017C0CDB76C4881C52285EF10E0321C5C99CFE1
S3151C0017D05C5C228582978325042E89C922856244F6
S3151C0017E0F240D2444249B2490561B1B7F240624463
S3151C0017F0D2444249B249056182808280411122C489
S3151C00180026C2AA842E8506C623AA0126EF3040418D
S3151C001810FD576316F50083A7412791C39CC0B240B0
S3151C00182022449244410182800327C52D15EB4111A8
S3151C0018309305000822C406C62A84EFF09F88232E2F
S3151C001840A42CFD5709C9930705082320050011057B
S3151C001850E31DF5FE8147B24022443E85410182804C
S3151C00186081473E858280411126C206C622C44AC0D3
S3151C0018707D47AA846376B700594718C17D5531A8A0
S3151C0018808327C52D32892E8499CF9315240003A452
S3151C001890C42DA295884123A02501B240224492441E
S3151C0018A002494101828049376DD1C9BFFD4763F6A4
S3151C0018B0B700D9471CC17D5582808327C52D0111D0
S3151C0018C022CC06CE2E862A8491C713972500BA975A
S3151C0018D0984319EB228532C6F928AA8522856244CB
S3151C0018E03246F24005614DA0854601456308D70086
S3151C0018F0FD566319D700D9471CC00545F240624402
S3151C001900056182802E8523A0070002970145FDB73D
S3151C001910FD4763F4B7007D5582808327C52D411191
S3151C00192022C426C206C6AA842E849DC783A7C42D9C
S3151C0019301317240005453E971C4395C3FD560945C0
S3151C001940638FD70085460D45638BD70022852320E0
S3151C00195007008297014521A0C13D69D97D55B2403A
S3151C0019602244924441018280AA8503A5011A3DBFE7
S3151C0019702E86AA8503A5011AFDB503A5011A6DB508
S3151C001980AA8503A5011A69B7411122C426C2AA84D5
S3151C0019902E85B28506C623AA0126EF30A023FD5745
S3151C0019A06316F50083A7412791C39CC0B24022440D
S3151C0019B09244410182806F302021AA87850703C784
S3151C0019C0F7FF6DFF3385A7407D1582801C46797114
S3151C0019D022D406D626D24AD04ECE52CC56CA5AC885
S3151C0019E05EC662C4328485E3232206000145B250DA
S3151C0019F0225492540259F249624AD24A424BB24B81
S3151C001A00224C45618280FC512E8913972701635A0B
S3151C001A10070404422A8AFD5B1C4499E701452324DA
S3151C001A20040023220400E1B783A9440003AB04008D
S3151C001A30814A13DC290063CB8A011C4493F9C9FF34
S3151C001A40A104B389374123243401F9B783250B003C
S3151C001A504A865285EF00D079110B63077501850AFA
S3151C001A60D9BFEF10E02365BF7D5555BF697123248F
S3151C001A70811223202113232E3111232C41112326BD
S3151C001A80111223229112232A511123286111232674
S3151C001A90711123248111232291112320A111EEDF20
S3151C001AA0AA892E84328A368909C51C5D99E3EF0002
S3151C001AB0F0578317C40013972701634B07008966E9
S3151C001AC07850D58F2316F400F977FD17F98F7CD043
S3151C001AD08357C400A18BA5C31C48B1CF8357C40030
S3151C001AE02947E98B6390E7068317E40063CC070458
S3151C001AF0CA865286A2854E85EF00D005AA8B832006
S3151C001B00C112032481125E8583244112032901120A
S3151C001B108329C111032A8111832A4111032B011127
S3151C001B20832BC110032C8110832C4110032D011013
S3151C001B30FE5D55618280A2854E85EF00500A59DDF7
S3151C001B40FD5B75BF130BC104DAC082C482C25A87FF
S3151C001B5002D202CE02D002D4814BD284930650020A
S3151C001B6083C7040099C3639CD706B38A4441638820
S3151C001B700A02A6472320470123225701D697BEC433
S3151C001B8096479D4621078507BEC263D9F60090007D
S3151C001B90A2854E85253D631705765A87D69B83C736
S3151C001BA00400638A0778138A1400A30D0102FD54EE
S3151C001BB0814A014D294C930CA0021308A005A5458A
S3151C001BC003460A00050A930606FE6364D866B71721
S3151C001BD0011C8A0693874756BE96944282868504C4
S3151C001BE041B7B716011C9386066F36D293760D0243
S3151C001BF06382064E1D09137989FF83280900832CED
S3151C001C004900130C890093761D0081CEB3E698011A
S3151C001C1089CA93060003230ED102A30EC102136DBB
S3151C001C202D00137DFDBFADA44E853AC8EF100042B2
S3151C001C3048412AD459332AD04E85EF1020410845F5
S3151C001C40825742472ACEB5DB2DD983460500B5D629
S3151C001C50136D0D409DB78346B103A5F29306000292
S3151C001C60A30DD10299BF136D1D0081BF832A0900E4
S3151C001C701109E3D40AF4B30A5041136D4D0035BF64
S3151C001C809306B002F1BF03460A0093061A006318B6
S3151C001C909603832409001306490063D30400FD54EC
S3151C001CA03289368A19BFB3848403850603C6F6FFB8
S3151C001CB0AA94130506FDE3F8A5FE368A29B78144C6
S3151C001CC0CDBF136D0D08D5BDD286814AB38A8A0352
S3151C001CD0130606FD8506B29A03C6F6FF130506FD16
S3151C001CE0E3F6A5FED9BF03460A00930680066316D3
S3151C001CF0D600050A136D0D20C9B5136D0D0475BDEF
S3151C001D0003460A009306C0066316D600050A136D21
S3151C001D100D0265B5136D0D014DB583260900130C17
S3151C001D204900A30D01022306D1088544814C1309E1
S3151C001D30C10869A2136D0D0193760D02B9C61D0962
S3151C001D40137989FF83280900832C4900130C890009
S3151C001D5063DE0C00B3081041B33610013303904107
S3151C001D60B30CD3409306D002A30DD102FD56639843
S3151C001D70D43863950C3EA54663E2163F9388080348
S3151C001D80A307110F1309F10ED9A693760D01130C97
S3151C001D90490091C68328090093DCF84155BF937608
S3151C001DA00D048328090089C6C20893D80841EDB7DB
S3151C001DB093760D20F5D2E20893D88841F1BF1376AD
S3151C001DC00D0283260900110919C693D7FB4123A0CE
S3151C001DD07601DCC259B313760D0101C623A0760128
S3151C001DE0ADBB13760D0409C6DE872390F600B5B38A
S3151C001DF093770D20E5D7DE872380F600B9BB136DDC
S3151C001E000D0193760D029DCE1D09137989FF83283A
S3151C001E100900832C4900130C8900137DFDBF8146E4
S3151C001E20A30D01027D56638FC42C6A86B3E5980107
S3151C001E30137DFDF76398052C6383043E0546639664
S3151C001E40C62C2DBF93760D01130C490081C6832821
S3151C001E50090031A093760D0489C683580900814C6C
S3151C001E606DBF93760D20E5D683480900CDBFE1767C
S3151C001E7093C60683231ED10283280900B716011CAC
S3151C001E8093864670130C4900814C136D2D0036D277
S3151C001E90894679B7A30D0102FD56130C4900032987
S3151C001EA009006388D41C268681454A853AC8EF10EA
S3151C001EB00039814C424719C1B304254166CC63D312
S3151C001EC09C0026CC8346B10381C6E24785073ECCDF
S3151C001ED0937D2D0063850D00E24789073ECC9377E1
S3151C001EE04D083ED6A1E7E247B386FA406350D004BC
S3151C001EF0B717011CC1481388076D1D4316462320BE
S3151C001F000701A64505061305870063CCD83254C3C2
S3151C001F10AE96B6C4B2C29D462A8763D9C600900047
S3151C001F20A2854E856534631F053C5A878346B103DB
S3151C001F309DC61306B10310C30546964650C32646D6
S3151C001F408506B6C20506B2C41D4621076359D600CE
S3151C001F509000A2854E859D3C6316053A5A87638779
S3151C001F600D02701810C30946964650C326468506B0
S3151C001F70B6C20906B2C41D4621076359D600900095
S3151C001F80A2854E85A134631F05365A87B257930620
S3151C001F9000086395D704E247B38DFA406350B00539
S3151C001FA041489D489646B717011C9387076E1CC36C
S3151C001FB02646850693058700634EB82B2322B70158
S3151C001FC0B29DEEC4B6C21D462E876359D60090003C
S3151C001FD0A2854E85E53A631705325A87B38C9C4019
S3151C001FE063509005C14D1D489646B717011C938733
S3151C001FF0076E1CC3264685069305870063C19D2B69
S3151C00200023229701B29CE6C4B6C21D462E8763598D
S3151C002010D6009000A2854E85553A6315052E5A8723
S3151C002020A64644C323202701B6949646A6C41D463D
S3151C0020308506B6C221076359D6009000A2854E8537
S3151C00204071326311052C5A8793774D00639C0726C2
S3151C002050624763D3EA00BA8AA647D69B99C7900003
S3151C002060A2854E85A532631F052882C262895A87BE
S3151C002070EDB44A853AC89132AA84814C42473DBD8B
S3151C002080136D0D0193760D0281CE1D09137989FFFF
S3151C00209083280900832C4900130C8900854649B303
S3151C0020A093760D01130C490081C68328090031A0C3
S3151C0020B093760D0489C683580900814CC5B793765F
S3151C0020C00D20E5D683480900CDBFB716011C9386A3
S3151C0020D0467021BE93760D01130C490081C68328D8
S3151C0020E0090031A093760D0489C683580900814CDA
S3151C0020F019BE93760D20E5D683480900CDBF6A86A6
S3151C00210085462DB30546E386C6C609466382C60EBA
S3151C00211094199395DC0113F6780093D838001306AE
S3151C0021200603B3E8150193DC3C00A38FC6FEB3E59A
S3151C00213098011389F6FF8DE193751D0089C99305D6
S3151C00214000036306B600A30FB9FE1389E6FF9C19AC
S3151C002150A68CB38427419DB3CA8665BF93770D4071
S3151C002160814D130E010F3ECC468529468146E685D8
S3151C0021701309FEFF3AC846C472CAEF101052524EDB
S3151C002180E24713050503A30FAEFE850D4247A24881
S3151C002190B1C3F24783C60700639EB6039307F00FCD
S3151C0021A0638AFD0263950C00A54763F517038257E6
S3151C0021B0A2553AC83309F9403E864A8546C4EF10F3
S3151C0021C00065F247814D424783C61700A24899C253
S3151C0021D085073ECE4685E685294681463AC8EF10D8
S3151C0021E0F015AE8CC98DAA884247B5D14A8EADBFB3
S3151C0021F01309010F925793F6F8007D19BE9683C6F4
S3151C002200060093D848002300D9009396CC01B3E866
S3151C002210160193DC4C00B3E69801E9FE0DBF1309C9
S3151C002220010F95F6058A05D693060003A307D10E62
S3151C00223091BE630206102306C108A30D01024A8C37
S3151C002240EDB4C10523221701AEC4B2C26351C30249
S3151C0022509000A2854E851AC836CA42C646C4EFF0FF
S3151C002260EFF64243D2463248A24849ED5A85C1167A
S3151C0022702A8769B1410623220701B2C4B6C263DDAF
S3151C002280D8009000A2854E8542C646C4EFF00FF4D6
S3151C0022903248A24825E9DA85C11D2E8721B341069D
S3151C0022A02322B701B2C4B6C2635BD8009000A285D4
S3151C0022B04E8542C6EFF08FF1324829E5DA85C11CFE
S3151C0022C02E871DB3E247B384FA40E35390D8B71761
S3151C0022D0011CC14C1389076D9D4D96472320270170
S3151C0022E0A646850763C89C0244C3B694A6C4BEC250
S3151C0022F01D47E35FF7D49000A2854E85EFF00FEDE6
S3151C002300E30805D48357C40093F70704638907FEC3
S3151C0023106FF01F83C10623229701B6C4BEC22107D4
S3151C00232063D9FD009000A2854E85EFF02FEA79F95E
S3151C0023305A87C1145DB7A647F1D79000A2854E8572
S3151C002340EFF0CFE8C1B7B2862E86AA8503A5011A7F
S3151C0023506FF0CFF183D7C500130101B8232C81463A
S3151C002360F59B231AF100FC512E84232A9146BED6D6
S3151C00237083D7E50023282147232E1146231BF10072
S3151C002380DC4D2A8902D03ED2DC512C003ED69C184C
S3151C0023903EC43ECC930700403EC83ECEEFF00FED48
S3151C0023A0AA84634705002C004A85BD2611C1FD542D
S3151C0023B08357410193F7070499C78357C40093E7D2
S3151C0023C007042316F4008320C1470324814726856E
S3151C0023D00329014783244147130101488280411187
S3151C0023E026C2AA8403A5011A22C406C62E8401C5C8
S3151C0023F01C5D91E325290317C40093170701C183AC
S3151C00240093F68700A1EE93F6070189EEA5479CC0BB
S3151C002410136707042316E4007D55B24022449244F8
S3151C00242041018280918B8DC70C5889C9930704047E
S3151C0024306384F5002685C125232804028357C4001E
S3151C0024402322040093F7B7FD2316F4001C481CC076
S3151C0024508357C40093E787002316F4001C4889EFB2
S3151C0024608357C4001307002093F707286386E700E9
S3151C002470A2852685EF00F04D8357C40013F717007D
S3151C00248005C75C4823240400B307F0401CCC1C4839
S3151C0024900145C1F78317C40013F707083DDF93E70F
S3151C0024A007042316F4008DBF898B014791E3584816
S3151C0024B018C4F1BF03A7C1192A838327871489E788
S3151C0024C09307C7142324F714D8437D487D556342CC
S3151C0024D0E804931827006309030233851701232494
S3151C0024E0C50803A8871805463316E6003368C800D6
S3151C0024F023A407192324D51089466317D30083A662
S3151C002500C718558E23A6C7180507D8C3C6978CC7E8
S3151C0025100145828079714ECE83A9C11952CC56CA07
S3151C0025205AC806D622D426D24AD05EC6AA8A2E8A73
S3151C002530054B83A4891481C8C0401309F4FF0A04FF
S3151C0025402694635D0900B250225492540259F249F2
S3151C002550624AD24A424BB24B4561828063090A00E9
S3151C00256083274410638547017D197114D9BFD84050
S3151C0025705C407D176316270323A22401F5D783A687
S3151C002580841833172B0183AB4400F98E89EE82978E
S3151C002590D84083A78914E31E77F9E387F4FC51BF5F
S3151C0025A023220400E1BF83A6C41883254408758F23
S3151C0025B001E756858297E9BF2E858297D1BF8397FF
S3151C0025C0C500011122CC13970701418326CA06CEEA
S3151C0025D04AC84EC693768700AA842E84E5EE056704
S3151C0025E013070780D98FD8412396F500634DE00069
S3151C0025F0D85D634AE0000145F2406244D244424938
S3151C002600B2490561828018547DD703A904009396AC
S3151C002610370123A004004C4C63D506083048835769
S3151C002620C400918B99C75C401D8E1C5899C35C5C79
S3151C0026301D8E1C544C4C814626858297FD5783560D
S3151C002640C400631DF5009C407547636FF70637078A
S3151C002650402005073357F700058B3DC7FD77938749
S3151C002660F77F1848F58FC207C18718C02316F400D8
S3151C002670232204001397370163580700FD57631480
S3151C002680F5009C4091E328C80C5823A02401A5D52D
S3151C002690930704046384F5002685B12923280402C4
S3151C0026A099BF0146854626850297FD572A86E3185B
S3151C0026B0F5F69C40ADD775476385E700594763948B
S3151C0026C0E70423A0240105BF93E706042316F400A0
S3151C0026D07D551DB783A90501E38F09F003A90500E4
S3151C0026E00D8B23A0350133093941814711E3DC49A0
S3151C0026F01CC4E35220F15C504C4CCA864E8626857F
S3151C00270082976347A0008357C40093E707047DBFE5
S3151C002710AA993309A940F1BF011122CC06CE2A84FD
S3151C00272011C51C5D81E72EC61122B2458397C500D3
S3151C00273091C722856244F240056151B5F24062445C
S3151C002740014505618280AA8509E903A5C119B7253A
S3151C002750001C938585716F00500803A5011A6DBF77
S3151C00276001458280B745001C9385C59E6F00F00607
S3151C002770411122C406C62A842316B5002317C50098
S3151C00278023200500232205002324050023220506F9
S3151C00279023280500232A0500232C050021468145F4
S3151C0027A01305C505EFE0FFE6B737001C93872763C3
S3151C0027B01CD0B737001C938767665CD0B737001CE4
S3151C0027C09387476B1CD4B737001C9387A76E40CCE6
S3151C0027D05CD4B24022444101828001458280411171
S3151C0027E026C2130680069384F5FFB384C4024AC02E
S3151C0027F02E8922C406C693854407EFE09F8C2A8443
S3151C00280001CD2320050023222501310508C413868A
S3151C00281084068145EFE0FFDF2285B24022449244C4
S3151C00282002494101828003A5C1192DBF1C5DA9E780
S3151C0028304111B727001C06C622C4938747765CDD68
S3151C0028408D472322F52E9307C52E2A842324F52E85
S3151C0028502320052E484101469145193F084405464B
S3151C002860A545393748440946C945193785471CDCEF
S3151C002870B2402244410182808280411126C283A437
S3151C002880C1194AC006C69C5C22C42A8999E32685BE
S3151C002890713F9384042E8044DC40FD1763D60700E9
S3151C0028A09C4089CB8440C5BF0317C40005C71304CD
S3151C0028B08406E5B791454A851D3788C065F5B1473D
S3151C0028C02320F90001442285B24022449244024945
S3151C0028D041018280C1778507232204062320040038
S3151C0028E023220400232404005CC423280400232A76
S3151C0028F00400232C0400214681451305C405EFE082
S3151C0029005FD123280402232A04022322040423243D
S3151C002910040455BF828082808280828003A5011AAE
S3151C002920B725001C9385057681AD03A5011AB7252D
S3151C002930001C9385A57D89A5797122D426D252CCFB
S3151C00294006D64AD04ECE56CA5AC82A8AAE84328475
S3151C002950EF0080768547631CF5029387F4FF130707
S3151C002960E00F6366F702A6872306F1008549014935
S3151C002970FD5A294B631039052685B25022549254B0
S3151C0029800259F249624AD24A424B456182809306F9
S3151C002990C40526866C005285EF00B076FD57AA89C1
S3151C0029A0E317F5FC8357C40093E707042316F400CA
S3151C0029B07D55E1B77800B307270183C507001C4482
S3151C0029C0FD171CC463D70700184C63CCE700638A49
S3151C0029D065011C401387170018C02380B700050922
S3151C0029E051BF22865285EF009065E31A55FFC9B781
S3151C0029F08317C60013972701634A07007852896616
S3151C002A00D58F2316F6008967D98F7CD235B701116D
S3151C002A1022CC03A4011A26CA06CEAA842E8619C461
S3151C002A201C5C89E722852EC61135324622856244F6
S3151C002A30F240A685D244056165BF79714AD0372913
S3151C002A40011C22D426D24ECE2EC606D6AA8913091E
S3151C002A5009C9EF20201F83278900B245C443856717
S3151C002A601384F7FEF1980D8C269431807D14320464
S3151C002A70635DF4004E85EF20201D0145B2502254A3
S3151C002A8092540259F2494561828081454E85EFE098
S3151C002A90FFD683278900A697E31EF5FCB305804065
S3151C002AA04E85EFE0BFD5FD576316F50281454E8571
S3151C002AB0EFE0DFD403278900BD46B307E540E3DB1F
S3151C002AC0F6FA83A6411A93E717005CC3158D23A853
S3151C002AD0A11A4DB783278900818C93E41400C4C3C3
S3151C002AE083A7011B4E853384874023A8811AEF20B8
S3151C002AF0A015054561B76384051A411122C426C277
S3151C002B002A84AE8406C6EF20E01303A5C4FF37262D
S3151C002B10011C938684FF9377E5FF130806C9B385CA
S3151C002B20F600D84103288800130606C9719B05893F
S3151C002B30631FB802BA9709E903A784FF998E8C46CE
S3151C002B40BA97D846D8C50CC713E71700D8C203A72F
S3151C002B50811A14C663E6E70083A5011E2285F13D92
S3151C002B6022852244B240924441016F20E00DD8C117
S3151C002B70014815E103A584FFB728011C938888C961
S3151C002B80898EAA978846630C150783A8C600232638
S3151C002B90150123A4A8003385E5004841058905E1F4
S3151C002BA0BA979845631F08043725011C130585C968
S3151C002BB06319A70454CA14CAD8C698C6054813E78D
S3151C002BC01700D8C23387F6001CC3E31B08F813078B
S3151C002BD0F01F636CF7028D8393D527400547331787
S3151C002BE0B7004C4285078E07B2974D8F58C2984343
S3151C002BF0138687FFD0C698C694C354C795B7054895
S3151C002C0059BFCC454CC798C55DBF93D59700114796
S3151C002C10636BB70213D76700130787039305170067
S3151C002C208E05B295138585FF8C416314B5068547C1
S3151C002C3009873397E7005C425D8F58C2C8C68CC6AD
S3151C002C4014C5D4C531BF51476365B7001387B50595
S3151C002C50F1B7130740056367B70013D7C7001307FF
S3151C002C60E7066DBF130740156367B70013D7F70058
S3151C002C701307770765B7130540551307E007E36F7E
S3151C002C80B5F813D727011307C70749BF8C45630639
S3151C002C90B500D841719BE3EBE7FEC84545B782807A
S3151C002CA01C4681E781473E85828083D7C5005D71BE
S3151C002CB0A2C4CAC056DA86C6A6C24EDE52DC5AD892
S3151C002CC05ED662D466D26AD06ECEA18BB28A2E84B0
S3151C002CD02A89C9CF9C49D9CB8357C40003AA0A00A9
S3151C002CE013F727006316070E858B638F0714814B1A
S3151C002CF00145014B81496383092419E94E86A9457F
S3151C002D005A85352B938B190001C50505B30B6541F7
S3151C002D105E8C63F379014E8C08401C48544863F65C
S3151C002D20A7220444B69463D28423DA8526862D23EF
S3151C002D301C40A2854A85A6971CC0EFF0FF9D631D0B
S3151C002D40050EB38B9B40054563970B00A2854A85F0
S3151C002D50EFF09F9C75E183A78A00269BB389994057
S3151C002D60B384974023A49A00D9F491A0A2854A85DE
S3151C002D70EFF0EFE6FD572DD125A883290A00832401
S3151C002D804A00210AFDD8A68663739B00DA865C502E
S3151C002D904C4C4E864A8582976350A00A83A78A00AC
S3151C002DA0AA99898C3385A74023A4AA0061FD814773
S3151C002DB0B640264496440649F259625AD25A425B98
S3151C002DC0B25B225C925C025DF24D3E856161828043
S3151C002DD0370B008081498144134B0BC065B7032B0D
S3151C002DE00A0083244A00210AFDD80357C4001C4448
S3151C002DF00840937607206387060E63EAF4089376E9
S3151C002E000748D1C6832D44010C48B38DBC03B309B6
S3151C002E10B54093871900A697B3CDAD0363F3FD00A8
S3151C002E20BE8D1377074045C3EE854A85EFE06FA933
S3151C002E301DE5B1472320F9008357C40093E7070417
S3151C002E402316F400FD57ADB7B70B008013CCEBFF70
S3151C002E50014B814493CBFBFF8D4C094D71B70C483C
S3151C002E604E862AC6EFE00FEF0357C400B24713770E
S3151C002E70F7B7136707082316E4001CC8232AB401F6
S3151C002E80CE97B38D3D411CC02324B401A687A689C9
S3151C002E9063F3F400A68708403E86DA853EC66D2E8F
S3151C002EA0B24718441D8F18C41840BA971CC083A774
S3151C002EB08A004E9BB3843441B389374123A43A011B
S3151C002EC0E39409F2EDB56E864A85F126AA8755F577
S3151C002ED00C484A850D318357C40093F7F7F7231620
S3151C002EE0F40081BF18486365A700544863F7D402F1
S3151C002EF0BE8963F3F400A6894E86DA85B12E1C447E
S3151C002F001840B38737414E971CC418C0CDF3A28511
S3151C002F104A85EFF07F8041DD05B7DE8763639C0041
S3151C002F20A687B3C7D70258504C4C5A864A85B386D7
S3151C002F30D7020297AA89E34CA0F6FDBD032B0A0013
S3151C002F4083294A000145210A7DB3634BDC005C5092
S3151C002F504C4C5A864A858297AA84E344A0DEE9BD76
S3151C002F606286DA85D52C1C44E284B38787411CC44F
S3151C002F701C40E2971CC0F1B3797122D44AD052CCC2
S3151C002F8056CA06D626D24ECE1304052E0149054A2C
S3151C002F90FD5A19E8B25022544A8592540259F249F4
S3151C002FA0624AD24A45618280044483294400FD1941
S3151C002FB063D409000040F1BF83D7C400637CFA00C8
S3151C002FC08397E400638857012EC626858295B245F1
S3151C002FD03369A90093848406D9BF797122D44AD057
S3151C002FE052CC56CA5AC85EC606D626D24ECE2A8A97
S3151C002FF0AE8A1304052E0149054BFD5B09ECB25044
S3151C00300022544A8592540259F249624AD24A424B88
S3151C003010B24B45618280044483294400FD1963D464
S3151C00302009000040E1BF83D7C400637BFB00839784
S3151C003030E40063877701A6855285829A3369A900C5
S3151C00304093848406E1BF1305050F828083A7011AAA
S3151C003050C85B19E1138501031305050F828083A73D
S3151C003060011AC85B19E1138501031305050F82803C
S3151C003070411126C206C622C4B714011C15C6B715B3
S3151C003080011C9385C571328532849D2511CD93858E
S3151C00309084712285B12D09C9B715011C9385C552AA
S3151C0030A02285B925814719E193878471B240224450
S3151C0030B092443E854101828083A7011ADC5B99E319
S3151C0030C09387010303C5871282800325C50E828060
S3151C0030D083A7011ADC5B99E39387010303A5C70E3B
S3151C0030E082802E86AA8503A5011A59B71D71A6CA08
S3151C0030F0AE848395E500A2CC86CE328463DC0500C3
S3151C00310083D7C40023A0060093F7070895EB930703
S3151C00311000400DA8500836C6EF00B016B246E34173
S3151C00312005FE6247BD670565F98F7977BA9793B730
S3151C00313017009CC2930700401CC01305058029A0DC
S3151C003140930700041CC00145F6406644D64425611D
S3151C003150828083D7C500011122CC06CE26CA4AC856
S3151C003160898B2E8489CF930734041CC01CC88547C1
S3151C0031705CC8F2406244D2444249056182807400B4
S3151C0031803000AA84A537A2452A892685EFD07FF36D
S3151C00319001ED8317C40013F7072061FFF19B93E72A
S3151C0031A027002316F400C1B7B727001C9387477660
S3151C0031B0DCDC8357C40008C008C893E7070823163D
S3151C0031C0F400A2475CC8B24791CF8315E40026855C
S3151C0031D0EF00100E01C98357C400F19B93E717003B
S3151C0031E02316F4008357C4003369F90023162401FF
S3151C0031F049B783A7011ADC5B99E39387010303A3F1
S3151C003200470E028385E141116C00014511CA7955AF
S3151C00321081CA834706009CC1034506003335A000BE
S3151C00322041018280014519CA795589CA834706001E
S3151C0032309CC1034506003335A0008280828093F52D
S3151C003240F50F2A966314C500014582808347050045
S3151C003250E38DB7FE0505FDB73307C50063E6A5007C
S3151C003260AA876313F7028280B387C5001D8EE37994
S3151C003270F5FEB386C70091E28280FD1783C6070060
S3151C0032807D172300D700F5B7850583C6F5FF85078F
S3151C003290A38FD7FEF9B7397122DC06DE2E8426DA17
S3151C0032A04AD84ED652D456D25AD05ECE62CCB285AD
S3151C0032B011EC6254F250D2544259B259225A925AC3
S3151C0032C0025BF24B624C21616FD0BFDFAA8A32C609
S3151C0032D0EF105017B2458326C4FFD9479389B50012
S3151C0032E0930B84FF13F9C6FF63F7370313FB89FFA0
S3151C0032F063540B02B14723A0FA00014AF2506254F0
S3151C0033005285D2544259B259225A925A025BF24BF6
S3151C003310624C21618280414BE36EBBFC6350693178
S3151C003320372C011C13070CC91047B3872B01D84334
S3151C003330130C0CC96308F6001375E7FF3E9548414C
S3151C003340058959E5719BB309E900631CF60213054F
S3151C0033500B0163C1A908DA9BB389694123247C014B
S3151C00336093E9190023A23B018329C4FF5685228AAF
S3151C00337093F91900B3E96901232E34FFEF10D00C21
S3151C003380B5BF63C96905D8479C47D8C71CC703A7DF
S3151C0033904B00B38669413D46058BB3873B01637180
S3151C0033A0D628B369EB0023A23B01B3856B0193E6D8
S3151C0033B01600D4C1D843A105568513671700D8C378
S3151C0033C0EFF06FF35685EF103008138A8B003DB76C
S3151C0033D001478147858A6396061A832484FFB38432
S3151C0033E09B4003AA4400137ACAFF4A9A63820712B7
S3151C0033F0B30947016311F60A93070B0163CAF91057
S3151C0034009844DC441306C9FF138A84005CC798C71A
S3151C00341013074002636DC706CD46D28763FCC60000
S3151C0034201C409CC45C40DCC4ED4763EFC70221040E
S3151C00343093870401184098C35840D8C3184498C7AA
S3151C003440B3876401B38969412324FC0093E91900FD
S3151C00345023A23701DC40858BB3E9670123A2340123
S3151C0034605685EF10607E59BD1C449CC85C44DCC864
S3151C0034706306E6004104938784016DBF1C48610402
S3151C0034809CCC0327C4FF93870402D8CC65B7A285BE
S3151C0034905285D93375B763CD6907D8479C47130640
S3151C0034A0C9FF13858400D8C71CC79844DC445CC775
S3151C0034B098C79307400263EAC7044D47637CC7005D
S3151C0034C0184098C45840D8C46D47636DC700210482
S3151C0034D0138504011C401CC15C405CC11C441CC5FA
S3151C0034E0A68B75B5184498C85844D8C86306F60008
S3151C0034F0410413858401F9BF1C4813850402610429
S3151C0035009CCC8327C4FFDCCCF1B7A285B133C9BFE1
S3151C00351063496A07DC4498441306C9FF1385840073
S3151C0035205CC798C79307400263EAC7044D47637C90
S3151C003530C700184098C45840D8C46D47636DC7006F
S3151C0035402104138504011C401CC15C405CC11C4445
S3151C0035501CC5D28971B7184498C85844D8C8630684
S3151C003560F600410413858401F9BF1C481385040227
S3151C00357061049CCC8327C4FFDCCCF1B7A285E93956
S3151C003580C9BF5685EFD0FFB32A8AE30B05EC832708
S3151C003590C4FF130785FFF99BDE976398E700832911
S3151C0035A0C5FF93F9C9FFCA99DDB31306C9FF930773
S3151C0035B0400263E2C7064D47637CC704184018C126
S3151C0035C0584058C16D476361C702130784009307AF
S3151C0035D08500144394C35443D4C3184798C7A28583
S3151C0035E05685EFF04FD1ADBD184418C5584458C583
S3151C0035F06307F6001307040193070501D9BF1C488E
S3151C003600130784011CC954489307850154C9D1B7B3
S3151C003610AA8722877DBFA2858131D1B7CA8985BB7E
S3151C003620B3E9E90023A23B01D84313671700D8C3AB
S3151C00363051BB411122C42E848395E50006C6F9218F
S3151C003640634905003C48AA973CC8B2402244410144
S3151C00365082808357C4007D777D17F98F2316F4006B
S3151C003660EDB70145828083D7C500011122CC26CA3D
S3151C0036704AC84EC606CE93F70710AA842E843289F2
S3151C003680B68991C78395E5008946014681298357EA
S3151C003690C4007D777D17F98F2316F4008315E4008B
S3151C0036A06244F240CE864A86B24942492685D244B5
S3151C0036B00561F9AC411122C42E848395E50006C62A
S3151C0036C03129FD570357C400631BF500FD77FD1711
S3151C0036D0F98F2316F400B24022444101828085678B
S3151C0036E0D98F2316F40028C8FDB78395E500C9AC0D
S3151C0036F03367B500FD530D8B79E7378E7F7F130E2D
S3151C003700FEF710419441B372C6013363C601F292AF
S3151C003710B3E262006397720C6318D6065041D4411B
S3151C003720B372C6013363C601F292B3E262006398B8
S3151C003730720A631BD60410459445B372C6013363E3
S3151C003740C601F292B3E262006391720A631ED6024C
S3151C0037505045D445B372C6013363C601F292B3E237
S3151C0037606200639A72086311D60210499449B372B7
S3151C003770C6013363C601F292B3E262006393720818
S3151C0037805105D105E30FD6F61317060193970601CB
S3151C003790631CF7001357060193D706013305F74040
S3151C0037A09375F50F91E982804183C1833305F740F8
S3151C0037B09375F50F91E182801377F70F93F7F70F47
S3151C0037C03305F74082800346050083C605000505C0
S3151C0037D085056313D60065FA3305D640828011052C
S3151C0037E09105E312D6FE014582802105A105E31C45
S3151C0037F0D6FC014582803105B105E316D6FC014590
S3151C00380082804105C105E310D6FC014582802A87CA
S3151C00381011E28280850583C6F5FF930717001308FE
S3151C003820F6FFA38FD7FE89E632976396E700828060
S3151C0038303E874286F1BF8507A38F07FEFDB70111A0
S3151C00384022CC26CA4AC806CE4EC62A89AE843284E3
S3151C00385009C51C5D99E3EFE07FFD1C4C1CC4835716
S3151C003860C400A18BB5C31C48A5C38317C40093F918
S3151C003870F40F93F4F40F13972701635507061C489E
S3151C00388008401D8D5C486347F500A2854A85EFE01C
S3151C003890BFE821E11C440505FD171CC41C40138709
S3151C0038A0170018C0238037015C486389A70083571B
S3151C0038B0C400858B85C3A947639EF400A2854A85EF
S3151C0038C0EFE09FE501C931A0A2854A85EFE03FB133
S3151C0038D049DDFD54F240624426854249D244B24930
S3151C0038E0056182800967D98F2316F4007C5079778D
S3151C0038F07D17F98F7CD061B72E86AA8503A5011A80
S3151C0039003DBF83A7011A011122CC26CA06CE2A84E2
S3151C003910B684DC5B85E999E39387010383A7070ECD
S3151C003920A68601464C0022858297FD576317F50033
S3151C00393023A004009307A0081CC0F2406244D24492
S3151C0039400561828099E39387010383A7070EA686E8
S3151C003950D9BFB2862E86AA8503A5011A5DB783A791
S3151C003960011ADC5B99E39387010303A3070E028309
S3151C00397091CD9307F00F63F7C7009307A0081CC1EE
S3151C0039807D5582802380C500054582800145828045
S3151C003990411122C426C2AA842E85B285368606C645
S3151C0039A023AA0126EF102024FD576316F50083A7D2
S3151C0039B0412791C39CC0B24022449244410182805B
S3151C0039C0411122C426C2AA842E8506C623AA012614
S3151C0039D0EF10601DFD576316F50083A7412791C3A1
S3151C0039E09CC0B2402244924441018280411106C6C9
S3151C0039F022C426C24AC089E90149B24022444A85EA
S3151C003A009244024941018280AA842E8409C51C5D08
S3151C003A1099E3EFE0BFE18317C400F9DFA285268591
S3151C003A20EFE0FFB95C542A8999C74C4C26858297CE
S3151C003A30635305007D598357C40093F7070889C74C
S3151C003A400C482685EFF02F8B0C5891C9930704045C
S3151C003A506385F5002685EFF00F8A232804026C4047
S3151C003A6091C52685EFF02F8923220404EFE09FEAF7
S3151C003A7023160400EFE03FEA49B7AA8503A5011AFD
S3151C003A80B5B7411122C426C2AA842E85B28506C6A4
S3151C003A9023AA0126EF10C012FD576316F50083A753
S3151C003AA0412791C39CC0B24022449244410182806A
S3151C003AB0411122C426C2AA842E8506C623AA012623
S3151C003AC0EF10C010FD576316F50083A7412791C35D
S3151C003AD09CC0B2402244924441018280411122C4BE
S3151C003AE026C2AA842E85B285368606C623AA012638
S3151C003AF0EF10E00EFD576316F50083A7412791C30F
S3151C003B009CC0B2402244924441018280411122C48D
S3151C003B1026C2AA842E85B285368606C623AA012607
S3151C003B20EF10200CFD576316F50083A7412791C3A0
S3151C003B309CC0B2402244924441018280AE873288A6
S3151C003B40B6882A83639606203717011C130707427B
S3151C003B5063FEC50AC1666374D60A9306F00FB3B634
S3151C003B60C6008E06B358D600469703470700BA967A
S3151C003B7013070002158F19CBB397E700B356D50070
S3151C003B803318E600B3E5F6003313E50013550801B8
S3151C003B90B3D7A5021316080141829356030133F7C6
S3151C003BA0A502B305F6024207D98E3E8763FCB60012
S3151C003BB0C2961387F7FF63E7060163F5B600138702
S3151C003BC0E7FFC2968D8EB3F7A60242031353030179
S3151C003BD0B3D6A602C20733E36700B305D602368501
S3151C003BE0637BB30042931385F6FF6366030163741C
S3151C003BF0B3001385E6FF4207498F81454DA8B708D8
S3151C003C000001C146E36016F7E146A9BF01E68546F9
S3151C003C1033D8C602C166637ED8089306F00F63F3D9
S3151C003C200601A148B35618013697834607001307A9
S3151C003C300002C696158F49E7B3870741854513567B
S3151C003C4008019318080193D808019356030133F70A
S3151C003C50C702B3D7C7024207D98E3385F8023E87FF
S3151C003C6063FCA600C2961387F7FF63E7060163F59C
S3151C003C70A6001387E7FFC296898EB3F7C6024203D6
S3151C003C8013530301B3D6C602C20733E36700B388D6
S3151C003C90D8023685637B130142931385F6FF636650
S3151C003CA00301637413011385E6FF4207498F3A85A6
S3151C003CB08280B7060001C148E366D8F6E1489DB785
S3151C003CC03318E800B3D5D7003313E500B356D50037
S3151C003CD013550801B397E70033F7A502B3E8F600BE
S3151C003CE093170801C18313D60801B3D5A502420751
S3151C003CF0518FB386B7022E86637CD70042971386F4
S3151C003D00F5FF636707016375D7001386E5FF4297C6
S3151C003D10B306D74033F7A602C20893D80801B3D618
S3151C003D20A6024207B385D702B3671701368763FC21
S3151C003D30B700C2971387F6FF63E7070163F5B70061
S3151C003D401387E6FFC2978D8F93150601D98DC5BDC6
S3151C003D5063E2D514416763FEE6021308F00F33379E
S3151C003D60D8000E073718011C13080842B3D5E60005
S3151C003D70C29503C80500930500023A98B385054110
S3151C003D8085E10547E3E5F6F23335C5001347150013
S3151C003D9039BFB70500014147E3E6B6FC6147D9B711
S3151C003DA033570601B396B600D98E93DE060133D778
S3151C003DB00701B378D703B397B700335805013363AC
S3151C003DC0F80093970601C183135803013316B600F6
S3151C003DD03357D703C20833E80801338FE7023A8EFC
S3151C003DE0637CE8013698130EF7FF6367D80063758A
S3151C003DF0E801130EE7FF36983308E841B378D80379
S3151C003E003358D803C208B38E070393170301C18323
S3151C003E10B3E7F800428763FCD701B6971307F8FF90
S3151C003E2063E7D70063F5D7011307E8FFB697420E81
S3151C003E30B387D741C16E3367EE001388FEFF337319
S3151C003E40070193580701337806014182330E030399
S3151C003E503388080393560E013303C30242939A9682
S3151C003E60B388C80263F30601F69813D60601B29806
S3151C003E7063E01703E39317D9C167FD17FD8EC206CE
S3151C003E80337EFE003315B500F2968145E371D5E20B
S3151C003E907D17A5B38145014719BDB2883687AA8708
S3151C003EA02E886398061CB716011C9386064263F877
S3151C003EB0C50A4163637E66081303F00F6373C30070
S3151C003EC021473353E6009A9603CE060013030002DD
S3151C003ED03A9E3303C341630C0300B3956500335EFE
S3151C003EE0C501B31866003368BE00B317650013D648
S3151C003EF008013377C80213950801418193D607013F
S3151C003F003358C8024207D98E3308050363F80601E5
S3151C003F10C69663E5160163F30601C696B38606418B
S3151C003F2033F7C602C207C183B3D6C602B306D5028F
S3151C003F3013150701C98F63F8D700C69763E51701E8
S3151C003F4063F3D700C697958F33D56700814582806A
S3151C003F50370300014147E36666F661479DB701E6F4
S3151C003F600546B3581603416663F3C8081306F00FDB
S3151C003F7063731601214733D6E800B29603CE0600BA
S3151C003F80130300023A9E3303C34163190306B38528
S3151C003F90154113D7080113950801418113D6070152
S3151C003FA0B3F6E502B3D5E502C206D18EB305B5025A
S3151C003FB063F8B600C69663E5160163F3B600C696AB
S3151C003FC0B385B640B3F6E502C207C183B3D5E50295
S3151C003FD0B305B50213950601C98F63F8B700C697DA
S3151C003FE063E5170163F3B700C6978D8FB1BF37061C
S3151C003FF000014147E3E1C8F86147B5BFB3986800C3
S3151C00400033D7C501B3176500335EC50113D5080147
S3151C004010B376A702B3956500336EBE00939508016F
S3151C004020C18113560E013357A702C206D18E3387A0
S3151C004030E50263F8E600C69663E5160163F3E6003F
S3151C004040C6963386E640B376A602420E135E0E0172
S3151C0040503356A602C2063386C502B3E5C60163F80B
S3151C004060C500C69563E5150163F3C500C695918D1C
S3151C0040700DB7E3EED5EC416763F5E604930EF00F3E
S3151C00408033B7DE000E073713011CB3D8E600130343
S3151C00409003429A9883CE0800130E0002BA9E330E72
S3151C0040A0DE4163170E0263E4B6006369C500B307FD
S3151C0040B0C540958D3335F5003388A5403E85C285B0
S3151C0040C079B5B70800014147E3EF16FB614765BFA9
S3151C0040D03357D601B396C601D98EB357D50133D7FC
S3151C0040E0D501B395C501CD8F93D506013373B702A0
S3151C0040F0139F0601135F0F0193D807013316C601E0
S3151C0041003315C5013357B7024203B368130133088D
S3151C004110EF023A8363FC0801B6981303F7FF63E7C3
S3151C004120D80063F508011303E7FFB698B388084166
S3151C004130B3FFB802B3D8B802C20FB3051F03139F4F
S3151C0041400701135F0F0133EFEF014687637CBF0046
S3151C004150369F1387F8FF6367DF006375BF001387FD
S3151C004160E8FF369F4203C1683363E3009387F8FF79
S3151C00417013580601330FBF40B375F30013530301E5
S3151C004180F18F3387F502B307F302B38505033303B7
S3151C0041900303BE95135807012E986373F8004693C4
S3151C0041A0C167FD17935508013378F80042087D8FC7
S3151C0041B09A9542976366BF00631BBF006379E5004F
S3151C0041C03306C7403337C700958D998D3287330721
S3151C0041D0E5403335E500B305BF40898DB397D5015E
S3151C0041E03357C70133E5E700B3D5C5018DB3930734
S3151C0041F085007D575CC118C55CC51CC923200500FC
S3151C00420082802328050082805C419847DCC198C5C2
S3151C00421098474CC38CC71C4188C985071CC1828022
S3151C0042209841FD5693078500631ED7001C49D84349
S3151C004230D8C10CC79CC5CCC31C4188C985071CC1E9
S3151C0042408280B687D4439042E37DC7FECDB75441E6
S3151C00425018451C4998C6184554C3D4436393A600F5
S3151C004260D8C39843232805007D1798C388438280AA
S3151C004270938781359853184301E77D57D8D382809D
S3151C004280985358475847384FD5BF4111054506C660
S3151C004290C9269387813503A7870A01CBD443DC4300
S3151C0042A003A78609050723ACE608B24041018280B4
S3151C0042B09387813503A7870A0DC3D843032787092C
S3151C0042C009CFD443DC4303A786097D1723ACE60834
S3151C0042D083A7870999E30945ADAE8280411122C4A3
S3151C0042E006C626C2138481358327041081E7EF0096
S3151C0042F09022DDBF593F8327040FC44713858405CD
S3151C004300B9378327C40AFD172326F40A832704100A
S3151C004310FD172320F410693F2685EF20D00DE9B741
S3151C004320011122CC06CE2A8401E593878135C04330
S3151C004330A93F8347C44D094701456315F700230E62
S3151C004340044C05452AC6AD37F24062443245056128
S3151C004350828003A5812F75151335150082800111E6
S3151C00436006CE22CC26CA17E300001303A30197E34B
S3151C00437000009383231B6357730023200300110340
S3151C004380E34D73FE1384814908C013858149EFC030
S3151C0043903FB7630F05141C40BD8B8DC3B716011C9C
S3151C0043A03716011C9386863013068629930510132F
S3151C0043B03715011C1305C552EFC05FBAF32740F130
S3151C0043C09387411EDC4323220400AA841384411EC6
S3151C0043D08DE31385411E012F635D0500B716011C75
S3151C0043E03716011C9386C6321306C6289305700819
S3151C0043F0C1B71840914763F7E70E4840B715001C34
S3151C00440070009385058802C6EF000078635D050081
S3151C004410B716011C3716011C9386C6321306C6280E
S3151C0044209305800971B7B246554681451385411ED1
S3151C004430D929635D0500B716011C3716011C938626
S3151C004440C6321306C6289305500A9DB7484070000D
S3151C0044509385812702C60D2F635D0500B716011CC7
S3151C0044603716011C9386C6321306C6289305100BF5
S3151C00447081B7B246354685451385411E6921635D64
S3151C0044800500B716011C3716011C9386C632130687
S3151C004490C6289305D00B29BF484070009385812FF1
S3151C0044A002C6DD25635D0500B716011C3716011C07
S3151C0044B09386C6321306C6289305A00CD5BDB246F4
S3151C0044C0454689451385411E3D29635D0500B71682
S3151C0044D0011C3716011C9386C6321306C628930583
S3151C0044E0600DF9B50145F2406244D24405618280F3
S3151C0044F07D55D5BF03A7C13583A7411E1385D7FF9D
S3151C00450093054700B5423386A2400E06372318187A
S3151C00451013038381B703001873B0033A7330133A3D
S3151C0045207330233A7330333A938205021703000023
S3151C0045301303E300B303C300828383A302037390B4
S3151C004540F33B03A3C2027310E33B83A38202739063
S3151C004550D33B03A342027310C33B83A30202739093
S3151C004560B33B03A3C2017310A33B83A382017390C5
S3151C004570933B03A342017310833B83A302017390F5
S3151C004580733B03A3C2007310633B83A38200739027
S3151C004590533B03A342007310433B83A30200739057
S3151C0045A0333B0905135325008D43B38363409203A4
S3151C0045B013850501970200009382C2009E92828297
S3151C0045C00323C50083A3C5007330333A73A0333A63
S3151C0045D00323850083A385007330233A73A0233AF3
S3151C0045E00323450083A345007330133A73A0133A83
S3151C0045F00323050083A305007330033A73A0033A13
S3151C0046000F10000082808280011106CE02C6F3279D
S3151C00461050303EC6B2478D8B8DC3B716011C37165C
S3151C004620011C3715011C9386C6331306C62A93052F
S3151C00463040271305C552EFC07F92252DEFC04FDCD6
S3151C004640F240014505618280411106C6EFC04FFB51
S3151C00465001A073000000828082800D45730000005B
S3151C00466017E50000130505D08D42232055008280D6
S3151C004670828017E500001305E5CE814223205500F4
S3151C00468011457300000082808280797122D42A84AD
S3151C0046909387411EDC434AD04ECE52CC56CA06D610
S3151C0046A026D202C62E8AB28A36899389411E95E77E
S3151C0046B01385411E0D2963520502B716011C3716B8
S3151C0046C0011C9386C6321306062C9305C02D37157E
S3151C0046D0011C1305C552EFC07F8813064005814592
S3151C0046E02285EFC01FF39304840263120A0C03A5F0
S3151C0046F049007000D68502C64129635D0500B716C0
S3151C004700011C3716011C9386C6321306062C93050C
S3151C004710D02E75BFB2473707001303A549001CD01E
S3151C0047201C40931529007000BA971CC01C483707FB
S3151C00473000FFD695BA971CC802C6B921635D050051
S3151C004740B716011C3716011C9386C6321306062C97
S3151C00475093052030ADBFB24703A6090026875CD05F
S3151C0047605C4075161308F00FAD075CC05C48938758
S3151C004770F70F5CC895479386D7FF63EBC600B2500C
S3151C004780225492540259F249624AD24A45618280A5
S3151C00479093F6C7FF2320070093953700A29633157F
S3151C0047A0B8008C4A11078507AA958CCAE9B7630F0E
S3151C0047B0090603A549007000D68502C6F126635D6D
S3151C0047C00500B716011C3716011C9386C632130644
S3151C0047D0062C93057032E5BDB2473707001303A5B7
S3151C0047E049001CD01C40931529007000BA971CC0A8
S3151C0047F01C48370700FFD695BA971CC802C66926FF
S3151C004800635D0500B716011C3716011C9386C6325C
S3151C0048101306062C9305C0335DBDB2475CD05C40C5
S3151C004820AD075CC05C489387F70F5CC803A80900FA
S3151C004830528626871303D8FF9546130EF00F9387CF
S3151C004840D6FF9385B6FF63E66702BD47E3E907F328
S3151C004850B147B385F502D295DC4195D3B716011C39
S3151C0048603716011C9386C62D1306062C9305903607
S3151C004870B9BD484293953600E189B318BE0093F73B
S3151C004880C6FF0DC10842A29708C30846B315B5005A
S3151C00489088432E9588C38C4B31061107C6958CCB45
S3151C0048A0850671BF23200700A297F5B7B722000023
S3151C0048B093820280B372550093D2B20017E50000B2
S3151C0048C0130545AA2320550082808280F3220030DE
S3151C0048D093F272FF1303801812039343F3FFB3F290
S3151C0048E072001303000099C2130303181363830099
S3151C0048F01203B3E76200BE866FC08FC08547630391
S3151C004900F50085BB82807DC91C4163FDF50EBD4744
S3151C00491063EDB7003717011C93972500130747371C
S3151C004920BA979C4382877390063B9397350005473D
S3151C0049308981E18B6383E508B5C50947638AE50868
S3151C0049400D476382E50A014582807390163BF1BFD1
S3151C0049507390263BD9BF7390363BC1BF7390463BC1
S3151C004960E9B77390563BD1B77390663B7DBF739086
S3151C004970763B65BF7390863B4DBF7390963B75B770
S3151C0049807390A63B5DB77390B63B45B77390C63B19
S3151C00499069BF7390D63B51BF7390E63B79B7739052
S3151C0049A0F63B61B71303F00F3313F300B313F60092
S3151C0049B07330033A73A0033A79B71303F00F33131A
S3151C0049C0F300B313F6007330133A73A0133AA5BF62
S3151C0049D01303F00F3313F300B313F6007330233AAB
S3151C0049E073A0233A8DB71303F00F3313F300B313DD
S3151C0049F0F6007330333A73A0333AB1B737050080EB
S3151C004A0005058280370500801505828069C561C64B
S3151C004A10F9C21C4163F5F50C93D725000547638144
S3151C004A20E70489CB09476380E7040D476380E704E5
S3151C004A30814729A0F327003A93F7F70F1397350000
S3151C004A40B3D7E7402300F600BD47014563ECB70822
S3151C004A50B717011C9387473B8A05BE959C418287E5
S3151C004A60F327103AD1BFF327203AF9B7F327303A88
S3151C004A70E1B7F327003B9CC201458280F327103B1C
S3151C004A80DDBFF327203BC5BFF327303BEDB7F3272C
S3151C004A90403BD5B7F327503BF9BFF327603BE1BF3B
S3151C004AA0F327703BC9BFF327803BF1B7F327903B35
S3151C004AB0D9B7F327A03BC1B7F327B03B6DBFF3278C
S3151C004AC0C03B55BFF327D03B7DB7F327E03B65B70B
S3151C004AD0F327F03B4DB73705008005058280370567
S3151C004AE000801505828049C9797122D426D24AD004
S3151C004AF04ECE52CC06D6C1472A841CC18144FD59D0
S3151C004B00054A414981460146A6852285A305010021
S3151C004B1002C6D53B634A05040346B100FD56A6856D
S3151C004B2022854EC6CD336341050474001306B100BD
S3151C004B30A6852285E13D6349050232479DE029C3CE
S3151C004B408147B356F700858A99CA89073315FA0037
S3151C004B50634C050048C08504E39624FB29A0850701
S3151C004B60CDB775FB04C00145B2502254925402596C
S3151C004B70F249624A456182803705008005058280BC
S3151C004B80370500801505CDB719C633F5A50201E911
S3151C004B9089810CC282803705008005058280370515
S3151C004BA00080110582807D558280B70700805D8D4F
S3151C004BB0B747101A9387070A88C373005010828060
S3151C004BC08967DCC101458280054582807D151335C8
S3151C004BD015008280594723AAE1267D55828001450E
S3151C004BE08280014582807D158547B386C50063EAB0
S3151C004BF0A7003707101D13054700639AD500328599
S3151C004C0082801307800523AAE1267D5582808307AF
S3151C004C100500898BEDFF850583C7F5FF1CC3F1BF16
S3151C004C209387C11A9843B776011C938646843A9596
S3151C004C306368D500314723AAE1267D573A858280D1
S3151C004C4088C3EDBF6F4080306F40A03141117D5548
S3151C004C5006C69520B240410185A8411106C6EF2023
S3151C004C60403209C5B24041016F20C067B2404101C4
S3151C004C708280616541111305056A06C63928B24052
S3151C004C8005651305058041010DA07D890A059387DD
S3151C004C90411F3E95032305000283B707102088C3D6
S3151C004CA00D47A10798C301458280F32740305D8DCF
S3151C004CB0731045308280732740309347F5FF33F5D8
S3151C004CC0E700731045308280736504308280411181
S3151C004CD006C6AD3F3715011C1305453FEFC03FA562
S3151C004CE03775011C13050582EFF06FE719C17D5559
S3151C004CF06D3DA928B24001454101828041110545FF
S3151C004D0006C6EFF01F953715011C1305853FEFC02E
S3151C004D101FA2029001A082804111054506C6EFF034
S3151C004D205F93029001A08280011106CEEF40A02560
S3151C004D302AC6B7BE0000938EAEAAB7CE0000938ECD
S3151C004D40BEBB91456800EF40000DE5B7B715011CC9
S3151C004D503755001C4111814705478146130600192A
S3151C004D609385C541130585D206C6EF30B07DEF206D
S3091C004D70902601A0C6
S3151C004D744111714522C406C6EF3090702A8411C5B0
S3151C004D84232005001105EFF04FC62285B2402244AC
S3151C004D9441018280011106CE22CC26CA4AC84EC6BF
S3151C004DA452C456C25AC00DE1B706011C3706011C73
S3151C004DB49386460613060601930500143715011C33
S3151C004DC41305C552EFC04F99B70900FFB3F9350156
S3151C004DD42E84638D0900B706011C3706011C9386B5
S3151C004DE406071306060193051014C9BF81EDB70601
S3151C004DF4011C3706011C93868609130606019305B6
S3151C004E0420146DBF2A89B28A368B3A8AEF20C05B7E
S3151C004E1411ED630D0A00B706011C3706011C9386A7
S3151C004E24060B130606019305501449BFEF10F06FC9
S3151C004E3483240900B377940063170B029DE7814909
S3151C004E44630C0A02B3355001E20563050B00B70770
S3151C004E540004DD8D5286C18D13054900EF20C02840
S3151C004E64D289814411A8E31CF4FC63870A00934786
S3151C004E74F4FFE58F2320F900EF207066638B09028B
S3151C004E8419E1EFF0CFFCEF20605193176500AA845B
S3151C004E9463CD0700EFF02FBF83240900B37794007A
S3151C004EA463140B0285E7EFF06FC0370500017D150F
S3151C004EB4E98CF240624426854249D244B249224ACC
S3151C004EC4924A024B05618280E31FF4FCE38D0AFCC3
S3151C004ED41344F4FF658C23208900F1B7011106CE17
S3151C004EE422CC0DE1B706011C3706011C9386460627
S3151C004EF4130646029305401D3715011C1305C5529E
S3151C004F04EFC08F85B70700FFED8F81CFB706011C55
S3151C004F143706011C93864610130646029305501D3C
S3151C004F24E1BF2A842EC6EFF00FB6B245084093C5DE
S3151C004F34F5FFE98D0CC02AC6EFF04FB7F240624468
S3151C004F4432450561828059BF2E86AA853755001CB9
S3151C004F5481461305A5F46F307008797106D622D4E0
S3151C004F6426D24AD04ECE52CC56CA0DE1B706011CE7
S3151C004F743706011C938646061306C6039305202191
S3151C004F843715011C1305C552EFB01FFDB70700FFEB
S3151C004F94ED8F81CFB706011C3706011C9386C612FA
S3151C004FA41306C60393053021E1BF2A849309C50061
S3151C004FB42EC6EF1090571C40B2450848370900010D
S3151C004FC4DD8D0CC081447D19370A00020C40631226
S3151C004FD4350393C4F4FFED8C04C0EF2050500840F5
S3151C004FE4B250225492540259F249624AD24A456139
S3151C004FF482801841832A4500B3772701131657006C
S3151C005004B3F6B7006345060089E65685C1B7E39E29
S3151C005014D7FE9316770063D30600DD8CB3E54501F2
S3151C005024EF20A021DDB715BFB2862E86AA8537557B
S3151C005034001C1305A5026F30607A0111B70700FF27
S3151C00504406CE22CC26CA4AC84EC652C4F18F8DC37C
S3151C005054B706011C3706011C9386060713060600B1
S3151C0050649305600C3715011C1305C552EFB0DFEE12
S3151C005074B28401EEB706011C3706011C9386860909
S3151C005084130606009305700CF1BF2A892E8AB6896D
S3151C005094EF20803311ED638D0900B706011C37061A
S3151C0050A4011C9386060B130606009305A00C5DBF14
S3151C0050B4EF10B04703240900D2854A85793D336431
S3151C0050C44401B3779400639497060327090093C796
S3151C0050D4F4FF8149F98F2320F900EF205040638F98
S3151C0050E4090219E1EFF0AFD6EF20402B93176500A8
S3151C0050F42A8463C10702EFF00F9903240900B3F74E
S3151C00510484006397970093C4F4FFE18C23209900D1
S3151C005114EFF0CF99370500017D15698C2285F24085
S3151C0051246244D2444249B249224A05618280638C54
S3151C0051340900B70500054E86C58D13054900EF10F9
S3151C005144B07A014459BF0324090041BF0841828037
S3151C005154411122C42A8426C206C69304C400EF1035
S3151C005164D03C5C4091EB2285EF3010382244B2408F
S3151C005174924441016F20B036084863129502B70663
S3151C005184011C3706011C3715011C938606151306CC
S3151C0051940605930520271305C552EFB0FFDBB7059B
S3151C0051A40002EF20800975BF19C1084D8280014594
S3151C0051B482800CCD8280411122C42A8426C24AC014
S3151C0051C406C6EFF04F8C8344540413094402E204CC
S3151C0051D4E184634B9002FD57A302F404EFF00F8D98
S3151C0051E4EFF06F8A8344440413090401E204E18446
S3151C0051F463489002FD572302F4042244B2409244AD
S3151C005204024941016FF08F8A5C50F1D74A85EF1031
S3151C005214307919C1EF20801AFD14E204E18455BFCC
S3151C0052241C48E9DB4A85EF10B07719C1EF20001939
S3151C005234FD14E204E1846DBF011106CE22CC2AC6FC
S3151C005244EFF06F843245005DEFF04F86F240133564
S3151C005254140062440561828041114AC0328930417E
S3151C00526426C2045D22C406C62A840DE21C410145DD
S3151C00527491E70844EF20C02023240400850404DCA1
S3151C005284B2402244924402494101828063100902BD
S3151C0052944841EFC0EFAB5C4038400145BA9718440F
S3151C0052A45CC0E3EDE7FC1C405CC0C9BF4845EFC0CD
S3151C0052B42FAA3C4058441440B307F0403E9758C4A8
S3151C0052C46375D7001844BA975CC489470145E3172C
S3151C0052D4F9FACDD4FD145DB7AA87B0432E8501CE49
S3151C0052E4D84794473297D8C76364D7009843D8C71E
S3151C0052F4CC476FC0EFA58280397106DE22DC26DA24
S3151C0053044AD84ED652D456D25AD032C60DE1B70616
S3151C005314011C3706011C9386C638130646259305BD
S3151C005324A02E3715011C1305C552EFB0FFC22A84E3
S3151C005334AE89B68491ED3C4181CFB706011C370674
S3151C005344011C93864639130646259305B02ED1BFF8
S3151C00535489476391F402585C8547630DF700B706C9
S3151C005364011C3706011C9386C63E13064625930567
S3151C005374C02E45BFEF20400519EDB247014989CF20
S3151C005384B706011C3706011C9386060B1306462515
S3151C0053949305F02E79B70149894A7D5A130B0401EA
S3151C0053A461A0B24789E7EFE07FF001457DA0631554
S3151C0053B409002808EF204029EFE05FEFEF10F016F4
S3151C0053C4EFE07FEC83474404E207E18763944701DB
S3151C0053D42302040483475404E207E18763944701C8
S3151C0053E4A3020404EFE09FEC6C002808EF30E013E2
S3151C0053F43DEDEFE05FE9185C5C5C6310F702EFE0DF
S3151C005404FFEAB2455A85EF10D04922856D33EF2049
S3151C005414100D11E9EFF0AFA339A0EFE03FE92285A7
S3151C005424593BEF20D00B0549EFE0FFE5185C5C5CAB
S3151C0054346364F700E39754F72686CE852285293DB7
S3151C0054445C5089C713054402EF10905501C50145EC
S3151C005454EFF0EF9FEFE09FE50545F2506254D254FE
S3151C0054644259B259225A925A025B21618280228580
S3151C0054749933EF20D00615BF397106DE22DC26DAF5
S3151C0054844AD84ED652D432C60DE1B706011C37068D
S3151C005494011C9386C6431306C62B9305C066371593
S3151C0054A4011C1305C552EFB03FAB2A842E8991ED1E
S3151C0054B43C4181CFB706011C3706011C93868644E2
S3151C0054C41306C62B93050067D9BFEF10F06F19EDB1
S3151C0054D4B247814489CFB706011C3706011C938643
S3151C0054E4060B1306C62B9305506755BF8144FD59FD
S3151C0054F4130A4402BDA0B24789E7EFE03FDB01452E
S3151C00550479A081E42808EF202014EFE03FDAEF109D
S3151C005514D001EFE05FD783474404E207E187639435
S3151C00552437012302040483475404E207E187639486
S3151C0055343701A3020404EFE07FD76C002808EF2090
S3151C005544D07E3DE12285CD3939C9B2455285EF104D
S3151C005554503522858D31EF20807819E1EFF02F8F9D
S3151C0055648544EFE05FD21C5CD9D7CA8522854444A6
S3151C005574A5335C5044C489CB13054402EF10504236
S3151C00558401C50145EFF0AF8CEFE05FD20545F25043
S3151C0055946254D2544259B259225A216182802285BC
S3151C0055A41939EF20C0736DBF22853131EF2020736A
S3151C0055B42285593155D5A1B7411106C622C426C226
S3151C0055C40DE1B706011C3706011C9386C638130663
S3151C0055D4062E9305B0753715011C1305C552EFB07D
S3151C0055E4BF972A843C4189ED89CFB706011C37062F
S3151C0055F4011C9386464A1306062E9305C075E1BF05
S3151C00560481EFB706011C3706011C9386864F1306C9
S3151C005614062E9305D075C1B7185D814709C7444545
S3151C0056246539854744C4B240224492443E854101AF
S3151C0056348280397106DE22DC26DA4AD84ED652D44A
S3151C00564456D232C60DE1B706011C3706011C9386D9
S3151C005654C64313068629930540503715011C1305AA
S3151C005664C552EFB07F8F2A84AE8991ED3C4181CF20
S3151C005674B706011C3706011C938686441306862925
S3151C00568493058050D9BFEF10305419EDB247014928
S3151C00569489CFB706011C3706011C9386060B130615
S3151C0056A486299305D05055BF01497D5A930A440255
S3151C0056B485A8B24789E7EFE07FBF014541A863157A
S3151C0056C409002808EF105078EFE05FBEEF10E06584
S3151C0056D4EFE07FBB83474404E207E18763944701F9
S3151C0056E42302040483475404E207E18763944701B5
S3151C0056F4A3020404EFE09FBB6C002808EF20F062B1
S3151C00570425E52285153E21CDB2455685EF10701927
S3151C00571422855534EF20A05C19E1EFE05FF30549BF
S3151C005724EFE07FB6045CD1D4CE852285FD146D369C
S3151C00573404DC1C4889CB13050401EF10702601C533
S3151C0057440145EFE0DFF0EFE07FB60545F250625409
S3151C005754D2544259B259225A925A216182802285C4
S3151C005764993CEF20C05765BF2285B134EF202057E2
S3151C0057742285D9344DD591B7011106CE0DE1B70654
S3151C005784011C3706011C3715011C9386465113064A
S3151C005794462F9305E0781305C552EFB0EFFB2AC6D6
S3151C0057A4EFE07FAE3245085D2AC6EFE03FB0F2401B
S3151C0057B4324505618280011106CE22CC0DE1B70665
S3151C0057C4011C3706011C3715011C9386C6381306A3
S3151C0057D4C6309305F0791305C552EFB0EFF72A844A
S3151C0057E4EFE07FAA1C5C485C1D8D2AC6EFE01FAC4B
S3151C0057F4F2406244324505618280011106CE22CCF8
S3151C00580426CA4AC84EC60DE1B706011C3706011C3A
S3151C0058149386C638130686269305C03B3715011C8A
S3151C0058241305C552EFB04FF32A84328991ED3C41DE
S3151C00583481CFB706011C3706011C9386463913060D
S3151C00584486269305D03BD9BF09475C5C6390E60268
S3151C0058540547638DE700B706011C3706011C9386B2
S3151C005864C63E130686269305E03B4DBF185C63664D
S3151C005874F700894701456392F602834454041C5C71
S3151C0058843686228593998401C13A93D98941FD5759
S3151C0058946397F9025C5089EB0545F2406244D24495
S3151C0058A44249B2490561828013054402EF10500F28
S3151C0058B465D5E30309FE85472320F900F1BF85045A
S3151C0058C4E204E184A3029404C1BF011106CE0DE1D6
S3151C0058D4B706011C3706011C9386C63813064628D0
S3151C0058E4930540463715011C1305C552EFB0CFE688
S3151C0058F43C4181CFB706011C3706011C9386C65151
S3151C0059041306462893058046F1BF1C4191EF1C459E
S3151C00591481CFB706011C3706011C938686531306D2
S3151C00592446289305D0467DBF185D545D8147637A2E
S3151C005934D70283475504050718DD93968701E1862C
S3151C0059447D576394E6025C5199E3854719A81305B0
S3151C00595445022EC6EF10D004B24565D9FDD5854740
S3151C0059649CC1F2403E85056182808507E207E1877A
S3151C005974A302F504D9BF011106CE22CC26CA4AC8F5
S3151C0059844EC652C40DE1B706011C3706011C93868C
S3151C005994C6381306862C9305F06F3715011C1305A0
S3151C0059A4C552EFB06FDB2A84B28991ED3C4181CF9D
S3151C0059B4B706011C3706011C9386464A1306862C19
S3151C0059C493050070D9BF03298403014563030902A7
S3151C0059D48344440422850932139A84017D19135A7B
S3151C0059E48A41232C2403FD576318FA021C4891EBA5
S3151C0059F40545F2406244D2444249B249224A0561F1
S3151C005A04828013050401EF10A0797DD1E38209FE7F
S3151C005A14854723A0F900E9BF8504E204E184230237
S3151C005A249404F9B705E5B706011C3706011C856500
S3151C005A343715011C41119386C638130646359385C2
S3151C005A44D5901305C55206C6EFB00FD1085D1335A4
S3151C005A541500828005E5B706011C3706011C856501
S3151C005A643715011C41119386C638130606379385D0
S3151C005A7455931305C55206C6EFB00FCE1C5D485D83
S3151C005A841D8D1335150082801DE1B706011C3706D2
S3151C005A94011C3715011C41119386C6381306463260
S3151C005AA49305007B1305C55206C6EFB0EFCA085D05
S3151C005AB48280397106DE22DC26DA4AD84ED652D4C6
S3151C005AC42EC60DE1B706011C3706011C9386C64378
S3151C005AD41306862A930550593715011C1305C552FE
S3151C005AE4EFB08FC73C412A8481CFB706011C370609
S3151C005AF4011C9386C6511306862A93059059E9BF41
S3151C005B04EF10900C05E1B2478144014991CFB706C9
S3151C005B14011C3706011C9386060B1306862A93055D
S3151C005B24E0595DBF81440149FD59130A440279A811
S3151C005B34B24785E381CCB706011C3706011C938644
S3151C005B44C6591306862A9305505E79B7EFE00FF6FD
S3151C005B5475A0631509002808EF10102FEFE00FF548
S3151C005B64EF10A01CEFE02FF283474404E207E18701
S3151C005B74639437012302040483475404E207E18730
S3151C005B8463943701A3020404EFE04FF26C00280867
S3151C005B94EF20B01959E12285EFF00FEA2DC91C40FC
S3151C005BA489EBEFE04FEE0844EF107003AA84EFE094
S3151C005BB4EFEFB2455285EF10C04E2285EFF0AFDFF2
S3151C005BC4EF20E01119E1EFE09FA80549EFE0AFEBE8
S3151C005BD41C5CB9DFFD171CDC1C4081E7EF1010258B
S3151C005BE408C41C4889CB13050401EF10605B01C56E
S3151C005BF40145EFE0DFA5EFE06FEB8544F2506254FC
S3151C005C0426854259D254B259225A21618280228550
S3151C005C14EFF06FDAEF20A00C4DBF2285EFF0AFD961
S3151C005C24EF20E00B2285EFF02FE145D1E1D8EFE020
S3151C005C348FE55C50814589C71C5895459C439D8DB1
S3151C005C4408448144EF10700FEFE04FE645BF011185
S3151C005C542AC606CEEFE02FE332451C4189EB0845E4
S3151C005C642AC6EFE0AFE4F240324505618280014565
S3151C005C74C5BF1DE1B706011C3706011C3715011CDF
S3151C005C8441119386C65C1306061E930570231305E1
S3151C005C94C55206C6EFB04FAC1841AA87014511E39D
S3151C005CA488478280011106CE22CC26CA0DE1B7068E
S3151C005CB4011C3706011C3715011C9386865D1306C9
S3151C005CC48621930590281305C552EFB0EFA8044509
S3151C005CD42A842EC6EF10006EB245639BA4005C4456
S3151C005CE4054585075CC4F2406244D2440561828042
S3151C005CF42285C1336DD95C4485075CC4EDB741115B
