S00E0000626C696E6B792E737265638D
S3151C0008006F0000106F00C00F6F00800F6F00400F4D
S3151C0008106F00000F6F00C00E6F00800E6F00400E41
S3151C0008206F00000E6F00C00D6F00800D6F00400D35
S3151C0008306F00000D6F00C00C6F00800C6F00400C29
S3151C0008406F00000C6F00C00B6F00800B6F00400B1D
S3151C0008506F00000B6F00C00A6F00800A6F00400A11
S3151C0008606F00000A6F00C0096F0080096F00400905
S3151C0008706F0000096F00C0086F0080086F004008F9
S3151C00088097010100938101F817510100130181B9E9
S3151C00089017050000130505F7136515007310553071
S3151C0008A097020100938202121703010013030337F8
S3151C0008B023A002009102E3ED62FE1705000013055A
S3151C0008C04559B92BEF00C06102454C000146EFD0DB
S3151C0008D0F020A9AB82800000000000000000000090
S3151C0008E000000000000000000000000000000000E6
S3151C0008F000000000000000000000000000000000D6
S3151C000900130181F806C216C41AC61EC822CA26CCF2
S3151C0009102ACE2ED032D236D43AD63ED842DA46DC4D
S3151C0009204ADECEC0D2C2D6C4DAC6DEC8E2CAE6CC1D
S3151C000930EACEEED0F2D2F6D4FAD6FED8F3220030A6
S3151C00094096DA9702010083A2E21A23A022007325DD
S3151C0009502034F32510341356F501630F06062EC0FA
S3151C00096093021000FE0213837200631D6504970236
S3151C000970010083A2221D1703010003236303FD5EEE
S3151C00098083230300032E430023A0D20123A2C2010A
S3151C00099023A072009702010083A2C201B38E7200CB
S3151C0009A033BF7E00B30FEE012320D3012322F301B4
S3151C0009B01701010003214100EFC0004C21C5EFC007
S3151C0009C0006489A01103631C650217010100032141
S3151C0009D0A1FEEFD0E0583DA091052EC0AD42631993
S3151C0009E0550017010100032121FDEFC0406119A824
S3151C0009F0F322203473231034F3230030D5BFF322A3
S3151C000A002034F5BF170301000323C30E0321030083
S3151C000A10824273901234D652739002309240A24294
S3151C000A203243C2435244E244724582551256A25680
S3151C000A303257C2575258E25872598649164AA64A24
S3151C000A40364BC64B564CE64C764D865D165EA65E00
S3151C000A50365FC65F13018107730020301300000048
S3151C000A601300000013000000130000001300000018
S3151C000A701300000013000000130000001300000008
S3151C000A8013000000130000001300000013000000F8
S3151C000A9013000000130000001300000013000000E8
S3151C000AA013000000130000001300000013000000D8
S3151C000AB013000000130000001300000013000000C8
S3151C000AC013000000130000001300000013000000B8
S3151C000AD013000000130000001300000013000000A8
S3151C000AE01300000013000000130000001300000098
S3151C000AF01300000013000000130000001300000088
S3151C000B00130181F806C216C41AC61EC822CA26CCF0
S3151C000B102ACE2ED032D236D43AD63ED842DA46DC4B
S3151C000B204ADECEC0D2C2D6C4DAC6DEC8E2CAE6CC1B
S3151C000B30EACEEED0F2D2F6D4FAD6FED8F3220030A4
S3151C000B4096DA9702010083A2E2FA23A022007325FB
S3151C000B502034F32510342EC0170101000321C1E5F2
S3151C000B60EFC08031E30005EAEFC0604917030100BE
S3151C000B70032343F803210300824273901234D65296
S3151C000B80739002309240A2423243C2435244E24422
S3151C000B90724582551256A2563257C2575258E258BF
S3151C000BA072598649164AA64A364BC64B564CE64CD3
S3151C000BB0764D865D165EA65E365FC65F130181079F
S3151C000BC07300203013000000130000001300000007
S3151C000BD013000000130000001300000013000000A7
S3151C000BE01300000013000000130000001300000097
S3151C000BF01300000013000000130000001300000087
S3151C000C0097020000938202D07390523017010100A4
S3151C000C10032141EE024182403243C2435244E24424
S3151C000C20724582551256A2563257C2575258E2582E
S3151C000C3072598649164AA64A364BC64B564CE64C42
S3151C000C40764D865D165EA65E365FC65FD652A102DF
S3151C000C5073900230A24213018107828013000000A8
S3151C000C601300000013000000130000001300000016
S3151C000C701300000013000000130000001300000006
S3151C000C8013000000130000001300000013000000F6
S3151C000C9013000000130000001300000013000000E6
S3151C000CA013000000130000001300000013000000D6
S3151C000CB013000000130000001300000013000000C6
S3151C000CC013000000130000001300000013000000B6
S3151C000CD013000000130000001300000013000000A6
S3151C000CE01300000013000000130000001300000096
S3151C000CF01300000013000000130000001300000086
S3151C000D00F322003093F272FF130380181203B3E22E
S3151C000D106200711523205500130585FA10C1211593
S3151C000D20232005009302000063870200711523200F
S3151C000D300500FD12D5BF71150CC182800000000094
S3151C000D400000000000000000000000000000000081
S3151C000D500000000000000000000000000000000071
S3151C000D600000000000000000000000000000000061
S3151C000D700000000000000000000000000000000051
S3151C000D80000000000000000000000000C167637640
S3151C000D90F5029307F00FB3B7A7008E0713070002DF
S3151C000DA01D8FB357F50037F5001C1305C5E8AA9728
S3151C000DB003C507003305A740828037070001C147DA
S3151C000DC0E36EE5FCE147D9BF4111194506C6EF00A4
S3151C000DD0502B0545EFD0E004B717011C83A7079AD3
S3151C000DE04111328806C6AA882E873686C847630DE7
S3151C000DF00800B7F7001C9387C7F8B7F5001CC68612
S3151C000E009385C5F94D28C93737F8001C930788F90F
S3151C000E10130888F9DDB74111B286014606C66D3F37
S3151C000E20AA858146014601456F20104E4111814518
S3151C000E3022C406C62A84EF207053B717011C03A5CB
S3151C000E40C7995C5D91C382972285EFC0907D011185
S3151C000E50B707011C3707011C22CC1307C7C2138412
S3151C000E60C7C2198C26CA4AC84EC606CE09848144F6
S3151C000E701389C7C2F159631A94006244F240D244E2
S3151C000E804249B24905616FF0FFA4B3873403850458
S3151C000E90CA9783A7C7FF8297F9BF397136D67410D4
S3151C000EA006CE3AD83EDA42DC46DE36C6EF00F02ED7
S3151C000EB0F2402161828039713EDAB717011C32D4A7
S3151C000EC02E86AA8503A5079A36D6341006CE3AD89E
S3151C000ED042DC46DE36C6EF00502CF2402161828091
S3151C000EE0411122C426C23704011CB704011C938776
S3151C000EF0C4C21304C4C21D8C4AC006C6098493848A
S3151C000F00C4C2014963198902B704011CEFF09F9CF6
S3151C000F103704011C9387C4C21304C4C21D8C0984E4
S3151C000F209384C4C20149631D8900B2402244924481
S3151C000F300249410182809C40050991048297D9B7D8
S3151C000F409C40050991048297F9BFB717011CAA8515
S3151C000F5003A5079A01A8B717011CAA8503A5079A1A
S3151C000F606F30A021797106D622D426D24AD04ECE15
S3151C000F7052CC56CA5AC85EC662C49387B500594736
S3151C000F806375F70293F487FF63D20402B1471CC151
S3151C000F900145B250225492540259F249624AD24A2D
S3151C000FA0424BB24B224C45618280C144E3E0B4FE05
S3151C000FB0AA89EFC0D0723709011C9307701F130949
S3151C000FC0894263EC9702138784004A974043930631
S3151C000FD087FF93D734006316D40040478907630CF8
S3151C000FE087045C4058441444F19BA297D8C614C786
S3151C000FF0D84313671700D8C341A013D7940093078F
S3151C001000F00301CB914763EFE70693D76400938700
S3151C0010108703138717000E074A974043930587FFDC
S3151C0010203D456309B4005840719B33069740635E87
S3151C001030C508FD17850703240901B705011C93067E
S3151C0010408900938505436303D40E58403D46719B26
S3151C001050330597406356A60893E714005CC0330615
S3151C0010609400232AC9002328C9009367150054C677
S3151C00107014C65CC2229708C34E85EFC09066130542
S3151C001080840001BFD14763E5E7009307B70551B755
S3151C0010909307400563E7E70093D7C4009387E706E9
S3151C0010A08DBF9307401563E7E70093D7F40093873A
S3151C0010B0770785B7930640559307E007E3EBE6F4FD
S3151C0010C093D724019387C707A9B7544463480600DE
S3151C0010D01C44D4C79CC6B307E40019BF368491B719
S3151C0010E0232AD9002328D9006348050022975C438C
S3151C0010F093E717005CC349B79306F01F0328490002
S3151C00110063E8E6120D831356274085460507B396FA
S3151C001110C6000E074A97B3E606012322D9001443DC
S3151C001120130687FF50C414C400C3C0C613D7274078
S3151C00113005433313E30003274900636C6704B37646
S3151C001140670099E6F19B0603B37667009107E5DE17
S3151C0011503D4E93963700CA9636883E850324C800B2
S3151C00116063130417050513773500210865FB13F770
S3151C00117037006313071A032749009347F3FFF98FB8
S3151C0011802322F900032749000603636467006312E0
S3151C001190031A832B890003A44B00937AC4FF63E7CD
S3151C0011A09A0033879A40BD4763CBE724B717011CC7
S3151C0011B0371A011C03A4C7AE03274A9AFD57269467
S3151C0011C0631BF7164104A2854E85A123FD572A8B66
S3151C0011D0630CF51CB3875B016374F50063962B1DCA
S3151C0011E0371C011C93060C9C9842130C0C9C2297D2
S3151C0011F098C26398671593964701639406148327D0
S3151C0012008900569413641400C0C33717011C832726
S3151C0012100C00832687AE63F4F6002324F7AE37173B
S3151C001220011C832647AE63F1F6182322F7AEADAA3E
S3151C00123013569700914663ECC60293566700938635
S3151C0012408603138616000E064A96130586FF104261
S3151C0012506315C50689860547B316D700B3E606018E
S3151C0012602322D90048C410C400C540C6C1B5D14606
S3151C00127063E5C6009306B605E9B79306400563E722
S3151C001280C6009356C7009386E60665BF93064015AF
S3151C00129063E7C6009356F700938676075DB713057A
S3151C0012A040559306E007E36EC5F8935627019386CF
S3151C0012B0C60741BF10466306C5005442F19AE36B4C
S3151C0012C0D7FE484645B758405044719BB3089740D3
S3151C0012D063571E0393E714005CC01C44B3069400BA
S3151C0012E02297D0C71CC6232AD9002328D90093E7E6
S3151C0012F01800CCC68CC6DCC223201701B5BB63CB39
S3151C001300080022975C4393E717005CC31C44D0C7B4
S3151C0013101CC69DB33284A9B5138786FF9442FD175C
S3151C001320E387E6E485B591070603B3766700E5DE39
S3151C0013300DB5AA87DDBF8567BD073E94FD777D8CFD
S3151C00134059B503264A9AFD56631FD60623226A9B65
S3151C00135093757B0089C5A147B385B7402E9B8567CE
S3151C001360BE955A94FD177D8C338A8540D2854E8551
S3151C0013704D26FD576314F5005A85014A83270C0038
S3151C0013803305654123246901D2972A9A136A1A00E8
S3151C0013902320FC0023224B01E3892BE73D47636A8C
S3151C0013A0570385472322FB0083278900DC43F19BD7
S3151C0013B03387974063E59700BD4763C2E7044E85B4
S3151C0013C0EFC03032F1B6B307FB40BA972320FC00BE
S3151C0013D041B783A74B0013844AFF6198858BC18F45
S3151C0013E023A2FB009546B3878B00D4C394C7E37E28
S3151C0013F087E093858B004E85EF20305839B5032442
S3151C001400890093E714005CC0B30794002324F900F9
S3151C001410CDB6B3C7A5008D8B3307C50081E78D47B5
S3151C00142063EFC700AA876369E500828083C605004F
S3151C00143085078505A38FD7FEE3EAE7FE82809377AF
S3151C0014403500BDEBAA879376C7FF138606FE63FCA1
S3151C001450C70683A3050083A2450083AF850003AF9F
S3151C001460C50083AE050103AE450103A3850183A810
S3151C001470C501938545029387470203A8C5FF23AE82
S3151C00148077FC23A057FE23A2F7FF23A4E7FF23A67E
S3151C001490D7FF23A8C7FF23AA67FE23AC17FF23AEDB
S3151C0014A007FF75B783C6050085078505A38FD7FE7D
S3151C0014B093F63700E5FA41BFAA87DDBF9041910735
S3151C0014C0910523AEC7FEE3EBD7FEE3E7E7F6828082
S3151C0014D03D482A876373C8029377F700BDEFADE5D5
S3151C0014E0937606FF3D8ABA960CC34CC30CC74CC7F1
S3151C0014F04107E36BD7FE11E28280B306C8408A0619
S3151C0015009702000096966780A6002307B700A306DD
S3151C001510B7002306B700A305B7002305B700A3042D
S3151C001520B7002304B700A303B7002303B700A30225
S3151C001530B7002302B700A301B7002301B700A3001D
S3151C001540B7002300B700828093F5F50F93968500AC
S3151C001550D58D93960501D58D61B793962700970275
S3151C001560000096968682E78086FA9680C1171D8FA4
S3151C0015703E96E374C8F8A5B7397132D436D63AD834
S3151C0015803EDA42DC46DE2E860C45341006CE36C6C6
S3151C001590EF003058F2402161828039713EDAB7176C
S3151C0015A0011C83A7079A32D436D62ED23AD842DCEF
S3151C0015B046DE8C4754102A863E8506CE36C6EF007C
S3151C0015C05055F24021618280397122DC2A842E8595
S3151C0015D02EC606DE112EB7F7001C9387C7FC3ED419
S3151C0015E085473ED61C10B2453ECA89473ECC1C5C7C
S3151C0015F02AD205052ED02ACE0C4491E722852EC66A
S3151C001600EF205009B2458397C50013972701634BFA
S3151C00161007008966F851D58F2396F500F977FD17D3
S3151C001620F98FFCD150082285EF205050FD5711E14F
S3151C001630A947F25062543E8521618280B717011C6E
S3151C001640AA8503A5079A49B7411122C42E848C4149
S3151C00165026C206C6AA8491C1C53FA2852244B240B1
S3151C0016602685924441016F205031B717011C83A770
S3151C001670079A638FA7087C45011122CC26CA4AC843
S3151C00168006CE4EC62A8481441309000885EB2C40DD
S3151C00169081C52285EF20702E8325841495CD930455
S3151C0016A0C414638B950203A905002285EF20F02C38
S3151C0016B0CA85C5BFA6958C4189E991046C44E39BF8
S3151C0016C024FF2285EF20702BD9B783A9050022851C
S3151C0016D0EF20B02ACE85CDB76C4881C52285EF2078
S3151C0016E0D0291C5C99CF5C5C228582978325042EAD
S3151C0016F089C922856244F240D2444249B2490561F5
S3151C001700A1B7F2406244D2444249B2490561828083
S3151C0017108280411122C426C23714011CAA842E853C
S3151C00172006C6232A04C0EFC0C078FD576316F50011
S3151C001730832744C191C39CC0B240224492444101B8
S3151C00174082800327C52D15EB41119305000822C481
S3151C00175006C62A84EFF01F81232EA42CFD5709C927
S3151C00176093070508232005001105E31DF5FE814797
S3151C001770B24022443E854101828081473E8582805B
S3151C001780411126C206C622C44AC07D47AA84637676
S3151C001790B700594718C17D5531A88327C52D3289F5
S3151C0017A02E8499CF9315240003A4C42DA295884199
S3151C0017B023A02501B2402244924402494101828061
S3151C0017C049376DD1C9BFFD4763F6B700D9471CC160
S3151C0017D07D5582808327C52D011122CC06CE2E86EF
S3151C0017E02A8491C713972500BA97984319EB22852B
S3151C0017F032C6CD28AA85228562443246F24005614E
S3151C0018004DA8854601456308D700FD566319D700C8
S3151C001810D9471CC00545F2406244056182802E856D
S3151C00182023A0070002970145FDB7FD4763F4B700E7
S3151C0018307D5582808327C52D411122C426C206C62A
S3151C001840AA842E849DC783A7C42D1317240005457F
S3151C0018503E971C4395C3FD560945638FD7008546A5
S3151C0018600D45638BD70022852320070082970145EF
S3151C00187021A0C13D69D97D55B24022449244410103
S3151C0018808280B717011CAA8503A5079A2DBFB71717
S3151C001890011C2E86AA8503A5079ADDB5B717011C60
S3151C0018A003A5079A79BDB717011CAA8503A5079A34
S3151C0018B0ADBF411122C426C23714011CAA842E8531
S3151C0018C0B28506C6232A04C0EFC04058FD576316CE
S3151C0018D0F500832744C191C39CC0B2402244924464
S3151C0018E0410182806FC0C055AA87850703C7F7FFD1
S3151C0018F06DFF3385A7407D1582801C46797122D4E5
S3151C00190006D626D24AD04ECE52CC56CA5AC85EC627
S3151C00191062C4328485E3232206000145B250225458
S3151C00192092540259F249624AD24A424BB24B224C59
S3151C00193045618280FC512E8913972701635A07043F
S3151C00194004422A8AFD5B1C4499E7014523240400B2
S3151C00195023220400E1B783A9440003AB0400814A97
S3151C00196013DC290063CB8A011C4493F9C9FFA1042B
S3151C001970B389374123243401F9B783250B004A86E2
S3151C0019805285EF20206E110B63077501850AD9BF9E
S3151C001990EF20D01965BF7D5555BF6971232481126F
S3151C0019A023202113232E3111232C411123261112FE
S3151C0019B023229112232A51112328611123267111E6
S3151C0019C023248111232291112320A111EEDFAA8940
S3151C0019D02E84328A368909C51C5D99E3EF20804B1B
S3151C0019E08317C40013972701634B07008966785039
S3151C0019F0D58F2316F400F977FD17F98F7CD0835702
S3151C001A00C400A18BA5C31C48B1CF8357C40029476A
S3151C001A10E98B6390E7068317E40063CC0704CA8648
S3151C001A205286A2854E85EF001006AA8B8320C11212
S3151C001A30032481125E858324411203290112832902
S3151C001A40C111032A8111832A4111032B0111832BF6
S3151C001A50C110032C8110832C4110032D0110FE5D37
S3151C001A6055618280A2854E85EF10707C59DDFD5B29
S3151C001A7075BF130BC104DAC082C482C25A8702D254
S3151C001A8002CE02D002D4814BD2849306500283C765
S3151C001A90040099C3639CD706B38A444163880A022F
S3151C001AA0A6472320470123225701D697BEC4964733
S3151C001AB09D4621078507BEC263D9F6009000A28504
S3151C001AC04E85253D631705765A87D69B83C704002A
S3151C001AD0638A0778138A1400A30D0102FD54814AF8
S3151C001AE0014D294C930CA0021308A005A5450346DD
S3151C001AF00A00050A930606FE6364D866B7F7001C3F
S3151C001B008A06938707FDBE9694428286850441B752
S3151C001B10B7F6001C9386C61536D293760D026382E1
S3151C001B20064E1D09137989FF83280900832C490059
S3151C001B30130C890093761D0081CEB3E6980189CAE1
S3151C001B4093060003230ED102A30EC102136D2D00B2
S3151C001B50137DFDBFADA44E853AC8EF40E020484139
S3151C001B602AD459332AD04E85EF4000200845825787
S3151C001B7042472ACEB5DB2DD983460500B5D6136D53
S3151C001B800D409DB78346B103A5F293060002A30D33
S3151C001B90D10299BF136D1D0081BF832A090011094B
S3151C001BA0E3D40AF4B30A5041136D4D0035BF9306B6
S3151C001BB0B002F1BF03460A0093061A006318960387
S3151C001BC0832409001306490063D30400FD5432899B
S3151C001BD0368A19BFB3848403850603C6F6FFAA9406
S3151C001BE0130506FDE3F8A5FE368A29B78144CDBF49
S3151C001BF0136D0D08D5BDD286814AB38A8A03130696
S3151C001C0006FD8506B29A03C6F6FF130506FDE3F626
S3151C001C10A5FED9BF03460A00930680066316D600A6
S3151C001C20050A136D0D20C9B5136D0D0475BD03464C
S3151C001C300A009306C0066316D600050A136D0D022C
S3151C001C4065B5136D0D014DB583260900130C4900AE
S3151C001C50A30D01022306D1088544814C1309C10832
S3151C001C6069A2136D0D0193760D02B9C61D09137970
S3151C001C7089FF83280900832C4900130C890063DE25
S3151C001C800C00B3081041B336100133039041B30C5A
S3151C001C90D3409306D002A30DD102FD566398D438C7
S3151C001CA063950C3EA54663E2163F93880803A3077B
S3151C001CB0110F1309F10ED9A693760D01130C4900C9
S3151C001CC091C68328090093DCF84155BF93760D0411
S3151C001CD08328090089C6C20893D80841EDB79376B4
S3151C001CE00D20F5D2E20893D88841F1BF13760D0278
S3151C001CF083260900110919C693D7FB4123A0760137
S3151C001D00DCC259B313760D0101C623A07601ADBB07
S3151C001D1013760D0409C6DE872390F600B5B39377B8
S3151C001D200D20E5D7DE872380F600B9BB136D0D01A8
S3151C001D3093760D029DCE1D09137989FF8328090010
S3151C001D40832C4900130C8900137DFDBF8146A30D0E
S3151C001D5001027D56638FC42C6A86B3E59801137DF8
S3151C001D60FDF76398052C6383043E05466396C62CD3
S3151C001D702DBF93760D01130C490081C683280900DB
S3151C001D8031A093760D0489C683580900814C6DBF1A
S3151C001D9093760D20E5D683480900CDBFE17693C620
S3151C001DA00683231ED10283280900B7F6001C9386DE
S3151C001DB00617130C4900814C136D2D0036D289462B
S3151C001DC079B7A30D0102FD56130C4900032909001E
S3151C001DD06388D41C268681454A853AC8EF40001B79
S3151C001DE0814C424719C1B304254166CC63D39C0080
S3151C001DF026CC8346B10381C6E24785073ECC937D3C
S3151C001E002D0063850D00E24789073ECC93774D086C
S3151C001E103ED6A1E7E247B386FA406350D004B7F733
S3151C001E20001CC1481388C7131D43164623200701EF
S3151C001E30A64505061305870063CCD83254C3AE9657
S3151C001E40B6C4B2C29D462A8763D9C6009000A28535
S3151C001E504E856534631F053C5A878346B1039DC670
S3151C001E601306B10310C30546964650C3264685067F
S3151C001E70B6C20506B2C41D4621076359D60090009A
S3151C001E80A2854E859D3C6316053A5A8763870D02CB
S3151C001E90701810C30946964650C326468506B6C218
S3151C001EA00906B2C41D4621076359D6009000A285B7
S3151C001EB04E85A134631F05365A87B2579306000810
S3151C001EC06395D704E247B38DFA406350B005414889
S3151C001ED09D489646B7F7001C9387C7141CC3264615
S3151C001EE0850693058700634EB82B2322B701B29D46
S3151C001EF0EEC4B6C21D462E876359D6009000A28535
S3151C001F004E85E53A631705325A87B38C9C4063505D
S3151C001F109005C14D1D489646B7F7001C9387C714FC
S3151C001F201CC3264685069305870063C19D2B232269
S3151C001F309701B29CE6C4B6C21D462E876359D600CD
S3151C001F409000A2854E85553A6315052E5A87A646DE
S3151C001F5044C323202701B6949646A6C41D4685066F
S3151C001F60B6C221076359D6009000A2854E857132F0
S3151C001F706311052C5A8793774D00639C072662478D
S3151C001F8063D3EA00BA8AA647D69B99C79000A28556
S3151C001F904E85A532631F052882C262895A87EDB415
S3151C001FA04A853AC89132AA84814C42473DBD136D7D
S3151C001FB00D0193760D0281CE1D09137989FF8328A5
S3151C001FC00900832C4900130C8900854649B3937676
S3151C001FD00D01130C490081C68328090031A0937694
S3151C001FE00D0489C683580900814CC5B793760D200C
S3151C001FF0E5D683480900CDBFB7F6001C93860617A5
S3151C00200021BE93760D01130C490081C68328090055
S3151C00201031A093760D0489C683580900814C19BEDC
S3151C00202093760D20E5D683480900CDBF6A86854682
S3151C0020302DB30546E386C6C609466382C60E9419A9
S3151C0020409395DC0113F6780093D838001306060323
S3151C002050B3E8150193DC3C00A38FC6FEB3E59801DB
S3151C0020601389F6FF8DE193751D0089C9930500033D
S3151C0020706306B600A30FB9FE1389E6FF9C19A68C4E
S3151C002080B38427419DB3CA8665BF93770D40814DA6
S3151C002090130E010F3ECC468529468146E68513095B
S3151C0020A0FEFF3AC846C472CAEF70C063524EE2477E
S3151C0020B013050503A30FAEFE850D4247A248B1C307
S3151C0020C0F24783C60700639EB6039307F00F638A25
S3151C0020D0FD0263950C00A54763F517038257A255AD
S3151C0020E03AC83309F9403E864A8546C4EF40F06C2F
S3151C0020F0F247814D424783C61700A24899C28507FD
S3151C0021003ECE4685E685294681463AC8EF70A0270D
S3151C002110AE8CC98DAA884247B5D14A8EADBF13096C
S3151C002120010F925793F6F8007D19BE9683C60600DA
S3151C00213093D848002300D9009396CC01B3E8160126
S3151C00214093DC4C00B3E69801E9FE0DBF1309010FA1
S3151C00215095F6058A05D693060003A307D10E91BEF4
S3151C002160630206102306C108A30D01024A8CEDB4B6
S3151C002170C10523221701AEC4B2C26351C30290002B
S3151C002180A2854E851AC836CA42C646C4EFF0EFF67B
S3151C0021904243D2463248A24849ED5A85C1162A877F
S3151C0021A069B1410623220701B2C4B6C263DDD80059
S3151C0021B09000A2854E8542C646C4EFF00FF4324805
S3151C0021C0A24825E9DA85C11D2E8721B341062322A3
S3151C0021D0B701B2C4B6C2635BD8009000A2854E8517
S3151C0021E042C6EFF08FF1324829E5DA85C11C2E87ED
S3151C0021F01DB3E247B384FA40E35390D8B7F7001CEB
S3151C002200C14C1389C7139D4D964723202701A6460B
S3151C002210850763C89C0244C3B694A6C4BEC21D47A8
S3151C002220E35FF7D49000A2854E85EFF00FEDE3082F
S3151C00223005D48357C40093F70704638907FE6FF020
S3151C0022401F83C10623229701B6C4BEC2210763D9C8
S3151C002250FD009000A2854E85EFF02FEA79F95A878A
S3151C002260C1145DB7A647F1D79000A2854E85EFF045
S3151C002270CFE8C1B7B717011CB2862E86AA8503A55F
S3151C002280079A6FF08FF183D7C500130101B8232C71
S3151C0022908146F59B231AF100FC512E84232A914674
S3151C0022A0BED683D7E50023282147232E1146231BA0
S3151C0022B0F100DC4D2A8902D03ED2DC512C003ED6E0
S3151C0022C09C183EC43ECC930700403EC83ECEEFF061
S3151C0022D0CFECAA84634805002C004A85EF10902990
S3151C0022E011C1FD548357410193F7070499C78357BE
S3151C0022F0C40093E707042316F4008320C147032474
S3151C0023008147268503290147832441471301014838
S3151C00231082800571232E111C232A911C2328211D22
S3151C0023202326311D2322511D2E89B284B68A232CC5
S3151C002330811C2324411D2320611D232E711B232C4C
S3151C002340811B232A911B2328A11B2326B11BAA8987
S3151C002350EF3090210841AAC4EFF00FD92ADC82D1B4
S3151C00236082D382D582D76388090083A7890381E734
S3151C0023704E85EF1030328317C9009395270163CD24
S3151C0023800500896603274906D58F2316F900F977B8
S3151C002390FD17F98F2322F9068357C900A18BB5C3F4
S3151C0023A083270901B9CF8357C9002947E98B639253
S3151C0023B0E7068317E90063CE0704D6862686CA85F8
S3151C0023C04E85EF10205E2ADE8320C11D0324811D4D
S3151C0023D072558324411D0329011D8329C11C032A0F
S3151C0023E0811C832A411C032B011C832BC11B032C20
S3151C0023F0811B832C411B032D011B832DC11A3D619F
S3151C0024008280CA854E85EF10806251DDFD552EDE19
S3151C00241065BF9308C10FC6CB82CF82CD014A82CC41
S3151C00242082CA02D482C282C802DE268413075002E4
S3151C0024308347040099C36393E708330B9440630CEA
S3151C0024400B02FE4723A0980023A26801DA97BECF91
S3151C002450EE471D47A1088507BECD635BF700D00973
S3151C002460CA854E85EFF06FC9631B05389308C10FEB
S3151C00247072565A9632DE8347040099E36F10005059
S3151C002480050422D8A30B010A7D5B82C00144294C9A
S3151C002490930BA0021306A0052547C25603CD0600C2
S3151C0024A0850636D893070DFEE369F652B7F5001C70
S3151C0024B08A0793854518AE979C43828705048DBF72
S3151C0024C0B7F7001C9387C715BECC93770402E38A23
S3151C0024D0073A9D0A93FA8AFF83AC0A0003AC4A00AA
S3151C0024E093878A003ED69377140089CFB3E78C0175
S3151C0024F091CB93070003230CF10AEA87A30CF10A7C
S3151C002500136424001374F4BF89476F0090094E8529
S3151C00251046C2EF3070054841AAC8EFF0EFBCAAC20C
S3151C0025204E85EF3070040845164692482AD43DD293
S3151C00253035D183470500B9DF13640440A1BF834727
S3151C002540710BA9FB93070002A30BF10AA1B7136435
S3151C002550140089B783A60A00910AB6C0E3DC06F20A
S3151C002560B306D040B6C0136444002DB79307B0021F
S3151C002570E1BFC25503CD05009387150063197D0382
S3151C00258003AB0A0013874A0063530B007D5BBA8AB0
S3151C0025903ED809B733038B03850703CDF7FF330BEF
S3151C0025A0D30093060DFDE377D7FE3ED8E5BD014B60
S3151C0025B0CDBF13640408F9BDC25782C08645130DEE
S3151C0025C00DFD8507B3868503369DEAC003CDF7FF4F
S3151C0025D093060DFDE374D7FEC9BF136484005DBD6D
S3151C0025E0425693078006034706006317F700050645
S3151C0025F032D81364042079BD1364040461BDC25629
S3151C0026009307C00603C706006317F700850636D86E
S3151C0026101364040241B513640401ADBD83A70A000B
S3151C00262013874A003AD6230EF112A30B010A02D2D3
S3151C002630054B814A014C814B814C641A6F009002F8
S3151C0026401364040193770402A9CB9D0A93FA8AFFAB
S3151C00265083AC0A0003AC4A0093878A003ED6635EAD
S3151C0026600C00B30C9041B3379001330C8041330CF2
S3151C002670FC409307D002A30BF10AFD57E31AFB2279
S3151C002680E31B0C28A547E3E89729938C0C03A30F9F
S3151C00269091199304F1196F00B02693854A002ED622
S3151C0026A09377040191C783AC0A0013DCFC4145BF38
S3151C0026B09377040483AC0A0089C7C20C93DC0C41D3
S3151C0026C0EDB793770420F5D3E20C93DC8C41F1BF74
S3151C0026D093778400ADCF83A70A0013864A0032D6AF
S3151C0026E0D44390439847DC47B2D1B6D3BAD5BED7AC
S3151C0026F0881146C2EF3000632ADF8947924863156A
S3151C002700F5088E570C0908113ED19E5702C902CBFB
S3151C0027103ED3AE5702CD02CF3ED5BE573ED7EF7045
S3151C002720F0669248635605009307D002A30BF10A84
S3151C0027309307700463C5A705B7F4001C938404347F
S3151C0027401374F4F702D20D4B814A6F00101C9D0ABC
S3151C00275093FA8AFF83A50A0003A64A0093868A0079
S3151C002760081146C236D6EF9070398A579248BED1A8
S3151C0027709A57BED3AA57BED5BA57BED795BFB7F47C
S3151C002780001C938444346DBF85476310F502930780
S3151C002790700463C7A701B7F4001C938484344DB737
S3151C0027A0B7F4001C9384C43461BF937BFDFD93076F
S3151C0027B01004639DFB0493070003230CF10A130703
S3151C0027C01006930780056314ED0093078007A30C7E
S3151C0027D0F10A930730061364240063D96735930501
S3151C0027E01B004E8546C2EFE0EFF7AA84924863129F
S3151C0027F005348357C90093E707042316F90083574A
S3151C002800C90093F70704E38107BC09B1FD576304AC
S3151C002810FB329307700402D26394FB0063000B32F5
S3151C0028203E5A136704103ADA82C60E5E9E5DAE5C93
S3151C00283063590A00B707008033CA47019307D002C1
S3151C002840BEC6930710046398FB32081146C272D1A8
S3151C0028506ED366D552D7EF9050417019EF40804623
S3151C0028602E86AA850811EF9070298A55B7F7001C89
S3151C002870938707312EC19A559043D4432EC3AA552C
S3151C0028809847DC472EC5BA55B2D808092EC79018EA
S3151C0028900C01B6DABADCBEDEEF707060CA435A4869
S3151C0028A0EA4DFA4C0C0908111ED142D31ED042CA5D
S3151C0028B06ED566D702C902CB02CD02CFEF7090311E
S3151C0028C082535248924819E185473EDF930710060A
S3151C0028D06319FD2637FA001C130A0A1737F7001C62
S3151C0028E01307073214435C43130EFBFFB6D0144781
S3151C0028F05847268CBED2B6D4BAD606579657A65675
S3151C0029003AC136570C091001081146C272C41EC9B9
S3151C00291042CB3EC33AC76ECD66CF36C5EF70305834
S3151C0029200A569A56081132D036CAEF90C07EAA852E
S3151C002930AA8A0811AA5DBA5CEF90500D0A57025676
S3151C002940D246BAD81A5732C10C01BADA2A5790188D
S3151C0029500809BADC3A576EC566C7BADE36C3EF80BD
S3151C002960701133075A0103470700050C6A4FFA4ECC
S3151C002970CA42DA4FA30FECFE224E7D57FA8DF2CED9
S3151C002980F68C9248630FEE027D1E0C09081116D1B7
S3151C0029907ED37AD576D716CE16D07ECA72C476C6A4
S3151C0029A07AC87ECC02C902CB02CD02CFEF70902230
S3151C0029B0F242825352489248224EB24E424FE24F46
S3151C0029C00DFD37F7001C1307073310435443832DA3
S3151C0029D08700832CC7000C09081116D17ED37AD523
S3151C0029E076D732C936CB16CE32D036CA46C276C652
S3151C0029F07AC87ECC6ECD66CFEF703028F242025676
S3151C002A00D2469248B24E424FE24F6345A0020C0991
S3151C002A10081116D17ED37AD576D732C936CB6ECD70
S3151C002A2066CFEF70301B92486311051493FA1A0097
S3151C002A30638D0A120346FA00E2C793050003BE46DD
S3151C002A401387F6FFBAC703C7F6FF6301C710130641
S3151C002A5090036310C7100347AA00A38FE6FE628A81
S3151C002A6013077004330A9A40FA5C639EEB1C755775
S3151C002A7063C4EC00635D9B23791D9386FCFF36DFE4
S3151C002A801376FDFD130510041377FD0F81456316A0
S3151C002A90A6003D071377F70F85452302E10C930724
S3151C002AA0B00263D706008546B38696419307D002CB
S3151C002AB0A302F10CA54763D3D71C1307310D3A8526
S3151C002AC0A9452548B3E7B6021306F7FFB3C6B602F7
S3151C002AD093870703A30FF7FE6349D818938706034A
S3151C002AE0A30FF6FE79171306610C6362A718DC01A7
S3151C002AF0B307F640BECA338B4701854763C54701FA
S3151C002B009377140099C3E2552E9B1374F4BF136478
S3151C002B10041022DA014C814B814C364709C7130736
S3151C002B20D002A30BE10A5254814A2DAE02D2641A7A
S3151C002B30C5B92AD2F5B102D2194BDDB15AD2054B11
S3151C002B40C5B137FA001C130ACA1549BBA38FB6FEBA
S3151C002B50FDB505071377F70F09B7050AA30FEAFE9C
S3151C002B60B3074C41E3DB07FEE5BDF647628A130754
S3151C002B7000033E9CF5B793076004638BFB00930729
S3151C002B805004930A1B006383FB00DA8A094619A0CA
S3151C002B90DA8A0D469C011308C10C7819D6860C11CD
S3151C002BA04E8572D146C272C46ED366D552D7EF20FB
S3151C002BB0300693077004AA849248224E6395FB0044
S3151C002BC093771400B5C793076004338C5401639F35
S3151C002BD0FB0203C70400930700036317F7020C09E3
S3151C002BE0081172D146C272C46ED366D552D702C9B9
S3151C002BF002CB02CD02CFEF70E07D9248224E09C572
S3151C002C008547B38A574156DFFA573E9C0C09081173
S3151C002C1046C272D16ED366D552D702C902CB02CD3B
S3151C002C2002CFEF70207B92481307000309E9E2C725
S3151C002C303E4A3DB593861700B6C72380E700BE47BC
S3151C002C40E3EA87FFF5B713076004E398EBE26357E3
S3151C002C50900563150B001377140041CF625633871A
S3151C002C60CC003A9B130D600695A83287A1BD0507BB
S3151C002C708347F7FF0506A30FF6FE85BD1307610CF8
S3151C002C8099E5930700032303F10C1307710C938733
S3151C002C900603130617002300F70091BD63150B00EE
S3151C002CA01377140029CBE256138716005DBF63CC3D
S3151C002CB04C0113771400668B01C76257338BEC00EB
S3151C002CC0130D700621A8E257130D7006330BFA007C
S3151C002CD06346900133039B41130B1300937B044003
S3151C002CE0014CE38C0BE2814BE35990E39306F00F06
S3151C002CF015A0668B85BF130D6006054BC5B76350C3
S3151C002D009703A255B38CEC4003C7150005C3850574
S3151C002D10850B2ED4225603470600E312D7FE964691
S3151C002D2033878B013307D7023A9BC5BB050CDDB72E
S3151C002D3083A70A00910A56D61377040211CBF255C3
S3151C002D4013D7F5418CC3D8C3B25AC2546FF0EFEDFA
S3151C002D501377040101C7725690C3FDB71377040499
S3151C002D6009C772572390E700C5B71374042009C41A
S3151C002D7072572380E700C9BFF25694C3F1B7136498
S3151C002D80040193770402A1C39D0A93FA8AFF83ACBC
S3151C002D900A0003AC4A0013878A003AD61374F4BFA0
S3151C002DA08147A30B010A7D576307EB302287B3E6E5
S3151C002DB08C011374F4F76390063063060B400547C9
S3151C002DC0639EE72ED9B093874A003ED693770401BB
S3151C002DD081C783AC0A0031A09377040489C783DCBE
S3151C002DE00A00014C65BF93770420E5D783CC0A0003
S3151C002DF0CDBFE17793C70783231CF10AB7F7001CE5
S3151C002E009387071793854A00BECC2ED683AC0A003F
S3151C002E10014C136424008947130D800759B7138688
S3151C002E204A0032D6A30B010AFD5783A40A0063008D
S3151C002E30FB025A868145268546C2EF3020152AD2CA
S3151C002E409248E3030590330B954002D2F5B82685CC
S3151C002E5046C2EFE07FA992482A8B02D2814A014CD6
S3151C002E60814B814C56DA63D36A015ADA0347710BDC
S3151C002E7001C7525705073ADA937D240063850D0076
S3151C002E80D25789073EDA93764408B6C6A1EA864726
S3151C002E90D2563387D7406353E00437FE001CC14E1D
S3151C002EA0130E0E2F1D4FEE4623A0C8017E46850627
S3151C002EB09385880063CDEE3223A2E8003297BACF01
S3151C002EC0B6CD1D47AE88635BD700D009CA854E8533
S3151C002ED0EFE0BFA2E31305269308C10F0347710B4E
S3151C002EE01DCB1307710B23A0E800054723A2E8009E
S3151C002EF07E479D46A1080507BACF6E470507BACD82
S3151C002F0063DBE600D009CA854E85EFE01F9FE316FA
S3151C002F1005229308C10F638B0D02381923A0E80004
S3151C002F20094723A2E8007E479D46A1080907BACF98
S3151C002F306E470507BACD63DBE600D009CA854E8508
S3151C002F40EFE0BF9BE31B051E9308C10FB647130793
S3151C002F5000086399E7048645D256B38DD540635362
S3151C002F60B005C1471D4E6E47FE46138688000507F1
S3151C002F7063C9B72BB7F7001C23A2B8019387073088
S3151C002F80B69D23A0F800EECFBACD9D46B28863DB72
S3151C002F90E600D009CA854E85EFE03F96E31F05186B
S3151C002FA09308C10FB38A6A4163535005C14D1D482E
S3151C002FB06E47FE4613868800050763C05D2BB7F770
S3151C002FC0001C23A2580193870730B69A23A0F80049
S3151C002FD0D6CFBACD9D46B28863DBE600D009CA853A
S3151C002FE04E85EFE09F91E31A05149308C10F1377E2
S3151C002FF00410FE4D631D07283303BB0123A0980054
S3151C00300023A268019ACFEE471D47A1088507BECDAE
S3151C003010635DF734D009CA854E85EFE01F8EE31E2B
S3151C00302005109308C10F91A613640401937704023B
S3151C00303089CF9D0A93FA8AFF83AC0A0003AC4A0027
S3151C00304093868A0036D68547A9BB13874A003AD68B
S3151C0030509377040181C783AC0A0031A093770404DB
S3151C00306089C783DC0A00014CF9BF93770420E5D796
S3151C00307083CC0A00CDBFB7F7001C938707176FF0E8
S3151C003080AFC493854A002ED69377040181C783ACBF
S3151C0030900A0031A09377040491C783DC0A00014C13
S3151C0030A06FF06FC493770420FDD383CC0A00C5BF91
S3151C0030B022878547EDB905476384E7DC0947638E9C
S3151C0030C0E70C1C139316DC0113F77C0093DC3C0005
S3151C0030D013070703B3EC9601135C3C00A38FE7FEB2
S3151C0030E0B3E68C019384F7FF8DE69376140089CAA8
S3151C0030F0930600036306D700A38FD4FE9384E7FFD1
S3151C0031001413DA8A02D2338B9640014C814B814CC4
S3151C00311091BBA68745BF014A930D011A937A0440B9
S3151C003120A54B294681466685E28546C2EF60805BD3
S3151C00313013050503A38FADFE9384FDFF050A924874
S3151C003140638F0A02225683470600631AFA02930605
S3151C003150F00F6306DA0263140C0063F29B03164736
S3151C003160C64546C2998C3A862685EF301065A2550F
S3151C003170014A924883C7150099C385052ED46685D6
S3151C003180E2852946814646C2EF60E01F2E8CC98D1A
S3151C003190AA8C9248B5D5A68D69B70413664693F7D3
S3151C0031A0FC00FD14B29783C7070093DC4C002380F8
S3151C0031B0F4009317CC01B3EC9701135C4C00B3E7F6
S3151C0031C08C01E9FF35BF041385FF058B15DB9307BF
S3151C0031D00003A30FF1186FF0CFCB63010D7AEA87BA
S3151C0031E0230EF112A30B010A56D66FF04FC44106EB
S3151C0031F023A2D801B2CFB6CD6352DF02D009CA854D
S3151C0032004E853AD072C476C67AC8EFE00FEF0257E5
S3151C003210224EB24E424F63120572EC194117AE880C
S3151C00322059B1B7F5001C93850530C10623A0B8001B
S3151C00323023A2F800B6CFBACD635EEE00D009CA85CC
S3151C0032404E853ED072C4EFE04FEB8257224E63167A
S3151C003250056EF019C11DB28839B3B7F5001C9385EC
S3151C0032600530C10623A0B80023A2B801B6CFBACD3B
S3151C003270635CE800D009CA854E8542CAEFE0EFE7D9
S3151C0032805248631C056AF019C11AB28815B3130794
S3151C00329050066354A7510E570C0908113AD11E57F4
S3151C0032A046C202C93AD32E5702CB02CD3AD53E5757
S3151C0032B002CF3AD7EF7000129248631B0510B7E78E
S3151C0032C0001C9387475223A0F800854723A2F800C9
S3151C0032D0EE47850DEECF8507BECD1D47A108635B66
S3151C0032E0F700D009CA854E85EFE02FE16317056408
S3151C0032F09308C10FFA5763C5470193771400B5C7E6
S3151C0033006256FE47A64523A2C800B297BECFEE471B
S3151C00331023A0B8001D478507BECDA108635BF70037
S3151C003320D009CA854E85EFE04FDD6318056093080A
S3151C003330C10F9304FAFF635A9002C14A9D4BEE4794
S3151C0033407E4793868800850763CC9A0437F6001C53
S3151C0033501306063023A2980023A0C800BA94A6CF51
S3151C003360BECD1D47B688E347F7CA118863150458B6
S3151C003370064D52576353ED003A8DF257EA973EDEDF
S3151C003380FE4781CBD009CA854E85EFE00FD7631661
S3151C003390055A125782CD631E075C9308C10F6DB286
S3151C0033A0B7F5001C93850530410723A0B80023A25E
S3151C0033B05801BACFBECD63DAFB00D009CA854E854B
S3151C0033C0EFE0AFD3631B0556F419C114B68885BF4D
S3151C0033D07A576341E010B7E7001C9387475223A036
S3151C0033E0F800854723A2F800EE47850DEECF85072A
S3151C0033F0BECD1D47A108635BF700D009CA854E8563
S3151C003400EFE0AFCF631B05529308C10FFA5791E744
S3151C00341063150A0093771400A9DB6257FE47A6467C
S3151C00342023A2E800BA97BECFEE4723A0D8001D47BB
S3151C0034308507BECDA108635BF700D009CA854E85FA
S3151C003440EFE0AFCB631B054E9308C10FFA5A63D34B
S3151C0034500A04B30A50414687C14B1D4CEE47FE4633
S3151C003460A108850763C05B0537F6001C232257019C
S3151C00347013060630B69A10C3D6CFBECD1D47635B66
S3151C003480F700D009CA854E85EFE02FC76317054A9A
S3151C0034909308C10FFE4723A0980023A24801D29788
S3151C0034A0BECF95B6B7F5001C93850530C1060CC377
S3151C0034B023227701B6CFBECD635BFC00D009CA853B
S3151C0034C04E85EFE08FC3631A05469308C10FC11AD8
S3151C0034D0468769B7E68A63539A01D28A63585003B2
S3151C0034E06E47D69D23A09800050723A25801EECF50
S3151C0034F0BACD9D46A10863DBE600D009CA854E8578
S3151C003500EFE0AFBF631B05429308C10F63D30A00EC
S3151C003510814AB38A5C4163535005414D9D4D6E47AC
S3151C003520FE4613868800050763475D13B7F5001C26
S3151C00353023A2580193850530B69A23A0B800D6CF8E
S3151C003540BACD9D46B28863DBE600D009CA854E8596
S3151C003550EFE0AFBA6313053E9308C10F937704409F
S3151C003560B38A940189CF1D4DB38D4401639D0B1005
S3151C003570631D0C10B387440163F35701BE8AFA57C7
S3151C00358063C547019377140095CB6257FE47A64641
S3151C00359023A2E800BA97BECFEE4723A0D8001D474A
S3151C0035A08507BECDA108635BF700D009CA854E8589
S3151C0035B0EFE0AFB4631305389308C10FD294B387F9
S3151C0035C05441FA54B3049A4063D39700BE8463599A
S3151C0035D09002FE4723A0580123A29800A697BECFAF
S3151C0035E0EE471D47A1088507BECD635BF700D009D2
S3151C0035F0CA854E85EFE06FB0631105349308C10F81
S3151C003600A68763D304008147FA54B3049A409D8C61
S3151C003610E35D90D4C14A9D4BEE477E479386880056
S3151C0036208507E3D59AD2B7F5001C9385053041076B
S3151C00363023A0B80023A25801BACFBECD63DAFB0083
S3151C003640D009CA854E85EFE04FAB6318052EF419D9
S3151C003650C114B688D1B7B7F7001C93870730C106CB
S3151C00366023A0F80023A2A801B6CFBACD63DAED00D9
S3151C003670D009CA854E85EFE04FA86310052CF019BA
S3151C003680C11AB28869BD630C0C087D1C1647FE471F
S3151C003690C64623A2E800BA97BECFEE4723A0D800A1
S3151C0036A0A1088507BECD635BFD00D009CA854E8582
S3151C0036B0EFE0AFA4631305289308C10FA257338705
S3151C0036C05D4103CB0700635367013A8B6358600364
S3151C0036D07E4723A0580123A268015A97BACF6E478A
S3151C0036E0A1080507BACD635BED00D009CA854E85D6
S3151C0036F0EFE0AFA0631305249308C10F5A876353E9
S3151C0037000B000147A255414883C70500338BE74090
S3151C00371063456005225683470600BE9A81BD225624
S3151C003720FD1B7D1632D49DB7B7F7001C9387073057
S3151C003730C10623A0F80023A20801B6CFBACD635C4C
S3151C003740ED00D009CA854E8542CAEFE00F9B524850
S3151C0037506315051EF019411BB2886E47FE4613867B
S3151C00376088000507E34268FDB7F5001C9385053004
S3151C003770B307DB0023A0B80023A26801BECFBACDD5
S3151C003780B288E359EDF8D009CA854E85EFE0EF966D
S3151C0037906315051A9308C10FB5BFEE47054723A04D
S3151C0037A09800850D8507938B8800634647019376A1
S3151C0037B01400638A0612054723A2E800EECFBECD8D
S3151C0037C01D47635BF700D009CA854E85EFE0EF9273
S3151C0037D063150516930BC10F6257FE47A64623A217
S3151C0037E0EB00BA97BECFEE4723A0DB001D4785072B
S3151C0037F0BECDA10B635BF700D009CA854E85EFE0F1
S3151C003800CF8F631C0512930BC10F8E570C09081121
S3151C0038103ED19E57930AFAFF02C93ED3AE5702CB3E
S3151C00382002CD3ED5BE5702CF3ED7EF60B03A21CD72
S3151C003830FE476E478504FD17D297050723A09B00FC
S3151C00384023A25B01BECFBACD9D47A10B63DAE7006D
S3151C003850D009CA854E85EFE04F8A65E1930BC10FEF
S3151C003860DC01D64623A0FB00FE4723A2DB001D4736
S3151C003870B697BECFEE4793888B008507BECDE35621
S3151C003880F7AE6FF02FF9E35D50FDC1441D4C6E473A
S3151C003890FE4793868B00050763C0540337F6001C4E
S3151C0038A0D6971306063023A0CB0023A25B01BECFFE
S3151C0038B0BACD9D47B68B59BFB7F5001C938505300D
S3151C0038C0C10723A0BB0023A29B00BECFBACD635960
S3151C0038D0EC00D009CA854E85EFE02F8239EDF4192C
S3151C0038E0C11AB68B6DB723A2E800EECFBECD1D471D
S3151C0038F0E358F7F6B1BF8645D2563384D540E35913
S3151C00390080A6B7F4001CC14A9384042F9D4BEE4736
S3151C00391023A098007E47850763CB8A0223A28800D2
S3151C0039203A94A2CFBECD1D47E354F7A4D009CA854D
S3151C0039304E85EFD09FFCE30D05A2925799E36FE0ED
S3151C0039401FECBE854E85EF0050036FE05FEB410711
S3151C00395023A25801BACFBECDA10863DAFB00D00959
S3151C003960CA854E85EFD07FF969F99308C10F4114BA
S3151C00397079BF92554E85EF00500005B4FE4799E37A
S3151C0039806FE0FFE7D009CA854E85EFD01FF76FE0C1
S3151C0039901FE7B717011CB2862E86AA8503A5079AB0
S3151C0039A06FE03F9783D7C500130101B8232C8146CE
S3151C0039B0F59B231AF100FC512E84232A9146BED670
S3151C0039C083D7E50023282147232E1146231BF1000C
S3151C0039D0DC4D2A8902D03ED2DC512C003ED69C18E6
S3151C0039E03EC43ECC930700403EC83ECEEFE07F92DD
S3151C0039F0AA84634705002C004A85AD2E11C1FD54CF
S3151C003A008357410193F7070499C78357C40093E76B
S3151C003A1007042316F4008320C14703248147268507
S3151C003A200329014783244147130101488280411120
S3151C003A30B717011C26C2AA8403A5079A22C406C668
S3151C003A402E8401C51C5D91E3B1210317C400931795
S3151C003A500701C18393F68700A1EE93F6070189EE51
S3151C003A60A5479CC0136707042316E4007D55B24086
S3151C003A702244924441018280918B8DC70C5889C97E
S3151C003A80930704046384F5002685C52D23280402A8
S3151C003A908357C4002322040093F7B7FD2316F400B2
S3151C003AA01C481CC08357C40093E787002316F400E8
S3151C003AB01C4889EF8357C4001307002093F7072877
S3151C003AC06386E700A2852685EF20003D8357C40048
S3151C003AD013F7170005C75C4823240400B307F040FE
S3151C003AE01CCC1C480145C1F78317C40013F70708F3
S3151C003AF03DDF93E707042316F4008DBF898B01472E
S3151C003B0091E3584818C4F1BFB717011C03A7C799FE
S3151C003B102A838327871489E79307C7142324F7145A
S3151C003B20D8437D487D556342E804931827006309F2
S3151C003B300302338517012324C50803A887180546E5
S3151C003B403316E6003368C80023A407192324D510AE
S3151C003B5089466317D30083A6C718558E23A6C71894
S3151C003B600507D8C3C6978CC7014582807971B717DC
S3151C003B70011C4ECE83A9C79952CC56CA5AC806D622
S3151C003B8022D426D24AD05EC6AA8A2E8A054B83A484
S3151C003B90891481C8C0401309F4FF0A042694635D86
S3151C003BA00900B250225492540259F249624AD24A2E
S3151C003BB0424BB24B4561828063090A00832744103D
S3151C003BC0638547017D197114D9BFD8405C407D17A8
S3151C003BD06316270323A22401F5D783A6841833175B
S3151C003BE02B0183AB4400F98E89EE8297D84083A7BC
S3151C003BF08914E31E77F9E387F4FC51BF23220400E2
S3151C003C00E1BF83A6C41883254408758F01E7568532
S3151C003C108297E9BF2E858297D1BF8397C500011174
S3151C003C2022CC13970701418326CA06CE4AC84EC624
S3151C003C3093768700AA842E84E5EE05671307078012
S3151C003C40D98FD8412396F500634DE000D85D634AB1
S3151C003C50E0000145F2406244D2444249B249056142
S3151C003C60828018547DD703A904009396370123A09C
S3151C003C7004004C4C63D5060830488357C400918B0E
S3151C003C8099C75C401D8E1C5899C35C5C1D8E1C54C8
S3151C003C904C4C814626858297FD578356C400631D6E
S3151C003CA0F5009C407547636FF706370740200507EC
S3151C003CB03357F700058B3DC7FD779387F77F184869
S3151C003CC0F58FC207C18718C02316F40023220400EF
S3151C003CD01397370163580700FD576314F5009C4082
S3151C003CE091E328C80C5823A02401A5D593070404E6
S3151C003CF06384F500268551212328040299BF0146B9
S3151C003D00854626850297FD572A86E318F5F69C40BC
S3151C003D10ADD775476385E70059476394E70423A02D
S3151C003D20240105BF93E706042316F4007D551DB731
S3151C003D3083A90501E38F09F003A905000D8B23A0B8
S3151C003D40350133093941814711E3DC491CC4E3526F
S3151C003D5020F15C504C4CCA864E862685829763475A
S3151C003D60A0008357C40093E707047DBFAA993309B3
S3151C003D70A940F1BF011122CC06CE2A8411C51C5DB7
S3151C003D8081E72EC6012AB2458397C50091C72285B5
S3151C003D906244F240056151B5F24062440145056139
S3151C003DA08280AA8519E9B717011C03A5C799B745CF
S3151C003DB0001C938545D76F00D00BB717011C03A5B4
S3151C003DC0079A4DBF01458280B795001C9385458691
S3151C003DD06F00300A411122C406C62A842316B50078
S3151C003DE02317C500232005002322050023240500D4
S3151C003DF02322050623280500232A0500232C05005B
S3151C003E00214681451305C505EFD08FECB777001CFD
S3151C003E10938727DC1CD0B777001C938787DF5CD081
S3151C003E20B777001C9387A7E41CD4B777001C93872D
S3151C003E3027E840CC5CD4B240224441018280014533
S3151C003E408280411126C2130680069384F5FFB38433
S3151C003E50C4024AC02E8922C406C693854407EFD0E5
S3151C003E606F902A8401CD23200500232225013105CC
S3151C003E7008C4138684068145EFD08FE52285B2409F
S3151C003E8022449244024941018280B717011C03A5B2
S3151C003E90C7991DBF1C5DA9E74111B747001C06C683
S3151C003EA022C4938787DC5CDD8D472322F52E93077E
S3151C003EB0C52E2A842324F52E2320052E484101468F
S3151C003EC09145093F08440546A545293748440946F6
S3151C003ED0C945093785471CDCB24022444101828012
S3151C003EE082804111B717011C26C283A4C7994AC0F8
S3151C003EF006C69C5C22C42A8999E32685613F938465
S3151C003F00042E8044DC40FD1763D607009C4089CBF9
S3151C003F108440C5BF0317C40005C713048406E5B750
S3151C003F2091454A85393F88C065F5B1472320F9007C
S3151C003F3001442285B24022449244024941018280B6
S3151C003F40C1778507232204062320040023220400AC
S3151C003F50232404005CC423280400232A0400232CE5
S3151C003F600400214681451305C405EFD06FD62328CE
S3151C003F700402232A0402232204042324040455BF16
S3151C003F808280828082808280B717011C03A5079AD3
S3151C003F90B745001C938545DCA5ADB717011C03A5C9
S3151C003FA0079AB745001C9385E5E39DA5797122D434
S3151C003FB026D252CC06D64AD04ECE56CA5AC82A8AC1
S3151C003FC0AE843284EF1070628547631CF5029387BA
S3151C003FD0F4FF1307E00F6366F702A6872306F100BA
S3151C003FE085490149FD5A294B631039052685B2506E
S3151C003FF0225492540259F249624AD24A424B4561B2
S3151C00400082809306C40526866C005285EF40606D3F
S3151C004010FD57AA89E317F5FC8357C40093E70704E9
S3151C0040202316F4007D55E1B77800B307270183C535
S3151C00403007001C44FD171CC463D70700184C63CC2F
S3151C004040E700638A65011C401387170018C023808C
S3151C004050B700050951BF22865285EF40005CE31A62
S3151C00406055FFC9B78317C60013972701634A070074
S3151C00407078528966D58F2316F6008967D98F7CD22C
S3151C00408035B70111B717011C22CC03A4079A26CAFF
S3151C00409006CEAA842E8619C41C5C89E722852EC6E8
S3151C0040A0D53B324622856244F240A685D244056140
S3151C0040B055BF79714AD03709011C22D426D24ECE5F
S3151C0040C02EC606D6AA8913098942EF90506183270A
S3151C0040D08900B245C44385671384F7FEF1980D8C9D
S3151C0040E0269431807D143204635DF4004E85EF9076
S3151C0040F0505F0145B250225492540259F24945610F
S3151C004100828081454E85EFD0CFE083278900A69714
S3151C004110E31EF5FCB30580404E85EFD08FDFFD57BF
S3151C004120631AF50281454E85EFD0AFDE0327890061
S3151C004130BD46B307E540E3DBF6FAB716011C83A6BA
S3151C004140469A93E717005CC3158DB716011C23A06E
S3151C004150A69C69BF83278900818C3717011C93E4B1
S3151C0041601400C4C38327079C4E85338487402320B1
S3151C004170879CEF9010570545B5BF6388051A4111FA
S3151C00418022C426C22A84AE8406C6EF90505503A5C7
S3151C004190C4FF3706011C938684FF9377E5FF13083B
S3151C0041A08642B385F600D84103288800130686424A
S3151C0041B0719B05896313B804BA9709E903A784FFA1
S3151C0041C0998E8C46BA97D846D8C50CC713E71700E4
S3151C0041D0D8C23717011C0327879A14C663E8E70061
S3151C0041E0B717011C83A5C7AE2285E135228522445B
S3151C0041F0B240924441016F90D04ED8C1014815E19E
S3151C00420003A584FFB708011C93880843898EAA97C7
S3151C0042108846630C150783A8C6002326150123A40C
S3151C004220A8003385E5004841058905E1BA979845FC
S3151C004230631F08043705011C130505436319A704EE
S3151C00424054CA14CAD8C698C6054813E71700D8C25C
S3151C0042503387F6001CC3E31B08F81307F01F636CB7
S3151C004260F7028D8393D5274005473317B7004C4279
S3151C00427085078E07B2974D8F58C29843138687FFC2
S3151C004280D0C698C694C354C795B7054859BFCC45E4
S3151C0042904CC798C55DBF93D597001147636BB70292
S3151C0042A013D7670013078703930517008E05B2956E
S3151C0042B0138585FF8C416314B5068547098733979B
S3151C0042C0E7005C425D8F58C2C8C68CC614C5D4C5EF
S3151C0042D031BF51476365B7001387B505F1B713079F
S3151C0042E040056367B70013D7C7001307E7066DBF02
S3151C0042F0130740156367B70013D7F7001307770733
S3151C00430065B7130540551307E007E36FB5F813D7D8
S3151C00431027011307C70749BF8C456306B500D8415B
S3151C004320719BE3EBE7FEC84545B782801C4681E7D7
S3151C00433081473E85828083D7C5005D71A2C4CAC0F1
S3151C00434056DA86C6A6C24EDE52DC5AD85ED662D471
S3151C00435066D26AD06ECEA18BB28A2E842A89D9CF18
S3151C0043609C49C9CF8357C40003AA0A0013F7270028
S3151C0043706318070E858B63810716814B0145014B1C
S3151C00438081496388092401ED4E86A9455A85EF109B
S3151C004390F03F938B190001C50505B30B65415E8C77
S3151C0043A063F379014E8C08401C48544863FAA722D3
S3151C0043B00444B69463D68423DA852686EF10B03E71
S3151C0043C01C40A2854A85A6971CC0EFF0BF9A631DA8
S3151C0043D0050EB38B9B40054563970B00A2854A854A
S3151C0043E0EFF05F9975E183A78A00269BB3899940F4
S3151C0043F0B384974023A49A00C9F491A0A2854A8548
S3151C004400EFF0EFE2FD5739DD25A883290A00832446
S3151C0044104A00210AFDD8A68663739B00DA865C5087
S3151C0044204C4C4E864A8582976350A00A83A78A0005
S3151C004430AA99898C3385A74023A4AA0061FD8147CC
S3151C004440B640264496440649F259625AD25A425BF1
S3151C004450B25B225C925C025DF24D3E85616182809C
S3151C004460370B008081498144134B0BC065B7032B66
S3151C0044700A0083244A00210AFDD80357C4001C44A1
S3151C0044800840937607206389060E63EAF408937640
S3151C0044900748D1C6832D44010C48B38DBC03B30910
S3151C0044A0B54093871900A697B3CDAD0363F3FD0002
S3151C0044B0BE8D137707404DC3EE854A85EFC09FAA74
S3151C0044C01DE5B1472320F9008357C40093E7070471
S3151C0044D02316F400FD57ADB7B70B008013CCEBFFCA
S3151C0044E0014B814493CBFBFF8D4C094D71B70C4896
S3151C0044F04E862AC6EFC0FFF10357C400B247137796
S3151C004500F7B7136707082316E4001CC8232AB4014F
S3151C004510CE97B38D3D411CC02324B401A687A68922
S3151C00452063F3F400A68708403E86DA853EC6EF1084
S3151C0045309027B24718441D8F18C41840BA971CC040
S3151C00454083A78A004E9BB3843441B389374123A485
S3151C0045503A01E39309F2E5B56E864A85EF20403CA5
S3151C004560AA8745F50C484A8509398357C40093F731
S3151C004570F7F72316F400B1B718486365A70054482B
S3151C00458063F8D402BE8963F3F400A6894E86DA85E5
S3151C004590EF1070211C441840B38737414E971CC43A
S3151C0045A018C0D9FFA2854A85EFF0CFFC51D929BF87
S3151C0045B0DE8763639C00A687B3C7D70258504C4C52
S3151C0045C05A864A85B386D7020297AA89E34AA0F679
S3151C0045D0E5BD032B0A0083294A000145210A55B370
S3151C0045E0634BDC005C504C4C5A864A858297AA84E5
S3151C0045F0E341A0DED1BD6286DA85EF10D01A1C44D9
S3151C004600E284B38787411CC41C40E2971CC0D1B30B
S3151C004610797122D44AD052CC56CA06D626D24ECE50
S3151C0046201304052E0149054AFD5A19E8B2502254B5
S3151C0046304A8592540259F249624AD24A456182809D
S3151C004640044483294400FD1963D409000040F1BFCA
S3151C00465083D7C400637CFA008397E4006388570100
S3151C0046602EC626858295B2453369A9009384840695
S3151C004670D9BF797122D44AD052CC56CA5AC85EC602
S3151C00468006D626D24ECE2A8AAE8A1304052E014998
S3151C004690054BFD5B09ECB25022544A8592540259D3
S3151C0046A0F249624AD24A424BB24B4561828004446B
S3151C0046B083294400FD1963D409000040E1BF83D758
S3151C0046C0C400637BFB008397E40063877701A685A0
S3151C0046D05285829A3369A90093848406E1BF9307A5
S3151C0046E045010905231F05FEE31DF5FE8280930780
S3151C0046F0450109050357E5FF8905239FE5FEE39A56
S3151C004700A7FE82809307A5010905231F05FEE31D4D
S3151C004710F5FE828013078501AE8709058356E5FFE2
S3151C0047208907239FD7FEE31AA7FE239C05008280D8
S3151C00473093074500910569058907890583D6E7FF17
S3151C00474003D7E5FF6396E600E318F5FE0145828074
S3151C00475005456363D7007D558280930645008147D6
S3151C0047606905617603D706009375170099C193E70F
S3151C004770170093F52700058391E986072390E60029
S3151C004780C2078906C183E31FD5FC8280518FF5B70A
S3151C00479093066501014783D72600139607014186B8
S3151C0047A063540600136717008607C2071376270093
S3151C0047B0C18311EA06072391F6004207F9164183C5
S3151C0047C0E31BD5FC828093E71700EDB793074500E2
S3151C0047D00147690583D60700890713D68600518FC2
S3151C0047E0239FE7FE1397860042074183E314F5FED9
S3151C0047F0828093076501014783D62700F917139614
S3151C0048008600518F2392E70013D78600E316F5FE28
S3151C00481082809307450013078501890783D6070005
S3151C004820239FD7FEE31BF7FE231C050082809307FC
S3151C00483085011307A50193064500F91703D6070042
S3151C00484079172310C700E39AF6FE2312050082800F
S3151C004850E1051307650181468357270003D605002A
S3151C0048607917F915B297B697BE862391D500C183E1
S3151C00487093F61700E312E5FE8280E1051307650136
S3151C004880814683D70500035627007917F915918FA2
S3151C004890958FBE862391D500C18393F61700E3122C
S3151C0048A0E5FE82800111416393888501232D010059
S3151C0048B0910574087D1303D70800F916F9180DE73E
S3151C0048C0239F06FEE39915FF914769474800B305E8
S3151C0048D0F50083D50500B306F60089072390B600BC
S3151C0048E0E396E7FE056182803307A70203D82600FC
S3151C0048F0B3776700C2973E882391060113D8070138
S3151C0049009357070103D70600BA97C2973E87C18300
S3151C0049102390E600239FF6FE75B78357250193C7A0
S3151C004920F7FF1397170109EB930725010905035791
S3151C004930E5FF09E7E39CA7FE0145828005458280C9
S3151C004940411122C406C62A84C93F01E90315240164
S3151C0049507D81B2402244410182800145DDBF83171F
S3151C0049602501411106C622C426C24AC063D80704C3
S3151C004970FD572390F50003572501A167FD177D8F71
S3151C0049802391E500130905016317F7042E84AA84F5
S3151C004990693705C993076400231204001385C4FFF5
S3151C0049A07919035729008907239FE7FEE31AA9FEF5
S3151C0049B0B240224492440249410182802390050060
S3151C0049C05DBF930744009305A4018907239F07FE37
S3151C0049D0E39DB7FEF1BF9387650023920500791509
S3151C0049E07919035729008907239FE7FEE31AA9FEB5
S3151C0049F0239C050075BF5D71A6C2CAC086C6A2C42B
S3151C004A002A89AE84193F41E92685013F2A8441E55E
S3151C004A102C004A85A9374C102685913703578100EF
S3151C004A2083574102638EE7028947E1462800330615
S3151C004A30F500035606000DE24C103386F5000356AE
S3151C004A40060019EA8907E393D7FE2285B640264459
S3151C004A509644064961618280054465DB7D54F5B741
S3151C004A60054691C37D568147E14534003387F600E0
S3151C004A704810835607003307F50003570700639653
S3151C004A80E6008907E393B7FEC9B73284E36FD7FA0A
S3151C004A903304C0405DBF79544DBF8357250193C76E
S3151C004AA0F7FF1397170109EB411106C6BD35B24036
S3151C004AB0133515004101828001458280930725012B
S3151C004AC00905231F05FEE31DF5FE83570500216717
S3151C004AD07D17D98F2310F5008280011126CA4EC678
S3151C004AE006CE22CC4AC852C456C2AA89AE8463D802
S3151C004AF0050A3309B0404A8A0144BD4A63CB4A03BE
S3151C004B0013594900C155B305B9021D4AB3849540D2
S3151C004B10268963472A0393D53400E157B385F502EA
S3151C004B20AE9495E4333580002A8413150401418123
S3151C004B30B1A883D789014E85411A5D8CCD397DBFBD
S3151C004B4083C789014E8561195D8C4931D9B783D7D5
S3151C004B5089014E85FD14858B5D8C0131D9B74E8537
S3151C004B604D394114E34D89FE93D54400C157B38595
S3151C004B70F5021D49AE9426846346890293D53400FA
S3151C004B80E157B385F502AE9495E00145F2406244C7
S3151C004B90D2444249B249224A924A056182802E84F5
S3151C004BA03D49C9B74E85B1316114F9B74E85CD362D
S3151C004BB0FD14D9BF83574500411126C206C622C41F
S3151C004BC04AC0AA84A1EF8317650001441309000A91
S3151C004BD063DE07002285B240224492440249410109
S3151C004BE08280268541043531E30624FF83D7640081
S3151C004BF0EDDB83D7640093F707F089CF1309000A0E
S3151C004C0083976400E3C807FC268505045136E359DF
S3151C004C1089FEC9B72685F13E2104E1BF93F707F04B
S3151C004C20014499C365366154130900F731A02685E2
S3151C004C307D142536E34024FB83D74400EDFB59BF86
S3151C004C40930705010905231F05FEE31DF5FEB7C7DE
S3151C004C50FF7F1CC182802A87835607002E858357B7
S3151C004C60270099C2E176D58F2319F5000356270034
S3151C004C70A166FD1693076700631AD600690783D6DB
S3151C004C80070085E28907E39CE7FE0DBD4105610728
S3151C004C90890783D6E7FF79152311D500E39AE7FE2A
S3151C004CA0828079BF797126D2AA84480022D406D67E
S3151C004CB02E84893C03D7E40093170701C18763C67A
S3151C004CC0070223120100A166FD16758F9387E40067
S3151C004CD06316D70426878356070081CE22858D3717
S3151C004CE0B2502254925445618280FD572312F10022
S3151C004CF0D9BF0907E391E7FE2285D53222857D3B84
S3151C004D008397E400E3DE07FC2285013971F983579A
S3151C004D1024016177B98F2319F400D9B72313E10055
S3151C004D205400F91703D6070089062392C600E39A96
S3151C004D30F4FE19E723140100A2854800293F4DB74C
S3151C004D408547FD5548002314F100413BF5B7011179
S3151C004D5022CC26CA4AC84EC652C456C236893E847E
S3151C004D6006CEAA84AE89328ABA8AA9359307000967
S3151C004D703309A94063D7A702A167F91763C1272185
S3151C004D8093872400E9048907239F07FEE39D97FE6A
S3151C004D90F2406244D2444249B249224A924A0561CF
S3151C004DA08280635B0900930700F76343F90ECA858B
S3151C004DB0268525336317050E63870A1858401C4041
S3151C004DC06307F7041305A401353A5C4013078003F7
S3151C004DD06389E7106349F70C61476389E712130778
S3151C004DE05003638AE710314718C4370701807D17C3
S3151C004DF058C80547231CE4002D4758C458448356FD
S3151C004E0084012107060722972315D7001CC0634E71
S3151C004E1020015840930700096309F70083D78401D2
S3151C004E202685858BB3E9F9000D3A144403564401D3
S3151C004E304C4013971600269783570700F18F1306CD
S3151C004E40F0086347B60085063A86B14563D2D50C91
S3151C004E50835644010356070093C6F6FFF18E2310B2
S3151C004E60D70003576401B376F700DDCE631DF70048
S3151C004E70639A090A5C44035784018607A69783D75D
S3151C004E800700F98FD5C3A6851305A401D13269A8DD
S3151C004E9093872400E9048907239F07FEE39D97FE59
S3151C004EA0C5BD854911BF130700046381E7021307BB
S3151C004EB01007E39AE7F2378700407D17A94658C8C2
S3151C004EC014C46177231CE40054C40DBF1D4718C4C9
S3151C004ED0370701807D1758C80547231CE40019476E
S3151C004EE029BF9946370780001307F70F58C814C403
S3151C004EF013070010C1BF370700041307F77F994635
S3151C004F0058C8056714C4130707806DBF9146D9BFDF
S3151C004F100355260019C193E71700231106008506C1
S3151C004F2009062DB7E3010AF6634920015840930789
S3151C004F3000096304F7002685A13883D7440081C77E
S3151C004F40268521380509A167239C0400F91763D01F
S3151C004F502703E17793C7F7FF2391F4009387440057
S3151C004F60E104239007008907E39DF4FE15B56355FC
S3151C004F7009002391040029BD2391240111BDE39F3F
S3151C004F800AE2239C0400F1B7011152C4035A2500FE
S3151C004F9022CC2E8406CE26CA4AC856C25AC032898C
S3151C004FA0130B46034EC6AA8A313183542400330A96
S3151C004FB0AA4022850131898C5A85EFF0AFF463D261
S3151C004FC0440322856244F240B249224A924A024B69
S3151C004FD0CA87A6864249D2440147014681450561D6
S3151C004FE0BDB3A2855685EFF0AFF481496346A00098
S3151C004FF0A2855685593085495A85EFF06FF9835736
S3151C005000C9042285FD14B3E9F90023163905EFF00E
S3151C0050102FF875B7757122C526C34AC1CEDE06C7E1
S3151C005020D2DCD6DADAD8DED6E2D4E6D2AA842E844C
S3151C0050303289B689DD3015C1CA852685EFF02FEB7E
S3151C005040BA402A449A440A49F659665AD65A465BC5
S3151C005050B65B265C965C4961828022857D3801C5DB
S3151C005060CA852285E1BF26850D3C15ED2285353482
S3151C00507001C9B7F5001C938505352685AD3A1DC9B2
S3151C0050802685213C01E52285093C1DC926854D380E
S3151C005090AA84228575306382A402E1772319F9005C
S3151C0050A04A85293C71BFB7F5001C938505352285B9
S3151C0050B099324DFD4A85693661B723190900CDB76A
S3151C0050C026856C00693822852C1051380354E10062
S3151C0050D08354A10209EC814759477000B306F600B8
S3151C0050E083D62600F9C23285F1343304A040835797
S3151C0050F0A102268C81EF59473010B306F60083D6E1
S3151C0051002600DDCA32857D34338CA4408357810248
S3151C005110938B490393848903239AF9028357A1022B
S3151C0051205E8A239BF9029387E90423900400890471
S3151C005130E39D97FE814A014BB15C7800B30757018A
S3151C00514003D5870109C92C10D000EFF0AFF5DE8519
S3151C005150C800EFF0EFEF83D7C9045E85F91A336BED
S3151C005160FB00EFF0CFECE39A9AFD3C1003570A00C4
S3151C005170090A8907239FE7FEE31A9AFEF1766294D1
S3151C0051808906CE8713070004A2960146DA852810E5
S3151C0051907D3E0357C100835781026313F702231414
S3151C0051A00102CA852810453C61BD8907E397E7F2D1
S3151C0051B04A85EFF0CFD269B58907E39FE7F2CDBFE9
S3151C0051C0FD572314F102F1BF757122C526C34AC1CE
S3151C0051D0D6DA06C7CEDED2DCDAD8DED6E2D4E6D202
S3151C0051E0EAD0AA842E843289B68AEFF00FF31DC149
S3151C0051F0CA852685EFF0AFCFBA402A449A440A499D
S3151C005200F659665AD65A465BB65B265C965C065DB4
S3151C005210496182802285EFF04FF001C5CA8522853F
S3151C005220D1BFB7F9001C938509352685EFF0AFFC75
S3151C0052306305051626859530AA892285B938639893
S3151C0052400916631B051626856C00EFF04FF12285A7
S3151C0052502C10EFF0CFF08354A1020354E10091EC23
S3151C005260814759473010B306F60083D6260063855E
S3151C005270061632858132B304A0408357E100A28B07
S3151C00528089EF59477000B306F60083D6260063895A
S3151C005290061432850532B30BA4408357810203578B
S3151C0052A0A10293894A03239AFA0293878A03239BB2
S3151C0052B0EA023E8A1387EA048907239F07FEE39DB9
S3151C0052C0E7FE2810EFF06FC9035C2101416B7D1BC3
S3151C0052D0330D6C03938CA9018357C1020354E1025D
S3151C0052E0C207A2975A846366FD0033D4870342041F
S3151C0052F041806C002285D000EFF0CFDA2C10C8005C
S3151C005300EFF00FC3635FA000CC006800EFF0EFD690
S3151C0053102C10C800EFF0CFC16340A00E7D144204D0
S3151C00532041802C10C800EFF04FD5281023108A009E
S3151C005330090AEFF00FCEE3119AFB814781455947C5
S3151C0053403010B306F60083D646008907D58DE3993F
S3151C005350E7FEB335B00093F5F50FB28703D7090006
S3151C00536089098907239FE7FEE31A3AFF9166B384EE
S3151C0053707441FD16D68713070004A696014628100D
S3151C005380F9320357C10083578102631FF7062314A2
S3151C0053900102CA852810C13085B593850935228539
S3151C0053A0EFF06FE5E31805E84A855938B1B56DFD90
S3151C0053B04A85EFF0CFB289B52685EFF06FD8AA845F
S3151C0053C02285EFF0EFD76386A402E1772319F90053
S3151C0053D04A85EFF0AFEE0DB58907E395E7E8C9BF3F
S3151C0053E08907E391E7EA0357C10083578102E31E4D
S3151C0053F0F7FC23190900E9BF79144204CC006800A4
S3151C0054004180EFF08FC731BFFD572314F10251B70E
S3151C00541003AE050003A3450083A88500CC45057192
S3151C005420232C811C2ED63E842C41FD572328F11497
S3151C005430930700092324411D2322511D232E711B72
S3151C005440232A911B232E111C232A911C2328211D40
S3151C0054502326311D2320611D232C811B2328A11BE0
S3151C0054602326B11B42CC72D01AD246D4232AF1145D
S3151C0054702A8AB28BB68ABA8C99C97C4105473317DE
S3151C005480F700DCC198C5EF00503C23200A04081025
S3151C0054908C0809388808EFF0AFCA630B05148547DA
S3151C0054A01CC08D476389FB145149638A0B00138901
S3151C0054B0FAFF9307A00263D427011309A00203264F
S3151C0054C04115880832CEEFF04FC52A8463070512B2
S3151C0054D0B7F5001C9385455A480A0964EF10100A53
S3151C0054E01304F470F246880823208116232AD1144B
S3151C0054F0EFF0AFDA9309411111E58808EFF0EFC11F
S3151C0055006303057889679387F77023A0FC00CE8711
S3151C005510130600029306D00203C707006309C77A65
S3151C0055206307D77A4E84850703C7F7FF93061400D3
S3151C005530A38FE6FE6310077A094785476387EB004E
S3151C0055408327011663D32701CA87930600030347E3
S3151C005550F4FF6316D7003307344163C0E7788D47E1
S3151C00556013879A006391FB02832701163E996357A2
S3151C0055700900230A011023A00C004E8483A70C00EB
S3151C005580BE9A13873A0023220A0491479386470141
S3151C00559083254A046378D7745285EF00B0242320F0
S3151C0055A0AA04CE85AA84EF103020624709C73304AB
S3151C0055B03441269400C38320C11D0324811D2685E6
S3151C0055C00329011D8324411D8329C11C032A811C17
S3151C0055D0832A411C032B011C832BC11B032C811BFF
S3151C0055E0832C411B032D011B832DC11A3D61828017
S3151C0055F0232004007DB556896DBD93070009EC1068
S3151C0056008808232AF114EFF08F8E8357E10702C80E
S3151C005610139707014187635A070021677D17F98F86
S3151C005620231FF106C167FD173EC837FB001C130577
S3151C0056300B352C015105EFF08F8B0357E107B7F49F
S3151C005640001C93090B35938444366313076AF810C0
S3151C0056508147A5460356070071E285070907E39BA8
S3151C005660D7FE8C012801EFF08FAF2C018801EFF0DB
S3151C0056706F8A8C01E810EFF08FAEEC108801EFF00A
S3151C0056806F89900AEC10280101328354C11981E8F4
S3151C00569093050B35E810EFF00FB6631D054A42461D
S3151C0056A09307D00219E293070002230AF1108D47D3
S3151C0056B0CA896398FB00B30989009307A00263C6D5
S3151C0056C03765A9476392F44C8D67938717E3A31A32
S3151C0056D0F110130C71116359300193070003A30BCE
S3151C0056E0F110FD19130C8111050463D9094AB7F58C
S3151C0056F0001C22869385855C6285EF102068DDB3CD
S3151C005700B7F5001C9385855BC1BB8317C10763C7AF
S3151C0057100700B7F5001C9385455C7DBBEC10268500
S3151C005720EFF06FAD1DDD635B05304C11E810EFE04B
S3151C0057301FFC91679387E7084147231BF10A014D1C
S3151C0057403ACAB7F7001C93878741940A3001338500
S3151C005750A7014C11953C6C182801EFE05FF9035C1E
S3151C005760E10421667D16F1763377CC0089063697DF
S3151C0057706340E0048801EFE09FF6420C135C0C4189
S3151C005780635E0C0A814770183307F6009001835636
S3151C00579007003307F60003570700638CE6282685A7
S3151C0057A0EFF0AF9731CD8C012685EFE05FF479A041
S3151C0057B093070009B38DE7408C016818EFE03FF3AF
S3151C0057C0635EB0079401EE873D466346F60293D7A7
S3151C0057D04D00415693961700B387C7029801BA9697
S3151C0057E003D70600EE978607CE9783D7C712F98F85
S3151C0057F02390F60059B723900600C1178906F1B706
S3151C0058008801EFF08F9101C58C012E8579BF268505
S3151C005810EFF0AFA8AA8D8801EFF02FA82A8C638A17
S3151C0058200D0E69C92685EFF0AF912A8C8801EFF021
S3151C0058302F916311AC0C8801EFF08FC081473001AA
S3151C0058403307F6009001835607003307F60003570B
S3151C0058500700639CE6008907C946E392D7FE4C11F4
S3151C0058602801EFE0DFE852473A94D247510D858371
S3151C0058703ECA93074006E316FDEC8357610B03579C
S3151C005880E107EC104811BA977177130727F7BA97F7
S3151C005890231BF10AEFE0BFE526852C01EFE03FE56F
S3151C0058A08144056D93898911930D401037F6001CB0
S3151C0058B0130686374C114E85338CC400EFF0AF931C
S3151C0058C0E341A0DA4C116285EFF0EF92634EA00023
S3151C0058D05011B285940A6285C5383001940AB28586
S3151C0058E06285EFF02FF36A94D104135D1D00E39FCC
S3151C0058F0B4FB85BB26858C01EFE07FDF8801EFF0CA
S3151C005900CF810DFD8357210D6177B98F2319F10CBA
S3151C00591035B7E31B05EEEC092685EFF04F84AC1971
S3151C0059208801EFF0CF830357C10D835DA10F835709
S3151C005930E10D1347F7FF42074183231EE10CB38792
S3151C005940B7416353F0064C0AA8193EC6EFE09FDC2C
S3151C005950AC19E809EFE01FDCEC09480AEFE09FDB15
S3151C005960B247835DA10FB307F0401307F0F663C778
S3151C005970E706BE85E809EFF04F962A880357C10D46
S3151C0059808357810F42C6AC19E8096310F70AEFE08A
S3151C0059903FEC32489C0A13070004EE866286C285D9
S3151C0059A0A819EFF0CFBA1DA8E9F3AC19E8093AC655
S3151C0059B0EFE01FD8324729E98357810F6386E7003A
S3151C0059C08801EFE0DFD19DBD639F0D000317E10F3A
S3151C0059D08147634B0700A819EFE09FDB8C01A819D0
S3151C0059E0EFF06FA7A1BD81475947B4193386F6005E
S3151C0059F00356260011C6850DEE86231DD10EF9BF52
S3151C005A008907E394E7FECDBF0148E359A0F64C0A8B
S3151C005A10A819EFE03FD0AC19E809EFE0BFCFEC09BD
S3151C005A20480AEFE03FCF628891BFEFE01FE5054CC7
S3151C005A308DB789074947E398E7D409B58357E1072A
S3151C005A40138C8911ADCF8C01E810116CEFE03FF17E
S3151C005A50791C130D50FD8357810D9D8BA9E74C11A5
S3151C005A608801EFE03FCB4811EFE03FCF4811EFE054
S3151C005A70DFCE4C118801EFE0BFDD8357610A8D072D
S3151C005A802313F10A8357810ADDEF8357C10B81EF7C
S3151C005A908357610A6369FC008C0148117D14EFE091
S3151C005AA07FC7E31AA4FBEC108801EFF0CF9A21A85C
S3151C005AB0F010940AB2856285EFF0CFD57D1483175A
S3151C005AC0C107E3D707FE8C01E810EFE05FC22C018B
S3151C005AD02685EFE0DFC1014D7D7C894D37F7001C23
S3151C005AE0B7F7001C130787379387074AB309A70123
S3151C005AF08C013387A70126853AC6EFE0DFEF3247D4
S3151C005B00635CA0028C013A85EFE0FFEE634F050053
S3151C005B109001B285940A4E85EFF0CFCF3001940ADE
S3151C005B20B2854E85EFF00FCF6294510D930640104F
S3151C005B30334CBC03E314DDFA3001940AA685328586
S3151C005B40EFF08FE839BE4811EFE03FC18357610A79
S3151C005B5085073DB7E810EFE0BFC34C11E810EFE036
S3151C005B607FBB4811EFE0DFC24811EFE07FC2EC10AB
S3151C005B704811EFE0FFCD900AEC102801EFF0CFC0E2
S3151C005B807D148354C11921B6938404039307E00240
S3151C005B90A30A9110230BF110130C7111E284B38725
S3151C005BA0844163D0F9048357C1191147138CF4FF40
S3151C005BB0E35FF7B215476384E706E2871306E00244
S3151C005BC09305800393060003FD1703C7070013778D
S3151C005BD0F70763D10908130710032380E7000504A0
S3151C005BE039B6E810EFE0DFBA4C11E810EFE09FB2CF
S3151C005BF04811EFE0FFB94811EFE09FB9EC104811CE
S3151C005C00EFE01FC5900AEC102801EFF0EFB78347B1
S3151C005C10C119850493870703A38FF4FE49B72C018A
S3151C005C20E810EFF04F8393050B352801EFE0BFDC3E
S3151C005C3049F5E3CE09AA83C7E4FF938727FD93B7EB
S3151C005C40170093C7F7FFE29783C70700858BE3808E
S3151C005C5007AAA5B76310C70203C7F7FF93068003FD
S3151C005C6063E6E6000507A38FE7FE51B40504130798
S3151C005C701003D5BF63E6E50005072380E70085BC56
S3151C005C802380D70091B7050423A08C00CE879306EA
S3151C005C90E00203C7070009EF1307500483C6070079
S3151C005CA06384E60063E3F902238007006FF03F86F6
S3151C005CB06309D7008507F1BF03C717008507A38FA4
S3151C005CC0E7FE03C707006DFBC1BFFD17C1BF8507F4
S3151C005CD06FF09F8436846FF01F857D1423000400AB
S3151C005CE06FF0FF8685052322BA0486076FF01F8A8C
S3151C005CF0A167FD17E31BF7A0C246E38306A0B7F511
S3151C005D00001C9385C55A6FF02FFDA9479309A00265
