S00E0000626C696E6B792E737265638D
S3151C0008006FF010106FF0D00F6FF0900F6FF0500F4D
S3151C0008106FF0100F6FF0D00E6FF0900E6FF0500E41
S3151C0008206FF0100E6FF0D00D6FF0900D6FF0500D35
S3151C0008306FF0100D6FF0D00C6FF0900C6FF0500C29
S3151C0008406FF0100C6FF0D00B6FF0900B6FF0500B1D
S3151C0008506FF0100B6FF0D00A6FF0900A6FF0500A11
S3151C0008606FF0100A6FF0D0096FF090096FF0500905
S3151C0008706FF010096FF0D0086FF090086FF05008F9
S3151C000900130101FF1305C0012324810023261100B6
S3151C000910EF70C003130405006308050023200500BF
S3151C00092013054500EF00405C130504008320C1003D
S3151C000930032481001301010167800000130101FEDD
S3151C000940232E1100232C8100232A91002328210108
S3151C0009502326310123244101232251012320610135
S3151C00096063120502B706051C3706051C9386460648
S3151C00097013060601930570143725051C1305C58639
S3151C000980EFF03059B70900FFB3F9350113840500A0
S3151C000990638E0900B706051C3706051C93860607D9
S3151C0009A013060601930580146FF01FFD639E050058
S3151C0009B0B706051C3706051C9386860A1306060110
S3151C0009C0930590146FF05FFB13090500930A06004C
S3151C0009D0138B0600130A0700EF30105B6310050229
S3151C0009E0630E0A00B706051C3706051C9386060C03
S3151C0009F0130606019305C0146FF01FF8EF3000169E
S3151C000A0083240900B377940063100B0463900704D6
S3151C000A109309000063040A04B335500193958501BC
S3151C000A2063060B00B7070004B3E5F50013060A00BE
S3151C000A30B3E5850013054900EF30407F93090A0092
S3151C000A40930400006F008001E314F4FC63880A0021
S3151C000A509347F4FFB3F797002320F900EF401044A7
S3151C000A60638209046316050013054006EF30D12284
S3151C000A70EF30D04A931765009304050063CE070038
S3151C000A80EF20517683240900B377940063120B047C
S3151C000A9063920704EF20D177370500011305F5FF94
S3151C000AA0B3F4A4008320C10103248101138504002F
S3151C000AB003290101832441018329C100032A8100E2
S3151C000AC0832A4100032B01001301010267800000E9
S3151C000AD0E312F4FCE3800AFC1344F4FF3374940021
S3151C000AE0232089006FF01FFB130101FE232E11002A
S3151C000AF0232C810063120502B706051C3706051C4C
S3151C000B0093864606130646029305201E3725051CAA
S3151C000B101305C586EFF0F03FB70700FFB3F7F500E6
S3151C000B20638E0700B706051C3706051C93864611FF
S3151C000B30130646029305301E6FF05FFD1304050075
S3151C000B402326B100EF20116A8325C100032504006A
S3151C000B5093C5F5FFB3F5A5002320B4002326A100F9
S3151C000B60EF20116B8320C101032481010325C100E1
S3151C000B7013010102678000006FF01FF71386050042
S3151C000B80930505003715001C93060000130585B751
S3151C000B906F60000A130101FD232611022324810222
S3151C000BA02322910223202103232E3101232C4101D0
S3151C000BB0232A510163120502B706051C3706051CBC
S3151C000BC0938646061306C603930520233725051C64
S3151C000BD01305C586EFF0F033B70700FFB3F7F50032
S3151C000BE0638E0700B706051C3706051C9386C614BC
S3151C000BF01306C603930530236FF05FFD130405002F
S3151C000C009309C5002326B100EF20507583270400E5
S3151C000C108325C1000325040137090001B3E5B7008C
S3151C000C202320B400930400001309F9FF370A0002BD
S3151C000C3083250400631E350393C4F4FFB3F4B40088
S3151C000C4023209400EF409025032504008320C10235
S3151C000C500324810283244102032901028329C10141
S3151C000C60032A8101832A41011301010367800000C5
S3151C000C7003270500832A4500B3772701131657005F
S3151C000C80B3F6B700634806006398060013850A008E
S3151C000C906FF01FFAE39CD7FE9316770063D4060009
S3151C000CA0B3E4F400B3E54501EF3090046FF01FFE8A
S3151C000CB06FF05FEE9306060013860500930505008C
S3151C000CC03715001C130505CB6F509076130101FEDA
S3151C000CD0B70700FF232E1100232C8100232A910025
S3151C000CE0232821012326310123244101B377F60051
S3151C000CF063820702B706051C3706051C9386060782
S3151C000D00130606009305500C3725051C1305C586CE
S3151C000D10EFF0302093040600631E0600B706051C80
S3151C000D203706051C9386860A130606009305600C77
S3151C000D306FF09FFD13090500138A050093890600B1
S3151C000D40EF30902463100502638E0900B706051C5C
S3151C000D503706051C9386060C130606009305900C95
S3151C000D606FF09FFAEF20905F0324090093050A0099
S3151C000D7013050900EFF01FE233644401B3779400B6
S3151C000D80639697080327090093C7F4FF930900008D
S3151C000D90B377F7002320F900EF405010638609044F
S3151C000DA06316050013054006EF30016FEF30101770
S3151C000DB0931765001304050063C20702EF209142D6
S3151C000DC003240900B3F784006398970093C4F4FFC7
S3151C000DD0B3F4840023209900EF20914337050001CA
S3151C000DE01305F5FF3374A400130504008320C10109
S3151C000DF00324810183244101032901018329C100A4
S3151C000E00032A810013010102678000006380090226
S3151C000E10B705000513860900B3E5B40013054900A0
S3151C000E20EF30C040130400006FF01FF703240900C5
S3151C000E306FF09FF60325050067800000130101FF74
S3151C000E40232611002324810023229100631205020C
S3151C000E50B706051C3706051C9386061813060605D9
S3151C000E609305E0283725051C1305C586EFF0700A87
S3151C000E70130405009304C400EF20504E832744003E
S3151C000E8063900702EF4090011305040003248100C0
S3151C000E908320C10083244100130101016F60D034FB
S3151C000EA003250401631E9500B706051C3706051CA1
S3151C000EB09386C618130606059305A0296FF09FFA9C
S3151C000EC0B7050002EF30C0626FF05FFB63060500DA
S3151C000ED0032585016780000013050000678000005C
S3151C000EE0232CB50067800000930785001307F0FFCD
S3151C000EF02322F5002324E5002326F5002328F500EC
S3151C000F002320050067800000232805006780000059
S3151C000F1003A705009306F0FF93078500631AD70203
S3151C000F208327050103A7470023A2E5002324B70056
S3151C000F3023A4F50023A2B7008327050023A8A50038
S3151C000F40938717002320F50067800000938706000F
S3151C000F5083A6470003A60600E37AC7FE6FF09FFC34
S3151C000F608327450003A7870023A2F50023A4E500D9
S3151C000F7003A787002322B70023A4B70083270500F5
S3151C000F8023A8A500938717002320F500678000007F
S3151C000F9083264500032785008327050123A4E60035
S3151C000FA0032785002322D70083A647006394A60047
S3151C000FB023A2E7002328050003A507001305F5FF58
S3151C000FC023A0A70067800000130101FF23248100D2
S3151C000FD0130405002322910023202101232611003E
S3151C000FE0EF20512083445404130944029394840132
S3151C000FF093D48441634490049307F0FFA302F40442
S3151C001000EF201121EF20111E83444404130904010F
S3151C0010109394840193D48441634690049307F0FF10
S3151C0010202302F404032481008320C100832441008D
S3151C00103003290100130101016F20911D832744021E
S3151C001040E38C07FA13050900EF30803463040500AE
S3151C001050EF3040729384F4FF9394840193D48441BB
S3151C0010606FF05FF983270401E38A07FA1305090069
S3151C001070EF30003263040500EF30C06F9384F4FF39
S3151C0010809394840193D484416FF01FF9130101FEDC
S3151C001090232E1100232C81002326A100EF2091145E
S3151C0010A00325C10003248503EF2091168320C1016B
S3151C0010B0133514000324810113010102678000000B
S3151C0010C0130101FF23202101130906000326050431
S3151C0010D023229100832485032324810023261100C7
S3151C0010E013040500631E0602832705001305000072
S3151C0010F06398070003258400EF30007D2324040039
S3151C00110093841400232C94028320C10003248100A1
S3151C001110832441000329010013010101678000009B
S3151C001120631A090203254500EFF040798327440022
S3151C0011300327040413050000B387E7000327840074
S3151C0011402322F400E3EEE7FA832704002322F400AB
S3151C0011506FF01FFB0325C500EFF0407683270404C0
S3151C0011600327C40083260400B307F0403307F700A7
S3151C0011702326E4006378D70003278400B307F7000F
S3151C0011802326F4009307200013050000E31AF9F642
S3151C001190E38804F69384F4FF6FF09FF6930705002B
S3151C0011A003A60704138505006304060203A7C700EC
S3151C0011B083A687003307C70023A6E7006366D7000C
S3151C0011C003A7070023A6E70083A5C7006FF0006FDF
S3151C0011D067800000130101FC232E1102232C8102BF
S3151C0011E0232A910223282103232631032324410386
S3151C0011F023225103232061032326C1006312050207
S3151C001200B706051C3706051C9386C6411306862A97
S3151C0012109305603B3725051C1305C586EFF0604F0B
S3151C0012201304050093890500938406006392050246
S3151C00123083270504638E0700B706051C3706051CA5
S3151C001240938646421306862A9305703B6FF09FFCD5
S3151C001250930720006394F4020327C403930710002A
S3151C001260630EF700B706051C3706051C9386C64792
S3151C0012701306862A9305803B6FF0DFF9EF30C050CA
S3151C001280631405028327C10013090000638007024B
S3151C001290B706051C3706051C9386060C1306862AFC
S3151C0012A09305B03B6FF01FF713090000930A20004B
S3151C0012B0130AF0FF130B04016F00C00B8327C10038
S3151C0012C063980700EF20C174130500006F00000F20
S3151C0012D06316090013058101EF30900AEF20417354
S3151C0012E0EF20D007EF2001708347440493978701B2
S3151C0012F093D787416394470123020404834754040C
S3151C0013009397870193D7874163944701A3020404EB
S3151C001310EF2001709305C10013058101EF50801762
S3151C0013206312050CEF20016C032784038327C40377
S3151C0013306318F702EF20C16D8325C10013050B004E
S3151C001340EF20906813050400EFF01FC8EF4000352E
S3151C0013506310050213054006EF3001146F004001AF
S3151C001360EF20016B13050400EFF01FC6EF4000339E
S3151C00137013091000EF200167032784038327C40386
S3151C0013806364F700E39C54F31386040093850900F9
S3151C00139013050400EFF0DFD283274402638607009F
S3151C0013A013054402EF20D07E630605001305400694
S3151C0013B0EF30810EEF20C165130510008320C10399
S3151C0013C00324810383244103032901038329C102C6
S3151C0013D0032A8102832A4102032B01021301010401
S3151C0013E06780000013050400EFF01FBEEF40002BC2
S3151C0013F06FF09FED130101FC232E1102232C810299
S3151C001400232A910223282103232631032324410363
S3151C0014102326C10063120502B706051C3706051CE8
S3151C0014209386C64C13060631930510763725051C84
S3151C0014301305C586EFF0E02D13040500138905007E
S3151C0014406392050283270504638E0700B706051CF5
S3151C0014503706051C9386864D130606319305507672
S3151C0014606FF0DFFCEF304032631405028327C100A6
S3151C0014709304000063800702B706051C3706051C8B
S3151C0014809386060C130606319305A0766FF01FFA99
S3151C001490930400009309F0FF130A44026F00000A2C
S3151C0014A08327C10063980700EF20815613050000AF
S3151C0014B06F00000D6396040013058101EF30406C2C
S3151C0014C0EF200155EF208069EF20C151834744046A
S3151C0014D09397870193D787416394370123020404AA
S3151C0014E0834754049397870193D7874163943701A5
S3151C0014F0A3020404EF20C1519305C1001305810109
S3151C001500EF4050796316050A13050400EFF01FB867
S3151C001510630805088325C10013050A00EF20D04A7D
S3151C00152013050400EFF05FAAEF4040176316050091
S3151C00153013054006EF20517693041000EF20814AD4
S3151C00154083278403E38E07F493050900130504001F
S3151C0015508324C400EFF09FC48327440223269400EF
S3151C001560638C070013054402EF2090626306050096
S3151C00157013054006EF205172EF2081491305100018
S3151C0015808320C1030324810383244103032901030C
S3151C0015908329C102032A810213010104678000000A
S3151C0015A013050400EFF05FA2EF40400F6FF0DFF869
S3151C0015B013050400EFF05FA1EF40400E1305040075
S3151C0015C0EFF0DFACE30A05F66FF05FEE130101FFE7
S3151C0015D02326110023248100232291006314050273
S3151C0015E0B706051C3706051CB71500009386C641B1
S3151C0015F013064633938515863725051C1305C586A4
S3151C001600EFF02011130405008327050463920502DD
S3151C00161063820702B706051C3706051CB7150000B2
S3151C0016209386465313064633938525866FF0DFFC57
S3151C00163063900702B706051C3706051CB715000084
S3151C0016409386865813064633938535866FF0DFFAE4
S3151C0016500327850393070000630A07008324C5003C
S3151C001660EFF0DFB393071000232694008320C100FC
S3151C0016700324810083244100138507001301010103
S3151C00168067800000130101FC232E1102232C81020A
S3151C001690232A9102232821032326310323244103D1
S3151C0016A0232251032326C10063120502B706051C1B
S3151C0016B03706051C9386C64C1306C62E9305905EEC
S3151C0016C03725051C1305C586EFF0A0041304050079
S3151C0016D0938905006392050283270504638E070020
S3151C0016E0B706051C3706051C9386864D1306C62EA3
S3151C0016F09305D05E6FF0DFFCEF3000096314050222
S3151C0017008327C1001309000063800702B706051C66
S3151C0017103706051C9386060C1306C62E9305205FFA
S3151C0017206FF01FFA13090000130AF0FF930A440214
S3151C0017306F00000A8327C10063980700EF20412D24
S3151C001740130500006F00000D6316090013058101C7
S3151C001750EF300043EF20C12BEF204040EF208128C3
S3151C001760834744049397870193D787416394470122
S3151C00177023020404834754049397870193D7874114
S3151C00178063944701A3020404EF2081289305C1003A
S3151C00179013058101EF4010506318050A1305040058
S3151C0017A0EFF0DF8E630A05088325C10013850A0046
S3151C0017B0EF20902113050400EFF01F81EF30106E0F
S3151C0017C06316050013054006EF20114D1309100082
S3151C0017D0EF20412183248403E38E04F493850900BE
S3151C0017E013050400EFF09F9B832704019384F4FFE9
S3151C0017F0232C9402638C070013050401EF20503937
S3151C0018006306050013054006EF201149EF20412011
S3151C001810130510008320C103032481038324410381
S3151C001820032901038329C102032A8102832A410257
S3151C001830130101046780000013050400EFF0CFF8C4
S3151C001840EF30D0656FF09FF813050400EFF0CFF76B
S3151C001850EF30D06413050400EFF05F83E30805F650
S3151C0018606FF01FEE130101FE232E110063140502F7
S3151C001870B706051C3706051CB71500003725051CC1
S3151C0018809386465A130686349385B5891305C586F1
S3151C001890EFE030682326A100EF20C1140325C10008
S3151C0018A0032585032326A100EF2081168320C10171
S3151C0018B00325C1001301010267800000130101FE0C
S3151C0018C0232E1100232C810063140502B706051C68
S3151C0018D03706051CB71500003725051C9386C6411F
S3151C0018E0130606369385058B1305C586EFE07062D5
S3151C0018F013040500EF20010F832784030325C4036B
S3151C0019003305F5402326A100EF2081108320C10159
S3151C001910032481010325C100130101026780000015
S3151C001920130101FE232E1100232C8100232A910072
S3151C001930232821012326310163120502B706051C43
S3151C0019403706051C9386C6411306C62B930500490C
S3151C0019503725051C1305C586EFE0B05B130405008F
S3151C001960930906006392050283270504638E07000C
S3151C001970B706051C3706051C938646421306C62B5E
S3151C001980930510496FF0DFFC130720008327C4035F
S3151C0019906392E60213071000638EE700B706051C68
S3151C0019A03706051C9386C6471306C62B9305204986
S3151C0019B06FF01FFA032784036368F7009307200060
S3151C0019C013050000639AF602834454048327840398
S3151C0019D0138606001305040013998401EFF04FEEDD
S3151C0019E0135989419307F0FF6314F90483274402B2
S3151C0019F063920702130510008320C1010324810191
S3151C001A0083244101032901018329C1001301010219
S3151C001A106780000013054402EF209017E30C05FCB9
S3151C001A20E38A09FC9307100023A0F9006FF09FFCC2
S3151C001A30EF200015E370A9FC9307F007631EF9005D
S3151C001A40B706051C3706051C9386C65A1306C62BF5
S3151C001A509305E0516FF0DFEF938414009394840197
S3151C001A6093D48441A30294046FF0DFF8130101FEA2
S3151C001A70232E1100232C8100232A910023282101C7
S3151C001A8063120502B706051C3706051C9386C6415C
S3151C001A901306862D930500543725051C1305C5868C
S3151C001AA0EFE030478327050413040500638E070007
S3151C001AB0B706051C3706051C9386065D1306862D80
S3151C001AC0930540546FF05FFD832705006392070260
S3151C001AD083278500638E0700B706051C3706051C81
S3151C001AE09386C65E1306862D930590546FF0DFFA17
S3151C001AF0832784030327C40363F2E70A834454043D
S3151C001B0093871700232CF4021399840113598941D6
S3151C001B109307F0FF6316F9048327440263900702B8
S3151C001B20130510008320C101032481018324410174
S3151C001B3003290101130101026780000013054402F9
S3151C001B402326B100EF20D0048325C100E30A05FC3F
S3151C001B50E38805FC9307100023A0F5006FF05FFCDB
S3151C001B60EF200002E37EA9FA9307F007631EF90033
S3151C001B70B706051C3706051C9386C65A1306862D02
S3151C001B809305B05C6FF05FF1938414009394840109
S3151C001B9093D48441A30294046FF09FF813050000AC
S3151C001BA06FF05FF8130101FE232E1100232C810018
S3151C001BB0232A9100232821012326310123244101B4
S3151C001BC063120502B706051C3706051C9386C6411B
S3151C001BD01306C6319305D07F3725051C1305C5860C
S3151C001BE0EFE0303313040500130A06006392050266
S3151C001BF083270504638E0700B706051C3706051CDC
S3151C001C00938646531306C6319305E07F6FF0DFFCBF
S3151C001C100329840313050000630A09028344440450
S3151C001C2013050400EFF08FD7939984011309F9FF6C
S3151C001C3093D98941232C24039307F0FF6396F90457
S3151C001C408327040163940702130510008320C10136
S3151C001C500324810183244101032901018329C10035
S3151C001C60032A810013010102678000001305040189
S3151C001C70EF200072E30A05FCE3080AFC9307100038
S3151C001C802320FA006FF05FFCEF10906FE3FEA9FAB9
S3151C001C909307F0076390F902B706051C3706051C67
S3151C001CA0B7150000938606651306C63193854584D1
S3151C001CB06FF09FF2938414009394840193D484410F
S3151C001CC0230294046FF05FF863180502B706051C1F
S3151C001CD03706051CB71500003725051C130101FF27
S3151C001CE09386C6411306863A938525A51305C58694
S3151C001CF023261100EFE0F02103258503133515007B
S3151C001D006780000063180502B706051C3706051C0C
S3151C001D10B71500003725051C130101FF9386C64124
S3151C001D201306463C9385F5A71305C5862326110085
S3151C001D30EFE0301E832785030325C5033305F540D5
S3151C001D40133515006780000063180502B706051CCD
S3151C001D503706051CB71500003725051C130101FFA6
S3151C001D609386C641130686379385558C1305C586FF
S3151C001D7023261100EFE0F019032585036780000078
S3151C001D80130101FC232E1102232C8102232A91020A
S3151C001D902328210323263103232441032326B100B0
S3151C001DA063120502B706051C3706051C9386C64C2E
S3151C001DB01306C62F930520683725051C1305C586F3
S3151C001DC0EFE030158327050413040500638E070016
S3151C001DD0B706051C3706051C9386065D1306C62F1B
S3151C001DE0930560686FF05FFDEF20101A63160502FD
S3151C001DF08327C100930400001309000063820702B5
S3151C001E00B706051C3706051C9386060C1306C62F3B
S3151C001E109305B0686FF05FFA930400001309000085
S3151C001E209309F0FF130A44026F00C00B8327C100FD
S3151C001E3063980700EF10D13D930400006F00000F5C
S3151C001E406316090013058101EF209053EF10513CD6
S3151C001E50EF10D050EF101139834744049397870134
S3151C001E6093D78741639437012302040483475404A0
S3151C001E709397870193D7874163943701A302040480
S3151C001E80EF1011399305C10013058101EF408060E5
S3151C001E906318050C13050400EFF04F9F630A050A2F
S3151C001EA083270400639C0700EF10D13303258400AD
S3151C001EB0EF20D00F93040500EF1091358325C10048
S3151C001EC013050A00EF20403013050400EFF0CF8FF6
S3151C001ED0EF30C07C6316050013054006EF20C15B7E
S3151C001EE013091000EF10113083278403E38007F4D5
S3151C001EF09387F7FF232CF4028327040063960700BD
S3151C001F00EF2010462324A40083270401638C0700BA
S3151C001F1013050401EF20C0476306050013054006A0
S3151C001F20EF208157EF10D12E930410008320C1039C
S3151C001F30032481031385040003290103832441031D
S3151C001F408329C102032A8102130101046780000050
S3151C001F5013050400EFF04F87EF3040746FF05FF805
S3151C001F6013050400EFF04F86EF3040731305040091
S3151C001F70EFF0CF91E30605F6E38A04FAEF109126FB
S3151C001F808327440293050000638A07008327040302
S3151C001F909305500083A70700B385F54003258400ED
S3151C001FA0EF2090256FF01FE9130101FE232E11006F
S3151C001FB0232C810063120502B706051C3706051C77
S3151C001FC03725051C938646671306C6219305802B69
S3151C001FD01305C586EFE0E07313040500EF1091208E
S3151C001FE0832704001305000063940700032584005F
S3151C001FF02326A100EF10D1218320C10103248101D6
S3151C0020000325C10013010102678000006316050247
S3151C002010B706051C3706051C3725051C130101FFD1
S3151C00202093864667130646239305C02D1305C5865E
S3151C00203023261100EFE0E06D03270500930705003A
S3151C002040130500006314070003A5870067800000C2
S3151C002050130101FE232E1100232C8100232A91003B
S3151C00206063120502B706051C3706051C3725051C19
S3151C002070938606681306C626930570331305C58614
S3151C002080EFE0206983248500130405002326B10094
S3151C002090EF20806B8325C1006394A4028327C400B0
S3151C0020A013051000938717002326F4008320C10113
S3151C0020B0032481018324410113010102678000006E
S3151C0020C013050400EFF0DFCBE30205FE8327C400F3
S3151C0020D0938717002326F4006FF05FFD130101FFA1
S3151C0020E02326110023248100232291002320210171
S3151C0020F063120502B706051C3706051C3725051C89
S3151C00210093860668130606259305B02F1305C58608
S3151C002110EFE020600329850013040500EF20C06250
S3151C002120930400006316A9028327C40093041000BD
S3151C0021309387F7FF2326F400639C07009306000091
S3151C002140130600009305000013050400EFF08F88AA
S3151C0021508320C10003248100138504000329010088
S3151C00216083244100130101016780000063180502E6
S3151C002170B706051C3706051CB71500003725051CB8
S3151C002180130101FF9386465A1306063E938595BC9A
S3151C0021901305C58623261100EFE0A05763800506AC
S3151C0021A0B726051C938806E2138606E293070000F1
S3151C0021B013070000938606E21308800003234600DB
S3151C0021C0631CA30093173700B387F60023A0B70040
S3151C0021D023A2A7006F008002639A07000323060050
S3151C0021E06316030093173700B387170113071700ED
S3151C0021F013068600E31407FDE39A07FC67800000BC
S3151C00220063180502B706051C3706051CB715000022
S3151C0022103725051C130101FF9386465A13064640B3
S3151C0022209385D5C11305C58623261100EFE0604EA4
S3151C002230B727051C938607E213070000938707E25E
S3151C0022401306800083A54600639CA5001317370060
S3151C002250B387E70023A0070023A2070067800000BE
S3151C0022601307170093868600E31EC7FC67800000D1
S3151C002270130101FF23261100232481006314050288
S3151C002280B706051C3706051CB71500003725051CA7
S3151C0022909386C641130686399385458D1305C586D7
S3151C0022A0EFE0204713040500EFF09FF5130504002B
S3151C0022B0032481008320C100130101016F50C072E9
S3151C0022C063180502B706051C3706051CB715000062
S3151C0022D03725051C130101FF9386465A1306463FF4
S3151C0022E09385B5BF1305C58623261100EFE0604212
S3151C0022F03727051C930607E293070000130707E21E
S3151C0023001306800083A54600639AA50093973700A1
S3151C002310B307F70003A50700678000009387170023
S3151C00232093868600E390C7FE1305000067800000B5
S3151C002330130101FE232C81002326B1001304050082
S3151C0023402324C100232E1100EF10C16983474404C6
S3151C0023501307F0FF8325C1009397870193D7874105
S3151C002360032681006394E700230204048347540474
S3151C0023701307F0FF9397870193D787416394E70070
S3151C002380A30204042326B1002324C100EF104168D4
S3151C002390832784038325C1000326810063960700D7
S3151C0023A013054402EF105075130504000324810124
S3151C0023B08320C101130101026FE01FC1130101FE3D
S3151C0023C0232E1100232C810063120502B706051C5F
S3151C0023D03706051C9386C6411306461F93057013C4
S3151C0023E03725051C1305C586EFE0A0328327C503D8
S3151C0023F0130405006380070A03270504B3B7E70225
S3151C002400639A07082326B100EF10C15D0326040456
S3151C0024100327C40383260400232C0402B307E60205
S3151C0024202322D4003387F600B387C740B387F60050
S3151C0024302326F4009307F0FF2302F404A302F404FA
S3151C0024408325C1002324E400639C05028327040121
S3151C002450638C070013050401EF10907363060500D7
S3151C00246013054006EF204103EF10815A8320C1015A
S3151C002470032481011305100013010102678000006B
S3151C00248013050401EFE05FA613054402EFE0DFA588
S3151C0024906FF09FFDB706051C3706051C93868668DC
S3151C0024A01306461F9305C0166FF09FF3130101FE1A
S3151C0024B0232E1100232C8100232A9100232821017D
S3151C0024C063000508B3B7A50293040500639A0706C3
S3151C0024D03305B5029307F0FA63E4A7061305050551
S3151C0024E02326B10013090600EF50404613040500CD
S3151C0024F08325C10063020502639E05022320A400F6
S3151C0025002320B404232E9402930510001305040003
S3151C002510EFF0DFEA23062405130504008320C1011E
S3151C00252003248101832441010329010113010102B2
S3151C00253067800000930705052320F5006FF05FFCFC
S3151C002540B706051C3706051C3725051C9386C66A67
S3151C002550130686209305A0221305C586EFE0601B93
S3151C002560130101FF13060500930500001305100057
S3151C0025702324810023261100EFF05FF313040500CA
S3151C00258063000502232405002320050023260500DD
S3151C002590930600001306000093050000EFE09FC39E
S3151C0025A0130504008320C1000324810013010101CB
S3151C0025B067800000130101FF2326110023248100DC
S3151C0025C063080502138405006364B5021306200024
S3151C0025D093050000EFF09FED63040500232C850294
S3151C0025E08320C100032481001301010167800000C0
S3151C0025F0B706051C3706051C3725051C9386866BF6
S3151C002600130686289305F0391305C586EFE060107E
S3151C0026102324B50467800000032585046780000019
S3151C0026200345C50467800000032505046780000078
S3151C0026300325C50367800000032785008327450003
S3151C00264003250500B307F7003385A7406364E5003F
S3151C0026503305E54067800000130101FE232E11009F
S3151C002660232C8100232A91002328210123263101B2
S3151C0026702324410163120602B716051C3716051CD6
S3151C0026809386C6921306C6879305B05C3725051C30
S3151C0026901305C586EFE0E0078327850013090500AF
S3151C0026A0138A0500B384D7401304060093890600D9
S3151C0026B063749600930406003387990063FEE70053
S3151C0026C0B716051C3716051C938646941306C68733
S3151C0026D09305305D6FF09FFB03258901138604006B
S3151C0026E093050A0033053501EFE0401D63FA8402A9
S3151C0026F0832789003306944063FEC700B716051C62
S3151C0027003716051C938686971306C6879305B05DF8
S3151C0027106FF0DFF703258901B3059A00EFE0001A75
S3151C00272083278900330534016364F5003305F540BE
S3151C0027308320C10103248101832441010329010152
S3151C0027408329C100032A810013010102678000004E
S3151C002750130101FE232C8100232A91002328210129
S3151C002760232E1100130406000346C5019387060099
S3151C002770832645001376160093040500138905006D
S3151C002780630806042326810063EAE7041306400057
S3151C0027909305C100EFF05FEC93060500630C040083
S3151C0027A0130604009305090013850400EFF0DFEA05
S3151C0027B023A2A400130504008320C1010324810164
S3151C0027C083244101032901011301010267800000D2
S3151C0027D0E3F687FC138407006FF05FFC130400000C
S3151C0027E06FF05FFD130101FE232E1100232C8100C7
S3151C0027F0232A910023282101232631016312060274
S3151C002800B716051C3716051C9386069B13064689A8
S3151C0028109305905F3725051C1305C586EFD0706F91
S3151C002820032785001309050093870500B304D740C9
S3151C002830130406009389060063749600930406002D
S3151C002840637E9400B716051C3716051C9386869C5A
S3151C00285013064689930520606FF0DFFBB38699004B
S3151C002860637ED700B716051C3716051C9386069E75
S3151C00287013064689930530606FF0DFF983258901BD
S3151C0028801386040013850700B3853501EFE00003AA
S3151C00289063FA840083258901330694403305950029
S3151C0028A0EFE0C00183278900330534016364F5001A
S3151C0028B03305F5408320C101032481018324410192
S3151C0028C0032901018329C10013010102678000004D
S3151C0028D0130101FD232481022322910223202103BB
S3151C0028E0232E3101232611028347C50113840600BA
S3151C0028F08326050093F71700130905009389050025
S3151C0029009304060063820702130640009305C10068
S3151C002910EFF05FED8327C100930605001304C4FF87
S3151C00292063F4F4049304000063F484001384040029
S3151C002930630C0400130604009385090013050900A3
S3151C002940EFF05FEA2320A900130504008320C102CF
S3151C0029500324810283244102032901028329C10124
S3151C0029601301010367800000938407006FF0DFFBEF
S3151C002970130101FE232A910093840500232C810058
S3151C0029809305500513040500138504002328210113
S3151C0029902326310123244101232E1100130A06008C
S3151C0029A09389060013090700EFD0307D6382A402C9
S3151C0029B0B716051C3716051C3725051C938646A11C
S3151C0029C01306C68A930540641305C586EFD070545A
S3151C0029D0130504001306400293050000EFD0F0799E
S3151C0029E0230E2401232C9400232444012326340182
S3151C0029F0232204028320C101032481018324410173
S3151C002A00032901018329C100032A81001301010244
S3151C002A1067800000130101FE232E1100232C810068
S3151C002A20232A910023282101232631012324410135
S3151C002A302322510163920502B716051C3706051C95
S3151C002A409386C6A51306C67A930570423725051CC0
S3151C002A501305C586EFD0F04B13040500631E050055
S3151C002A60B716051C3706051C938686A61306C67A5A
S3151C002A70930580426FF09FFD8347C501938905002E
S3151C002A80930A060013F71700138A06001309400061
S3151C002A90631A070093F747001309000063840700B5
S3151C002AA00329C50063080A06EF00D1731305040049
S3151C002AB0EFF09FB893040500636CA90283254402BA
S3151C002AC013050000EF30D00683270401638E070030
S3151C002AD0B716051C3706051C938686A71306C67AE9
S3151C002AE0930530456FF09FF6EF1010462328A4007F
S3151C002AF0EF001172636E99040325440213070A0042
S3151C002B00930600001306000093050000EF30805E5C
S3151C002B102328040013050400EFF01FB293040500DC
S3151C002B206368A902930400008320C1010324810168
S3151C002B301385040003290101832441018329C10053
S3151C002B40032A8100832A41001301010267800000C9
S3151C002B509386040013860A00938509001305040056
S3151C002B60EFF01FD793040500E30E05FAEF00107F64
S3151C002B7083274401638007020325440183254402FD
S3151C002B80130700009306000013060000EF30003701
S3151C002B90232A0400EF2090306FF01FF9130101FE69
S3151C002BA0232E1100232C8100232A91002328210186
S3151C002BB063920502B716051C3706051C9386C6A527
S3151C002BC01306867E9305704C3725051C1305C58692
S3151C002BD0EFD0303413040500631E0500B716051C20
S3151C002BE03706051C938686A61306867E9305804C9F
S3151C002BF06FF09FFD8344C501138906002326B1008F
S3151C002C0093F414002324C10093942400EFF0DFA254
S3151C002C10930605008325C1000326810063E2A402F6
S3151C002C20930400008320C101032481011385040041
S3151C002C30032901018324410113010102678000005D
S3151C002C4013050400EFF0DFC893040500E30A05FC36
S3151C002C5083274401E38807FC03254401832544029A
S3151C002C6093070900130700009306000013060000D3
S3151C002C70EF009076232A04006FF0DFFA6316050234
S3151C002C80B716051C3706051C3725051C130101FF45
S3151C002C90938686A61306C66D930530231305C58633
S3151C002CA023261100EFD0F0268347C50193F7270092
S3151C002CB0639407006F40505313068002930500006F
S3151C002CC06FD0B04B63160502B716051C3716051CCC
S3151C002CD03725051C130101FF938686A6130646801D
S3151C002CE09305B0531305C58623261100EFD0702219
S3151C002CF083270500032545003305F54013351500CC
S3151C002D0067800000130101FE232E1100232C810075
S3151C002D10232A910063120502B716051C3706051CEB
S3151C002D203725051C938686A61306066F9305E02594
S3151C002D301305C586EFD0F01D130405008324050278
S3151C002D40EF00514A8327040113050000639607020E
S3151C002D5083274401639207020347C4018326C400E8
S3151C002D60032684008325840113050400EFF05FC04D
S3151C002D7013051000232094022326A100EF005149BD
S3151C002D808320C101032481010325C1008324410141
S3151C002D901301010267800000130101FF23261100A5
S3151C002DA0232481002322910063120502B716051CF9
S3151C002DB03706051C3725051C938686A61306467002
S3151C002DC09305C0291305C586EFD0B014032705014A
S3151C002DD01304050093070000631607020327450129
S3151C002DE0631207020347C5018326C5000326850017
S3151C002DF08325850183240502EFF09FB793071000F6
S3151C002E00232094028320C1000324810083244100D3
S3151C002E101385070013010101678000006316050274
S3151C002E20B716051C3706051C3725051C130101FFA3
S3151C002E30938686A6130606749305A02F1305C586CE
S3151C002E4023261100EFD0F00C8327850003260500EE
S3151C002E50832605000327450083250500E398C5FE48
S3151C002E601385F7FF3305D5003305E5406364F5008C
S3151C002E703305F54067800000130101FC232E110267
S3151C002E80232C8102232A9102232821032326310382
S3151C002E90232441032326D10063920502B716051C81
S3151C002EA03706051C938606AB1306C6779305503367
S3151C002EB03725051C1305C586EFD0B0051304050080
S3151C002EC0631E0500B716051C3706051C938686A6C9
S3151C002ED01306C677930560336FF09FFD0347C50144
S3151C002EE083278500138A050013771700130906002C
S3151C002EF09387F7FF6300070C93044600636E9600E6
S3151C002F00B716051C3706051C9386C6AB1306C67773
S3151C002F10930550346FF0DFF963F497002326010004
S3151C002F208327C1006390070A13050400EFF01FEF07
S3151C002F3093090500138704009386090013060900EC
S3151C002F4093050A0013050400EFF09F809304050007
S3151C002F506300050413050400EFF00FEE8327C4007D
S3151C002F606368F502EF00903F832704016380070224
S3151C002F700325040183254402130700009306000061
S3151C002F8013060000EF20907723280400EF20007121
S3151C002F908320C10303248103138504000329010331
S3151C002FA0832441038329C102032A810213010104DC
S3151C002FB06780000093040600E3F4C7F693840700B9
S3151C002FC06FF01FF613058101EF30C046EF0091210B
S3151C002FD013050400EFF09FE493090500637895063A
S3151C002FE08325440213050000EF30803483274401F7
S3151C002FF0638E0700B716051C3706051C938606AE9E
S3151C0030001306C677930550376FF09FEAEF10C0730F
S3151C003010232AA400EF00D11F0327C1000325440265
S3151C003020930500009306000013060000EF30800C89
S3151C0030309305C100232A040013058101EF30804546
S3151C003040E30605F8E38209EE6FF0DFEEEF00511C94
S3151C0030506FF05FFF130101FE232E1100232C81004C
S3151C003060232A91002328210163920502B716051C09
S3151C0030703706051C938606AB130606799305A03BFB
S3151C0030803725051C1305C586EFD0A068130405005B
S3151C003090631E0500B716051C3706051C938686A6F7
S3151C0030A0130606799305B03B6FF09FFD1389060046
S3151C0030B08346C5011307060093F6160063840600B3
S3151C0030C013074600130504002324B1002322C10064
S3151C0030D02326E100EFF09FD40327C10003264100FD
S3151C0030E0832581009306050013050400EFF04FE6C7
S3151C0030F093040500630E050213050400EFF0CFD3FD
S3151C0031008327C4006366F5028327040163820702D2
S3151C00311003250401832544029307090013070000B5
S3151C0031209306000013060000EF00102B2328040052
S3151C0031308320C10103248101138504000329010195
S3151C003140832441011301010267800000130101FF62
S3151C003150232611002324810063120502B716051CC1
S3151C0031603716051C3725051C938686A61306C681AD
S3151C003170930570551305C586EFD0A0590344C501A8
S3151C003180EFF0DFC98320C10013741400131424004C
S3151C0031903335A400032481001345150013010101D6
S3151C0031A06780000063160502B716051C3706051C4A
S3151C0031B03725051C130101FF938686A61306067682
S3151C0031C09305E0311305C58623261100EFD0605404
S3151C0031D06FF08FC663160502B716051C3706051C4D
S3151C0031E03725051C130101FF938686A61306067256
S3151C0031F09305802D1305C58623261100EFD060513B
S3151C00320093070500639405009305100003A7870028
S3151C0032101305000063F6E50023A6B700130510008E
S3151C00322067800000130101FF23261100232481005F
S3151C00323063120502B716051C3716051C3725051C17
S3151C003240938686A6130606839305F0571305C58633
S3151C003250EFD0204C032705011304050013050000BD
S3151C0032606304070293870500032504018325440292
S3151C003270130700009306000013060000EF00D0158C
S3151C00328013051000232804008320C1000324810099
S3151C0032901301010167800000130101FF23261100A1
S3151C0032A02324810063120502B716051C3716051C5C
S3151C0032B03725051C938686A6130646859305605AF4
S3151C0032C01305C586EFD0E04403274501130405000A
S3151C0032D013050000630407029387050003254401B8
S3151C0032E08325440213070000930600001306000002
S3151C0032F0EF00900E13051000232A04008320C10042
S3151C0033000324810013010101678000006316050276
S3151C003310B716051C3716051C3725051C130101FF9E
S3151C003320938686A61306C68C930590661305C586DA
S3151C00333023261100EFD0E03D0325450267800000DF
S3151C003340130101FF2326110063120502B716051C83
S3151C0033503716051C938686A61306C68F93058067AB
S3151C0033603725051C1305C586EFD0A03A8327050112
S3151C003370638E0700B716051C3716051C938686A791
S3151C0033801306C68F9305B0676FF09FFD8327450113
S3151C003390638E0700B716051C3716051C938606AEEA
S3151C0033A01306C68F9305C0676FF09FFB638E0500DF
S3151C0033B0B716051C3716051C938646B11306C68F11
S3151C0033C09305F0676FF0DFF98320C1002322050205
S3151C0033D01301010167800000130101FE232C8100EB
S3151C0033E0232E1100232A91009307100013040500B5
S3151C0033F0938605006318F602930740001307100016
S3151C00340063E6A706B716051C3706051C9386C6B2C7
S3151C0034101306066C9305E0153725051C1305C58692
S3151C003420EFD0202F930720006312F60213074000EB
S3151C003430631E0502B716051C3706051C938646B582
S3151C0034401306066C930540166FF01FFD130700004C
S3151C003450631E0500B716051C3706051C938646B564
S3151C0034601306066C9305A0166FF01FFB637ED40033
S3151C003470B716051C3706051C9386C6B61306066CBE
S3151C0034809305D0166FF05FF963940600930610003F
S3151C003490930760FD9304000063E8870213059402FA
S3151C0034A02324D1002326E100EF40404A9304050063
S3151C0034B0832681000327C100630805001306140038
S3151C0034C093058502EFF0CFCA8320C1010324810135
S3151C0034D01385040083244101130101026780000047
S3151C0034E0130101FE232E1100232C810063120502F9
S3151C0034F0B716051C3706051C938686A61306467C3E
S3151C003500930590493725051C1305C586EFD0602009
S3151C0035108347C5011304050093F71700638A070444
S3151C003520EFF08F919307400063F6A70283260400F1
S3151C003530130640009305C10013050400EFF08FAA83
S3151C0035400325C1008320C10103248101130101024B
S3151C00355067800000630E0500B716051C3706051CA0
S3151C003560938646B91306467C9305E04A6FF09FF98D
S3151C003570130500006FF01FFD2320B50267800000B5
S3151C00358003250502678000000345C5011375150058
S3151C00359067800000832705001308850063860700E3
S3151C0035A08327C5006396070113050000678000008A
S3151C0035B003A5C7009386050013078508930885098C
S3151C0035C00383060003060700631A6600630C0600E5
S3151C0035D01307170093861600E31417FF83A74700EB
S3151C0035E06FF05FFC67800000130101FD2328610159
S3151C0035F0130B05000325480823202103232E310124
S3151C003600370900809319260023229102232A51018F
S3151C00361093840500930A06001349F9FF13860900D3
S3151C0036209305500A23248102232C41012326710170
S3151C0036302324810123229101138A07001304080005
S3151C00364023261102938B0600938C0800135CF7014A
S3151C00365033792701EFD06032832744089389C9FF49
S3151C003660B389370193F909FF638804029385040023
S3151C0036709307840813870401838605002380D700DB
S3151C00368083860500638806009385150093871700BB
S3151C003690E394E5FEA30B04089307400063F227039B
S3151C0036A0B716051C3716051C3725051C938686EE92
S3151C0036B0130646BC930560761305C586EFD06005D8
S3151C0036C0232024092322240B13058405EFD0DF8332
S3151C0036D01305C406EFD05F83130750000326440866
S3151C0036E03309274193860A001307000293850C00B1
S3151C0036F0130544002322840623262407232C840630
S3151C003700EF30501613068042930500001305040B78
S3151C003710EFD0A0269307C439232AF40A9307444002
S3151C003720232CF40A9307C446232EF40A930710008D
S3151C003730232CF414B737CDAB9387E7302320F4162C
S3151C003740B7176DE6938747232322F416B7E70500C0
S3151C0037509387C7EE2324F4169307B0002316F4169A
S3151C00376093060C0013860B0093050B0013850900AA
S3151C003770EF30D00A2320A40063040A0023208A0009
S3151C0037808320C102032481028324410203290102EE
S3151C0037908329C101032A8101832A4101032B0101CB
S3151C0037A0832BC100032C8100832C410013010103D0
S3151C0037B067800000130101FD23229102B724051C1A
S3151C0037C023248102138404E623202103232E3101A2
S3151C0037D0232C410183290400232A5101032A440076
S3151C0037E013090500832A84008327C4000325C4000B
S3151C0037F023261102238F074C130585052326B100AA
S3151C003800EFD00FF99307F0FF938404E68325C100DC
S3151C003810631CF906638A0506832744010327C40033
S3151C00382083A68700232EF7040327C4002320D7066C
S3151C0038300327C40083A687001307870523A2E60077
S3151C0038400327C4001307870523A4E7008327C400A6
S3151C0038501307040123A4E706832704019387170093
S3151C0038602328F4008320C1020324810283244102FD
S3151C003870032901028329C101032A8101832A4101EB
S3151C003880130101036780000083A7C40083A5C4003D
S3151C0038903389290123AC270593858505637639036E
S3151C0038A0032481028320C1028324410203290102CD
S3151C0038B08329C101032A810113850A00832A410138
S3151C0038C0130101036FD0CFE413050A00EFD04FE4B8
S3151C0038D083A74402E378F9F823A224036FF09FF828
S3151C0038E0B727051C938707E603A74700032707008E
S3151C0038F0631807001307F0FF23A2E7026780000086
S3151C00390003A747000327C700032707006FF0DFFE46
S3151C00391063180502B716051C3716051CB7150000DB
S3151C0039203725051C130101FF9386C6EF130686C3B4
S3151C0039309385E5CD1305C58623261100EFC0705D62
S3151C0039403727051C03268506130707E6930607017A
S3151C003950930700006310D6028326C5071307870248
S3151C003960638AE600639806008347C54D9387F7FF75
S3151C003970B337F0001385070067800000130101FFB1
S3151C00398023248100130405001305050B23261100AF
S3151C003990EFD000138347D44D6390070203254408D8
S3151C0039A0EF40800413050400032481008320C1001A
S3151C0039B0130101016F40400313071000E384E7FE67
S3151C0039C0130720006384E702B716051C3716051C6F
S3151C0039D0B72500003725051C938646F0130686DCA2
S3151C0039E0938535931305C586EFC0B0528320C1005D
S3151C0039F00324810013010101678000006318050080
S3151C003A00B727051C938707E603A5C7001307000005
S3151C003A109306000013060000130545006F308064F2
S3151C003A2063180500B727051C938707E603A5C7007F
S3151C003A30032505086780000063180500B727051CC9
S3151C003A40938707E603A5C7000325450A6780000080
S3151C003A50130101FE232E1100232C8100232A910021
S3151C003A60232821012326310163140502B716051CE0
S3151C003A703716051CB71500003725051C938686F3DB
S3151C003A801306C6C5938505D61305C586EFC07048B3
S3151C003A9093040500EFF0DFE713090000630805082F
S3151C003AA03724051C130504E68327C503130404E603
S3151C003AB0639E07088327C40003A7040883A7070877
S3151C003AC063F8E700930710002320F4041309100081
S3151C003AD09389840513850900EFD08FCB83A704082F
S3151C003AE0032744046374F7002322F40413074001DC
S3151C003AF0B387E702B306F40003A7C60413048404C1
S3151C003B003304F4000326870083A7860423AEE4044B
S3151C003B1023A0C40603268700938717002322360199
S3151C003B202324370123A4840623A4F6048320C1017D
S3151C003B300324810113050900832441010329010182
S3151C003B408329C10013010102678000009385C40606
S3151C003B5013058502EFD0CFC06FF05FFDB727051C9C
S3151C003B60938707E603A7C7031307170023AEE702CD
S3151C003B7067800000B727051C03A507E667800000C1
S3151C003B80B727051C938707E603A5C70A67800000AD
S3151C003B9063100504B727051C938707E603A5C70012
S3151C003BA063180502B716051C3716051CB715000049
S3151C003BB03725051C130101FF938686F4130646C997
S3151C003BC09385A5051305C58623261100EFC0703401
S3151C003BD01305850867800000130101FF23261100C9
S3151C003BE063140502B716051C3716051CB7250000FD
S3151C003BF0938606F51306C6E6938535F23725051C0E
S3151C003C001305C586EFC0F03063800502B716051C88
S3151C003C103716051CB7250000938606F61306C6E65E
S3151C003C20938545F26FF09FFD630607008325854D3E
S3151C003C302320B7000347C54D93052000230EB54C22
S3151C003C40930540001377F70F63E0D506B725051CCF
S3151C003C50939626009385C58DB386B60083A606006B
S3151C003C60678006008326854D33E6C600232CC54C8B
S3151C003C706F0000018326854D93861600232CD54C98
S3151C003C80930610006306D704130510008320C10099
S3151C003C90130101016780000093062000E318D7FC7E
S3151C003CA0130500006FF09FFEB726051C83A606E6CB
S3151C003CB0E38806FCB716051C3716051CB72500003D
S3151C003CC0938646F71306C6E69385E5F66FF01FF353
S3151C003CD00327C50763000702B716051C3716051C04
S3151C003CE0B7250000938646F91306C6E6938595F715
S3151C003CF06FF0DFF03727051C930607E603A6C603FD
S3151C003D00130707E6832605086316060A0328C50556
S3151C003D108325050603268506930885052324B800F6
S3151C003D208325050623A205010328460063141801F2
S3151C003D302322B60083250600232405069385F5FF5A
S3151C003D402320B600032647046374D6002322D70417
S3151C003D50130640013386C6023308C7008325C804F0
S3151C003D6003A38500232EB5042320650603A3850023
S3151C003D702322130123A41501930587043386C5004A
S3151C003D802324C50603268804130616002324C80408
S3151C003D900326C70003260608E378D6EE63860700CB
S3151C003DA09306100023A0D700930710002320F704C6
S3151C003DB06FF09FED0326C702832586002328C506C0
S3151C003DC0232AB506032886009305C5062322B800B8
S3151C003DD02324B60013068702232EC5060326870254
S3151C003DE0130616002324C7026FF09FFA130101FF66
S3151C003DF02326110063140502B716051C3716051C6D
S3151C003E00B7250000938606F5130686E8938555FCB0
S3151C003E103725051C1305C586EFC0B00F6380050248
S3151C003E20B716051C3716051CB7250000938606F623
S3151C003E30130686E8938565FC6FF09FFD93072000AB
S3151C003E400347C54D230EF54C8327854D93871700D5
S3151C003E50232CF54C930710006392E70E8327C507A6
S3151C003E6063800702B716051C3716051CB72500000C
S3151C003E70938646F9130686E89385F5FE6FF05FF97F
S3151C003E80B727051C138707E68326C703938707E610
S3151C003E9003270508639A060A0328C5058325050614
S3151C003EA083268506930885052324B80083250506E5
S3151C003EB023A2050103A846006314180123A2B60019
S3151C003EC083A50600232405069385F5FF23A0B600CB
S3151C003ED083A6470463F4E60023A2E7049306400185
S3151C003EE0B306D7023388D7008325C80403A38500ED
S3151C003EF0232EB5042320650603A385002322130164
S3151C003F0023A4150193858704B386D5002324D506DF
S3151C003F1083268804938616002324D80483A6C70008
S3151C003F2083A6060863FCE60063060600130710005A
S3151C003F302320E6001307100023A0E7048320C100FA
S3151C003F40130101016780000083A6C70283A58600B2
S3151C003F502328D506232AB50603A886009305C5067D
S3151C003F602322B80023A4B60093868702232ED506E7
S3151C003F7083A687029386160023A4D7026FF01FFA26
S3151C003F80B727051C938707E623A6070023A8070A5D
S3151C003F9023A6070A23A0070023A2070423AA070AAD
S3151C003FA023AC070A23A0070423AE070A23A2070291
S3151C003FB023A0070C23AE070267800000130101FE35
S3151C003FC0232C81003724051C930704E603A7C7038B
S3151C003FD0232E1100232A9100631C071C83A40700AF
S3151C003FE0130404E69384140023A09700639A040424
S3151C003FF083A7470083A7070063840702B716051C1F
S3151C0040003716051CB71500003725051C938646FD7B
S3151C004010130686CD938545261305C586EFC0606FAE
S3151C00402083274400032784002322E4002324F4006E
S3151C0040308327C40B93871700232EF40AEFF05F8A9D
S3151C004040832744021305000063FEF4048327C4007F
S3151C0040501307400183A70708B387E702B307F400D9
S3151C00406003A787049307100063F4E70013051000E9
S3151C0040708327840B639807002326A100EF000129E0
S3151C0040800325C1008327040463840700130510005D
S3151C0040908320C101032481018324410113010102F0
S3151C0040A0678000009308400113038404832744009F
S3151C0040B083A70700639807009307F0FF2322F402E7
S3151C0040C06FF0DFF88327440083A7C70083A7C700C8
S3151C0040D003A7870563F6E4002322E4026FF01FF7AB
S3151C0040E003A6C70583A6070603A7870613888705A5
S3151C0040F02324D60083A6070623A2C6000326470050
S3151C004100631406012322D7008326070023A407066F
S3151C0041109386F6FF2320D70003A7C707630C070265
S3151C00412083A6070703A647078325470023A4C600C3
S3151C00413003A647072322D6009386C7066394D50099
S3151C0041402322C7008326070023AE07069386F6FFA5
S3151C0041502320D70003A707088326440463F4E6003C
S3151C0041602322E404B3061703B305D40003A6C5042F
S3151C004170B306D300032E860023AEC70423A0C707AD
S3151C004180032E860023220E012324060123A4D70610
S3151C00419083A785049387170023A4F5048327C400EB
S3151C0041A083A70708E3F4E7F0130510006FF01FF070
S3151C0041B003A7870B1307170023ACE70AEF000115AB
S3151C0041C0130500006FF0DFEC130101FF232611001D
S3151C0041D02324810063140502B716051C3716051C1B
S3151C0041E0B71500003725051C9386C604130606D092
S3151C0041F0938555481305C586EFC0A051B727051CE6
S3151C004200938707E61384050083A5C7009385C50617
S3151C004210EFC01FD013050400032481008320C100B6
S3151C00422093051000130101016FF0CFD8130101FF94
S3151C0042302326110063140502B716051C3716051C28
S3151C004240B71500009386C604130686D19385354A96
S3151C0042503725051C1305C586EFC0A04BB727051CC3
S3151C004260938707E683A6C70363900602B716051C49
S3151C0042703716051CB715000093868605130686D1CE
S3151C0042809385754A6FF0DFFC83A6C70013070500EC
S3151C00429037050080B3E5A50023A6B606832647008E
S3151C0042A083A5C7008320C10003A5860023A8D506C5
S3151C0042B083A5C70023AAA50683A5C70003A5860058
S3151C0042C09385C5062322B50083A5C70083A7C7000F
S3151C0042D0130506009385C50623A4B60023AEE70680
S3151C0042E08327070093051000938717002320F700E8
S3151C0042F0130101016FF00FCC1307050063180502AB
S3151C004300B716051C3716051CB71500003725051CE6
S3151C004310130101FF9386C604130686D39385354C79
S3151C0043201305C58623261100EFC0A03EB727051C22
S3151C004330938707E6832647001385050083A5C700D8
S3151C00434003A8860023A8D50683A5C70023AA0507AC
S3151C00435003A8C70083A586001308C80623A2050167
S3151C00436003A8C70083A7C7001308C80623A4060111
S3151C00437023AEE70683270700938717002320F70041
S3151C004380630406001305F0FF930506006FF08FC249
S3151C0043908327C50083A7C70063980702B716051CA9
S3151C0043A03716051CB71500003725051C130101FF20
S3151C0043B093864608130686D59385A54F1305C58691
S3151C0043C023261100EFC0E03403A6070783A6470780
S3151C0043D003A7C7079385C7062324D60083A64707CA
S3151C0043E023A2C600032647006314B6002322D70067
S3151C0043F08326070023AE07069386F6FF2320D700E5
S3151C0044003727051C930607E603A6C603130707E60C
S3151C00441083A607086314060A03A5C70583A5070612
S3151C00442003A68706138887052324B50083A50706DC
S3151C00443023A2A50003254600631405012322B6000A
S3151C0044408325060023A407069385F5FF2320B600C3
S3151C004450032647046374D6002322D704130640019F
S3151C0044603386C6023305C7008325C50483A8850089
S3151C00447023AEB70423A0170783A8850023A208012F
S3151C00448023A40501930587043386C50023A4C70608
S3151C00449083278504938717002324F5048327C700E5
S3151C0044A01305000083A7070863F8D70093071000BD
S3151C0044B02320F70413051000678000000326C7029B
S3151C0044C00325860023A8C70623AAA706032586005C
S3151C0044D02322B5002324B6001306870223AEC70683
S3151C0044E083278702938717002324F7026FF01FFB8D
S3151C0044F03727051C930707E683A7C703130101FF8C
S3151C0045002326110063940702B716051C3716051CD3
S3151C004510B715000093868605130646D793858554E2
S3151C0045203725051C1305C586EFC0A01EB7070080DE
S3151C004530B3E5F5008327C5002320B5006390070269
S3151C004540B716051C3716051CB715000093864608BA
S3151C004550130646D7938535556FF09FFC832545007A
S3151C0045600326850083260501130707E623A4C50039
S3151C004570032685002322B60083A546006394A50066
S3151C00458023A2C60003A606002328050083A5C7058B
S3151C0045901306F6FF23A0C60003A6070683A68706F6
S3151C0045A01388870523A4C50003A607062322B60085
S3151C0045B083A546006394050123A2C60003A6060034
S3151C0045C023A407061306F6FF23A0C60083A6070826
S3151C0045D0032647046374D6002322D704130640011E
S3151C0045E03386C6023305C7008325C50483A8850008
S3151C0045F023AEB70423A0170783A8850023A20801AE
S3151C00460023A40501930587043386C50023A4C70686
S3151C00461083278504938717002324F5048327C70063
S3151C00462083A7070863F6D700930710002320F70417
S3151C0046308320C1001301010167800000B727051CF8
S3151C004640138707E68326C7036388060093071000B3
S3151C0046502320F70467800000938707E623A007043E
S3151C00466003A7470413064001938687043306C70233
S3151C004670B386C60003A6060063040606930640011D
S3151C004680B306D702B385D70003A6C5049386860056
S3151C004690032546003726051C130686EA23A6A50411
S3151C0046A0B306D6006316D50083A6450523A6D504F6
S3151C0046B093064001B306D702B386D70083A6C60469
S3151C0046C083A6C60023A6D70023A2E70403A7C70018
S3151C0046D083A7C7009387070B23A0F11A67800000E6
S3151C0046E09386C6FE63180702B716051C3716051CEB
S3151C0046F0B71500003725051C130101FF93864609D3
S3151C0047001306C6CE9385F53F1305C58623261100D1
S3151C004710EFC020001307F7FF6FF0DFF5B727051C66
S3151C004720938707E603A7C70083A6C7000325C7060A
S3151C00473083A6060803A7C70093075000B387D74074
S3151C0047402326F70667800000B727051C938707E614
S3151C00475003A5C70067800000631A0500B727051C60
S3151C004760938707E603A5C7006780000013050000B2
S3151C00477067800000B727051C938707E61307100000
S3151C00478023A0E70467800000B727051C938707E66C
S3151C00479003A7470B130510006308070003A5C703EF
S3151C0047A0133515001315150067800000630A0510E4
S3151C0047B0130101FF23229100B724051C138704E66D
S3151C0047C08326C700832705082326110083A606080F
S3151C0047D02324810023202101938404E663F8D70C4B
S3151C0047E00327C506634C070003A7C40083260708D6
S3151C0047F0130750003307D7402326E50693064001CE
S3151C004800B387D70213878404B307F70003278506EB
S3151C0048106316F7081309850513040500130509001B
S3151C004820EFC00FF783A7C40003A7440483A7070898
S3151C0048302320F4086374F70023A2F4041307400131
S3151C004840B387E702B384F40003A7C4048326870056
S3151C004850232EE4042320D4068326870023A22601C4
S3151C004860232427013727051C130787EAB307F700FC
S3151C0048702324F40683A784049387170023A4F40433
S3151C004880130510008320C1000324810083244100EA
S3151C00489003290100130101016780000083A7C400DE
S3151C0048A083A707082320F5086FF09FFD8327C70001
S3151C0048B00325450A83A707083335F5006FF09FFCCF
S3151C0048C01305000067800000631405021305000031
S3151C0048D067800000130500008320C10003248100AB
S3151C0048E08324410003290100130101016780000094
S3151C0048F0130101FF23229100B724051C938704E6AC
S3151C00490083A7C7002324810023261100232021010D
S3151C00491013040500938404E66384A702B716051CDA
S3151C0049203716051CB72500003725051C9386460A35
S3151C004930130686DD9385D5A21305C586EFB0705D7B
S3151C00494083A7870A63940702B716051C3716051C2E
S3151C004950B72500003725051C9386C60B130686DD76
S3151C0049609385E5A21305C586EFB0B05A83260508C4
S3151C0049700327450A9387F7FF2324F50AE38CE6F4FD
S3151C004980E39A07F41309850513050900EFC04FE0E8
S3151C0049908327440A130750003307F7402326E406EF
S3151C0049A003A744042320F4086374F70023A2F40429
S3151C0049B013074001B387E70213051000B386F40002
S3151C0049C003A7C60493848404B384F40003268700D7
S3151C0049D083A78604232EE4042320C406032687000B
S3151C0049E093871700232226012324270123249406B8
S3151C0049F023A4F6046FF05FEE630205148326850A72
S3151C004A00130101FF23248100232611002322910078
S3151C004A10232021011304050063940602B716051C06
S3151C004A203716051CB72500003725051C9386C60BB3
S3151C004A30130606DF9385B5A81305C586EFB0704D22
S3151C004A408327450A63F4B7009387050003270408E8
S3151C004A50630AF70C130610006396C60CB724051CD4
S3151C004A60938604E683A6C600938404E663948602B2
S3151C004A70B716051C3716051CB72500003725051C5F
S3151C004A809386460D130606DF938565AA1305C58610
S3151C004A90EFB030488326C4062320F40863C80600FA
S3151C004AA093065000B387F6402326F406930640016E
S3151C004AB03307D702938784043387E700832784064A
S3151C004AC06392E7061309840513050900EFC04FCC52
S3151C004AD08327040803A744046374F70023A2F40481
S3151C004AE013074001B387E702B384F40003A7C40489
S3151C004AF083268700232EE4042320D40683268700DE
S3151C004B0023A22601232427013727051C130787EA1E
S3151C004B10B307F7002324F40683A78404938717009E
S3151C004B2023A4F4048320C1000324810083244100B0
S3151C004B300329010013010101678000006780000042
S3151C004B40630605000325050A67800000130500009F
S3151C004B5067800000630405002320B50A67800000F7
S3151C004B60B727051C938707E603A5C700630805003E
S3151C004B708327850A938717002324F50A678000007C
S3151C004B80B727051C938707E603A7C70B83A7070050
S3151C004B902320E5002322F50067800000631805002A
S3151C004BA0B727051C938707E603A5C7001305450011
S3151C004BB067800000130101FE232C8100232A91002B
S3151C004BC0232441013724051C130A0500232E11003A
S3151C004BD02328210123263101EFE0D060930704E648
S3151C004BE003A7C70A3725051C130404E61307170079
S3151C004BF023A6E70A83A7C700930485EA639A0710CE
S3151C004C00232644010327C40A930710006312F706E0
S3151C004C10130585EAEFC04FAD1305C405EFC0CFAC35
S3151C004C2013050407EFC04FAC13054408EFC0CFAB08
S3151C004C3013058409EFC04FAB9309440C1385090077
S3151C004C40EFC08FAA1309840D13050900EFC0CFA965
S3151C004C5013058402EFC04FA91305C40EEFC0CFA8DD
S3151C004C6013050401EFC04FA8232234012324240179
S3151C004C700327040C83270A08130717002320E40CB8
S3151C004C80232EEA08032744046374F7002322F40442
S3151C004C9013074001B387E7023306F4000327C60453
S3151C004CA0B387F40083268700232EEA042320DA0622
S3151C004CB08325870093068A0523A2D5002324D700C3
S3151C004CC02324FA0683278604938717002324F604D5
S3151C004CD0EFE010548327440B638C07048327C4001E
S3151C004CE003A7070883270A086374F70403248101B2
S3151C004CF08320C10183244101032901018329C100A9
S3151C004D00032A810013054006130101026FF0C078C7
S3151C004D108327440BE39E07F48327C40003A70708D5
S3151C004D2083270A08E3E6E7F4232644016FF05FF4C1
S3151C004D308320C1010324810183244101032901012C
S3151C004D408329C100032A8100130101026780000028
S3151C004D50130101FD232E31019309050013152600AD
S3151C004D6023202103232C4101232A510123286101DD
S3151C004D702326710123261102232481022322910258
S3151C004D80138A050013090600930A0700138B0700F4
S3151C004D90930B0800EF20903B63080508930405005D
S3151C004DA01305004EEF20903A13040500630A05060E
S3151C004DB01306004E93050000EFB0303C930800002C
S3151C004DC01308040093870B0013070B0093860A0035
S3151C004DD01306090093050A0013850900232294086B
S3151C004DE0A30E044CEFE05F8013050400EFF09FDC7C
S3151C004DF0130510008320C10203248102832441026F
S3151C004E00032901028329C101032A8101832A410145
S3151C004E10032B0101832BC1001301010367800000D2
S3151C004E2013850400EF20503C1305F0FF6FF09FFC28
S3151C004E30130101FEB717051C232E1100232C81001C
S3151C004E40232A91009387C70E13070000130600013F
S3151C004E508386070013050100B305E5002380D500F2
S3151C004E60638806001307170093871700E312C7FE13
S3151C004E703724051C130404E63755001C13080410BC
S3151C004E80B707008013070000930600001306800C6A
S3151C004E909305010013058564EFF09FEB630C050277
S3151C004EA09304100063149504EF1090796310950415
S3151C004EB0737004308327C4009387070B23A0F11A51
S3151C004EC09307F0FF2322F402232AA40A23200400BA
S3151C004ED0EF20101C8320C10103248101832441017E
S3151C004EE083A7C11A13010102678000009307F0FF14
S3151C004EF0E312F5FEB716051C3716051CB715000080
S3151C004F003725051C9386460F130606C79385E5EAC7
S3151C004F101305C586EFB0E07F83274501130101FF0A
S3151C004F202326110023248100232291002320210102
S3151C004F3063920702B716051C3716051C3725051C78
S3151C004F40938686101306C6BA9305305E1305C5866E
S3151C004F50EFB0207C130405001305004E13890500D1
S3151C004F60EF20D01E930405001307F0FF6308050409
S3151C004F701306004E93050000EFB030208327440132
S3151C004F80930884011388040023A2F40893071000D5
S3151C004F90A38EF44C032704018326C4000326840035
S3151C004FA0832544000325040093070900EFE0CFE3A3
S3151C004FB013850400EFF01FC0130710008320C100E7
S3151C004FC003248100832441000329010013050700E3
S3151C004FD01301010167800000130101FF23248100D6
S3151C004FE0232291003724051C930405002326110057
S3151C004FF023202101130404E6EFE0D01E6394040071
S3151C0050008324C4001389840513050900EFB05FF8D7
S3151C00501083A7C407638607001385C406EFB05FF732
S3151C0050208327040C938717002320F40C8327C400C2
S3151C0050300327440B63000706639E97049305090028
S3151C0050401305C40EEFB0DFF18327040B93871700FB
S3151C0050502328F40AEFE0D01B8327440B638A070638
S3151C0050608327C400639697068327C40363840704B7
S3151C005070B716051C3716051CB71500003725051C69
S3151C0050809386C6121306C6BD938565911305C58600
S3151C005090EFB020688327C40A9387F7FF2326F40AF8
S3151C0050A0EFE01F84EFE0D01613850400EFE01F8DA0
S3151C0050B06FF09FFA032481008320C10083244100E2
S3151C0050C00329010013054006130101016FF0C03CC2
S3151C0050D08320C1000324810083244100032901008D
S3151C0050E01301010167800000130101FE2326A100A4
S3151C0050F0232E1100EFE0100F0325C10063180500D5
S3151C005100B727051C938707E603A5C70003250508D3
S3151C0051102326A100EFE0D00F8320C1010325C10087
S3151C0051201301010267800000130101FE2326A10062
S3151C005130232E1100EFE0100B0325C1006318050098
S3151C005140B727051C938707E603A5C7000325450A51
S3151C0051502326A100EFE0D00B8320C1010325C1004B
S3151C0051601301010267800000130101FE232E1100AA
S3151C005170232C8100232A9100232821012326310177
S3151C005180232441012322510163140502B716051C71
S3151C0051903716051CB71500003725051C938686F4A3
S3151C0051A0130646C09385259C1305C586EFB060562D
S3151C0051B03724051C130404E60327C40093040500C6
S3151C0051C013050000630A9704EFE0D00183AAC40705
S3151C0051D0032A440003A9840683298400EFE05003B4
S3151C0051E013078402130510006388EA0213052000C6
S3151C0051F06304490363023903930704016310F9042A
S3151C00520003A7C407631A070003C7C44D93061000FF
S3151C0052106384E600130530008320C1010324810149
S3151C00522083244101032901018329C100032A81002A
S3151C005230832A410013010102678000001304C40E77
S3151C00524013054000E30A89FC13051000E31609FC4C
S3151C005250130540006FF05FFC130101FD23261102AC
S3151C005260232481022322910223202103232E310190
S3151C0052709307400063F4B702B716051C3716051CC6
S3151C005280B71500003725051C93868614130646C1E0
S3151C0052909385C5AD1305C586EFB0A0472326B1007F
S3151C0052A013040500EFE000748325C1006318040095
S3151C0052B0B727051C938707E603A4C7000327440AE0
S3151C0052C0638AE50CB724051C938404E66372B70E47
S3151C0052D083A7C400130900006388870083A7C40042
S3151C0052E003A907083339B900832704086304F700A8
S3151C0052F063F4B7002320B4080327C4062322B40A88
S3151C0053006348070013075000B305B7402326B406AD
S3151C00531093064001B387D70213878404B307F700AB
S3151C005320032784066312F70693098405138509006F
S3151C005330EFB01FC68327040803A744046374F70051
S3151C00534023A2F40413074001B387E702B384F400D5
S3151C00535003A7C40483268700232EE4042320D40633
S3151C0053608326870023A23601232437013727051CF1
S3151C005370130787EAB307F7002324F40683A78404DC
S3151C0053809387170023A4F40463060900130540063B
S3151C005390EFF08010032481028320C1028324410282
S3151C0053A0032901028329C101130101036FE0406631
S3151C0053B003A9C40033098940133919006FF0DFF2C1
S3151C0053C0130101FF23248100232291003724051C8D
S3151C0053D0930405002326110023202101130404E64F
S3151C0053E0EFE04060639404008324C40013898405A1
S3151C0053F013050900EFB0DFB983A7C407638607004E
S3151C0054001385C406EFB0DFB8930509001305040124
S3151C005410EFB01FB583C7C44D130710006314F70004
S3151C005420238E044CEFE0C05E8327440B6388070081
S3151C005430EFE0405BEFE0CFCAEFE0805D8327C4005E
S3151C005440639297068327440B638607048327C4034A
S3151C00545063840702B716051C3716051CB715000012
S3151C0054603725051C9386C612130686C29385A5CAC4
S3151C0054701305C586EFB0E029032481008320C100F3
S3151C0054808324410003290100130540061301010171
S3151C0054906FF080000327C40A832704016310F702F8
S3151C0054A0232604008320C100032481008324410099
S3151C0054B003290100130101016780000003248100F8
S3151C0054C08320C1008324410003290100130101012B
S3151C0054D06FF0CF96130101FF2326110023248100B0
S3151C0054E0232291002320210163140502B716051CF3
S3151C0054F03716051CB71500003725051C938686F341
S3151C005500130606C5938525D21305C586EFB0602004
S3151C0055103724051C930704E683A7C70093040500DC
S3151C005520130404E6638EA708EFE0C04B1385040042
S3151C005530EFE00FBE630A05061389840513050900EF
S3151C005540EFB01FA583A70408032744046374F70060
S3151C0055502322F404130740013387E7023306E400D1
S3151C0055608326C60483A5860023AED40423A0B406D2
S3151C00557083A5860023A2250123A426019306840461
S3151C0055803387E60023A4E4060327860413071700C3
S3151C0055902324E6040327C400032707086376F700C1
S3151C0055A013054006EFE0506F032481008320C100E1
S3151C0055B08324410003290100130101016FE04045CA
S3151C0055C08320C10003248100832441000329010098
S3151C0055D01301010167800000130101FF23248100D0
S3151C0055E03724051C2326110023229100130404E6EC
S3151C0055F08327040B639C07008320C10003248100BE
S3151C005600832441001301010167800000EFE0803D07
S3151C0056108327840F83A4C70013858405EFB05F9787
S3151C0056208327C40A9387F7FF2326F40A8327040BD0
S3151C0056309387F7FF2328F40AEFE0803D13850400C7
S3151C005640EFE0CFB36FF0DFFA130101FF2326110041
S3151C005650EFF09FF8EFE0504B6FF09FFF130101FF37
S3151C0056602326110023248100EF1000593724051C22
S3151C005670EFF09F96130404E603250410EFF0DF9564
S3151C005680EFF09FF573700430232A040A032481006B
S3151C0056908320C100130101016F10D01B130101FEF1
S3151C0056A0232C8100232E1100232A9100232821015B
S3151C0056B03724051CEFE00033930704E683A7C703D2
S3151C0056C063940702B716051C3716051CB715000090
S3151C0056D03725051C93860616130646C8938505F9B9
S3151C0056E01305C586EFB0E002130404E68327C40342
S3151C0056F09387F7FF232EF4028327C40363860702CE
S3151C005700130500002326A100EFE080308320C10191
S3151C005710032481010325C1008324410103290101BE
S3151C00572013010102678000000327C40A93070000C7
S3151C005730E30807FC130840019308840413031000B4
S3151C005740032784026316070463840700EFE04F995E
S3151C0057508324840B6380040213091000EFE01F8668
S3151C00576063040500232024059384F4FFE39804FEB8
S3151C005770232C040A83270404E38407F88327C40024
S3151C00578013054006EFE05051130510006FF09FF70C
S3151C0057908327440383A7C70003A6070783A64707D7
S3151C0057A003A7C7072324D60083A6470783254700DC
S3151C0057B023A2C6001386C7066394C5002322D700FE
S3151C0057C08326070023AE07069386F6FF2320D70001
S3151C0057D003A6C70583A6070603A7870613858705A1
S3151C0057E02324D60083A6070623A2C6000326470049
S3151C0057F06314A6002322D7008326070023A40706CA
S3151C0058009386F6FF2320D70003A7070883264404A4
S3151C00581063F4E6002322E404B3060703B305D400AD
S3151C00582003A6C504B386D800032E860023AEC70480
S3151C00583023A0C707032E86002322AE002324A6001E
S3151C00584023A4D70683A685049386160023A4D50411
S3151C0058508326C40083A60608E3F4E6EE232064042C
S3151C0058606FF01FEE631E0500130540066F00000156
S3151C0058708320C10113054006130101026FE0D041CC
S3151C005880130101FE2326A100232E1100EFE00FAD0C
S3151C005890B727051C938707E603A7C70393071000C2
S3151C0058A00325C1006304F702B716051C3716051C31
S3151C0058B0B71500003725051C9386C617130686BF29
S3151C0058C0938505991305C586EFA0B0649305000062
S3151C0058D0EFD05FEEEFF09FDCE30C05F88320C101EF
S3151C0058E01301010267800000130101FE232E110023
S3151C0058F0232C810063140502B716051C3716051CDC
S3151C005900B715000093868619130686BE93851593D4
S3151C0059103725051C1305C586EFA0B05F63900502ED
S3151C005920B716051C3716051CB71500009386C61A34
S3151C005930130686BE938525936FF09FFD1304050001
S3151C0059402326B100EFE08FA1B727051C938707E636
S3151C00595003A5070003A7C703930710008325C100EF
S3151C0059606300F702B716051C3716051CB715000091
S3151C0059709386C617130686BE9385A5936FF05FF9AB
S3151C00598003270400B307B7002320F4006378E5025D
S3151C00599063E8E70213040000EFF05FD0631605000E
S3151C0059A013054006EFE0502F130504008320C101A8
S3151C0059B003248101130101026780000063E4E700F0
S3151C0059C0E37AF5FC930500003385A740EFD09FDEF4
S3151C0059D0130410006FF05FFC130101FE2328210144
S3151C0059E0232E1100232C8100232A9100232631010A
S3151C0059F0232441012322510113090500EFB0A02FD6
S3151C005A009307F00063F4A702B716051C3716051C8E
S3151C005A10B71500003725051C9386461C130646CA77
S3151C005A209385450B1305C586EFA0B04EB724051C00
S3151C005A30938404E6EFE08F9293090000938A84090D
S3151C005A40130AC0F99305090033853A01EFD09FB4B8
S3151C005A5013040500631C05049389C9FEE39449FFDE
S3151C005A6003A5440093050900EFD0DFB2130405001B
S3151C005A70631E050203A5840093050900EFD09FB1A0
S3151C005A80130405006314050293050900138504011C
S3151C005A90EFD05FB013040500631A050093050900D7
S3151C005AA01385C40EEFD01FAF13040500EFF01FBF04
S3151C005AB0130504008320C1010324810183244101B1
S3151C005AC0032901018329C100032A8100832A41007D
S3151C005AD01301010267800000130101FF2326110038
S3151C005AE0232481002322910063140502B716051C8A
S3151C005AF03716051CB71500003725051C938686F43A
S3151C005B00130686CC9385C51E1305C586EFA070406B
S3151C005B1013040500EFE08F8413050400EFF0CFE4B7
S3151C005B2093072000930400006310F50A9304840570
S3151C005B3013850400EFB0CFC5EFD0D06A8327C40706
S3151C005B40638A07001305C406EFB08FC493071000C1
S3151C005B50230FF44CEFD0D06BB727051C938607E6B2
S3151C005B600327040883A64604938707E663F4E60026
S3151C005B7023A2E70493064001B306D702B385D700D8
S3151C005B8003A6C50403258600232EC4042320A406CD
S3151C005B90032586002322950023249600138687045A
S3151C005BA0B306D6002324D40683A6850493041000CA
S3151C005BB09386160023A4D50483A6C70083A60608CD
S3151C005BC063F4E60023A09704EFF05FAD8320C100C9
S3151C005BD00324810013850400832441001301010161
S3151C005BE067800000130101FE232C8100232A9100EB
S3151C005BF023263101232E110023282101138405009D
S3151C005C00930906009304050063180500B727051CB5
S3151C005C10938707E683A4C700938784082322F4008E
S3151C005C2083A70408232094002328F40083A7440890
S3151C005C30232EF40083A7C4092324F40083A7440A53
S3151C005C40232C0400232AF400930750006388F60AC9
S3151C005C50B727051C138707E60327C700138907E622
S3151C005C6063149704232604006386090A83A6440842
S3151C005C701306500A9387060083C507003387D7404F
S3151C005C806386C508935727002320F4028320C1018D
S3151C005C900324810183244101032901018329C100B5
S3151C005CA013010102678000002326D40093073000ED
S3151C005CB0639EF600EFD09FEA83A7C407638807029A
S3151C005CC0930720002326F400EFF05F9DEFD0905140
S3151C005CD003A7C407930789026316F70093071000EE
S3151C005CE02326F400EFD0D0526FF01FF883C7C44DA3
S3151C005CF013071000E31AF7FC6FF09FFC13850400D2
S3151C005D00EFF08FC62326A4006FF01FF693871700AB
S3151C005D106FF09FF6232004026FF05FF7130101FE5C
S3151C005D20232A910083A40500232E1100232C810015
S3151C005D302328210123263101232441012322510139
S3151C005D406380040203A9C500130A06009309050013
S3151C005D509304000013848500930A4002631689028B
S3151C005D608320C10103248101138504000329010139
S3151C005D70832441018329C100032A8100832A41000F
S3151C005D801301010267800000B38554030325C90073
