S00E0000626C696E6B792E737265638D
S3151C0008006F0000106F00C00F6F00800F6F00400F4D
S3151C0008106F00000F6F00C00E6F00800E6F00400E41
S3151C0008206F00000E6F00C00D6F00800D6F00400D35
S3151C0008306F00000D6F00C00C6F00800C6F00400C29
S3151C0008406F00000C6F00C00B6F00800B6F00400B1D
S3151C0008506F00000B6F00C00A6F00800A6F00400A11
S3151C0008606F00000A6F00C0096F0080096F00400905
S3151C0008706F0000096F00C0086F0080086F004008F9
S3151C00088097110100938181B9175101001301817AD7
S3151C00089017050000130505F7136515007310553071
S3151C0008A097120100938282D3171301001303C3F717
S3151C0008B023A002009102E3ED62FE1705000013055A
S3151C0008C00555392BEF00405D02454C000146EF40B3
S3151C0008D0906C29AB82800000000000000000000024
S3151C0008E000000000000000000000000000000000E6
S3151C0008F000000000000000000000000000000000D6
S3151C000900130181F806C216C41AC61EC822CA26CCF2
S3151C0009102ACE2ED032D236D43AD63ED842DA46DC4D
S3151C0009204ADECEC0D2C2D6C4DAC6DEC8E2CAE6CC1D
S3151C000930EACEEED0F2D2F6D4FAD6FED8F3220030A6
S3151C00094096DA9712010083A2A2DB23A0220073254C
S3151C0009502034F32510341356F501630F06062EC0FA
S3151C00096093021000FE0213837200631D6504971226
S3151C000970010083A2E2DD171301000323E3C4FD5E1D
S3151C00098083230300032E430023A0D20123A2C2010A
S3151C00099023A072009712010083A242C3B38E720079
S3151C0009A033BF7E00B30FEE012320D3012322F301B4
S3151C0009B0171101000321C1C1EF30D05F21C5EF30F3
S3151C0009C0707489A01103631C6502171101000321B1
S3151C0009D021C0EF4070583DA091052EC0AD42631951
S3151C0009E05500171101000321A1BEEF30B07119A8E3
S3151C0009F0F322203473231034F3230030D5BFF322A3
S3151C000A002034F5BF17130100032383CF03210300F2
S3151C000A10824273901234D652739002309240A24294
S3151C000A203243C2435244E244724582551256A25680
S3151C000A303257C2575258E25872598649164AA64A24
S3151C000A40364BC64B564CE64C764D865D165EA65E00
S3151C000A50365FC65F13018107730020301300000048
S3151C000A601300000013000000130000001300000018
S3151C000A701300000013000000130000001300000008
S3151C000A8013000000130000001300000013000000F8
S3151C000A9013000000130000001300000013000000E8
S3151C000AA013000000130000001300000013000000D8
S3151C000AB013000000130000001300000013000000C8
S3151C000AC013000000130000001300000013000000B8
S3151C000AD013000000130000001300000013000000A8
S3151C000AE01300000013000000130000001300000098
S3151C000AF01300000013000000130000001300000088
S3151C000B00130181F806C216C41AC61EC822CA26CCF0
S3151C000B102ACE2ED032D236D43AD63ED842DA46DC4B
S3151C000B204ADECEC0D2C2D6C4DAC6DEC8E2CAE6CC1B
S3151C000B30EACEEED0F2D2F6D4FAD6FED8F3220030A4
S3151C000B4096DA9712010083A2A2BB23A0220073256A
S3151C000B502034F32510342EC017110100032141A7A0
S3151C000B60EF305045E30005EAEF30D059171301006A
S3151C000B70032303B903210300824273901234D65215
S3151C000B80739002309240A2423243C2435244E24422
S3151C000B90724582551256A2563257C2575258E258BF
S3151C000BA072598649164AA64A364BC64B564CE64CD3
S3151C000BB0764D865D165EA65E365FC65F130181079F
S3151C000BC07300203013000000130000001300000007
S3151C000BD013000000130000001300000013000000A7
S3151C000BE01300000013000000130000001300000097
S3151C000BF01300000013000000130000001300000087
S3151C000C0097020000938202D0739052301711010094
S3151C000C10032101AF024182403243C2435244E244A3
S3151C000C20724582551256A2563257C2575258E2582E
S3151C000C3072598649164AA64A364BC64B564CE64C42
S3151C000C40764D865D165EA65E365FC65FD652A102DF
S3151C000C5073900230A24213018107828013000000A8
S3151C000C601300000013000000130000001300000016
S3151C000C701300000013000000130000001300000006
S3151C000C8013000000130000001300000013000000F6
S3151C000C9013000000130000001300000013000000E6
S3151C000CA013000000130000001300000013000000D6
S3151C000CB013000000130000001300000013000000C6
S3151C000CC013000000130000001300000013000000B6
S3151C000CD013000000130000001300000013000000A6
S3151C000CE01300000013000000130000001300000096
S3151C000CF01300000013000000130000001300000086
S3151C000D00F322003093F272FF130380181203B3E22E
S3151C000D106200711523205500130585FA10C1211593
S3151C000D20232005009302000063870200711523200F
S3151C000D300500FD12D5BF71150CC182800000000094
S3151C000D400000000000000000000000000000000081
S3151C000D500000000000000000000000000000000071
S3151C000D600000000000000000000000000000000061
S3151C000D700000000000000000000000000000000051
S3151C000D800000000000000000000000004111194591
S3151C000D9006C6EF0070210545EF40500D83A7011ACA
S3151C000DA04111328806C6AA882E873686C847630D27
S3151C000DB00800B717011C9387078DB715011CC6863B
S3151C000DC09385058E7D20D9373718011C9307C88D4E
S3151C000DD01308C88DDDB74111B286014606C67D3F94
S3151C000DE0AA858146014601456F10C05041118145B7
S3151C000DF022C406C62A84EF10E05503A5C1195C5D02
S3151C000E0091C382972285EF4070060111B717011C0A
S3151C000E103717011C22CC130787C1138487C1198C71
S3151C000E2026CA4AC84EC606CE09848144138987C180
S3151C000E30F159631A94006244F240D2444249B249C1
S3151C000E4005616FF03FA9B38734038504CA9783A74E
S3151C000E50C7FF8297F9BF397136D6741006CE3AD8B9
S3151C000E603EDA42DC46DE36C6EF005024F2402161F3
S3151C000E70828039713EDA32D42E86AA8503A5011AE0
S3151C000E8036D6341006CE3AD842DC46DE36C6EF00DD
S3151C000E90F021F24021618280411122C426C23714FE
S3151C000EA0011CB714011C938784C1130484C11D8CB7
S3151C000EB04AC006C60984938484C101496319890200
S3151C000EC0B714011CEFF01FA13714011C938784C1B2
S3151C000ED0130484C11D8C0984938484C10149631D38
S3151C000EE08900B240224492440249410182809C40BE
S3151C000EF0050991048297D9B79C40050991048297EC
S3151C000F00F9BF797106D622D426D24AD04ECE52CCFF
S3151C000F1056CA5AC85EC662C49387B50059476375DC
S3151C000F20F70293F487FF63D20402B1471CC1014543
S3151C000F30B250225492540259F249624AD24A424B46
S3151C000F40B24B224C45618280C144E3E0B4FEAA89BF
S3151C000F50EF40607B9307701F138981C263EC970275
S3151C000F60138784004A974043930687FF93D7340020
S3151C000F706316D40040478907630C87045C405844B9
S3151C000F801444F19BA297D8C614C7D84313671700FD
S3151C000F90D8C3B5A813D794009307F00301CB914788
S3151C000FA063EDE70693D764009387870313871700BF
S3151C000FB00E074A974043930587FF3D456309B400D6
S3151C000FC05840719B33069740635CC508FD1785071F
S3151C000FD00324090193068900938501C36303D40E78
S3151C000FE058403D46719B330597406356A60893E7C8
S3151C000FF014005CC033069400232AC9002328C900A8
S3151C0010009367150054C614C65CC2229708C34E8546
S3151C001010EF40A06F1305840021BFD14763E5E700AD
S3151C0010209307B70561B79307400563E7E70093D7B6
S3151C001030C4009387E7069DBF9307401563E7E70047
S3151C00104093D7F4009387770795B793064055930774
S3151C001050E007E3EDE6F493D724019387C707B9B7F6
S3151C0010605444634806001C44D4C79CC6B307E4001A
S3151C00107029BF3684A1B7232AD9002328D90063485F
S3151C001080050022975C4393E717005CC349B7930698
S3151C001090F01F0328490063EEE6100D831356274004
S3151C0010A085460507B396C6000E074A97B3E60601A2
S3151C0010B02322D9001443130687FF50C414C400C34B
S3151C0010C0C0C613D7274005433313E3000327490043
S3151C0010D0636C6704B376670099E6F19B0603B376E7
S3151C0010E067009107E5DE3D4E93963700CA96368813
S3151C0010F03E850324C80063190415050513773500BE
S3151C001100210865FB13F737006319071803274900E5
S3151C0011109347F3FFF98F2322F9000327490006039F
S3151C0011206364670063180318832B890003A44B00B0
S3151C001130937AC4FF63E79A0033879A40BD4763C11D
S3151C001140E72403A4012E03A7411AFD572694631511
S3151C001150F7164104A2854E85D521FD572A8B6306B9
S3151C001160F51CB3875B016374F50063902B1D938696
S3151C001170011C9842138C011C229798C26394671514
S3151C001180939647016390061483278900569413642B
S3151C0011901400C0C383270C0083A6C12D63F4F6007C
S3151C0011A023AEF12C83A6812D63F1F61823ACF12C0A
S3151C0011B0ADAA13569700914663ECC6029356670078
S3151C0011C093868603138616000E064A96130586FF1B
S3151C0011D010426315C50689860547B316D700B3E6C4
S3151C0011E006012322D90048C410C400C540C6D1BD7F
S3151C0011F0D14663E5C6009306B605E9B793064005D6
S3151C00120063E7C6009356C7009386E60665BF93063A
S3151C001210401563E7C6009356F700938676075DB7BD
S3151C001220130540559306E007E36EC5F89356270150
S3151C0012309386C60741BF10466306C5005442F19A01
S3151C001240E36BD7FE484645B758405044719BB308DC
S3151C001250974063571E0393E714005CC01C44B306F7
S3151C00126094002297D0C71CC6232AD9002328D9004C
S3151C00127093E71800CCC68CC6DCC22320170141BBE1
S3151C00128063CB080022975C4393E717005CC31C449E
S3151C001290D0C71CC6ADBB3284B9BD138786FF94422A
S3151C0012A0FD17E381E6E695BD91070603B376670055
S3151C0012B0E5DE1DBDAA87DDBF8567BD073E94FD77AC
S3151C0012C07D8C49BD03A6411AFD56631FD60623A273
S3151C0012D0611B93757B0089C5A147B385B7402E9BBF
S3151C0012E08567BE955A94FD177D8C338A8540D285B9
S3151C0012F04E85A926FD576314F5005A85014A832796
S3151C0013000C003305654123246901D2972A9A136A76
S3151C0013101A002320FC0023224B01E38D2BE73D47BB
S3151C001320636A570385472322FB0083278900DC4316
S3151C001330F19B3387974063E59700BD4763C2E7047B
S3151C0013404E85EF40803CE5B6B307FB40BA97232099
S3151C001350FC0041B783A74B0013844AFF6198858B19
S3151C001360C18F23A2FB009546B3878B00D4C394C7B9
S3151C001370E37287E293858B004E85EF10C05B19BD27
S3151C0013800324890093E714005CC0B307940023244C
S3151C001390F900EDBEB3C7A5008D8B3307C50081E7E9
S3151C0013A08D4763EFC700AA876369E500828083C601
S3151C0013B0050085078505A38FD7FEE3EAE7FE828035
S3151C0013C093773500BDEBAA879376C7FF138606FE77
S3151C0013D063FCC70683A3050083A2450083AF850073
S3151C0013E003AFC50083AE050103AE450103A385010A
S3151C0013F083A8C501938545029387470203A8C5FFA9
S3151C00140023AE77FC23A057FE23A2F7FF23A4E7FFF6
S3151C00141023A6D7FF23A8C7FF23AA67FE23AC17FF63
S3151C00142023AE07FF75B783C6050085078505A38F01
S3151C001430D7FE93F63700E5FA41BFAA87DDBF904178
S3151C0014409107910523AEC7FEE3EBD7FEE3E7E7F66C
S3151C00145082803D482A876373C8029377F700BDEFE5
S3151C001460ADE5937606FF3D8ABA960CC34CC30CC7F2
S3151C0014704CC74107E36BD7FE11E28280B306C84016
S3151C0014808A069702000096966780A6002307B70077
S3151C001490A306B7002306B700A305B7002305B700AC
S3151C0014A0A304B7002304B700A303B7002303B700A4
S3151C0014B0A302B7002302B700A301B7002301B7009C
S3151C0014C0A300B7002300B700828093F5F50F93960F
S3151C0014D08500D58D93960501D58D61B7939627000A
S3151C0014E09702000096968682E78086FA9680C11738
S3151C0014F01D8F3E96E374C8F8A5B7397122DC2A8481
S3151C0015002E852EC606DED52CB717011C9387079190
S3151C0015103ED485473ED61C10B2453ECA89473ECCB2
S3151C0015201C5C2AD205052ED02ACE0C4491E72285B6
S3151C0015302EC6EF10A013B2458397C500139727013B
S3151C001540634B07008966F851D58F2396F500F9770A
S3151C001550FD17F98FFCD150082285EF106058FD57F6
S3151C00156011E1A947F25062543E8521618280AA8509
S3151C00157003A5011A59B7411122C42E848C4126C2D7
S3151C00158006C6AA8491C1C53FA2852244B2402685BF
S3151C001590924441016F10203A83A7011A638FA70852
S3151C0015A07C45011122CC26CA4AC806CE4EC62A84C0
S3151C0015B081441309000885EB2C4081C52285EF1058
S3151C0015C080378325841495CD9304C414638B9502AC
S3151C0015D003A905002285EF100036CA85C5BFA6954E
S3151C0015E08C4189E991046C44E39B24FF2285EF100E
S3151C0015F08034D9B783A905002285EF10C033CE8568
S3151C001600CDB76C4881C52285EF10E0321C5C99CFA2
S3151C0016105C5C228582978325042E89C922856244B7
S3151C001620F240D2444249B2490561B1B7F240624424
S3151C001630D2444249B249056182808280411122C44A
S3151C00164026C2AA842E8506C623A40140EF40600943
S3151C001650FD576316F50083A7814091C39CC0B24019
S3151C00166022449244410182800327C52D15EB41116A
S3151C0016709305000822C406C62A84EFF09F88232EF1
S3151C001680A42CFD5709C9930705082320050011053D
S3151C001690E31DF5FE8147B24022443E85410182800E
S3151C0016A081473E858280411126C206C622C44AC095
S3151C0016B07D47AA846376B700594718C17D5531A862
S3151C0016C08327C52D32892E8499CF9315240003A414
S3151C0016D0C42DA295884123A02501B24022449244E0
S3151C0016E002494101828049376DD1C9BFFD4763F666
S3151C0016F0B700D9471CC17D5582808327C52D011192
S3151C00170022CC06CE2E862A8491C713972500BA971B
S3151C001710984319EB228532C6F928AA85228562448C
S3151C0017203246F24005614DA0854601456308D70047
S3151C001730FD566319D700D9471CC00545F2406244C3
S3151C001740056182802E8523A0070002970145FDB7FF
S3151C001750FD4763F4B7007D5582808327C52D411153
S3151C00176022C426C206C6AA842E849DC783A7C42D5E
S3151C0017701317240005453E971C4395C3FD56094582
S3151C001780638FD70085460D45638BD70022852320A2
S3151C00179007008297014521A0C13D69D97D55B240FC
S3151C0017A02244924441018280AA8503A5011A3DBFA9
S3151C0017B02E86AA8503A5011AFDB503A5011A6DB5CA
S3151C0017C0AA8503A5011A69B7411122C426C2AA8497
S3151C0017D02E85B28506C623A40140EF30D06BFD577B
S3151C0017E06316F50083A7814091C39CC0B240224476
S3151C0017F09244410182806F305069AA87850703C7CE
S3151C001800F7FF6DFF3385A7407D1582801C467971D5
S3151C00181022D406D626D24AD04ECE52CC56CA5AC846
S3151C0018205EC662C4328485E3232206000145B2509B
S3151C001830225492540259F249624AD24A424BB24B42
S3151C001840224C45618280FC512E8913972701635ACD
S3151C001850070404422A8AFD5B1C4499E7014523249C
S3151C001860040023220400E1B783A9440003AB04004F
S3151C001870814A13DC290063CB8A011C4493F9C9FFF6
S3151C001880A104B389374123243401F9B783250B00FE
S3151C0018904A865285EF00D079110B63077501850ABC
S3151C0018A0D9BFEF10E02365BF7D5555BF6971232451
S3151C0018B0811223202113232E3111232C411123267F
S3151C0018C0111223229112232A511123286111232636
S3151C0018D0711123248111232291112320A111EEDFE2
S3151C0018E0AA892E84328A368909C51C5D99E3EF00C4
S3151C0018F0F0578317C40013972701634B07008966AB
S3151C0019007850D58F2316F400F977FD17F98F7CD004
S3151C0019108357C400A18BA5C31C48B1CF8357C400F1
S3151C0019202947E98B6390E7068317E40063CC070419
S3151C001930CA865286A2854E85EF00D005AA8B8320C7
S3151C001940C112032481125E858324411203290112CC
S3151C0019508329C111032A8111832A4111032B0111E9
S3151C001960832BC110032C8110832C4110032D0110D5
S3151C001970FE5D55618280A2854E85EF00500A59DDB9
S3151C001980FD5B75BF130BC104DAC082C482C25A87C1
S3151C00199002D202CE02D002D4814BD28493065002CC
S3151C0019A083C7040099C3639CD706B38A44416388E2
S3151C0019B00A02A6472320470123225701D697BEC4F5
S3151C0019C096479D4621078507BEC263D9F60090003F
S3151C0019D0A2854E85253D631705765A87D69B83C7F8
S3151C0019E00400638A0778138A1400A30D0102FD54B0
S3151C0019F0814A014D294C930CA0021308A005A5454C
S3151C001A0003460A00050A930606FE6364D866B717E2
S3151C001A10011C8A0693874791BE969442828685044A
S3151C001A2041B7B716011C938606AA36D293760D02C9
S3151C001A306382064E1D09137989FF83280900832CAE
S3151C001A404900130C890093761D0081CEB3E69801DC
S3151C001A5089CA93060003230ED102A30EC102136D7D
S3151C001A602D00137DFDBFADA44E853AC8EF10004274
S3151C001A7048412AD459332AD04E85EF1020410845B7
S3151C001A80825742472ACEB5DB2DD983460500B5D6EB
S3151C001A90136D0D409DB78346B103A5F29306000254
S3151C001AA0A30DD10299BF136D1D0081BF832A0900A6
S3151C001AB01109E3D40AF4B30A5041136D4D0035BF26
S3151C001AC09306B002F1BF03460A0093061A00631878
S3151C001AD09603832409001306490063D30400FD54AE
S3151C001AE03289368A19BFB3848403850603C6F6FF7A
S3151C001AF0AA94130506FDE3F8A5FE368A29B7814488
S3151C001B00CDBF136D0D08D5BDD286814AB38A8A0313
S3151C001B10130606FD8506B29A03C6F6FF130506FDD7
S3151C001B20E3F6A5FED9BF03460A0093068006631694
S3151C001B30D600050A136D0D20C9B5136D0D0475BDB0
S3151C001B4003460A009306C0066316D600050A136DE3
S3151C001B500D0265B5136D0D014DB583260900130CD9
S3151C001B604900A30D01022306D1088544814C1309A3
S3151C001B70C10869A2136D0D0193760D02B9C61D0924
S3151C001B80137989FF83280900832C4900130C8900CB
S3151C001B9063DE0C00B3081041B336100133039041C9
S3151C001BA0B30CD3409306D002A30DD102FD56639805
S3151C001BB0D43863950C3EA54663E2163F938808030A
S3151C001BC0A307110F1309F10ED9A693760D01130C59
S3151C001BD0490091C68328090093DCF84155BF9376CA
S3151C001BE00D048328090089C6C20893D80841EDB79D
S3151C001BF093760D20F5D2E20893D88841F1BF13766F
S3151C001C000D0283260900110919C693D7FB4123A08F
S3151C001C107601DCC259B313760D0101C623A07601E9
S3151C001C20ADBB13760D0409C6DE872390F600B5B34B
S3151C001C3093770D20E5D7DE872380F600B9BB136D9D
S3151C001C400D0193760D029DCE1D09137989FF8328FC
S3151C001C500900832C4900130C8900137DFDBF8146A6
S3151C001C60A30D01027D56638FC42C6A86B3E59801C9
S3151C001C70137DFDF76398052C6383043E0546639626
S3151C001C80C62C2DBF93760D01130C490081C68328E3
S3151C001C90090031A093760D0489C683580900814C2E
S3151C001CA06DBF93760D20E5D683480900CDBFE1763E
S3151C001CB093C60683231ED10283280900B716011C6E
S3151C001CC0938646AB130C4900814C136D2D0036D2FE
S3151C001CD0894679B7A30D0102FD56130C4900032949
S3151C001CE009006388D41C268681454A853AC8EF10AC
S3151C001CF00039814C424719C1B304254166CC63D3D4
S3151C001D009C0026CC8346B10381C6E24785073ECCA0
S3151C001D10937D2D0063850D00E24789073ECC9377A2
S3151C001D204D083ED6A1E7E247B386FA406350D0047D
S3151C001D30B717011CC148138807A81D431646232044
S3151C001D400701A64505061305870063CCD83254C384
S3151C001D50AE96B6C4B2C29D462A8763D9C600900009
S3151C001D60A2854E856534631F053C5A878346B1039D
S3151C001D709DC61306B10310C30546964650C3264698
S3151C001D808506B6C20506B2C41D4621076359D60090
S3151C001D909000A2854E859D3C6316053A5A8763873B
S3151C001DA00D02701810C30946964650C32646850672
S3151C001DB0B6C20906B2C41D4621076359D600900057
S3151C001DC0A2854E85A134631F05365A87B2579306E2
S3151C001DD000086395D704E247B38DFA406350B005FB
S3151C001DE041489D489646B717011C938707A91CC3F3
S3151C001DF02646850693058700634EB82B2322B7011A
S3151C001E00B29DEEC4B6C21D462E876359D6009000FD
S3151C001E10A2854E85E53A631705325A87B38C9C40DA
S3151C001E2063509005C14D1D489646B717011C9387F4
S3151C001E3007A91CC3264685069305870063C19D2BEF
S3151C001E4023229701B29CE6C4B6C21D462E8763594F
S3151C001E50D6009000A2854E85553A6315052E5A87E5
S3151C001E60A64644C323202701B6949646A6C41D46FF
S3151C001E708506B6C221076359D6009000A2854E85F9
S3151C001E8071326311052C5A8793774D00639C072684
S3151C001E90624763D3EA00BA8AA647D69B99C79000C5
S3151C001EA0A2854E85A532631F052882C262895A8780
S3151C001EB0EDB44A853AC89132AA84814C42473DBD4D
S3151C001EC0136D0D0193760D0281CE1D09137989FFC1
S3151C001ED083280900832C4900130C8900854649B3C5
S3151C001EE093760D01130C490081C68328090031A085
S3151C001EF093760D0489C683580900814CC5B7937621
S3151C001F000D20E5D683480900CDBFB716011C938664
S3151C001F1046AB21BE93760D01130C490081C683285E
S3151C001F20090031A093760D0489C683580900814C9B
S3151C001F3019BE93760D20E5D683480900CDBF6A8667
S3151C001F4085462DB30546E386C6C609466382C60E7C
S3151C001F5094199395DC0113F6780093D83800130670
S3151C001F600603B3E8150193DC3C00A38FC6FEB3E55C
S3151C001F7098011389F6FF8DE193751D0089C9930598
S3151C001F8000036306B600A30FB9FE1389E6FF9C196E
S3151C001F90A68CB38427419DB3CA8665BF93770D4033
S3151C001FA0814D130E010F3ECC468529468146E6859A
S3151C001FB01309FEFF3AC846C472CAEF101052524E9D
S3151C001FC0E24713050503A30FAEFE850D4247A24843
S3151C001FD0B1C3F24783C60700639EB6039307F00F8F
S3151C001FE0638AFD0263950C00A54763F517038257A8
S3151C001FF0A2553AC83309F9403E864A8546C4EF10B5
S3151C0020000065F247814D424783C61700A24899C214
S3151C00201085073ECE4685E685294681463AC8EF1099
S3151C002020F015AE8CC98DAA884247B5D14A8EADBF74
S3151C0020301309010F925793F6F8007D19BE9683C6B5
S3151C002040060093D848002300D9009396CC01B3E828
S3151C002050160193DC4C00B3E69801E9FE0DBF13098B
S3151C002060010F95F6058A05D693060003A307D10E24
S3151C00207091BE630206102306C108A30D01024A8CF9
S3151C002080EDB4C10523221701AEC4B2C26351C3020B
S3151C0020909000A2854E851AC836CA42C646C4EFF0C1
S3151C0020A0EFF64243D2463248A24849ED5A85C1163C
S3151C0020B02A8769B1410623220701B2C4B6C263DD71
S3151C0020C0D8009000A2854E8542C646C4EFF00FF498
S3151C0020D03248A24825E9DA85C11D2E8721B341065F
S3151C0020E02322B701B2C4B6C2635BD8009000A28596
S3151C0020F04E8542C6EFF08FF1324829E5DA85C11CC0
S3151C0021002E871DB3E247B384FA40E35390D8B71722
S3151C002110011CC14C138907A89D4D964723202701F6
S3151C002120A646850763C89C0244C3B694A6C4BEC211
S3151C0021301D47E35FF7D49000A2854E85EFF00FEDA7
S3151C002140E30805D48357C40093F70704638907FE85
S3151C0021506FF01F83C10623229701B6C4BEC2210796
S3151C00216063D9FD009000A2854E85EFF02FEA79F920
S3151C0021705A87C1145DB7A647F1D79000A2854E8534
S3151C002180EFF0CFE8C1B7B2862E86AA8503A5011A41
S3151C0021906FF0CFF183D7C500130101B8232C8146FC
S3151C0021A0F59B231AF100FC512E84232A9146BED698
S3151C0021B083D7E50023282147232E1146231BF10034
S3151C0021C0DC4D2A8902D03ED2DC512C003ED69C180E
S3151C0021D03EC43ECC930700403EC83ECEEFF00FED0A
S3151C0021E0AA84634705002C004A85BD2611C1FD54EF
S3151C0021F08357410193F7070499C78357C40093E794
S3151C00220007042316F4008320C1470324814726852F
S3151C0022100329014783244147130101488280411148
S3151C00222026C2AA8403A5011A22C406C62E8401C589
S3151C0022301C5D91E325290317C40093170701C1836D
S3151C00224093F68700A1EE93F6070189EEA5479CC07D
S3151C002250136707042316E4007D55B24022449244BA
S3151C00226041018280918B8DC70C5889C99307040440
S3151C0022706384F5002685C125232804028357C400E0
S3151C0022802322040093F7B7FD2316F4001C481CC038
S3151C0022908357C40093E787002316F4001C4889EF74
S3151C0022A08357C4001307002093F707286386E700AB
S3151C0022B0A2852685EF00F04D8357C40013F717003F
S3151C0022C005C75C4823240400B307F0401CCC1C48FB
S3151C0022D00145C1F78317C40013F707083DDF93E7D1
S3151C0022E007042316F4008DBF898B014791E35848D8
S3151C0022F018C4F1BF03A7C1192A838327871489E74A
S3151C0023009307C7142324F714D8437D487D5563428D
S3151C002310E804931827006309030233851701232455
S3151C002320C50803A8871805463316E6003368C80097
S3151C00233023A407192324D51089466317D30083A623
S3151C002340C718558E23A6C7180507D8C3C6978CC7AA
S3151C0023500145828079714ECE83A9C11952CC56CAC9
S3151C0023605AC806D622D426D24AD05EC6AA8A2E8A35
S3151C002370054B83A4891481C8C0401309F4FF0A04C1
S3151C0023802694635D0900B250225492540259F249B4
S3151C002390624AD24A424BB24B4561828063090A00AB
S3151C0023A083274410638547017D197114D9BFD84012
S3151C0023B05C407D176316270323A22401F5D783A649
S3151C0023C0841833172B0183AB4400F98E89EE829750
S3151C0023D0D84083A78914E31E77F9E387F4FC51BF21
S3151C0023E023220400E1BF83A6C41883254408758FE5
S3151C0023F001E756858297E9BF2E858297D1BF8397C1
S3151C002400C500011122CC13970701418326CA06CEAB
S3151C0024104AC84EC693768700AA842E84E5EE0567C5
S3151C00242013070780D98FD8412396F500634DE0002A
S3151C002430D85D634AE0000145F2406244D2444249F9
S3151C002440B2490561828018547DD703A9040093966E
S3151C002450370123A004004C4C63D50608304883572B
S3151C002460C400918B99C75C401D8E1C5899C35C5C3B
S3151C0024701D8E1C544C4C814626858297FD578356CF
S3151C002480C400631DF5009C407547636FF70637074C
S3151C002490402005073357F700058B3DC7FD7793870B
S3151C0024A0F77F1848F58FC207C18718C02316F4009A
S3151C0024B0232204001397370163580700FD57631442
S3151C0024C0F5009C4091E328C80C5823A02401A5D5EF
S3151C0024D0930704046384F5002685B1292328040286
S3151C0024E099BF0146854626850297FD572A86E3181D
S3151C0024F0F5F69C40ADD775476385E700594763944D
S3151C002500E70423A0240105BF93E706042316F40061
S3151C0025107D551DB783A90501E38F09F003A90500A5
S3151C0025200D8B23A0350133093941814711E3DC4961
S3151C0025301CC4E35220F15C504C4CCA864E86268540
S3151C00254082976347A0008357C40093E707047DBFA7
S3151C002550AA993309A940F1BF011122CC06CE2A84BF
S3151C00256011C51C5D81E72EC61122B2458397C50095
S3151C00257091C722856244F240056151B5F24062441E
S3151C002580014505618280AA8509E903A5C119B725FC
S3151C002590001C938585556F00500803A5011A6DBF55
S3151C0025A001458280B745001C9385C5826F00F006E5
S3151C0025B0411122C406C62A842316B5002317C5005A
S3151C0025C023200500232205002324050023220506BB
S3151C0025D023280500232A0500232C050021468145B6
S3151C0025E01305C505EFE0FFE6B737001C93872747A1
S3151C0025F01CD0B737001C9387674A5CD0B737001CC2
S3151C0026009387474F1CD4B737001C9387A75240CCDF
S3151C0026105CD4B24022444101828001458280411132
S3151C00262026C2130680069384F5FFB384C4024AC0EF
S3151C0026302E8922C406C693854407EFE09F8C2A8404
S3151C00264001CD2320050023222501310508C413864C
S3151C00265084068145EFE0FFDF2285B2402244924486
S3151C00266002494101828003A5C1192DBF1C5DA9E742
S3151C0026704111B727001C06C622C49387475A5CDD46
S3151C0026808D472322F52E9307C52E2A842324F52E47
S3151C0026902320052E484101469145193F084405460D
S3151C0026A0A545393748440946C945193785471CDCB1
S3151C0026B0B2402244410182808280411126C283A4F9
S3151C0026C0C1194AC006C69C5C22C42A8999E3268580
S3151C0026D0713F9384042E8044DC40FD1763D60700AB
S3151C0026E09C4089CB8440C5BF0317C40005C713048F
S3151C0026F08406E5B791454A851D3788C065F5B147FF
S3151C0027002320F90001442285B24022449244024906
S3151C00271041018280C17785072322040623200400F9
S3151C00272023220400232404005CC423280400232A37
S3151C0027300400232C0400214681451305C405EFE043
S3151C0027405FD123280402232A0402232204042324FF
S3151C002750040455BF828082808280828003A5011A70
S3151C002760B725001C9385055A81AD03A5011AB7250B
S3151C002770001C9385A56189A5797122D426D252CCD9
S3151C00278006D64AD04ECE56CA5AC82A8AAE84328437
S3151C002790EF0080768547631CF5029387F4FF1307C9
S3151C0027A0E00F6366F702A6872306F10085490149F7
S3151C0027B0FD5A294B631039052685B2502254925472
S3151C0027C00259F249624AD24A424B456182809306BB
S3151C0027D0C40526866C005285EF00B076FD57AA8983
S3151C0027E0E317F5FC8357C40093E707042316F4008C
S3151C0027F07D55E1B77800B307270183C507001C4444
S3151C002800FD171CC463D70700184C63CCE700638A0A
S3151C00281065011C401387170018C02380B7000509E3
S3151C00282051BF22865285EF009065E31A55FFC9B742
S3151C0028308317C60013972701634A070078528966D7
S3151C002840D58F2316F6008967D98F7CD235B701112F
S3151C00285022CC03A4011A26CA06CEAA842E8619C423
S3151C0028601C5C89E722852EC61135324622856244B8
S3151C002870F240A685D244056165BF79714AD03719E5
S3151C002880011C22D426D24ECE2EC606D6AA891309E0
S3151C0028900904EF20506783278900B245C443856726
S3151C0028A01384F7FEF1980D8C269431807D14320426
S3151C0028B0635DF4004E85EF2050650145B2502254ED
S3151C0028C092540259F2494561828081454E85EFE05A
S3151C0028D0FFD683278900A697E31EF5FCB305804027
S3151C0028E04E85EFE0BFD5FD576316F50281454E8533
S3151C0028F0EFE0DFD403278900BD46B307E540E3DBE1
S3151C002900F6FA83A6411A93E717005CC3158D23A01C
S3151C002910A11C4DB783278900818C93E41400C4C382
S3151C00292083A7011C4E853384874023A0811CEF207E
S3151C002930D05D054561B76384051A411122C426C2C0
S3151C0029402A84AE8406C6EF20105C03A5C4FF371686
S3151C002950011C938684FF9377E5FF13080604B38551
S3151C002960F600D8410328880013060604719B0589C6
S3151C002970631FB802BA9709E903A784FF998E8C4690
S3151C002980BA97D846D8C50CC713E71700D8C203A7F1
S3151C002990811A14C663E6E70083A5012E2285F13D44
S3151C0029A022852244B240924441016F201056D8C160
S3151C0029B0014815E103A584FFB718011C93888804F8
S3151C0029C0898EAA978846630C150783A8C6002326FA
S3151C0029D0150123A4A8003385E5004841058905E1B6
S3151C0029E0BA979845631F08043715011C13058504FF
S3151C0029F06319A70454CA14CAD8C698C6054813E74F
S3151C002A001700D8C23387F6001CC3E31B08F813074C
S3151C002A10F01F636CF7028D8393D527400547331748
S3151C002A20B7004C4285078E07B2974D8F58C2984304
S3151C002A30138687FFD0C698C694C354C795B7054856
S3151C002A4059BFCC454CC798C55DBF93D59700114758
S3151C002A50636BB70213D76700130787039305170029
S3151C002A608E05B295138585FF8C416314B506854783
S3151C002A7009873397E7005C425D8F58C2C8C68CC66F
S3151C002A8014C5D4C531BF51476365B7001387B50557
S3151C002A90F1B7130740056367B70013D7C7001307C1
S3151C002AA0E7066DBF130740156367B70013D7F7001A
S3151C002AB01307770765B7130540551307E007E36F40
S3151C002AC0B5F813D727011307C70749BF8C456306FB
S3151C002AD0B500D841719BE3EBE7FEC84545B782803C
S3151C002AE01C4681E781473E85828083D7C5005D7180
S3151C002AF0A2C4CAC056DA86C6A6C24EDE52DC5AD854
S3151C002B005ED662D466D26AD06ECEA18BB28A2E8471
S3151C002B102A89C9CF9C49D9CB8357C40003AA0A006A
S3151C002B2013F727006316070E858B638F0714814BDB
S3151C002B300145014B81496383092419E94E86A94540
S3151C002B405A85352B938B190001C50505B30B6541B9
S3151C002B505E8C63F379014E8C08401C48544863F61E
S3151C002B60A7220444B69463D28423DA8526862D23B1
S3151C002B701C40A2854A85A6971CC0EFF0FF9D631DCD
S3151C002B80050EB38B9B40054563970B00A2854A85B2
S3151C002B90EFF09F9C75E183A78A00269BB389994019
S3151C002BA0B384974023A49A00D9F491A0A2854A85A0
S3151C002BB0EFF0EFE6FD572DD125A883290A008324C3
S3151C002BC04A00210AFDD8A68663739B00DA865C50F0
S3151C002BD04C4C4E864A8582976350A00A83A78A006E
S3151C002BE0AA99898C3385A74023A4AA0061FD814735
S3151C002BF0B640264496440649F259625AD25A425B5A
S3151C002C00B25B225C925C025DF24D3E856161828004
S3151C002C10370B008081498144134B0BC065B7032BCE
S3151C002C200A0083244A00210AFDD80357C4001C4409
S3151C002C300840937607206387060E63EAF4089376AA
S3151C002C400748D1C6832D44010C48B38DBC03B30978
S3151C002C50B54093871900A697B3CDAD0363F3FD006A
S3151C002C60BE8D1377074045C3EE854A85EFE06FA9F5
S3151C002C701DE5B1472320F9008357C40093E70704D9
S3151C002C802316F400FD57ADB7B70B008013CCEBFF32
S3151C002C90014B814493CBFBFF8D4C094D71B70C48FE
S3151C002CA04E862AC6EFE00FEF0357C400B2471377D0
S3151C002CB0F7B7136707082316E4001CC8232AB401B8
S3151C002CC0CE97B38D3D411CC02324B401A687A6898B
S3151C002CD063F3F400A68708403E86DA853EC66D2E51
S3151C002CE0B24718441D8F18C41840BA971CC083A736
S3151C002CF08A004E9BB3843441B389374123A43A01DD
S3151C002D00E39409F2EDB56E864A85F126AA8755F538
S3151C002D100C484A850D318357C40093F7F7F72316E1
S3151C002D20F40081BF18486365A700544863F7D402B2
S3151C002D30BE8963F3F400A6894E86DA85B12E1C443F
S3151C002D401840B38737414E971CC418C0CDF3A285D3
S3151C002D504A85EFF07F8041DD05B7DE8763639C0003
S3151C002D60A687B3C7D70258504C4C5A864A85B38699
S3151C002D70D7020297AA89E34CA0F6FDBD032B0A00D5
S3151C002D8083294A000145210A7DB3634BDC005C5054
S3151C002D904C4C5A864A858297AA84E344A0DEE9BD38
S3151C002DA06286DA85D52C1C44E284B38787411CC411
S3151C002DB01C40E2971CC0F1B3797122D44AD052CC84
S3151C002DC056CA06D626D24ECE1304052E0149054AEE
S3151C002DD0FD5A19E8B25022544A8592540259F249B6
S3151C002DE0624AD24A45618280044483294400FD1903
S3151C002DF063D409000040F1BF83D7C400637CFA008A
S3151C002E008397E400638857012EC626858295B245B2
S3151C002E103369A90093848406D9BF797122D44AD018
S3151C002E2052CC56CA5AC85EC606D626D24ECE2A8A58
S3151C002E30AE8A1304052E0149054BFD5B09ECB25005
S3151C002E4022544A8592540259F249624AD24A424B4A
S3151C002E50B24B45618280044483294400FD1963D426
S3151C002E6009000040E1BF83D7C400637BFB00839746
S3151C002E70E40063877701A6855285829A3369A90087
S3151C002E8093848406E1BF1305050F828083A7011A6C
S3151C002E90C85B19E1138501031305050F828083A7FF
S3151C002EA0011AC85B19E1138501031305050F8280FE
S3151C002EB0411126C206C622C4B714011C15C6B71575
S3151C002EC0011C9385C5AC328532849D2511CD938515
S3151C002ED084AC2285B12D09C9B715011C9385C58DF6
S3151C002EE02285B925814719E1938784ACB2402244D7
S3151C002EF092443E854101828083A7011ADC5B99E3DB
S3151C002F009387010303C5871282800325C50E828021
S3151C002F1083A7011ADC5B99E39387010303A5C70EFC
S3151C002F2082802E86AA8503A5011A59B71D71A6CAC9
S3151C002F30AE848395E500A2CC86CE328463DC050084
S3151C002F4083D7C40023A0060093F7070895EB9307C5
S3151C002F5000400DA8500836C6EF00B016B246E34135
S3151C002F6005FE6247BD670565F98F7977BA9793B7F2
S3151C002F7017009CC2930700401CC01305058029A09E
S3151C002F80930700041CC00145F6406644D6442561DF
S3151C002F90828083D7C500011122CC06CE26CA4AC818
S3151C002FA0898B2E8489CF930734041CC01CC8854783
S3151C002FB05CC8F2406244D244424905618280740076
S3151C002FC03000AA84A537A2452A892685EFD07FF32F
S3151C002FD001ED8317C40013F7072061FFF19B93E7EC
S3151C002FE027002316F400C1B7B727001C9387475A3E
S3151C002FF0DCDC8357C40008C008C893E707082316FF
S3151C003000F400A2475CC8B24791CF8315E40026851D
S3151C003010EF00100E01C98357C400F19B93E71700FC
S3151C0030202316F4008357C4003369F90023162401C0
S3151C00303049B783A7011ADC5B99E39387010303A3B2
S3151C003040470E028385E141116C00014511CA795571
S3151C00305081CA834706009CC1034506003335A00080
S3151C00306041018280014519CA795589CA83470600E0
S3151C0030709CC1034506003335A0008280828093F5EF
S3151C003080F50F2A966314C500014582808347050007
S3151C003090E38DB7FE0505FDB73307C50063E6A5003E
S3151C0030A0AA876313F7028280B387C5001D8EE37956
S3151C0030B0F5FEB386C70091E28280FD1783C6070022
S3151C0030C07D172300D700F5B7850583C6F5FF850751
S3151C0030D0A38FD7FEF9B7397122DC06DE2E8426DAD9
S3151C0030E04AD84ED652D456D25AD05ECE62CCB2856F
S3151C0030F011EC6254F250D2544259B259225A925A85
S3151C003100025BF24B624C21616FD0BFDFAA8A32C6CA
S3151C003110EF20605FB2458326C4FFD9479389B5006B
S3151C003120930B84FF13F9C6FF63F7370313FB89FF61
S3151C00313063540B02B14723A0FA00014AF2506254B1
S3151C0031405285D2544259B259225A925A025BF24BB8
S3151C003150624C21618280414BE36EBBFC635069313A
S3151C003160371C011C13070C041047B3872B01D843CB
S3151C003170130C0C046308F6001375E7FF3E954841D3
S3151C003180058959E5719BB309E900631CF602130511
S3151C0031900B0163C1A908DA9BB389694123247C010D
S3151C0031A093E9190023A23B018329C4FF5685228A71
S3151C0031B093F91900B3E96901232E34FFEF20E0547B
S3151C0031C0B5BF63C96905D8479C47D8C71CC703A7A1
S3151C0031D04B00B38669413D46058BB3873B01637142
S3151C0031E0D628B369EB0023A23B01B3856B0193E69A
S3151C0031F01600D4C1D843A105568513671700D8C33A
S3151C003200EFF06FF35685EF204050138A8B003DB7C5
S3151C00321001478147858A6396061A832484FFB384F3
S3151C0032209B4003AA4400137ACAFF4A9A6382071278
S3151C003230B30947016311F60A93070B0163CAF91018
S3151C0032409844DC441306C9FF138A84005CC798C7DC
S3151C00325013074002636DC706CD46D28763FCC600C2
S3151C0032601C409CC45C40DCC4ED4763EFC7022104D0
S3151C00327093870401184098C35840D8C3184498C76C
S3151C003280B3876401B38969412324FC0093E91900BF
S3151C00329023A23701DC40858BB3E9670123A23401E5
S3151C0032A05685EF20804659BD1C449CC85C44DCC82E
S3151C0032B06306E6004104938784016DBF1C486104C4
S3151C0032C09CCC0327C4FF93870402D8CC65B7A28580
S3151C0032D05285D93375B763CD6907D8479C47130602
S3151C0032E0C9FF13858400D8C71CC79844DC445CC737
S3151C0032F098C79307400263EAC7044D47637CC7001F
S3151C003300184098C45840D8C46D47636DC700210443
S3151C003310138504011C401CC15C405CC11C441CC5BB
S3151C003320A68B75B5184498C85844D8C86306F600C9
S3151C003330410413858401F9BF1C48138504026104EA
S3151C0033409CCC8327C4FFDCCCF1B7A285B133C9BFA3
S3151C00335063496A07DC4498441306C9FF1385840035
S3151C0033605CC798C79307400263EAC7044D47637C52
S3151C003370C700184098C45840D8C46D47636DC70031
S3151C0033802104138504011C401CC15C405CC11C4407
S3151C0033901CC5D28971B7184498C85844D8C8630646
S3151C0033A0F600410413858401F9BF1C4813850402E9
S3151C0033B061049CCC8327C4FFDCCCF1B7A285E93918
S3151C0033C0C9BF5685EFD0FFB32A8AE30B05EC8327CA
S3151C0033D0C4FF130785FFF99BDE976398E7008329D3
S3151C0033E0C5FF93F9C9FFCA99DDB31306C9FF930735
S3151C0033F0400263E2C7064D47637CC704184018C1E8
S3151C003400584058C16D476361C70213078400930770
S3151C0034108500144394C35443D4C3184798C7A28544
S3151C0034205685EFF04FD1ADBD184418C5584458C544
S3151C0034306307F6001307040193070501D9BF1C484F
S3151C003440130784011CC954489307850154C9D1B775
S3151C003450AA8722877DBFA2858131D1B7CA8985BB40
S3151C003460B3E9E90023A23B01D84313671700D8C36D
S3151C00347051BB411122C42E848395E50006C6F92151
S3151C003480634905003C48AA973CC8B2402244410106
S3151C00349082808357C4007D777D17F98F2316F4002D
S3151C0034A0EDB70145828083D7C500011122CC26CAFF
S3151C0034B04AC84EC606CE93F70710AA842E843289B4
S3151C0034C0B68991C78395E5008946014681298357AC
S3151C0034D0C4007D777D17F98F2316F4008315E4004D
S3151C0034E06244F240CE864A86B24942492685D24477
S3151C0034F00561F9AC411122C42E848395E50006C6EC
S3151C0035003129FD570357C400631BF500FD77FD17D2
S3151C003510F98F2316F400B24022444101828085674C
S3151C003520D98F2316F40028C8FDB78395E500C9ACCE
S3151C0035303367B500FD530D8B79E7378E7F7F130EEE
S3151C003540FEF710419441B372C6013363C601F29271
S3151C003550B3E262006397720C6318D6065041D441DD
S3151C003560B372C6013363C601F292B3E2620063987A
S3151C003570720A631BD60410459445B372C6013363A5
S3151C003580C601F292B3E262006391720A631ED6020E
S3151C0035905045D445B372C6013363C601F292B3E2F9
S3151C0035A06200639A72086311D60210499449B37279
S3151C0035B0C6013363C601F292B3E2620063937208DA
S3151C0035C05105D105E30FD6F613170601939706018D
S3151C0035D0631CF7001357060193D706013305F74002
S3151C0035E09375F50F91E982804183C1833305F740BA
S3151C0035F09375F50F91E182801377F70F93F7F70F09
S3151C0036003305F74082800346050083C60500050581
S3151C00361085056313D60065FA3305D64082801105ED
S3151C0036209105E312D6FE014582802105A105E31C06
S3151C003630D6FC014582803105B105E316D6FC014551
S3151C00364082804105C105E310D6FC014582802A878C
S3151C00365011E28280850583C6F5FF930717001308C0
S3151C003660F6FFA38FD7FE89E632976396E700828022
S3151C0036703E874286F1BF8507A38F07FEFDB7011162
S3151C00368022CC26CA4AC806CE4EC62A89AE843284A5
S3151C00369009C51C5D99E3EFE07FFD1C4C1CC48357D8
S3151C0036A0C400A18BB5C31C48A5C38317C40093F9DA
S3151C0036B0F40F93F4F40F13972701635507061C4860
S3151C0036C008401D8D5C486347F500A2854A85EFE0DE
S3151C0036D0BFE821E11C440505FD171CC41C401387CB
S3151C0036E0170018C0238037015C486389A7008357DD
S3151C0036F0C400858B85C3A947639EF400A2854A85B1
S3151C003700EFE09FE501C931A0A2854A85EFE03FB1F4
S3151C00371049DDFD54F240624426854249D244B249F1
S3151C003720056182800967D98F2316F4007C5079774E
S3151C0037307D17F98F7CD061B72E86AA8503A5011A41
S3151C0037403DBF83A7011A011122CC26CA06CE2A84A4
S3151C003750B684DC5B85E999E39387010383A7070E8F
S3151C003760A68601464C0022858297FD576317F500F5
S3151C00377023A004009307A0081CC0F2406244D24454
S3151C0037800561828099E39387010383A7070EA686AA
S3151C003790D9BFB2862E86AA8503A5011A5DB783A753
S3151C0037A0011ADC5B99E39387010303A3070E0283CB
S3151C0037B091CD9307F00F63F7C7009307A0081CC1B0
S3151C0037C07D5582802380C500054582800145828007
S3151C0037D0411122C426C2AA842E85B285368606C607
S3151C0037E023A40140EF10506CFD576316F50083A708
S3151C0037F0814091C39CC0B2402244924441018280C4
S3151C003800411122C426C2AA842E8506C623A40140C1
S3151C003810EF109065FD576316F50083A7814091C391
S3151C0038209CC0B2402244924441018280411106C68A
S3151C00383022C426C24AC089E90149B24022444A85AB
S3151C0038409244024941018280AA842E8409C51C5DCA
S3151C00385099E3EFE0BFE18317C400F9DFA285268553
S3151C003860EFE0FFB95C542A8999C74C4C2685829790
S3151C003870635305007D598357C40093F7070889C70E
S3151C0038800C482685EFF02F8B0C5891C9930704041E
S3151C0038906385F5002685EFF00F8A232804026C4009
S3151C0038A091C52685EFF02F8923220404EFE09FEAB9
S3151C0038B023160400EFE03FEA49B7AA8503A5011ABF
S3151C0038C0B5B7411122C426C2AA842E85B28506C666
S3151C0038D023A40140EF10F05AFD576316F50083A789
S3151C0038E0814091C39CC0B2402244924441018280D3
S3151C0038F0411122C426C2AA842E8506C623A40140D1
S3151C003900EF10F058FD576316F50083A7814091C34D
S3151C0039109CC0B2402244924441018280411122C47F
S3151C00392026C2AA842E85B285368606C623A40140E5
S3151C003930EF101057FD576316F50083A7814091C3FE
S3151C0039409CC0B2402244924441018280411122C44F
S3151C00395026C2AA842E85B285368606C623A40140B5
S3151C003960EF105054FD576316F50083A7814091C391
S3151C0039709CC0B2402244924441018280AE87328868
S3151C003980B6882A83639606203707011C1307077D12
S3151C00399063FEC50AC1666374D60A9306F00FB3B6F6
S3151C0039A0C6008E06B358D600469703470700BA963C
S3151C0039B013070002158F19CBB397E700B356D50032
S3151C0039C03318E600B3E5F6003313E500135508017A
S3151C0039D0B3D7A5021316080141829356030133F788
S3151C0039E0A502B305F6024207D98E3E8763FCB600D4
S3151C0039F0C2961387F7FF63E7060163F5B6001387C4
S3151C003A00E7FFC2968D8EB3F7A6024203135303013A
S3151C003A10B3D6A602C20733E36700B305D6023685C2
S3151C003A20637BB30042931385F6FF636603016374DD
S3151C003A30B3001385E6FF4207498F81454DA8B70899
S3151C003A400001C146E36016F7E146A9BF01E68546BB
S3151C003A5033D8C602C166637ED8089306F00F63F39B
S3151C003A600601A148B356180136978346070013076B
S3151C003A700002C696158F49E7B3870741854513563D
S3151C003A8008019318080193D808019356030133F7CC
S3151C003A90C702B3D7C7024207D98E3385F8023E87C1
S3151C003AA063FCA600C2961387F7FF63E7060163F55E
S3151C003AB0A6001387E7FFC296898EB3F7C602420398
S3151C003AC013530301B3D6C602C20733E36700B38898
S3151C003AD0D8023685637B130142931385F6FF636612
S3151C003AE00301637413011385E6FF4207498F3A8568
S3151C003AF08280B7060001C148E366D8F6E1489DB747
S3151C003B003318E800B3D5D7003313E500B356D500F8
S3151C003B1013550801B397E70033F7A502B3E8F6007F
S3151C003B2093170801C18313D60801B3D5A502420712
S3151C003B30518FB386B7022E86637CD70042971386B5
S3151C003B40F5FF636707016375D7001386E5FF429788
S3151C003B50B306D74033F7A602C20893D80801B3D6DA
S3151C003B60A6024207B385D702B3671701368763FCE3
S3151C003B70B700C2971387F6FF63E7070163F5B70023
S3151C003B801387E6FFC2978D8F93150601D98DC5BD88
S3151C003B9063E2D514416763FEE6021308F00F333760
S3151C003BA0D8000E073708011C1308087DB3D5E6009C
S3151C003BB0C29503C80500930500023A98B3850541D2
S3151C003BC085E10547E3E5F6F23335C50013471500D5
S3151C003BD039BFB70500014147E3E6B6FC6147D9B7D3
S3151C003BE033570601B396B600D98E93DE060133D73A
S3151C003BF00701B378D703B397B7003358050133636E
S3151C003C00F80093970601C183135803013316B600B7
S3151C003C103357D703C20833E80801338FE7023A8EBD
S3151C003C20637CE8013698130EF7FF6367D80063754B
S3151C003C30E801130EE7FF36983308E841B378D8033A
S3151C003C403358D803C208B38E070393170301C183E5
S3151C003C50B3E7F800428763FCD701B6971307F8FF52
S3151C003C6063E7D70063F5D7011307E8FFB697420E43
S3151C003C70B387D741C16E3367EE001388FEFF3373DB
S3151C003C80070193580701337806014182330E03035B
S3151C003C903388080393560E013303C30242939A9644
S3151C003CA0B388C80263F30601F69813D60601B298C8
S3151C003CB063E01703E39317D9C167FD17FD8EC20690
S3151C003CC0337EFE003315B500F2968145E371D5E2CD
S3151C003CD07D17A5B38145014719BDB2883687AA87CA
S3151C003CE02E886398061CB706011C9386067D63F80E
S3151C003CF0C50A4163637E66081303F00F6373C30032
S3151C003D0021473353E6009A9603CE0600130300029E
S3151C003D103A9E3303C341630C0300B3956500335EBF
S3151C003D20C501B31866003368BE00B317650013D609
S3151C003D3008013377C80213950801418193D6070100
S3151C003D403358C8024207D98E3308050363F80601A7
S3151C003D50C69663E5160163F30601C696B38606414D
S3151C003D6033F7C602C207C183B3D6C602B306D50251
S3151C003D7013150701C98F63F8D700C69763E51701AA
S3151C003D8063F3D700C697958F33D56700814582802C
S3151C003D90370300014147E36666F661479DB701E6B6
S3151C003DA00546B3581603416663F3C8081306F00F9D
S3151C003DB063731601214733D6E800B29603CE06007C
S3151C003DC0130300023A9E3303C34163190306B385EA
S3151C003DD0154113D7080113950801418113D6070114
S3151C003DE0B3F6E502B3D5E502C206D18EB305B5021C
S3151C003DF063F8B600C69663E5160163F3B600C6966D
S3151C003E00B385B640B3F6E502C207C183B3D5E50256
S3151C003E10B305B50213950601C98F63F8B700C6979B
S3151C003E2063E5170163F3B700C6978D8FB1BF3706DD
S3151C003E3000014147E3E1C8F86147B5BFB398680084
S3151C003E4033D7C501B3176500335EC50113D5080109
S3151C003E50B376A702B3956500336EBE009395080131
S3151C003E60C18113560E013357A702C206D18E338762
S3151C003E70E50263F8E600C69663E5160163F3E60001
S3151C003E80C6963386E640B376A602420E135E0E0134
S3151C003E903356A602C2063386C502B3E5C60163F8CD
S3151C003EA0C500C69563E5150163F3C500C695918DDE
S3151C003EB00DB7E3EED5EC416763F5E604930EF00F00
S3151C003EC033B7DE000E073703011CB3D8E600130315
S3151C003ED0037D9A9883CE0800130E0002BA9E330EF9
S3151C003EE0DE4163170E0263E4B6006369C500B307BF
S3151C003EF0C540958D3335F5003388A5403E85C28572
S3151C003F0079B5B70800014147E3EF16FB614765BF6A
S3151C003F103357D601B396C601D98EB357D50133D7BD
S3151C003F20D501B395C501CD8F93D506013373B70261
S3151C003F30139F0601135F0F0193D807013316C601A1
S3151C003F403315C5013357B7024203B368130133084F
S3151C003F50EF023A8363FC0801B6981303F7FF63E785
S3151C003F60D80063F508011303E7FFB698B388084128
S3151C003F70B3FFB802B3D8B802C20FB3051F03139F11
S3151C003F800701135F0F0133EFEF014687637CBF0008
S3151C003F90369F1387F8FF6367DF006375BF001387BF
S3151C003FA0E8FF369F4203C1683363E3009387F8FF3B
S3151C003FB013580601330FBF40B375F30013530301A7
S3151C003FC0F18F3387F502B307F302B3850503330379
S3151C003FD00303BE95135807012E986373F800469386
S3151C003FE0C167FD17935508013378F80042087D8F89
S3151C003FF09A9542976366BF00631BBF006379E50011
S3151C0040003306C7403337C700958D998D32873307E2
S3151C004010E5403335E500B305BF40898DB397D5011F
S3151C0040203357C70133E5E700B3D5C5018DB39307F5
S3151C00403085007D575CC118C55CC51CC923200500BD
S3151C00404082802328050082805C419847DCC198C584
S3151C00405098474CC38CC71C4188C985071CC18280E4
S3151C0040609841FD5693078500631ED7001C49D8430B
S3151C004070D8C10CC79CC5CCC31C4188C985071CC1AB
S3151C0040808280B687D4439042E37DC7FECDB75441A8
S3151C00409018451C4998C6184554C3D4436393A600B7
S3151C0040A0D8C39843232805007D1798C3884382806C
S3151C0040B0011106CE22CC2AC6EF00F0303245005D37
S3151C0040C0EF001032F2401335140062440561828001
S3151C0040D041114AC03289304126C2045D22C406C63B
S3151C0040E02A840DE21C41014591E70844EF00F022A9
S3151C0040F023240400850404DCB24022449244024971
S3151C00410041018280631009024841EFD0AFA85C4090
S3151C00411038400145BA9718445CC0E3EDE7FC1C40E7
S3151C0041205CC0C9BF4845EFD0EFA63C40584414407C
S3151C004130B307F0403E9758C46375D7001844BA9726
S3151C0041405CC489470145E317F9FACDD4FD145DB764
S3151C004150AA87B0432E8501CED84794473297D8C735
S3151C0041606364D7009843D8C7CC476FD0AFA2828070
S3151C004170411122C42A8426C24AC006C6EF00B024B6
S3151C0041808344540413094402E204E184634B900201
S3151C004190FD57A302F404EF00B024EF00D0228344A1
S3151C0041A0440413090401E204E18463489002FD57A8
S3151C0041B02302F4042244B2409244024941016F0096
S3151C0041C030225C50F1D74A85EF00700919C1EF0007
S3151C0041D01013FD14E204E18455BF1C48E9DB4A8533
S3151C0041E0EF00F00719C1EF009011FD14E204E18401
S3151C0041F06DBF011106CE22CC0DE1B706011C370698
S3151C004200011C3705011C9386C60813060600930578
S3151C004210301013054509EFC07FB82A842EC6EF005F
S3151C004220901A3040585C1440232C0402B307E60253
S3151C00423054C03387F600918FB6975CC4FD57230292
S3151C004240F404A302F404B24518C48DE11C4881CBC6
S3151C00425013050401EF00B00019C173000000EF0044
S3151C0042603018F2406244054505618280130504013D
S3151C0042707D3B13054402653BDDB7011106CE22CCFE
S3151C00428026CA4AC80DE1B706011C3706011C3705AC
S3151C004290011C9386860613064601930560171305B3
S3151C0042A04509EFC0BFAFAA843305B5022EC63289B5
S3151C0042B013050505EF10E0312A84B24511C985E1C5
S3151C0042C008C02CC044DC85452285253723062405D9
S3151C0042D02285F2406244D24442490561828093079A
S3151C0042E005051CC1F9BF397106DE22DC26DA4AD85F
S3151C0042F04ED652D456D25AD032C60DE1B706011C40
S3151C0043003706011C9386C608130686029305A02E43
S3151C0043103705011C13054509EFC05FA82A84AE8921
S3151C004320B68491ED3C4181CFB706011C3706011CB2
S3151C0043309386860F130686029305B02ED1BF894736
S3151C0043406391F402585C8547630DF700B706011CA0
S3151C0043503706011C93860615130686029305C02E86
S3151C00436045BFEF00407A19EDB247014989CFB70620
S3151C004370011C3706011C9386061A13068602930532
S3151C004380F02E79B70149894A7D5A130B04018DA871
S3151C004390B24789E7EF00D004014559A86315090007
S3151C0043A02808EF00E074EF00B003E52EEF00B00123
S3151C0043B083474404E207E18763944701230204040C
S3151C0043C083475404E207E18763944701A30204046C
S3151C0043D0EF0010016C002808EF00D05035EDEF00FF
S3151C0043E0807E185C5C5C631FF704EF00607FB2453F
S3151C0043F05A85F12B2285AD3BEF00703439C905492E
S3151C004400EF00607C185C5C5C6364F700E39254F913
S3151C0044102686CE8522856D395C5089C713054402D4
S3151C004420EF00E06319C173000000EF00607B0545D7
S3151C004430F2506254D2544259B259225A925A025BD1
S3151C00444021618280EF00C07922851D33EF00302F59
S3151C0044507DB77300000065B72285193BEF00302E2F
S3151C00446025BF011106CE22CC26CA4AC84EC60DE16E
S3151C004470B706011C3706011C9386C6081306C6031D
S3151C0044809305C03B3705011C13054509EFC01F9159
S3151C0044902A84328991ED3C4181CFB706011C37062F
S3151C0044A0011C9386860F1306C6039305D03BD9BF02
S3151C0044B009475C5C6390E6020547638DE700B70617
S3151C0044C0011C3706011C938606151306C6039305A5
S3151C0044D0E03B4DBF185C6366F70089470145639353
S3151C0044E0F602834454041C5C368622859399840107
S3151C0044F0EFF01FBE93D98941FD576396F9025C50B4
S3151C00450089EB0545F2406244D2444249B2490561F1
S3151C004510828013054402A1236DD5E30409FE854759
S3151C0045202320F900F9BF8504E204E184A302940464
S3151C004530C9BF397106DE22DC26DA4AD84ED652D4D9
S3151C00454056D232C60DE1B706011C3706011C9386EE
S3151C004550461F13068605930540503705011C130597
S3151C0045604509EFC0BF832A84AE8991ED3C4181CFBA
S3151C004570B706011C3706011C938606201306860502
S3151C00458093058050D9BF412319EDB247014989CF04
S3151C004590B706011C3706011C9386061A13068605E8
S3151C0045A09305D0505DBF01497D5A930A44029DA0D4
S3151C0045B0B24781E73525014549A06314090028083F
S3151C0045C0052B392DF92A012583474404E207E18787
S3151C0045D0639447012302040483475404E207E187DA
S3151C0045E063944701A3020404E52B6C002808EF0022
S3151C0045F0702F3DE12285EFF0BFAB29C9B245568528
S3151C004600F9262285EFF0DFB6EF00701319E173006F
S3151C004610000005494D2B045CC1DCCE852285FD14AA
S3151C004620EFF01FB304DC1C4899C7130504010529C8
S3151C00463019C1730000006D230545F2506254D25413
S3151C0046404259B259225A925A216182802285EFF030
S3151C0046503FB2EF00D00E75BF2285EFF07FB1EF00A1
S3151C004660100E2285EFF0DFA44DD5B1B793868134A9
S3151C004670014793878134214603A806006317080067
S3151C0046800E07BA978CC3C8C382800507A106E3151B
S3151C004690C7FE8280011122CC2EC62A8432C406CEC5
S3151C0046A01D23834744047D57B245E207E187224612
S3151C0046B06394E70023020404834754047D57E207EE
S3151C0046C0E1876394E700A30204042EC632C4092BB7
S3151C0046D01C5CB245224681E7130544021D2E228529
S3151C0046E06244F24005616FF0BFA81387812E1C43FC
S3151C0046F094439387813081E67D5798C38280184303
S3151C004700584758475843D5BF797126D24AD0138982
S3151C004710412E22D44ECE2A8483A9813183270900B7
S3151C0047200325090006D6A382074811052EC6EFF0FD
S3151C0047301F967D579387412EB2456310E40291CD97
S3151C004740832509002254B25092540259F24991050C
S3151C0047501385812845616FF03F8F98434E9440C363
S3151C004760637E340103A5C12E22548C43B25092544D
S3151C0047700259F249910545616FF09F8E03A5812E62
S3151C0047808C439105EFF0DF8D9387813098436373DB
S3151C004790E40080C3B250225492540259F249456136
S3151C0047A082809387812F9843050798C3828003A52F
S3151C0047B08131828083A7812F797106D622D426D295
S3151C0047C04AD04ECE52CC56CA5AC85EC662C466C2BF
S3151C0047D0639107129387813103AA0700050A23A058
S3151C0047E0470163140A049387812E9843184315C303
S3151C0047F0B706011C3706011C85653705011C938607
S3151C0048004644130606299385A5AB13054534EFC00C
S3151C004810EFD81387C12E9443104390C314C39387B8
S3151C004820C1309843050798C3C935938781309C438B
S3151C004830938981309384811E938A412E014463752A
S3151C004840FA0483A70A005147DC57B387E702BE94D4
S3151C0048509840854763F3E700054483A7013199E334
S3151C004860EF00B07683A7C13191C305442285B250AF
S3151C004870225492540259F249624AD24A424BB24BD2
S3151C004880224C924C45618280D14C9387812E984351
S3151C004890184309E7FD5723A0F90065B79C43DC477D
S3151C0048A003A9C70083274900E367FAFE130B4900D7
S3151C0048B05A85EFF0CFFD8327890289C71305890125
S3151C0048C0EFF0EFFC938701300325C902984363730D
S3151C0048D0A70088C333059503DA852695EFF0CFF636
S3151C0048E083A70A000327C902DC57E360F7FA0544CD
S3151C0048F069BF9387013198430144050798C3EF00AC
S3151C004900D06CADB703A7812F9387C13101C705476B
S3151C00491098C38280411122C406C623A00700938730
S3151C004920412E9C4337A7A5A51307575A9C5B138496
S3151C004930412E9043631BE600D4436398C6009847F8
S3151C0049406315D700DC476388E70008400C40938555
S3151C0049504503EF0010671387013018431386013097
S3151C0049609387811E5148B3060703B385D700884138
S3151C0049701DC9C841A106BE964841C8C16314D500CD
S3151C0049805441D4C1D146B306D702B240B697DC43D4
S3151C004990DC471CC018C21C4022449387870523A0F1
S3151C0049A0F11A4101828015E3B706011C3706011C6A
S3151C0049B085653705011C938646421306462A938550
S3151C0049C025BF13054534EFC06FBD7D1769BF411167
S3151C0049D006C622C415E1B706011C3706011C8565EF
S3151C0049E03705011C9386063F1306862B9385B5C097
S3151C0049F013054534EFC08FBA2E8483A5412EE105DD
S3151C004A00EFF00FE622852244B240854541016FF046
S3151C004A10BFCF011106CE22CC15E1B706011C370605
S3151C004A20011C85653705011C9386063F1306062D5A
S3151C004A30938565C313054534EFC04FB62E8483A5F5
S3151C004A40412E32C6E105EFF02FE0324611C27D54ED
S3151C004A5022856244F240B28505616FF0FFCA5C454F
S3151C004A60011122CCC04706CE15E0B706011C37063D
S3151C004A70011C85653705011C9386C64E1306062F39
S3151C004A80938565C613054534EFC04FB19305840164
S3151C004A902E852EC6EFF0AFDF83A7812FB245B1E777
S3151C004AA0930544002E852EC6EFF06FDE93870130EA
S3151C004AB048549843B2456373A70088C3D14733054E
S3151C004AC0F5029387811E3E95EFF00FD883A7412EE2
S3151C004AD058540145DC5763F6E700054723AEE13021
S3151C004AE00545F24062440561828013854127E9BF72
S3151C004AF083A7C1301CC183A781315CC18280054755
S3151C004B0023AEE130828083A74131054591C703A5B9
S3151C004B10812F133515000605828001E90145828027
S3151C004B200145F240624405618280011122CC03A436
S3151C004B30412E06CE6303A402B706011C3706011CD0
S3151C004B4085653705011C9386C64B1306463293852D
S3151C004B50450213054534EFC06FA47C4895E3B706A0
S3151C004B60011C3706011C85653705011C9386464DBD
S3151C004B70130646329385550213054534EFC00FA222
S3151C004B8054543848FD177CC8E38CE6F8D1FB9305D2
S3151C004B9044002E852EC6EFF08FCF28489547B24588
S3151C004BA0898F1CCC93870130984348D46373A70024
S3151C004BB088C3D1473305F5029387811E3E95EFF0D6
S3151C004BC0AFC80545B9BF7370043083A7413181CB8B
S3151C004BD09387412E94439C43F8420507F8C2828072
S3151C004BE083A7413199CF9387412E9843784311CBA4
S3151C004BF094439C43F8427D17F8C2FC4399E37360C7
S3151C004C000430828079714ECE931926005AC82A8B9D
S3151C004C104E8526D24AD056CA5EC606D622D452CC59
S3151C004C20AE84B68B3A89BE8AEF00B01AAA8D0DCD1A
S3151C004C302A8A13058048EF00D0192A842A8E15C1AA
S3151C004C40232845034E869305500A5285EFC07F8064
S3151C004C501C58F119BE9993F909FF89E8230A040225
S3151C004C6005A85285EF00D01D7D5565AAA68593071C
S3151C004C70440313870401838605002380D70083869B
S3151C004C80050089C685058507E317B7FEA30104043D
S3151C004C90914763F327011149130A440052852326C1
S3151C004CA0240323282405232A0404EFF08FB91305B3
S3151C004CB08401EFF00FB99547B3842741232004489C
S3151C004CC013068042814500C804CC40D0232204042C
S3151C004CD02302044813058405EFC0AFF79307443439
S3151C004CE07CCC9307C43A3CD0930744417CD085477F
S3151C004CF02320F410B737CDAB9387E7302324F41069
S3151C004D00B7176DE6938747232326F410B7E70500EC
S3151C004D109387C7EE2328F410AD47231AF410A30279
S3151C004D2004485E86DA854E85EFB09FFD08C0638415
S3151C004D300A0023A08A00EFF01FE9130FA00A93872D
S3151C004D40012F9843050798C31387412E1843938454
S3151C004D50412E1389811E938941316313070E80C02E
S3151C004D60984385476312F7061385811EEFF02FAC17
S3151C004D7013054901EFF0AFAB13058902EFF02FAB1A
S3151C004D801305C903EFF0AFAA13050905EFF02FAA07
S3151C004D90138BC1241385C124EFF06FA9938A0126B6
S3151C004DA013850126EFF0AFA813854127EFF02FA836
S3151C004DB01385C129EFF0AFA713858128EFF02FA724
S3151C004DC023A4612F23A6512F1387C12F1C438507AC
S3151C004DD01CC33CC4228F4A8F032F0900032F0400D7
S3151C004DE0130F000A93870130485498436373A70036
S3151C004DF088C3D1473305F502D2854A95EFF0CFA477
S3151C004E00130FE00C130FB00BEFF09FDD83A7090007
S3151C004E10054581CB9C40D8575C546374F7007300DE
S3151C004E200000AA8E130FF00F014FB2502254925459
S3151C004E300259F249624AD24A424BB24B45618280C0
S3151C004E4083A70900D1F39C40D8575C54E3EEE7F6E0
S3151C004E5080C09DBFB705011C3755001C41119387A7
S3151C004E604130014781461306800C93858540130506
S3151C004E70E5ED22C406C60544EFF0DFD863198502AA
S3151C004E807D26631685027370043083A7412E224447
S3151C004E909387870523A0F11A7D5723A4E13023AA03
S3151C004EA0A130B24023AC013041016F00806DFD572B
S3151C004EB06313F502B706011C3706011C8565370509
S3151C004EC0011C938606411306C6269385B5831305D6
S3151C004ED04534EFB0BFECB24022444101828001113F
S3151C004EE026CA4EC652C406CE22CC4AC89384C129B1
S3151C004EF01389412F8327090081E7EF00700CCDBF72
S3151C004F00EFF07FCCDC44C04713054400EFF02F982C
S3151C004F101387012F1C43FD171CC383270900FD178C
S3151C004F202320F900EFF0DFCB13058405EFC0CFE695
S3151C004F300858EF00E0702285EF00807055BF39716C
S3151C004F4022DC1384812F1C4006DE26DA4AD84ED674
S3151C004F5052D456D25AD05ECE95E3B706011C3706FC
S3151C004F60011C85653705011C9386C64F130606284A
S3151C004F709385A58A13054534EFB05FE2EFF0BFC4F5
S3151C004F801C40FD171CC01C408DC301452AC6EFF0F2
S3151C004F903FC5F25062543245D2544259B259225A34
S3151C004FA0925A025BF24B2161828083A7012F014436
S3151C004FB0E9DF938441271389811E514A854B9C4006
S3151C004FC08DEF19C0EFF06FF2138701310443138480
S3151C004FD0013189CC8549EFF0EFFD09C59387C131B5
S3151C004FE023A03701FD14E5F82320040083A7C13153
S3151C004FF0C9DF73000000054551BFDC44C0471305DB
S3151C0050008401EFF0CF88930544002E852EC6EFF061
S3151C0050100F889387013048549843B2456373A700A1
S3151C00502088C3330545034A95EFF00F829387412EBB
S3151C0050309C435854DC57E364F7F89387C13123A08B
S3151C0050407701B5BF011106CE22CC0DE1B706011CB6
S3151C0050503706011C9386863A1306C6259305F04F20
S3151C0050603705011C13054534EFB05FD381EDB70638
S3151C005070011C3706011C9386C63B1306C6259305E1
S3151C0050800050F9BF83A7812F81CFB706011C3706B5
S3151C005090011C9386463D1306C62593051050C9B7B9
S3151C0050A02A842EC6EFF0EFEF1840B24503A58131D6
S3151C0050B0B307B7001CC0637DE50063EDE700EFF0A6
S3151C0050C01FE819E173000000F2406244056182800A
S3151C0050D063E4E700E375F5FE81453385A740EFF0F1
S3151C0050E0AFE2F1BF011106CE22CC15E1B706011CB9
S3151C0050F03706011C85659386C63F1306C630938505
S3151C005100F5CD3705011C13054534EFB03FC989EDB4
S3151C005110B706011C3706011C856593864643130694
S3151C005120C630938505CEF1BF2AC62EC4EFF0BFA9A3
S3151C00513003A781319387412E94433245A24583C6EA
S3151C005140564891C69C43A3820748054405A89C4122
S3151C005150FD5601446384D70203A6C130032805000B
S3151C00516054416305C8000544637AD700158F637ED6
S3151C005170F700998F9CC1EFF0BF970144EFF05FA633
S3151C0051802285F24062440561828023A0050075BF1A
S3151C005190411122C406C626C24AC01384C132EFF08E
S3151C0051A09FA21C4095EF1389012B1385012BEFE061
S3151C0051B01FE89384412C1385412CEFE05FE723A065
S3151C0051C021330146C145114523A29132EFF0EF8AE6
S3151C0051D008C019C5B705011C9385455BEFF00FC9BF
S3151C0051E02244B2409244024941016FF07F9F411113
S3151C0051F006C64CC108C9AA876361B602184D158E2E
S3151C00520005456379E6009385470003A54132EFE027
S3151C0052103FE50145B240410182806375D6000545D4
S3151C005220E3FAD5FE9385470003A50132CDB741119C
S3151C00523006C6EFF0FFF583A7C1328DE3B706011C46
S3151C0052403706011C3705011C9386C65E1306C6531A
S3151C005250930530111305455FEFB05FB4B705011C0C
S3151C0052603755001C93870133114781461306800C62
S3151C005270938585651305A538EFF0DF9861D1B2409B
S3151C00528041018280797106D622D40DE1B706011C34
S3151C0052903706011C3705011C938606661306465500
S3151C0052A0930520181305455FEFB05FAF1384C13219
S3151C0052B01C402A88014595C7B6882EC832CA42CCDE
S3151C0052C0954663C4B6023AC6EFF0FF833247894758
S3151C0052D081463A866303F500014608400C08EFF048
S3151C0052E08F80B250225445618280814646860C08C6
S3151C0052F03E85EFF00F97F5B701114AC806CE22CCB2
S3151C00530026CA9384013298401C4381EF938741320D
S3151C0053109443F240624494C098C3D2444249056106
S3151C00532082805C47C0479043930544002E852EC659
S3151C00533032C4EFE0DFD51C50228582978347840256
S3151C005340B2452246918BD5DF1C4CB2976378F6008A
S3151C00535088405CC000C8EFE0BFD065B701478146F6
S3151C00536081452285EFF01FF249FDB706011C370661
S3151C005370011C3705011C9386C65B1306065A93054A
S3151C005380D0391305455FEFB07FA15D71CAC03709DF
S3151C005390011C4EDE52DC5AD85ED686C6A2C4A6C2F4
S3151C0053A056DA62D466D26AD01309495183A70132F0
S3151C0053B0138D0132984329C7DC47014483AC07008F
S3151C0053C0EFF02FBEEFF0AFBE83A781322A8C9384F9
S3151C0053D08132938AC1326368F50288C051C483A79F
S3151C0053E0413290431336160003A50A00B3858C413F
S3151C0053F0EFF04FAAEFF0BFB409ED7300000011A83F
S3151C0054000544814C75BFEFF03FEF23A08401EFF0FC
S3151C0054101FB3254C03A50A0001460C08EFF06F913B
S3151C00542051D5C24763D60700F2456245D2478297DB
S3151C005430C247E3C107FE62445C4889C713054400A2
S3151C005440EFE0FFC4EFF0AFB69C402A866376F5000A
S3151C0054502AC6EFF07FEA3246C24790C0E36CFCFADC
S3151C0054608A07CA979C4382870146E36F95F7EFF03C
S3151C0054701FAD83270D00DC47C04713054400EFE032
S3151C0054801FC18347840213F7470029C30C4CE686C9
S3151C0054906286E6952285EFF09FD505CD01478146AC
S3151C0054A0668681452285EFF0FFDD05E5B706011C02
S3151C0054B03706011C9386C65B1306C6569305102138
S3151C0054C03705011C1305455FEFB05F8DF99B23045F
S3151C0054D0F4021C50228582972DBF834784020C4CF4
S3151C0054E0D24693E717002304F402B6952285EFF003
S3151C0054F01FD0E30105F21C50228582978347840244
S3151C005500918BE38907F01C4C5246014781463E9617
S3151C00551081452285EFF01FD7E31E05EEB706011C59
S3151C0055203706011C9386C65B130646589305C03284
S3151C00553041BF83478402F99B2304F402E1BD8347E0
S3151C0055408402D24593E717002304F4020CCC81EDA8
S3151C005550B706011C3706011C9386465C1306465883
S3151C00556093054034B1BFB286B2952285EFF03FC891
S3151C00557055B58347840213F7270055FF2285C9209A
S3151C00558051BD011106CE02C6F32750303EC6B76781
S3151C005590011C93870703BD8B8DC3B706011C3706F9
S3151C0055A0011C3705011C9386C66713068666930580
S3151C0055B0900A1305056AEFB06FFE6922856793870B
S3151C0055C0078073A04730EFB0AFE3F2400145056199
S3151C0055D08280411122C406C626C29377F5002A840E
S3151C0055E081C7137405FF4104EFF0AF9B03A7013479
S3151C0055F09387013419E73727011C13070784419B3E
S3151C00560098C313874134144311663D163694637B45
S3151C0056108600EFF0DF92B7FD0000938DDDED81442F
S3151C005620612209A8E3F786FE844300C3B694EFF013
S3151C0056301F91F5D0B24022442685924441018280B6
S3151C0056401DC1B706011C3706011C3705011C41117B
S3151C00565093860672130646719305600813054573F7
S3151C00566006C6EFB0AFF382807D558280B7070080F7
S3151C0056705D8DB747101A9387070A88C373005010AD
S3151C00568082808967DCC101458280054582807D1543
S3151C005690133515008280594723A4E1407D5582802D
S3151C0056A001458280014582807D158547B386C500EC
S3151C0056B063EAA7003707101D13054700639AD50038
S3151C0056C0328582801307800523A4E1407D558280A4
S3151C0056D083070500898BEDFF850583C7F5FF1CC372
S3151C0056E0F1BF9387811B9843B766011C938606837B
S3151C0056F03A956368D500314723A4E1407D573A8526
S3151C005700828088C3EDBF6FF0CF896FF05F83411134
S3151C00571006C6EFF02F8A09C5B24041016FF08F9E75
S3151C005720B240410182804111056506C635287D556A
S3151C0057309128B757001CB2409387E77023A8F13A0B
S3151C0057404101B9A041111305000206C63128B24019
S3151C0057501305004041010DA07D890A0593878138F8
S3151C0057603E95032305000283B707102088C30D4707
S3151C005770A10798C301458280B7A7101A9387478053
S3151C00578088C38280B7A7101A9387878088C38280B4
S3151C005790736504308280411106C6EFF0DFF8892854
S3151C0057A0B240014541018280411106C67370043026
S3151C0057B03705011C1305857AEFB07FDB029001A02B
S3151C0057C0828073700430029001A08280011106CE83
S3151C0057D0EFE0FFFD2AC6A9456800EFF0BF86B70EAD
S3151C0057E00100938EAEEDB7FE0000938EFEDAE5B790
S3151C0057F0B705011C3755001C411181470D478146D1
S3151C005800130600199385C57C1305C57C06C6EFF0E7
S30D1C0058106FBFEFF02FE401A0AD
S3151C01000078517565756547656E6572696352657369
S3151C0100106574000078517565756547656E6572690D
S3151C01002063437265617465007851756575654765CD
S3151C0100306E6572696353656E64000000785175655F
S3151C010040756547656E6572696353656E6446726F45
S3151C0100506D495352000000007851756575655265EE
S3151C0100606365697665000000757851756575654C23
S3151C010070656E677468203E2028205542617365545D
S3151C0100807970655F742029203000000070785175E5
S3151C010090657565002F686F6D652F6368726973746A
S3151C0100A069616E2F446F63756D656E74732F43455D
S3151C0100B053452F5468657369732F4672656552548F
S3151C0100C04F532D52495343562D504D502F536F6646
S3151C0100D074776172652F636F72652D762D667265F5
S3151C0100E06572746F732F6B65726E656C2F71756596
S3151C0100F075652E6300000000212820282070764992
S3151C01010074656D546F5175657565203D3D202828B4
S3151C010110766F6964202A2930292029202626202841
S3151C01012020707851756575652D3E75784974656DB8
S3151C01013053697A6520213D202820554261736554F7
S3151C0101407970655F742029203055202920290000EB
S3151C010150212820282078436F7079506F7369746940
S3151C0101606F6E203D3D2028202820426173655479FD
S3151C01017070655F74202920322029202920262620FB
S3151C0101802820707851756575652D3E75784C656EA0
S3151C01019067746820213D2031202920290000000098
S3151C0101A02128202820785461736B47657453636832
S3151C0101B06564756C657253746174652829203D3DAF
S3151C0101C0202820282042617365547970655F74204C
S3151C0101D029203020292029202626202820785469E8
S3151C0101E0636B73546F5761697420213D203020293C
S3151C0101F02029000028207078517565756520290015
S3151C0102002128202820282070764275666665722072
S3151C01021029203D3D202828766F6964202A2930290A
S3151C01022020292026262028202820707851756575BE
S3151C0102306520292D3E75784974656D53697A65204B
S3151C010240213D2028205542617365547970655F7480
S3151C010250202920305520292029000000765461735D
S3151C0102606B44656C6179556E74696C007654617367
S3151C0102706B53746172745363686564756C65720043
S3151C010280785461736B526573756D65416C6C0000B6
S3151C010290785461736B496E6372656D656E745469CE
S3151C0102A0636B0000765461736B537769746368439F
S3151C0102B06F6E746578740000765461736B506C6153
S3151C0102C063654F6E4576656E744C697374000000E8
S3151C0102D0765461736B506C6163654F6E4576656EC2
S3151C0102E0744C6973745265737472696374656400C2
S3151C0102F0785461736B52656D6F766546726F6D4589
S3151C01030076656E744C6973740000000078546173D1
S3151C0103106B436865636B466F7254696D654F757483
S3151C01032000000000785461736B5072696F726974B6
S3151C01033079446973696E686572697400785461736E
S3151C0103406B0000002F686F6D652F6368726973748B
S3151C01035069616E2F446F63756D656E74732F4345AA
S3151C01036053452F5468657369732F467265655254DC
S3151C0103704F532D52495343562D504D502F536F6693
S3151C01038074776172652F636F72652D762D66726542
S3151C0103906572746F732F6B65726E656C2F746173E6
S3151C0103A06B732E6300000000707850726576696F5E
S3151C0103B0757357616B6554696D6500002820785407
S3151C0103C0696D65496E6372656D656E74203E20307C
S3151C0103D05520290075785363686564756C6572537D
S3151C0103E0757370656E646564203D3D2030000000A8
S3151C0103F070784576656E744C6973740070785469AF
S3151C0104006D654F757400000049444C4500000000A1
S3151C0104107852657475726E20213D2028202D31205D
S3151C010420290000007578546F705072696F72697477
S3151C0104307900000070785469636B73546F57616956
S3151C0104407400000028202820282028207078446564
S3151C0104506C617965645461736B4C69737420292DC5
S3151C0104603E75784E756D6265724F664974656D731E
S3151C010470203D3D2028205542617365547970655F86
S3151C01048074202920302029203F2028202820426141
S3151C0104907365547970655F74202920312029203AAF
S3151C0104A0202820282042617365547970655F742069
S3151C0104B02920302029202920290000007078544346
S3151C0104C042203D3D20707843757272656E745443AB
S3151C0104D04200000070785443422D3E75784D757468
S3151C0104E06578657348656C64000000007078556E0C
