S00E0000626C696E6B792E737265638D
S3151C0008006F4010106F40D00F6F40900F6F40500F0D
S3151C0008106F80D0766F40D00E6F40900E6F40500E9A
S3151C0008206F40100E6F40D00D6F40900D6F40500DF5
S3151C0008306F40100D6F40D00C6F40900C6F40500CE9
S3151C0008406F40100C6F40D00B6F40900B6F40500BDD
S3151C0008506F40100B6F40D00A6F40900A6F40500AD1
S3151C0008606F40100A6F40D0096F4090096F405009C5
S3151C0008706F4010096F40D0086F4090086F405008B9
S3151C0009004111714522C406C6EF40E0022A8411C576
S3151C000910232005001105EF8080282285B240224441
S3151C00092041018280011106CE22CC26CA4AC84EC677
S3151C00093052C456C25AC00DE1B706011C3706011C2B
S3151C0009409386460613060601930500143715011CEB
S3151C00095013054557EF409060B70900FFB3F9350101
S3151C0009602E84638D0900B706011C3706011C93866D
S3151C00097006071306060193051014C9BF81EDB706B9
S3151C000980011C3706011C938686091306060193056E
S3151C00099020146DBF2A89B28A368B3A8AEF200062F0
S3151C0009A011ED630D0A00B706011C3706011C938660
S3151C0009B0060B130606019305501449BFEF10F07180
S3151C0009C083240900B377940063170B029DE78149C2
S3151C0009D0630C0A02B3355001E20563050B00B70729
S3151C0009E00004DD8D5286C18D13054900EF20C02CF5
S3151C0009F0D289814411A8E31CF4FC63870A0093473F
S3151C000A00F4FFE58F2320F900EF203072638B090277
S3151C000A1019E1EF808062EF20E05693176500AA84E7
S3151C000A2063CD0700EF80A02183240900B3779400CF
S3151C000A3063140B0285E7EF802023370500017D1523
S3151C000A40E98CF240624426854249D244B249224A84
S3151C000A50924A024B05618280E31FF4FCE38D0AFC7B
S3151C000A601344F4FF658C23208900F1B7011106CECF
S3151C000A7022CC0DE1B706011C3706011C93864606DF
S3151C000A80130646029305401D3715011C13054557D1
S3151C000A90EF40D04CB70700FFED8F81CFB706011C86
S3151C000AA03706011C93864610130646029305501DF5
S3151C000AB0E1BF2A842EC6EF808018B245084093C534
S3151C000AC0F5FFE98D0CC02AC6EF80001AF24062447D
S3151C000AD032450561828059BF2E86AA853715001CB2
S3151C000AE08146130565AD6F305019797106D622D42F
S3151C000AF026D24AD04ECE52CC56CA0DE1B706011CA0
S3151C000B003706011C938646061306C6039305202149
S3151C000B103715011C13054557EF405044B70700FF16
S3151C000B20ED8F81CFB706011C3706011C9386C612B2
S3151C000B301306C60393053021E1BF2A849309C50019
S3151C000B402EC6EF1090591C40B245084837090001C3
S3151C000B50DD8D0CC081447D19370A00020C406312DE
S3151C000B60350393C4F4FFED8C04C0EF20105C0840E1
S3151C000B70B250225492540259F249624AD24A4561F1
S3151C000B8082801841832A4500B37727011316570024
S3151C000B90B3F6B7006345060089E65685C1B7E39EE2
S3151C000BA0D7FE9316770063D30600DD8CB3E54501AB
S3151C000BB0EF206026DDB715BFB2862E86AA853715AF
S3151C000BC0001C130565BB6F30500B0111B70700FFE6
S3151C000BD006CE22CC26CA4AC84EC652C4F18F8DC335
S3151C000BE0B706011C3706011C93860607130606006A
S3151C000BF09305600C3715011C13054557EF4010363D
S3151C000C00B28401EEB706011C3706011C93868609C1
S3151C000C10130606009305700CF1BF2A892E8AB68925
S3151C000C20EF20C03911ED638D0900B706011C37068C
S3151C000C30011C9386060B130606009305A00C5DBFCC
S3151C000C40EF10B04903240900D2854A85793D3364E7
S3151C000C504401B3779400639497060327090093C74E
S3151C000C60F4FF8149F98F2320F900EF20104C638F84
S3151C000C70090219E1EF80603CEF20C0309317650034
S3151C000C802A8463C10702EF70907B03240900B3F723
S3151C000C9084006397970093C4F4FFE18C232099008A
S3151C000CA0EF70907C370500017D15698C2285F2401A
S3151C000CB06244D2444249B249224A05618280638C0D
S3151C000CC00900B70500054E86C58D13054900EF10B2
S3151C000CD0B07E014459BF0324090041BF08418280EC
S3151C000CE0411122C42A8426C206C69304C400EF10EE
S3151C000CF0D03E5C4091EB2285EF30F04A2244B24054
S3151C000D00924441016F207042084863129502B7064F
S3151C000D10011C3706011C3715011C93860615130684
S3151C000D2006059305202713054557EF403023B705C5
S3151C000D300002EF20400E75BF19C1084D8280014587
S3151C000D4082800CCD8280411122C42A8426C24AC0CC
S3151C000D5006C6EF70D06E8344540413094402E204A1
S3151C000D60E184634B9002FD57A302F404EF70D06F2D
S3151C000D70EF70F06C8344440413090401E204E1841B
S3151C000D8063489002FD572302F4042244B240924465
S3151C000D90024941016F70506D5C50F1D74A85EF10C6
S3151C000DA0B07D19C1EF208020FD14E204E18455BFFB
S3151C000DB01C48E9DB4A85EF10307C19C1EF20001F67
S3151C000DC0FD14E204E1846DBF011106CE22CC2AC6B5
S3151C000DD0EF70F0663245005DEF701069F240133516
S3151C000DE0140062440561828041114AC03289304137
S3151C000DF026C2045D22C406C62A840DE21C41014596
S3151C000E0091E70844EF20C02723240400850404DC52
S3151C000E10B240224492440249410182806310090275
S3151C000E204841EF40B07A5C4038400145BA971844B7
S3151C000E305CC0E3EDE7FC1C405CC0C9BF4845EF4005
S3151C000E40F0783C4058441440B307F0403E9758C4D1
S3151C000E506375D7001844BA975CC489470145E317E4
S3151C000E60F9FACDD4FD145DB7AA87B0432E8501CE01
S3151C000E70D84794473297D8C76364D7009843D8C7D6
S3151C000E80CC476F40B0748280397106DE22DC26DACC
S3151C000E904AD84ED652D456D25AD032C60DE1B706CF
S3151C000EA0011C3706011C9386C63813064625930576
S3151C000EB0A02E3715011C13054557EF40300A2A840E
S3151C000EC0AE89B68491ED3C4181CFB706011C37062D
S3151C000ED0011C93864639130646259305B02ED1BFB1
S3151C000EE089476391F402585C8547630DF700B70682
S3151C000EF0011C3706011C9386C63E13064625930520
S3151C000F00C02E45BFEF20800B19EDB247014989CF92
S3151C000F10B706011C3706011C9386060B13064625CD
S3151C000F209305F02E79B70149894A7D5A130B0401A2
S3151C000F3061A0B24789E7EF70305301457DA0631568
S3151C000F4009002808EF208031EF701052EF10F018BE
S3151C000F50EF70F04E83474404E207E1876394470130
S3151C000F602302040483475404E207E1876394470180
S3151C000F70A3020404EF70504F6C002808EF30802346
S3151C000F803DEDEF70D04B185C5C5C6310F702EF70A4
S3151C000F90B04DB2455A85EF10904D22856D33EF202A
S3151C000FA0D01811E9EF80600939A0EF70F04B22854B
S3151C000FB0593BEF2090170549EF707048185C5C5C34
S3151C000FC06364F700E39754F72686CE852285293D70
S3151C000FD05C5089C713054402EF10105A01C5014520
S3151C000FE0EF80A005EF7050480545F2506254D2546C
S3151C000FF04259B259225A925A025B21618280228539
S3151C0010009933EF20901215BF397106DE22DC26DAE1
S3151C0010104AD84ED652D432C60DE1B706011C370645
S3151C001020011C9386C6431306C62B9305C06637154B
S3151C001030011C13054557EF4060722A842E8991EDD9
S3151C0010403C4181CFB706011C3706011C938686449A
S3151C0010501306C62B93050067D9BFEF10307619ED22
S3151C001060B247814489CFB706011C3706011C9386FB
S3151C001070060B1306C62B9305506755BF8144FD59B5
S3151C001080130A4402BDA0B24789E7EF70F03D014543
S3151C00109079A081E42808EF20601CEF70F03CEF106B
S3151C0010A0D003EF70D03983474404E207E187639489
S3151C0010B037012302040483475404E207E18763943F
S3151C0010C03701A3020404EF70303A6C002808EF3095
S3151C0010D0600E3DE12285CD3939C9B2455285EF10E6
S3151C0010E0103922858D31EF20500419E1EF70F07410
S3151C0010F08544EF70D0341C5CD9D7CA8522854444FC
S3151C001100A5335C5044C489CB13054402EF10D0466A
S3151C00111001C50145EF707072EF7010350545F25030
S3151C0011206254D2544259B259225A21618280228574
S3151C0011301939EF20807F6DBF22853131EF20E07E8B
S3151C0011402285593155D5A1B7411106C622C426C2DE
S3151C0011500DE1B706011C3706011C9386C63813061B
S3151C001160062E9305B0753715011C13054557EF4020
S3151C001170E05E2A843C4189ED89CFB706011C3706FF
S3151C001180011C9386464A1306062E9305C075E1BFBD
S3151C00119081EFB706011C3706011C9386864F130682
S3151C0011A0062E9305D075C1B7185D814709C74445FE
S3151C0011B06539854744C4B240224492443E85410168
S3151C0011C08280397106DE22DC26DA4AD84ED652D403
S3151C0011D056D232C60DE1B706011C3706011C938692
S3151C0011E0C64313068629930540503715011C130563
S3151C0011F04557EF40A0562A84AE8991ED3C4181CFDC
S3151C001200B706011C3706011C9386864413068629DD
S3151C00121093058050D9BFEF10705A19EDB24701499A
S3151C00122089CFB706011C3706011C9386060B1306CD
S3151C00123086299305D05055BF01497D5A930A44020D
S3151C00124085A8B24789E7EF703022014541A863158E
S3151C00125009002808EF208000EF701021EF10E067CE
S3151C001260EF70F01D83474404E207E187639447014E
S3151C0012702302040483475404E207E187639447016D
S3151C001280A3020404EF70501E6C002808EF20907215
S3151C00129025E52285153E21CDB2455685EF10301D1C
S3151C0012A022855534EF20606819E1EF701059054905
S3151C0012B0EF70F018045CD1D4CE852285FD146D36F2
S3151C0012C004DC1C4889CB13050401EF10F02A01C568
S3151C0012D00145EF709056EF7030190545F250625477
S3151C0012E0D2544259B259225A925A2161828022857D
S3151C0012F0993CEF20806365BF2285B134EF20E06204
S3151C0013002285D9344DD591B7011106CE0DE1B7060C
S3151C001310011C3706011C3715011C93864651130602
S3151C001320462F9305E07813054557EF4020432AC600
S3151C001330EF70F0103245085D2AC6EF70F012F240CD
S3151C001340324505618280011106CE22CC0DE1B7061D
S3151C001350011C3706011C3715011C9386C63813065B
S3151C001360C6309305F07913054557EF40203F2A8474
S3151C001370EF70F00C1C5C485C1D8D2AC6EF70D00EFD
S3151C001380F2406244324505618280011106CE22CCB0
S3151C00139026CA4AC84EC60DE1B706011C3706011CF3
S3151C0013A09386C638130686269305C03B3715011C43
S3151C0013B013054557EF40803A2A84328991ED3C410A
S3151C0013C081CFB706011C3706011C938646391306C6
S3151C0013D086269305D03BD9BF09475C5C6390E60221
S3151C0013E00547638DE700B706011C3706011C93866B
S3151C0013F0C63E130686269305E03B4DBF185C636606
S3151C001400F700894701456392F602834454041C5C29
S3151C0014103686228593998401C13A93D98941FD5711
S3151C0014206397F9025C5089EB0545F2406244D2444D
S3151C0014304249B2490561828013054402EF10D0135C
S3151C00144065D5E30309FE85472320F900F1BF850412
S3151C001450E204E184A3029404C1BF011106CE0DE18E
S3151C001460B706011C3706011C9386C6381306462888
S3151C001470930540463715011C13054557EF40002EB2
S3151C0014803C4181CFB706011C3706011C9386C65109
S3151C0014901306462893058046F1BF1C4191EF1C4557
S3151C0014A081CFB706011C3706011C9386865313068B
S3151C0014B046289305D0467DBF185D545D8147637AE7
S3151C0014C0D70283475504050718DD93968701E186E5
S3151C0014D07D576394E6025C5199E3854719A8130569
S3151C0014E045022EC6EF105009B24565D9FDD5854774
S3151C0014F09CC1F2403E85056182808507E207E18733
S3151C001500A302F504D9BF011106CE22CC26CA4AC8AD
S3151C0015104EC652C40DE1B706011C3706011C938644
S3151C001520C6381306862C9305F06F3715011C130558
S3151C0015304557EF40A0222A84B28991ED3C4181CFC8
S3151C001540B706011C3706011C9386464A1306862CD1
S3151C00155093050070D9BF032984030145630309025F
S3151C0015608344440422850932139A84017D19135A33
S3151C0015708A41232C2403FD576318FA021C4891EB5D
S3151C0015800545F2406244D2444249B249224A0561A9
S3151C001590828013050401EF10207E7DD1E38209FEB3
S3151C0015A0854723A0F900E9BF8504E204E1842302F0
S3151C0015B09404F9B705E5B706011C3706011C8565B9
S3151C0015C03715011C41119386C6381306463593857B
S3151C0015D0D5901305455706C6EF404018085D1335D0
S3151C0015E01500828005E5B706011C3706011C8565BA
S3151C0015F03715011C41119386C63813060637938589
S3151C00160055931305455706C6EF4040151C5D485DAE
S3151C0016101D8D1335150082801DE1B706011C37068A
S3151C001620011C3715011C41119386C6381306463218
S3151C0016309305007B1305455706C6EF402012085D2F
S3151C0016408280397106DE22DC26DA4AD84ED652D47E
S3151C0016502EC60DE1B706011C3706011C9386C64330
S3151C0016601306862A930550593715011C1305455731
S3151C001670EF40C00E3C412A8481CFB706011C3706B9
S3151C001680011C9386C6511306862A93059059E9BFF9
S3151C001690EF10D01205E1B2478144014991CFB7063C
S3151C0016A0011C3706011C9386060B1306862A930516
S3151C0016B0E0595DBF81440149FD59130A440279A8CA
S3151C0016C0B24785E381CCB706011C3706011C9386FD
S3151C0016D0C6591306862A9305505E79B7EF70C05813
S3151C0016E075A0631509002808EF105037EF70C05716
S3151C0016F0EF10A01EEF70A05483474404E207E18755
S3151C001700639437012302040483475404E207E187E8
S3151C00171063943701A3020404EF7000556C0028087B
S3151C001720EF20502959E12285EFF00FEA2DC91C4004
S3151C00173089EBEF70C0500844EF10F009AA84EF70D3
S3151C001740A052B2455285EF1080522285EFF0AFDFD2
S3151C001750EF20A01D19E1EF70500E0549EF70204EC9
S3151C0017601C5CB9DFFD171CDC1C4081E7EF10102D3B
S3151C00177008C41C4889CB13050401EF10E05F01C5A2
S3151C0017800145EF70900BEF70204E8544F250625469
S3151C00179026854259D254B259225A21618280228509
S3151C0017A0EFF06FDAEF2060184DBF2285EFF0AFD94E
S3151C0017B0EF20A0172285EFF02FE145D1E1D8EF707D
S3151C0017C000485C50814589C71C5895459C439D8D96
S3151C0017D008448144EF10F016EF70004945BF011113
S3151C0017E02AC606CEEF70A04532451C4189EB08453A
S3151C0017F02AC6EF706047F24032450561828001457A
S3151C001800C5BF1DE1B706011C3706011C3715011C97
S3151C00181041119386C65C1306061E93057023130599
S3151C001820455706C6EF3090731841AA87014511E348
S3151C00183088478280011106CE22CC26CA0DE1B70646
S3151C001840011C3706011C3715011C9386865D130681
S3151C00185086219305902813054557EF3030700445B3
S3151C0018602A842EC6EF10C073B245639BA4005C4449
S3151C001870054585075CC4F2406244D24405618280FA
S3151C0018802285C1336DD95C4485075CC4EDB7411113
S3151C00189006C622C426C24AC00DE1B706011C37067D
S3151C0018A0011C3715011C9386865D1306C61F9305FE
S3151C0018B0202513054557EF30706A032985002A84B5
S3151C0018C0EF10006E8144631DA9005C448544FD171E
S3151C0018D05CC499E78146014681452285EFF0CFDA43
S3151C0018E0B240224426850249924441018280B72790
S3151C0018F0011C93860734014793870734214603A8A6
S3151C0019000600631708000E07BA978CC3C8C38280EB
S3151C0019100507A106E315C7FE8280B727011C93861F
S3151C00192007340147938707342146CC426399A500A7
S3151C0019300E07BA9723A0070023A20700828005077B
S3151C001940A106E314C7FE8280411106C622C40DE11E
S3151C001950B706011C3706011C3715011C9386C638B1
S3151C001960130646349305B07B13054557EF30105FBD
S3151C0019702A84653722852244B24041016F30A00279
S3151C0019803727011C93060734814713070734214662
S3151C001990CC426396A5008E07BA978843828085073A
S3151C0019A0A106E397C7FE01458280011122CC2EC6F3
S3151C0019B02A8432C406CEEF708028834744047D57A0
S3151C0019C0B245E207E18722466394E700230204043A
S3151C0019D0834754047D57E207E1876394E700A3021B
S3151C0019E004042EC632C4EF7020281C5CB245224665
S3151C0019F089E713054402EF10003322856244F24046
S3151C001A0005616FF04FB4011106CE22CC0DE1B7066D
S3151C001A10011C3706011C3715011C9386C638130694
S3151C001A20861B9305301013054557EF3030532A8417
S3151C001A302EC6EF70C0203040585C1440232C040284
S3151C001A40B307E60254C03387F600918FB6975CC481
S3151C001A50FD572302F404A302F404B24518C495E10D
S3151C001A601C4889CB13050401EF10003101C5014543
S3151C001A70EF70A05CEF70401FF240624405450561A3
S3151C001A80828013050401EF70801113054402EF7068
S3151C001A900011CDB7011106CE22CC26CA4AC80DE1CB
S3151C001AA0B706011C3706011C3715011C9386065EFA
S3151C001AB01306C61C9305601713054557EF30104ACD
S3151C001AC0AA843305B5022EC6328913050505EF20F7
S3151C001AD090662A84B24511C985E108C02CC044DC35
S3151C001AE0854522850D37230624052285F24062444E
S3151C001AF0D244424905618280930705051CC1F9BF82
S3151C001B0041112A868145054522C406C661372A84A9
S3151C001B1001CD23240500232005002326050081462C
S3151C001B2001468145EFF04FB62285B2402244410161
S3151C001B308280411106C622C40DE1B706011C370678
S3151C001B40011C93864660130646239305E02C371525
S3151C001B50011C13054557EF3070402E84637DB5007C
S3151C001B60B706011C3706011C9386466113064623DD
S3151C001B709305F02CE9BF09468145293F11C100DDBB
S3151C001B80B2402244410182802CC582802845828035
S3151C001B900345C504828018455C410841BA973385C4
S3151C001BA0A7406363E500198D8280011106CE22CC05
S3151C001BB026CA4AC84EC652C40DE2B716011C3706C1
S3151C001BC0011C938646821306467D930540443715B1
S3151C001BD0011C13054557EF30703840411C452A89B6
S3151C001BE02E8AB3898740B28463733601B289330760
S3151C001BF0340163FDE700B716011C3706011C9386EA
S3151C001C00C6831306467D9305E044D1B70325890197
S3151C001C104E86D2852295EF40601B63F99902832775
S3151C001C2089003386344163FDC700B716011C37068D
S3151C001C30011C938646871306467D9305604541BF66
S3151C001C4003258901B3053A01EF4040188327890013
S3151C001C5026946363F4001D8C23228900F24062449F
S3151C001C6026854249D244B249224A05618280011125
S3151C001C7022CC06CE26CA4AC84EC652C4368463E354
S3151C001C80C600328445C004411845B30997406373A6
S3151C001C903401A289328AAE872A8963723603B71643
S3151C001CA0011C3706011C9386C68A1306C67E93053D
S3151C001CB000483715011C13054557EF30302AB386EB
S3151C001CC03401637DD700B716011C3706011C9386A9
S3151C001CD0868C1306C67E93051048E1BF0C4D4E86B6
S3151C001CE03E85A695EF40800E63F68902637D8A00C9
S3151C001CF0B716011C3706011C938606901306C67E72
S3151C001D00930590487DB783258901330634414E954A
S3151C001D10EF40C00B83278900A29463E3F4009D8CDB
S3151C001D20232099002285F2406244D2444249B2499A
S3151C001D30224A05618280B716011C3716011C37150D
S3151C001D40011C411193864691130646809305804CCF
S3151C001D501305455706C6EF307020797106D622D476
S3151C001D6026D24AD04ECE52CC56CA8DE1B716011C8D
S3151C001D703706011C9386C695130646709305102DCF
S3151C001D803715011C13054557EF30501D2A8401EDEC
S3151C001D90B716011C3706011C9386869613064670D9
S3151C001DA09305202DF1BF8344C5012E8AB2898588EF
S3151C001DB0B68A8A04A1CAEF6090682285E93B2A8903
S3151C001DC063E5A4020145EF60B0711C4881CFB716CC
S3151C001DD0011C3706011C93868697130646709305CD
S3151C001DE0502F79BFEF10C01B08C8EF60F06763EA7D
S3151C001DF02403D686014681450145EF208020228595
S3151C001E0023280400493B2A8963EDA4008144B2506F
S3151C001E102254268502599254F249624AD24A456195
S3151C001E20828085C0CA8626866C002285832A040089
S3151C001E303D3DB2473309994063FBF9022320540107
S3151C001E408149CA864E86D28522851535AA845DDDD2
S3151C001E50EF00B0285C4889CB48488146014681453D
S3151C001E60EF206007232A0400EF10302C4DB7BE89E3
S3151C001E70C9BF797106D622D426D24AD04ECE52CCB0
S3151C001E8056CA5AC88DE1B716011C3706011C938623
S3151C001E90C69513060674930550363715011C130593
S3151C001EA04557EF30B00B2A8401EDB716011C3706D7
S3151C001EB0011C938686961306067493056036F1BF3D
S3151C001EC08344C5012E8AB2898588B68A8A04E13183
S3151C001ED02A8963EEA4008144B250225426850259F5
S3151C001EE09254F249624AD24A424B4561828085C06D
S3151C001EF0AA8626866C002285032B04008D3BB247DE
S3151C001F003309994063F8F902232064018149CA8682
S3151C001F104E86D2852285A13BAA8455DD5C48CDDF41
S3151C001F2048485687814601468145EF003021232AC1
S3151C001F3004005DB7BE89E1BF1DE1B716011C37065B
S3151C001F40011C3715011C41119386869613060665DE
S3151C001F509305B0161305455706C6EF303000834768
S3151C001F60C501898B99E36F20102413064002814515
S3151C001F706F30B0711DE1B716011C3706011C3715F1
S3151C001F80011C4111938686961306C6759305003D62
S3151C001F901305455706C6EF30607C1C4148411D8D14
S3151C001FA0133515008280797106D622D426D24AD0E2
S3151C001FB04ECE52CC56CA0DE1B716011C3706011C73
S3151C001FC03715011C938686961306466693051019CB
S3151C001FD013054557EF3080782A8483290502EF6064
S3151C001FE010461C480145A1E758483E8529E3044C88
S3151C001FF0032984009305500526854A86832AC40036
S3151C002000034AC401EF3070686383A4002D331306A2
S3151C002010000281452285EF305067054504CC2324F8
S3151C002020240123265401230E4401232034032AC6EB
S3151C002030EF609043B2502254324592540259F249F1
S3151C002040624AD24A456182801DE1B716011C3706D9
S3151C002050011C3715011C4111938686961306866949
S3151C0020609305B01D1305455706C6EF30206F1C415E
S3151C002070184554413305F7007D15158D6363E5003E
S3151C002080198D8280397106DE22DC26DA4AD84ED6B4
S3151C00209052D436C68DE1B716011C3706011C938631
S3151C0020A0069B1306466D930540203715011C130528
S3151C0020B04557EF30A06A2A8401EDB716011C370676
S3151C0020C0011C938686961306466D93055020F1BF18
S3151C0020D08347C5012E8A3289858B85C393094600A1
S3151C0020E0636E3601B716011C3706011C9386C69B08
S3151C0020F01306466D930500214DBFB289B24785E391
S3151C00210022859937AA844ACAA5EC8144F2506254A6
S3151C00211026854259D254B259225A216182802808F6
S3151C002120EF20A004EF60B0312285393FAA84637684
S3151C00213035050145EF60D03A5C4881CFB716011CC6
S3151C0021403706011C9386069E1306466D9305902240
S3151C002150A9BFEF00F06448C8EF601031B246814554
S3151C00216001460145EF10F0696C00232A040028087B
S3151C002170EF20400445D9C9D479B7EF60F02EE5BFEE
S3151C0021808347C401858B9DEF63739900CA8426CA55
S3151C0021905246D2852285113CAA8425D92285E53A48
S3151C0021A05C44E365F5F6EF0040731C4889CB084890
S3151C0021B0814601468145EF10105223280400EF107A
S3151C0021C0C076A9B7E3E334F511464C082285F13AEB
S3151C0021D0C1B7397106DE22DC26DA4AD84ED68DE125
S3151C0021E0B716011C3706011C9386069B1306866EC2
S3151C0021F09305B0263715011C13054557EF300056BD
S3151C0022002A8401EDB716011C3706011C9386869697
S3151C0022101306866E9305C026F1BF8347C501AE849F
S3151C002220B689858B328999C313094600228532C625
S3151C002230213D324632CE11E98144F2506254268544
S3151C0022404259D254B259216182808347C401858B7D
S3151C00225085EF6373C5002A8632CE7246A685228513
S3151C002260A932AA8471D922853D325C44E367F5FC08
S3151C0022701C48E1D708484E87814601468145EF0038
S3151C002280E06B2328040055BFE36825FB11466C0848
S3151C0022902285213AD9B7411106C622C40DE1B716CB
S3151C0022A0011C3706011C3715011C938686961306DE
S3151C0022B046779305703E13054557EF30204A034475
S3151C0022C0C5015933B24005880A043335A40022449B
S3151C0022D013451500410182801DE1B716011C370606
S3151C0022E0011C3715011C4111938686961306866BB5
S3151C0022F09305301F1305455706C6EF30204661B8B7
S3151C0023001DE1B716011C3706011C3715011C4111AE
S3151C00231093868696130686679305E01B1305455719
S3151C00232006C6EF30A043AA8791E18545984701452B
S3151C0023306364B700CCC705458280411106C622C41A
S3151C0023400DE1B716011C3706011C3715011C9386B7
S3151C0023508696130686789305A04013054557EF30DD
S3151C002360E03F1C492A84014591CB08482E878146AB
S3151C00237001468145E123054523280400B240224439
S3151C00238041018280411106C622C40DE1B716011C0B
S3151C0023903706011C3715011C938686961306C67ACA
S3151C0023A09305804213054557EF30403B5C492A8410
S3151C0023B0014591CB48482E87814601468145BD2B58
S3151C0023C00545232A0400B2402244410182800111A2
S3151C0023D026CA4AC806CE22CC4EC652C48547AA84F3
S3151C0023E02E896316F6029147054A63EFA702B716B4
S3151C0023F0011C3706011C938646A1130646639305EA
S3151C002400800E3715011C13054557EF302035014A40
S3151C00241001EDB716011C3706011C9386C6A31306CD
S3151C00242046639305E00EF1BF63FD2401B716011C3C
S3151C0024303706011C938646A5130646639305000FB3
S3151C002440C9B763130900054913855402EF20A04E32
S3151C0024502A8415C9930945028504268693055005C9
S3151C0024604E85EF3090226383A900F130130640029B
S3151C00247081452285EF307021232C340104C4232688
S3151C0024802401230E44012285F2406244D24442496F
S3151C002490B249224A05618280011106CE22CC26CA87
S3151C0024A00DE1B716011C3706011C9386869613068A
S3151C0024B0C671930570333715011C13054557EF304C
S3151C0024C0E0298347C5012A84858BA1C3EFF0AFECB5
S3151C0024D09147AA8663FFA70011466C00228504401B
S3151C0024E0EFF0EFF8324504C0F2406244D244056175
S3151C0024F0828001CDB716011C3706011C9386C6A720
S3151C0025001306C671930500357DB70145F1BF0CD185
S3151C0025108280085182800345C50105898280184145
S3151C002520AA8729CB584113068500584358C1631402
S3151C002530C700584558C1D8438328C700D8435843B9
S3151C002540D8C36314E600D847D8C3D843AE864847D9
S3151C0025501307850813038509038E06000308070065
S3151C0025606318C801630A080005078506E316E3FE1F
S3151C002570E396A8FC01458280828079715AC82A8B11
S3151C0025800325480826D24ECEB70400809319260090
S3151C0025904AD056CA2E89B28A93C4F4FF4E86930536
S3151C0025A0500A22D452CC5EC662C466C23E8A42849B
S3151C0025B006D6B68BC68C135CF701F98CEF30F00C83
S3151C0025C083274408F119BE9993F909FF630F090E75
S3151C0025D0CA8593078408130709018386050023808F
S3151C0025E0D7008386050089C685058507E397E5FE22
S3151C0025F0A30B0408914763F3970091442320940886
S3151C0026002322940A130584052324040AEF60605AC6
S3151C0026101305C406EF60E059154703264408B304A6
S3151C0026209740D686E6851305440060D064D420DC2A
S3151C002630232C0408EF60F023232C044C1306804241
S3151C0026408145230E044C1305040BEF30100493072D
S3151C002650C439232AF40A93074440232CF40A93070B
S3151C002660C446232EF40A8547232CF414B737CDAB66
S3151C0026709387E7302320F416B7176DE69387472315
S3151C0026802322F416B7E705009387C7EE2324F41616
S3151C002690AD472316F416230F044CE2865E86DA85B4
S3151C0026A04E85EF60105108C063040A0023208A007F
S3151C0026B0B250225492540259F249624AD24A424BAF
S3151C0026C0B24B224C924C45618280230404081DB7F0
S3151C0026D0797122D43724011C4AD01309043826D216
S3151C0026E04ECEAA8483290900832749000325490065
S3151C0026F006D6238F074C130585052EC6EF60205082
S3151C002700FD5713040438B2456391F40299CD832511
S3151C00271049002254B2509254F249130589000259B9
S3151C0027209385850545616F6020495C40CE94A4CF96
S3151C00273063FE3401484C4C402254B2509254025908
S3151C002740F2499385850545616F60804808504C4069
S3151C00275093858505EF60C0475C5063F3F40044D055
S3151C002760B250225492540259F24945618280B716DE
S3151C002770011C3716011C3715011C4111938646D5C1
S3151C002780130606B39305A0711305455706C6EF201D
S3151C002790F07C411122C42A841305050B06C6EF30B2
S3151C0027A0300B8347D44D99EB03254408EF20A01F1B
S3151C0027B022852244B24041016F20E01E0547E38971
S3151C0027C0E7FE09476383E702B716011C3716011C8F
S3151C0027D085653715011C9386C6D5130606CC9385CD
S3151C0027E0C5F613054557EF207077B24022444101C8
S3151C0027F0828011E5B727011C93870738C843814699
S3151C002800014611056F60F00611E5B727011C938779
S3151C0028100738C843032505088280011106CE22CC41
S3151C00282026CA4AC80DE1B716011C3716011C3715F6
S3151C002830011C938606D9130646B59305B077130576
S3151C0028404557EF20B0713724011C385593070438BF
S3151C002850A107AA84130404380149631AF7047C5D92
S3151C002860130584026385A704B9E35C5C9385C406DF
S3151C0028708DEF5C4003A904089385840583A707088C
S3151C0028802E852EC63339F900EF60603703A5040880
S3151C0028903C4013491900B24563F3A70028C0D14731
S3151C0028A03305F502130444042295EF60E030F24030
S3151C0028B062444A85D24442490561828041110545DC
S3151C0028C006C6EF608077B727011CB240938707388E
S3151C0028D023A4070A41016F60A075B727011C9387C3
S3151C0028E00738D85F0507D8DF8280B727011C03A5E8
S3151C0028F007388280B727011C9387073803A5C70AA8
S3151C002900828015E9B727011C93870738C84305E55C
S3151C002910B716011C3716011C85653715011C41119C
S3151C002920938606DA1306C6B89385C59413054557D0
S3151C00293006C6EF20B062130585088280011106CEFB
S3151C00294022CC26CA4AC815E1B716011C3716011C2B
S3151C0029508565938686DA130606D2938575333715F5
S3151C002960011C13054557EF20705F2A843A8981C6DE
S3151C0029708327854D9CC28347C44D0947230EE44CCF
S3151C002980114793F7F70F6364C7043717011C130726
S3151C00299047A90A063A96184202870327844DD98D01
S3151C0029A0232CB44C31A00327844D0507232CE44C5F
S3151C0029B00547638FE7020545F2406244D24442490B
S3151C0029C0056182800947E39DE7FC0145F5B783262F
S3151C0029D0844D7D57E38EE6FCB716011C3716011C89
S3151C0029E08565938686DB130606D29385A53785BF38
S3151C0029F07C5C89CFB716011C3716011C856593862E
S3151C002A0086DD130606D29385553891BFB724011C63
S3151C002A1093870438DC5F93840438B1E793058405F7
S3151C002A202E852EC6EF60A01D83270408B840B2452C
S3151C002A306373F700BCC05147B387E7021385440490
S3151C002A403E95EF606017DC400327040883A7070840
S3151C002A50E3F3E7F66305090085472320F90085475C
S3151C002A6023A8F40A89BF9305C40613858402D1BF23
S3151C002A70011106CE22CC26CA4AC815E1B716011C7E
S3151C002A803716011C8565938686DA1306C6D393858D
S3151C002A90753B3715011C13054557EF20304C8947EC
S3151C002AA00347C54D230EF54C8327854D2A84850780
S3151C002AB0232CF54C8547639DE7067C5D89CFB716AD
S3151C002AC0011C3716011C8565938686DD1306C6D345
S3151C002AD09385D53D7DBFB724011C93870438DC5FE5
S3151C002AE02E8993840438B9EB930585052E852EC64D
S3151C002AF0EF60E01083270408B840B2456373F70003
S3151C002B00BCC05147B387E702138544043E95EF606A
S3151C002B10A00ADC400327040883A7070863FAE7001A
S3151C002B206305090085472320F900854723A8F40A75
S3151C002B30F2406244D2444249056182809305C5062F
S3151C002B4013858402E9B7011122CC3724011C930793
S3151C002B500438D85F06CE26CA4AC84EC652C456C2C8
S3151C002B605AC0631D070E03AA070013040438050A7E
S3151C002B7023A0470163110A049C539C4395C3B716B3
S3151C002B80011C3716011C85653715011C938686E1C9
S3151C002B90130606BD938585AB13054557EF20103CE0
S3151C002BA01C50584C18D05CCC8327440B8507232A11
S3151C002BB0F40AEF60E0065C5081496372FA045C40DB
S3151C002BC0514783A70708B387E702A297F8438547AF
S3151C002BD063F3E70085498327840B99E3EF6010476D
S3151C002BE08327040B91C38549F24062444E85D24427
S3151C002BF04249B249224A924A024B05618280930A93
S3151C002C004404514B1C509C4381E7FD575CD045BF87
S3151C002C101C50DC47C447BC4CE36AFAFE1389840586
S3151C002C204A85EF50D07DFC5C89C71385C406EF50DE
S3151C002C30107D03A504083C4063F3A70028C0330598
S3151C002C406503CA855695EF5030775C4003A7040888
S3151C002C5083A70708E368F7FA85496DB703A7870BAF
S3151C002C608149050723ACE70AEF60503EB5BF411109
S3151C002C7006C622C415E1B716011C3716011C85654C
S3151C002C803715011C938606E9130686BF938595C0E6
S3151C002C9013054557EF20902CB727011C938707383F
S3151C002CA02E84CC439385C506EF5090722285224410
S3151C002CB0B2408545410129BC011106CE15E1B71666
S3151C002CC0011C3716011C8565938606E9130606C189
S3151C002CD09385A5C13715011C13054557EF201028F0
S3151C002CE0B727011C93870738D85F09EFB716011C55
S3151C002CF03716011C85659386C6E9130606C193859E
S3151C002D00E5C1C9BFD843B7060080D58D6CD7CC4367
S3151C002D1032C69385C506EF50306A3246F240854569
S3151C002D203285056175B2011106CE22CC15E1B716A6
S3151C002D30011C3716011C85653715011C938606E98F
S3151C002D40130606C3938545C313054557EF2010216B
S3151C002D50B727011C938707382E84CC4332C693852C
S3151C002D60C506EF507065324611C27D5422856244F9
S3151C002D70F240B2850561A9BA5C45011126CAC44751
S3151C002D8006CE22CC95E0B716011C3716011C8565AC
S3151C002D903715011C938686EB130606C5938545C617
S3151C002DA013054557EF20901B9385C4062E852EC60A
S3151C002DB03724011CEF50B06493070438DC5F1304FE
S3151C002DC00438B2451305840285E7938584052E8550
S3151C002DD02EC6EF50D06283A704083840B2456373F1
S3151C002DE0F7003CC05147B387E702130544043E95E0
S3151C002DF0EF50905C5C4003A70408014583A70708B5
S3151C002E0063F6E70085472328F40A0545F240624429
S3151C002E10D24405618280011122CC3724011C130780
S3151C002E200438585F06CE26CA15E3B716011C37169A
S3151C002E30011C8565938686EC1306C6C69385B5C9A3
S3151C002E403715011C13054557EF2050113707008015
S3151C002E504445D98D0CC189ECB716011C3716011CCB
S3151C002E608565938686EB1306C6C6938535CAC9BF88
S3151C002E70EF50F058938584052E852EC6130404380E
S3151C002E80EF50F05783A704083840B2456373F70028
S3151C002E903CC05147B387E702130544043E95EF50E7
S3151C002EA0B0515C4003A7040883A7070863F5E70035
S3151C002EB085472328F40AF2406244D2440561828085
S3151C002EC0411122C43724011C93070438D85F06C657
S3151C002ED001CB054723A8E70AB24022444101828060
S3151C002EE0130404382328040A5C4037A7A5A5130736
S3151C002EF0575A83A747089043631BE600D44363983D
S3151C002F00C60098476315D700DC476388E70048402E
S3151C002F104C4093858508EF6090123C40D145338721
S3151C002F20B702B306E400F04215CAB0461387C604BE
S3151C002F305042B0C66314E6005842B8C651473387A0
S3151C002F40E70222973847584758C03CC05C40372791
S3151C002F50011C9387070B2328F724BDBF95E3B716DF
S3151C002F60011C3716011C85653715011C938686EFD7
S3151C002F70130646BE938505BF13054557EF20007EF5
S3151C002F80FD1771BFB727011C93870738D843D44355
S3151C002F90685783A60608D8439547958F7CD78280A9
S3151C002FA0B727011C93870738C8438280B727011CA3
S3151C002FB093870738054723A8E70A8280B727011C91
S3151C002FC09387073803A7870A054509C7C85F1335C2
S3151C002FD01500060582805DC1011126CAB724011C95
S3151C002FE01387043854438327050806CE83A6060890
S3151C002FF022CC9384043863FBD706785563480700B4
S3151C003000D840832607081547158F78D5D146B38730
S3151C003010D70213874404BA9738556313F7049305EC
S3151C00302085052A842E852EC6EF50703DDC40B245A0
S3151C00303003A50708BC402320A40863F3A700A8C067
S3151C003040D1473305F502B727011C9387473C3E95AC
S3151C003050EF5090360545F2406244D24405618280A9
S3151C003060DC4083A707082320F508EDB75C4303253E
S3151C003070450A83A707083335F500F1BF0145828051
S3151C00308009E9014582800145F2406244D24405614A
S3151C0030908280011126CAB724011C9387043822CCCE
S3151C0030A0C04306CE938404386303A402B716011CDE
S3151C0030B03716011C85653715011C938686F0130689
S3151C0030C006CD9385250213054557EF2020698327D6
S3151C0030D0840A95E3B716011C3716011C856537153E
S3151C0030E0011C938606F2130606CD9385350213053D
S3151C0030F04557EF20A066832604080327440AFD17BC
S3151C0031002324F40AE381E6F8BDFF930584052E8586
S3151C0031102EC6EF50D02E0325440A9547B245898FFB
S3151C0031207CD4BC402320A40863F3A700A8C0D147C5
S3151C0031303305F502938444042695EF50F027054584
S3151C003140A1B775C18326850A011122CC06CE26CAD3
S3151C0031502A8495E2B716011C3716011C856537159E
S3151C003160011C938606F2130686CE93851507130556
S3151C0031704557EF20A05E8327450A63F3B700AE8749
S3151C00318003270408630CF70805466399C608B72489
S3151C003190011C93860438D4429384043863938602B4
S3151C0031A0B716011C3716011C85653715011C93863D
S3151C0031B086F3130686CE9385C50813054557EF205F
S3151C0031C0E05974542320F40863C606009546B38759
S3151C0031D0F6407CD4D1463307D702938744043E97E6
S3151C0031E03C54639DE702930584052E852EC6EF503D
S3151C0031F0102103250408BC40B24563F3A700A8C0F0
S3151C003200D1473305F5026244F240D244B727011C6C
S3151C0032109387473C05613E956F50101AF2406244F5
S3151C003220D24405618280828001C50325050A8280FD
S3151C0032300145828019C12320B50A8280B727011C4B
S3151C0032401387073858439387073819C7D44303A7EE
S3151C003250860A050723A4E60AC8438280B727011CF1
S3151C0032609387073803A7470B9C4318C15CC1828010
S3151C003270011122CC26CA52C4AA843724011C06CEAC
S3151C0032804AC84EC6EF50B01B9307043803A7C70A9B
S3151C0032903725011C13040438050723A6E70ADC435B
S3151C0032A0130A453CE1E344C00327C40A854763105F
S3151C0032B0F7061305453CEF50900E13058405EF5099
S3151C0032C0100E1305C406EF50900D13050408EF509D
S3151C0032D0100D13054409EF50900C9309C40B4E8531
S3151C0032E0EF50F00B1309040D4A85EF50500B1305D4
S3151C0032F08402EF50D00A1305440EEF50500A1305F2
S3151C0033008400EF50D00923203403232E2401832765
S3151C003310840F03A504088507232CF40E23AEF4089A
S3151C0033203C4063F3A70028C0D1473305F5029385BB
S3151C00333084055295EF505008EF5010138327840ACA
S3151C00334095CF5C4003A7070883A704086378F70298
S3151C0033506244F240D2444249B249224A01450561BF
S3151C0033606F50B04D8327840ADDF35C4003A7070822
S3151C00337083A70408E3EDE7F844C051BFF24062445A
S3151C003380D2444249B249224A0561828079714AD0A7
S3151C0033902A891315260006D622D426D22ECE32CC46
S3151C0033A036CA3AC83EC6EF10005939C1AA8413055D
S3151C0033B0004EEF1040582A842A8EF2456246D246A9
S3151C0033C04247B2471DC12A8823229508A30E054CE5
S3151C0033D081484A85EFF06F9A2285593D0545B250C2
S3151C0033E0225492540259456182802685EF10A05BB7
S3151C0033F07D55F5B73715011C4111130505F506C694
S3151C00340022C44AC026C23724011CEF209041130453
S3151C0034100438B715011C3795001C9307C40F3707D2
S3151C003420008081461306800C938545F5130585C9D6
S3151C003430B13F0549631725053715011C1305C5F54D
S3151C003440EF20303EEF10801BAA8463042505371538
S3151C003450011C130545F6EF20D03CFD57639CF40474
S3151C003460B716011C3716011C85653715011C93867A
S3151C00347086F6130686B69385858313054557EF2076
S3151C003480E02DAA843715011C130505F6EF207039AB
S3151C0034907DBFEF50903A5C403727011C9387070B82
S3151C0034A02328F724FD575CD02324940A23200400E8
S3151C0034B0EF50F0332244B240924402493715011CA6
S3151C0034C01305C5F741016F20D0355849011106CEA9
S3151C0034D022CC26CA0DE3B716011C3716011C37155C
S3151C0034E0011C938646F81306C6AB9305102B1305D1
S3151C0034F04557EF20A0262A841305004E2EC6EF1032
S3151C0035008043AA842A8E7D55B2478DC45848930899
S3151C0035108401268823A2E4080547A38EE44C184898
S3151C0035205444035684004C400840EFF00F85268512
S3151C00353081330545F2406244D244056182804111C3
S3151C00354022C426C23724011CAA8406C64AC01304F8
S3151C0035500438EF50C06E91E04440138984054A85B7
S3151C003560EF50E069FC5C89C71385C406EF502069DF
S3151C0035708327840F8507232CF40E5C4063969704DF
S3151C003580CA851305440EEF50206383270410850754
S3151C0035902320F410EF50406D8327840AA9CB5C408E
S3151C0035A0639797045C5C85CFB716011C3716011C04
S3151C0035B03715011C938686FA130646AD9305E04D16
S3151C0035C013054557EF2080198327C40A2685FD1746
S3151C0035D02326F40AEFF0EF9BEF50806465BF22446C
S3151C0035E0B24092440249014541016F501025B24038
S3151C0035F02244924402494101828001112AC606CE08
S3151C003600EF50E063324511E5B727011C9387073855
S3151C003610C843032505082AC6EF500065F24032450B
S3151C00362005618280011106CE22CC26CA4AC84EC626
S3151C00363052C40DE1B716011C3716011C3715011CA7
S3151C003640938606DA1306C6AF9305405713054557EE
S3151C003650EF20C0103724011C1304043858402A8953
S3151C0036600145630E2703EF50805D032A0402832461
S3151C00367089068329C401EF50205F094563814403F1
S3151C003680638F3401930784006393F4020327C907ED
S3151C00369019E70347C94D85466383E6000D45F2408D
S3151C0036A06244D2444249B249224A056182801304CB
S3151C0036B0440E1145E38584FEFDD00545CDB70111A9
S3151C0036C006CE22CC26CA4AC8914763F2B702B71661
S3151C0036D0011C3716011C3715011C938646FC130664
S3151C0036E0C6B09305E06013054557EF2020072EC68C
S3151C0036F02A84EF50C054B24511E4B727011C9387A6
S3151C0037000738C0430327440A638AE5083729011C86
S3151C00371013090938637BB708832749008144638AE8
S3151C00372087008327490083A40708B3B4950093C474
S3151C0037301400832704086314F7002320B408785464
S3151C0037402322B40A634607001547B305B7406CD459
S3151C003750D146B387D70213074904BA973854631B5B
S3151C003760F702930584052E852EC6EF504049032586
S3151C003770040883270904B24563F4A7002320A9047F
S3151C003780D1473305F502B727011C9387473C3E9565
S3151C003790EF50804281C40145EF50300A6244F2402A
S3151C0037A0D244424905616F50204C83244900818CC8
S3151C0037B093B41400BDBF411122C426C23724011C78
S3151C0037C0AA8406C64AC013040438EF50404791E049
S3151C0037D04440138984054A85EF506042FC5C89C7C6
S3151C0037E01385C406EF50A041CA8513058400EF500B
S3151C0037F0A03C83C7C44D05476314F700238E044CB5
S3151C003800EF5080468327840A99C7EF504043EF50F8
S3151C0038102041EF5060455C40639697048327840AD9
S3151C0038209DCB5C5C8DC3B716011C3716011C371566
S3151C003830011C938686FA130606B29305006F1305C0
S3151C0038404557EF10B0712244B240924402490145DB
S3151C00385041016F50807E18448327C40A631AF700FF
S3151C00386023220400B2402244924402494101828030
S3151C0038702244B2409244024941016FF06FE40111A7
S3151C00388006CE22CC26CA0DE1B716011C3716011C22
S3151C0038903715011C938606D9130686B49305407406
S3151C0038A013054557EF10906B3724011C93070438FA
S3151C0038B0DC43AA84130404386384A706EF5020381B
S3151C0038C0B854930784006317F704FC5C130784023F
S3151C0038D06382E704A1E3938584052E852EC6EF50EB
S3151C0038E0003283A704083840B2456373F7003CC016
S3151C0038F05147B387E702130544043E95EF50C02B8E
S3151C0039005C4003A7040883A707086365F700014505
S3151C003910EF50A0726244F240D24405616F50C0342D
S3151C003920F2406244D24405618280797122D43724E4
S3151C003930011C93070438DC5F06D626D24AD04ECE2D
S3151C00394052CC95E3B716011C3716011C8565371535
S3151C003950011C938606FE1306C6B79385858A130536
S3151C0039604557EF10B05F13040438EF50402D5C5CD4
S3151C003970FD175CDC5C5C91CF01452AC6EF50C02E5E
S3151C003980B2502254324592540259F249624A456158
S3151C00399082808327C40A8144E5D313094404D14990
S3151C0039A0054A1C548DEB99C0EF5080278324840B49
S3151C0039B099C80549EFF02F9919C12328240BFD142A
S3151C0039C0F5F8232C040A8327040BDDD70145EF5099
S3151C0039D0C06605455DB75C58C4471385C406EF50E1
S3151C0039E00022938584052E852EC6EF50402103A503
S3151C0039F004083C40B24563F3A70028C033053503D1
S3151C003A004A95EF50601B5C4003A7040883A7070870
S3151C003A10E369F7F82328440B69B701E9014521A09E
S3151C003A20F240014505616F504061B727011C938721
S3151C003A300738DC5F011106CE8DC3B716011C37167D
S3151C003A40011C3715011C938686FA130606AF9305CF
S3151C003A50805413054557EF1070502AC6EFE0FFE758
S3151C003A6032458145EFE0DFC6C9355DD9F2400561B7
S3151C003A708280011106CE22CC26CA0DE1B716011C86
S3151C003A803716011C938686FF130606AE9305204F38
S3151C003A903715011C13054557EF10504C81EDB71611
S3151C003AA0011C3716011C9386C600130606AE930529
S3151C003AB0304FF9BFB724011C93840438DC5C81CFDA
S3151C003AC0B716011C3716011C938686FA130606AE1A
S3151C003AD09305404F75BF2A842EC6EFE01FE01840A1
S3151C003AE0B2458840B307B7001CC0637CE50063EC95
S3151C003AF0E700253D0DE16244F240D24405616F505A
S3151C003B00C05363E4E700E376F5FE81453385A740A1
S3151C003B10EFE01FBCF9BFF2406244D24405618280CB
S3151C003B20411122C426C24AC006C62E843289AA84E2
S3151C003B3011E5B727011C93870738C443938784086C
S3151C003B405CC083A7040804C01CC883A744085CCCBB
S3151C003B5083A7C4091CC483A7440A232C04005CC87D
S3151C003B609547638DF604B727011C93870738DC43FA
S3151C003B70639A9702232604006308090483A6440853
S3151C003B801306500A368783450700B307D740638B55
S3151C003B90C50289832310F402B2402244924402498E
S3151C003BA04101828054C48D47E398F6FCEFE0FFD2B6
S3151C003BB0FC5C99C389475CC48D3B7DBF26859D34BF
S3151C003BC048C45DBF0507C1B723100402F1B79C4169
S3151C003BD0797126D206D622D44AD04ECE52CC56CA9B
S3151C003BE05AC85EC68144B9C7DC41938A8500DC434A
S3151C003BF0DCC163945701DC45DCC1DC41B2892E84EF
S3151C003C0003ABC7002A898144930B40025C40DC430A
S3151C003C105CC06394FA005C445CC0B38574035C406E
S3151C003C20CE86054603AAC70085045285CA95CD3D96
S3151C003C30E31E4BFDB2502254268502599254F2497A
S3151C003C40624AD24A424BB24B4561828001114AC834
S3151C003C5006CE22CC26CA4EC652C456C22A89EF208C
S3151C003C600067BD4763F3A702B716011C3716011C74
S3151C003C7085653715011C938646021306C6B99385BE
S3151C003C80D59913054557EF10702DB724011C938445
S3151C003C900438EFE09FC48149938A4409130AC0F98A
S3151C003CA0CA8533853A01EFE09F872A840DEDB11949
S3151C003CB0E39849FF8850CA85EFE07F862A8405E58C
S3151C003CC0C84CCA85EFE0BF852A8411EDCA851385C9
S3151C003CD08400EFE0DF842A8419E5CA851385440E27
S3151C003CE0EFE0FF832A8491312285F2406244D2445C
S3151C003CF04249B249224A924A05618280397122DCC4
S3151C003D0026DA52D456D22EC606DE4AD84ED65AD0FB
S3151C003D105ECE2A8AB28AB724011CEFE01FBC9387A9
S3151C003D20043883A7C70AB245014463E9F5069384A0
S3151C003D30043881490144938B440913094002130B2F
S3151C003D40C0F933052403B3853B010546B1195295C9
S3151C003D50BD3D2A94E39769FF330524038C5009461D
S3151C003D605295B5352A9433052403CC4C09465295F5
S3151C003D70B93D2A943305240311469385440E529566
S3151C003D80B9352A94330524030D4693858400529530
S3151C003D903D3D2A9463840A0023A00A0079362285B5
S3151C003DA0F2506254D2544259B259225A925A025B68
S3151C003DB0F24B21618280011122CC3724011C130491
S3151C003DC004385C5C06CE95C3B716011C3716011C5D
S3151C003DD085653715011C938686FA1306C6BA938524
S3151C003DE065A413054557EF1070172AC6EFE0FFAE02
S3151C003DF08327840B3245F2403E95232CA40A624449
S3151C003E00056125B6411106C622C426C24AC015E163
S3151C003E10B716011C3716011C85653715011C9386C0
S3151C003E2006DA130606BC938595A513054557EF10B0
S3151C003E30F0122A84EFE07FAA2285EFF0AFFE8947B5
S3151C003E4001496313F506130984054A85EF40305B67
S3151C003E50EF40F05E7C5C81CB1305C406EF40305A04
S3151C003E608547230FF44CEF403060B724011C1387A1
S3151C003E700438832704083843938404386373F70093
S3151C003E80BCC05147B387E70213854404CA8505495C
S3151C003E903E95EF407052DC400327040883A70708B1
S3151C003EA063F4E70023A8240B4934B24022444A8514
S3151C003EB09244024941018280011106CEEF403058DE
S3151C003EC0B727011C03A507382AC6EF40F059F24054
S3151C003ED0324505618280011106CE22CC26CA15E127
S3151C003EE0B716011C3716011C8565938686DA1306E0
S3151C003EF0C6D09385452C3715011C13054557EF1065
S3151C003F00F00532C636C42A84AE84EF405053A2460E
S3151C003F10324681C68327844D9CC28347C44D0947BC
S3151C003F20230EE44C114793F7F70F6367C704371743
S3151C003F30011C130787AA0A063A961842028783258C
S3151C003F40844DCD8C232C944C31A00327844D05071E
S3151C003F50232CE44C05476382E70405452AC6EF403B
S3151C003F60B050F24062443245D24405618280094712
S3151C003F70E39AE7FC0145DDB78326844D7D57E38B29
S3151C003F80E6FCB716011C3716011C8565938686DB75
S3151C003F901306C6D09385552FB9BF930584052E8568
S3151C003FA02EC6B724011CEF4090451387043883277F
S3151C003FB00408384393840438B2456373F700BCC0C5
S3151C003FC05147B387E702138544043E95EF40D03E24
S3151C003FD07C5C89CFB716011C3716011C8565938638
S3151C003FE086DD1306C6D09385453031B7DC400327E2
S3151C003FF0040883A70708E3F2E7F60145EF50E00340
S3151C004000A9BF797122D426D24AD04ECE36C63724C1
S3151C004010011C06D62A89AE84B289EF40504293070A
S3151C0040200438DC4309471304043883C7C74DB2461A
S3151C0040306307F7025C401349F9FF054703A5874D43
S3151C0040403379A90023AC274D5C40238EE74C81CAEB
S3151C00405036858545EFE0CFE70145EF40107EEF4002
S3151C004060B040EF40D03D638709005C4083A7874D75
S3151C00407023A0F9005C400947014583C7C74D631B54
S3151C004080F7005C4093C4F4FF054503A7874DF98CE4
S3151C00409023AC974C5C40238E074C2AC6EF40D03C81
S3151C0040A0B2502254324592540259F24945618280DB
S3151C0040B0011122CC26CA3724011CAA8406CE2EC680
S3151C0040C0EF40F03793070438DC43130404383245B9
S3151C0040D083A7874D81EF5C400547238EE74C19C5A6
S3151C0040E08545EFE0EFDE0145EF403075EF40D037F8
S3151C0040F0EF40F0345C4003A5874D09C55C4099CC64
S3151C00410023AC074C5C40238E074C2AC6EF40D035A7
S3151C004110F24062443245D244056182801307F5FFA2
S3151C00412023ACE74CC5B7011122CC26CA06CEB72450
S3151C004130011C938404382A8411E1C0402EC6EF402A
S3151C0041401030DC40B24503A5874D8327844D93C5AB
S3151C004150F5FFFD8D232CB44C2AC6EF40F030F240FF
S3151C00416062443245D24405618280011106CE15E1B6
S3151C004170B716011C3716011C85653715011C93865D
S3151C0041808604130606C9938575CC13054557EF108F
S3151C004190E05C2AC6EF40B02AB727011C9387073874
S3151C0041A0324503A7470B9C43F24018C15CC105610D
S3151C0041B06F40902B011106CE22CC15E1B716011CBF
S3151C0041C03716011C856593868604130686CA938555
S3151C0041D0D5CD3715011C13054557EF10205889ED11
S3151C0041E0B716011C3716011C8565938646051306F2
S3151C0041F086CA9385E5CDF1BF2AC62EC4EF4030246E
S3151C004200B727011C938707389443D8433245A245E8
S3151C0042100347E74D11C7DC43238F074C05440DA804
S3151C00422098417D5601446305C70283A7470B0328A3
S3151C004230050050416305F800054463FBC600B387BF
S3151C004240C64063FEE7001D8F98C1EFF02F81014425
S3151C004250EF4090212285F24062440561828023A0B2
S3151C00426005006DBF411122C43724011C06C626C297
S3151C0042704AC013044448EF40901C1C409DEB130994
S3151C00428044004A85EF40B011930484012685EF4013
S3151C00429010110146C14511452326240304D8EFD02D
S3151C0042A06FFF08C019C5B715011C9385051FEFD0F4
S3151C0042B00FE42244B2409244024941016F40D01A95
S3151C0042C0411106C64CC108C9AA876363B602184DBC
S3151C0042D0158E0545637BE60093854700B727011CB1
S3151C0042E003A5474BEF40D00E0145B24041018280E9
S3151C0042F06375D6000545E3FAD5FE93854700B727B7
S3151C004300011C03A5074BF9BF011156C2AA8A130546
S3151C004310C00222CC26CA4AC84EC652C406CEAE8499
S3151C0043203289368ABA89012D2A8421C923040502B9
S3151C0043308DE0B716011C3716011C3715011C938618
S3151C004340861F1306460A9305501613054557EF108C
S3151C004350E040093F130544002320540104CC232EBE
S3151C004360440123203403EF40D0046308090083472B
S3151C004370840293E747002304F4022285F240624438
S3151C004380D2444249B249224A924A056182800111AD
S3151C00439006CE0DE1B716011C3716011C3715011C7C
S3151C0043A0938646211306061B9305E03F13054557C6
S3151C0043B0EF10C03A2AC6EF4090083245484D2AC62F
S3151C0043C0EF40900AF240324505618280011106CE0B
S3151C0043D00DE1B716011C3716011C3715011C9386F7
S3151C0043E046211306461C9305E04013054557EF105E
S3151C0043F0E0362AC62EC4EF4090043245A245F24050
S3151C0044004CCD05616F405006011106CE0DE1B71665
S3151C004410011C3716011C3715011C938646211306F1
S3151C004420C6199305503E13054557EF1020332AC66F
S3151C004430EF40F00032450345850205892AC6EF4048
S3151C004440B002F240324505618280B727011C03A5E4
S3151C004450874B1DE1B716011C3716011C3715011CAD
S3151C00446041119386C6211306460D9305C01A1305E2
S3151C004470455706C6EF10802E82800111B68732C6BC
S3151C0044803E86B727011C2AC203A547482EC4795766
S3151C0044908A85814606CE3AC0EFC03FEFF2400561E1
S3151C0044A08280B727011C83A74748011106CE8DE3DE
S3151C0044B0B716011C3716011C3715011C93860624DA
S3151C0044C01306861D9305A04313054557EF100029B7
S3151C0044D03687FD5636C02AC22EC432C68A85814608
S3151C0044E03A863E85EFC05F9AF240056182801DE1E7
S3151C0044F0B716011C3716011C3715011C4111938672
S3151C0045004621130646149305601F1305455706C618
S3151C004510EF10C02408418280011106CE0DE1B716AA
S3151C004520011C3716011C3715011C938646211306E0
S3151C00453046109305E01B13054557EF1020222AC68B
S3151C0045402EC4EF40C06F3245A2458347850289C9F8
S3151C00455093E747002304F502F24005616F40C070E3
S3151C004560ED9BCDBF011106CE0DE1B716011C37160A
S3151C004570011C3715011C93864621130686119305CB
S3151C004580301D13054557EF10601D2AC6EF40206BE2
S3151C004590324503458502098105892AC6EF40C06C50
S3151C0045A0F2403245056182801DE1B716011C3716A3
S3151C0045B0011C3715011C4111938646211306460F13
S3151C0045C09305501B1305455706C6EF102019084DB9
S3151C0045D082801DE1B716011C3716011C3715011CFC
S3151C0045E0411193864621130606139305C01E130517
S3151C0045F0455706C6EF10801648418280411106C6F3
S3151C0046009531B727011C9387474898430DE3B71686
S3151C004610011C3716011C3715011C9386C62413066C
S3151C004620C6089305301113054557EF10201337079D
S3151C0046300080B715011C3745001C938747031107DB
S3151C00464081461306800C938545251305E575EFE019
S3151C004650FFD355DDB24041018280797106D622D442
S3151C0046600DE1B716011C3716011C3715011C938664
S3151C00467046211306C60B9305201813054557EF1044
S3151C004680E00D3724011C130444481C402A880145AC
S3151C00469095C7B6882EC832CA42CC954663C4B602A4
S3151C0046A03AC6EFE0BF913247894781463A86630393
S3151C0046B0F500014608400C08EFC00FFDB25022540D
S3151C0046C045618280814646860C083E85EFC0FFCB3D
S3151C0046D0F5B7011126CAB724011C06CE22CC938439
S3151C0046E04448DC54984309EB9858F2406244D8D4A9
S3151C0046F09CD8D24405618280DC47C0479043930511
S3151C00470044002E852EC632C4EF40604F1C502285B5
S3151C004710829783478402B2452246918BF9D31C4C5F
S3151C004720B2976378F600C8545CC000C8EF40404A94
S3151C0047304DBF014781468145228505375DF1B71678
S3151C004740011C3716011C3715011C9386C62513063A
S3151C00475086189305D03913054557EF10200039717B
S3151C00476026DA52D4B724011C371A011C56D206DE8F
S3151C00477022DC4AD84ED693844448A54A130A4A06D4
S3151C004780DC54984315CFDC47014483A90700EFE0AE
S3151C004790CF94EFF06FF29C5C2A896366F50288DC85
S3151C0047A041C09C589043133616008840B385294156
S3151C0047B0EFD0AF9FEFF06F9701EDEF40100809A8FF
S3151C0047C005448149E9B7313723AC2403EFF0EF9553
S3151C0047D0884001460C08EFC0DF9E5DD1C24763D6F8
S3151C0047E00700F2456245D2478297C247E3C207FEDD
S3151C0047F062445C4889C713054400EF404040EFF013
S3151C004800AFEB9C5C2A866375F5002AC6D935324601
S3151C004810C24790DCE3EEFAFA8A07D2979C4382875A
S3151C0048200146E36435F9EFF04F90DC54DC47C04792
S3151C00483013054400EF40A03C8347840213F747004E
S3151C0048401DCF0C4CCE864A86CE952285953C1DC91D
S3151C004850014781464E8681452285013505E5B716F9
S3151C004860011C3716011C9386C6251306461593058F
S3151C00487010213715011C13054557EF00306EF99BA7
S3151C0048802304F4021C502285829799B7834784021D
S3151C0048900C4CD24693E717002304F402B6952285E6
S3151C0048A00534E30705F21C50228582978347840250
S3151C0048B0918BE38F07F01C4C5246014781463E966E
S3151C0048C081452285593BE31505F0B716011C3716A1
S3151C0048D0011C9386C6251306C6169305C03251BF06
S3151C0048E083478402F99B2304F402DDB583478402C3
S3151C0048F0D24593E717002304F4020CCC81EDB716BE
S3151C004900011C3716011C938646261306C6169305EC
S3151C004910403485B7B286B29522855D3255BD834734
S3151C004920840213F727005DFF2285B52855B54CD1A7
S3151C004930828048518280411122C406C626C29377C2
S3151C004940F5002A8481C7137405FF4104EFD0FFF8D4
S3151C004950B727011C03A7C7299387C72919E7373728
S3151C004960011C13070701419B98C33727011C13071A
S3151C004970072A144311663D16369463788600EFE0C9
S3151C004980DFFAEF40106A814409A8E3FA86FE8443E5
S3151C00499000C3B694EFE07FF9EDD4B24022442685DD
S3151C0049A09244410182801DC1B716011C3716011C99
S3151C0049B03715011C41119386463613068635930519
S3151C0049C010081305455706C6EF0050598280B727B5
S3151C0049D0011C23A0072A8280B727011C03A5072ACE
S30F1C0049E09167C1173385A74082803A
S3151C00500097D100009381010B173101001301817F99
S3151C00501017B5FFFF1305057F7310553097D2000097
S3151C0050209382422417D300001303833023A002006B
S3151C0050309102E3ED62FE170500001305C579EF002A
S3151C0050406076EF00300202454C000146EF40807A44
S3151C0050506F00007682800000000000000000000047
S3151C005060000000000000000000000000000000001E
S3151C005070000000000000000000000000000000000E
S3151C00508000000000000000000000000000000000FE
S3151C00509000000000000000000000000000000000EE
S3151C0050A000000000000000000000000000000000DE
S3151C0050B000000000000000000000000000000000CE
S3151C0050C000000000000000000000000000000000BE
S3151C0050D000000000000000000000000000000000AE
S3151C0050E0000000000000000000000000000000009E
S3151C0050F0000000000000000000000000000000008E
S3151C00510073900234F322203463C4021A93F2F23FE2
S3151C005110E11263C50200F11263CC020AF3220034C9
S3151C0051207310013417D100000321C139130181F713
S3151C00513006C20EC612C816CA1ACC1ECE22D026D23B
S3151C0051402AD42ED632D836DA3ADC3EDEC2C0C6C2E5
S3151C005150CAC4CEC6D2C8D6CADACCDECEE2D0E6D215
S3151C005160EAD4EED6F2D8F6DAFADCFEDE7327103471
S3151C005170F32700303AC13EC3F392023416C4EF4003
S3151C005180E0628A421A4373901234731003309240C1
S3151C005190B2414242D2426243F243025492542255D5
S3151C0051A0B2554256D2566257F25706489648264979
S3151C0051B0B649464AD64A664BF64B065C965C265D55
S3151C0051C0B65D465ED65E665FF65F22417300203092
S3151C0051D0914263C4A206970200009382E2000A056C
S3151C0051E0AA9282826F0080056F0000016F00600129
S3151C0051F06F00C0016F006002130500087330053094
S3151C00520025A0130500087320053039A83725000092
S3151C005210130505807320053001A8372500001305EA
S3151C00522005807330053009A0F32210349102739067
S3151C0052301234F32200347300203039A2F3220034D6
S3151C005240130181F706C20EC612C816CA1ACC1ECE88
S3151C00525022D026D22AD42ED632D836DA3ADC3EDEF4
S3151C005260C2C0C6C2CAC4CEC6D2C8D6CADACCDECE64
S3151C005270E2D0E6D2EAD4EED6F2D8F6DAFADCFEDED4
S3151C00528073271034F32700303AC13EC393024700FC
S3151C00529016C19302810816C417D400000324C40E39
S3151C0052A0232024008A8417D100000321A12175A084
S3151C0052B0F3220034130181F706C20EC612C816CAA1
S3151C0052C01ACC1ECE22D026D22AD42ED632D836DAE4
S3151C0052D03ADC3EDEC2C0C6C2CAC4CEC6D2C8D6CA14
S3151C0052E0DACCDECEE2D0E6D2EAD4EED6F2D8F6DAC4
S3151C0052F0FADCFEDE73271034F32700303AC13EC3B6
S3151C0053009302810816C417D400000324E407232043
S3151C00531024008A8417D100000321C11AF3232034E8
S3151C00532093F3F33F1303700063986300EFD0BF81C0
S3151C00533011C125A0268125A817D10000032181189B
S3151C005340EF40C046268125A0F32220347323103457
S3151C005350F323003073005010C5BFEFD07FB617D4AF
S3151C00536000000324640203210400EF30903617D496
S3151C0053700000032464011A45EF40A00117D4000065
S3151C005380032484002243232064008A421A43739018
S3151C0053901234731003309240B2414242D2426243ED
S3151C0053A0F243025492542255B2554256D256625773
S3151C0053B0F257064896482649B649464AD64A664B87
S3151C0053C0F64B065C965C265DB65D465ED65E665FF3
S3151C0053D0F65F22417300203013000000130000000A
S3151C0053E0130000001300000013000000130000004F
S3151C0053F0130000001300000013000000130000003F
S3151C0054007310013417D100000321C10B13010100D5
S3151C00541013018108130181F706C20EC612C816CAEB
S3151C0054201ACC1ECE22D026D22AD42ED632D836DA82
S3151C0054303ADC3EDEC2C0C6C2CAC4CEC6D2C8D6CAB2
S3151C005440DACCDECEE2D0E6D2EAD4EED6F2D8F6DA62
S3151C005450FADCFEDE73271034F32700303AC13EC354
S3151C005460F392023416C406C297D3000083A3C3F179
S3151C00547003A103001A45EF30D071EF30902597D366
S3151C005480000083A363F003A1030097D3000083A34A
S3151C005490A3EF224323A06300B71200009382028865
S3151C0054A073A042308A421A4373901234731003302D
S3151C0054B09240B2414242D2426243F2430254925457
S3151C0054C02255B2554256D2566257F257064896484E
S3151C0054D02649B649464AD64A664BF64B065C965C46
S3151C0054E0265DB65D465ED65E665FF65F8A402241E5
S3151C0054F0730020301300000013000000130000008E
S3151C005500930385F723A2030023A4A30023A6330039
S3151C00551023A8430023AA030023AC030023AE0300E5
S3151C00552023A0030223A2030223A4C30223A603026D
S3151C00553023A8030223AA030223AC030223AE0302FD
S3151C00554023A0030423A2030423A4030423A6030405
S3151C00555023A8030423AA030423AC030423AE0304D5
S3151C00556023A0030623A2030623A4030623A60306DD
S3151C00557023A8030623AA030623AC030623AE0306AD
S3151C00558023A0B30823A2D30893020000638702005A
S3151C005590F11323A00300FD12D5BF1E8582801300C4
S3151C0055A0000013000000130000001300000013008D
S3151C0055B0000013000000130000001300000013007D
S3151C0055C0000013000000130000001300000013006D
S3151C0055D0000013000000130000001300000013005D
S3151C0055E0000013000000130000001300000013004D
S3151C0055F0000013000000130000001300000001004F
S3151C00560017D10000032101EC8A421A43739012340D
S3151C005610731003309240B2414242D2426243F2437B
S3151C005620025492542255B2554256D2566257F257DC
S3151C005630064896482649B649464AD64A664BF64B0C
S3151C005640065C965C265DB65D465ED65E665FF65F5C
S3151C005650224182801300000013000000130000008A
S3151C00566013000000130000001300000013000000CC
S3151C00567013000000130000001300000013000000BC
S3151C00568013000000130000001300000013000000AC
S3151C005690130000001300000013000000130000009C
S3151C0056A0130000001300000013000000130000008C
S3151C0056B0130000001300000013000000130000007C
S3151C0056C0130000001300000013000000130000006C
S3151C0056D0130000001300000013000000130000005C
S3151C0056E0130000001300000013000000130000004C
S3151C0056F0130000001300000013000000130000003C
S3151C00570083220500638202021303800893030300AD
S3151C00571063EC630063EA620033836240137303FF26
S3151C005720232065001A8511A0014582800000000017
S3151C0057300000000000000000000000000000000047
S3151C0057400000000000000000000000004111194587
S3151C00575006C6EF0070310545EF305076B727011CA1
S3151C00576083A707254111328806C6AA882E87368646
S3151C005770C847630D0800B717011C93878756B715D2
S3151C005780011CC686938585574D28C9373718011CB9
S3151C0057909307485713084857DDB74111B28601468F
S3151C0057A006C66D3FAA858146014601456F10406EAF
S3151C0057B04111814522C406C62A84EF10A073B7275F
S3151C0057C0011C03A5C7245C5D91C382972285EF301B
S3151C0057D0F06E0111B727011C3727011C22CC1307B9
S3151C0057E0078B1384078B198C26CA4AC84EC606CE4D
S3151C0057F0098481441389078BF159631A9400624406
S3151C005800F240D2444249B24905616FF0BF84B38766
S3151C00581034038504CA9783A7C7FF8297F9BF3971DA
S3151C00582036D6741006CE3AD83EDA42DC46DE36C68A
S3151C005830EF001035F2402161828039713EDAB727BC
S3151C005840011C32D42E86AA8503A5072536D634100C
S3151C00585006CE3AD842DC46DE36C6EF007032F2403F
S3151C00586021618280411122C426C23724011CB7241F
S3151C005870011C9387048B1304048B1D8C4AC006C61B
S3151C00588009849384048B014963198902B724011C7A
S3151C005890EFF04FFC3724011C9387048B1304048BF5
S3151C0058A01D8C09849384048B0149631D8900B240B5
S3151C0058B0224492440249410182809C40050991047C
S3151C0058C08297D9B79C40050991048297F9BF397113
S3151C0058D03EDAB727011C83A7072532D436D62ED22B
S3151C0058E03AD842DC46DE8C4754102A863E8506CEC4
S3151C0058F036C6EF00F028F24021618280397132D41D
S3151C00590036D63AD83EDA42DC46DE2E860C453410B4
S3151C00591006CE36C6EF00D026F24021618280797110
S3151C00592006D622D426D24AD04ECE52CC56CA5AC8F5
S3151C0059305EC662C49387B50059476375F70293F434
S3151C00594087FF63D20402B1471CC10145B2502254E1
S3151C00595092540259F249624AD24A424BB24B224CE9
S3151C00596045618280C144E3E0B4FEAA89EF30B05F92
S3151C0059703729011C9307701F130989CD63EC970205
S3151C005980138784004A974043930687FF93D73400B6
S3151C0059906316D40040478907630C87045C4058444F
S3151C0059A01444F19BA297D8C614C7D8431367170093
S3151C0059B0D8C341A013D794009307F00301CB91479A
S3151C0059C063EFE70693D76400938787031387170053
S3151C0059D00E074A974043930587FF3D456309B4006C
S3151C0059E05840719B33069740635EC508FD178507B3
S3151C0059F003240901B725011C93068900938505CE4E
S3151C005A006303D40E58403D46719B3305974063563D
S3151C005A10A60893E714005CC033069400232AC90029
S3151C005A202328C9009367150054C614C65CC2229766
S3151C005A3008C34E85EF3070531305840001BFD14750
S3151C005A4063E5E7009307B70551B79307400563E77E
S3151C005A50E70093D7C4009387E7068DBF93074015CD
S3151C005A6063E7E70093D7F4009387770785B7930618
S3151C005A7040559307E007E3EBE6F493D7240193879D
S3151C005A80C707A9B75444634806001C44D4C79CC620
S3151C005A90B307E40019BF368491B7232AD9002328FB
S3151C005AA0D9006348050022975C4393E717005CC343
S3151C005AB049B79306F01F0328490063E8E6120D83D5
S3151C005AC01356274085460507B396C6000E074A9708
S3151C005AD0B3E606012322D9001443130687FF50C4DC
S3151C005AE014C400C3C0C613D7274005433313E300B1
S3151C005AF003274900636C6704B376670099E6F19B3C
S3151C005B000603B37667009107E5DE3D4E9396370094
S3151C005B10CA9636883E850324C800631304170505F8
S3151C005B2013773500210865FB13F737006313071A33
S3151C005B30032749009347F3FFF98F2322F900032714
S3151C005B4049000603636467006312031A832B8900EA
S3151C005B5003A44B00937AC4FF63E79A0033879A40E9
S3151C005B60BD4763CBE724B727011C372A011C03A4B6
S3151C005B70072903274A25FD572694631BF71641045C
S3151C005B80A2854E85952BFD572A8B630CF51CB38776
S3151C005B905B016374F50063962B1D372C011C930661
S3151C005BA00C269842130C0C26229798C263986715EC
S3151C005BB093964701639406148327890056941364AD
S3151C005BC01400C0C33727011C83270C008326C72853
S3151C005BD063F4F6002326F7283727011C832687281B
S3151C005BE063F1F6182324F728ADAA1356970091469D
S3151C005BF063ECC602935667009386860313861600CB
S3151C005C000E064A96130586FF10426315C50689863D
S3151C005C100547B316D700B3E606012322D90048C4AC
S3151C005C2010C400C540C6C1B5D14663E5C60093067F
S3151C005C30B605E9B79306400563E7C6009356C70049
S3151C005C409386E60665BF9306401563E7C600935622
S3151C005C50F700938676075DB7130540559306E00754
S3151C005C60E36EC5F8935627019386C60741BF1046B7
S3151C005C706306C5005442F19AE36BD7FE484645B706
S3151C005C8058405044719BB308974063571E0393E7D3
S3151C005C9014005CC01C44B30694002297D0C71CC6D3
S3151C005CA0232AD9002328D90093E71800CCC68CC612
S3151C005CB0DCC223201701B5BB63CB080022975C43CB
S3151C005CC093E717005CC31C44D0C71CC69DB3328423
S3151C005CD0A9B5138786FF9442FD17E387E6E485B5CD
S3151C005CE091070603B3766700E5DE0DB5AA87DDBF0F
S3151C005CF08567BD073E94FD777D8C59B503264A25DD
S3151C005D00FD56631FD606232A6A2593757B0089C513
S3151C005D10A147B385B7402E9B8567BE955A94FD1740
S3151C005D207D8C338A8540D2854E85F926FD576314B2
S3151C005D30F5005A85014A83270C0033056541232447
S3151C005D406901D2972A9A136A1A002320FC0023227F
S3151C005D504B01E3892BE73D47636A5703854723229B
S3151C005D60FB0083278900DC43F19B3387974063E55F
S3151C005D709700BD4763C2E7044E85EF30101FF1B68E
S3151C005D80B307FB40BA972320FC0041B783A74B00FF
S3151C005D9013844AFF6198858BC18F23A2FB0095460D
S3151C005DA0B3878B00D4C394C7E37E87E093858B00AF
S3151C005DB04E85EF10007539B50324890093E714004E
S3151C005DC05CC0B30794002324F900CDB6B3C7A50065
S3151C005DD08D8B3307C50081E78D4763EFC700AA8704
S3151C005DE06369E500828083C6050085078505A38F48
S3151C005DF0D7FEE3EAE7FE828093773500BDEBAA87E0
S3151C005E009376C7FF138606FE63FCC70683A30500AD
S3151C005E1083A2450083AF850003AFC50083AE050191
S3151C005E2003AE450103A3850183A8C50193854502DD
S3151C005E309387470203A8C5FF23AE77FC23A057FE12
S3151C005E4023A2F7FF23A4E7FF23A6D7FF23A8C7FF98
S3151C005E5023AA67FE23AC17FF23AE07FF75B783C6BD
S3151C005E60050085078505A38FD7FE93F63700E5FA4F
S3151C005E7041BFAA87DDBF90419107910523AEC7FE9E
S3151C005E80E3EBD7FEE3E7E7F682803D482A87637398
S3151C005E90C8029377F700BDEFADE5937606FF3D8A02
S3151C005EA0BA960CC34CC30CC74CC74107E36BD7FE51
S3151C005EB011E28280B306C8408A06970200009696B5
S3151C005EC06780A6002307B700A306B7002306B70002
S3151C005ED0A305B7002305B700A304B7002304B70026
S3151C005EE0A303B7002303B700A302B7002302B7001E
S3151C005EF0A301B7002301B700A300B7002300B70016
S3151C005F00828093F5F50F93968500D58D93960501A2
S3151C005F10D58D61B7939627009702000096968682C8
S3151C005F20E78086FA9680C1171D8F3E96E374C8F8E3
S3151C005F30A5B7104509A8B727011C83A70725AA855D
S3151C005F4090473E8509A0011122CC06CE2A8409C998
S3151C005F501C5D99E72EC632C4EF10402C2246B24572
S3151C005F601C46FD171CC663DA0700184E63C4E702FD
S3151C005F7093F7F50F2947638FE7001C4213F5F50FBE
S3151C005F801387170018C22E872380E700F24062444D
S3151C005F900561828022856244F24005616F00B0551E
S3151C005FA0B727011C2E86AA8503A5072569BF39714B
S3151C005FB022DC2A842E852EC606DE112EB717011C5E
S3151C005FC09387875A3ED485473ED61C10B2453ECA97
S3151C005FD089473ECC1C5C2AD205052ED02ACE0C4401
S3151C005FE091E722852EC6EF106023B2458397C50024
S3151C005FF013972701634B07008966F851D58F2396A3
S3151C006000F500F977FD17F98FFCD150082285EF10A2
S3151C006010606AFD5711E1A947F25062543E85216121
S3151C0060208280B727011CAA8503A5072549B74111FC
S3151C00603022C42E848C4126C206C6AA8491C1C53FA1
S3151C006040A2852244B2402685924441016F10604BC2
S3151C006050B727011C83A70725638FA7087C45011159
S3151C00606022CC26CA4AC806CE4EC62A8481441309A7
S3151C006070000885EB2C4081C52285EF1080488325BE
S3151C006080841495CD9304C414638B950203A905004F
S3151C0060902285EF100047CA85C5BFA6958C4189E9A4
S3151C0060A091046C44E39B24FF2285EF108045D9B7ED
S3151C0060B083A905002285EF10C044CE85CDB76C4858
S3151C0060C081C52285EF10E0431C5C99CF5C5C228560
S3151C0060D082978325042E89C922856244F240D244C4
S3151C0060E04249B2490561A1B7F2406244D2444249D1
S3151C0060F0B249056182808280411122C426C237249E
S3151C006100011CAA842E8506C623240432EF30E062C5
S3151C006110FD576316F5008327843291C39CC0B24099
S3151C00612022449244410182800327C52D15EB41115F
S3151C0061309305000822C406C62A84EFF04FFE232EC0
S3151C006140A42CFD5709C99307050823200500110532
S3151C006150E31DF5FE8147B24022443E854101828003
S3151C00616081473E858280411126C206C622C44AC08A
S3151C0061707D47AA846376B700594718C17D5531A857
S3151C0061808327C52D32892E8499CF9315240003A409
S3151C006190C42DA295884123A02501B24022449244D5
S3151C0061A002494101828049376DD1C9BFFD4763F65B
S3151C0061B0B700D9471CC17D5582808327C52D011187
S3151C0061C022CC06CE2E862A8491C713972500BA9711
S3151C0061D0984319EB228532C6CD28AA8522856244AE
S3151C0061E03246F24005614DA8854601456308D70035
S3151C0061F0FD566319D700D9471CC00545F2406244B9
S3151C006200056182802E8523A0070002970145FDB7F4
S3151C006210FD4763F4B7007D5582808327C52D411148
S3151C00622022C426C206C6AA842E849DC783A7C42D53
S3151C0062301317240005453E971C4395C3FD56094577
S3151C006240638FD70085460D45638BD7002285232097
S3151C00625007008297014521A0C13D69D97D55B240F1
S3151C0062602244924441018280B727011CAA8503A5BA
S3151C00627007252DBFB727011C2E86AA8503A5072532
S3151C006280DDB5B727011C03A5072579BDB727011C5A
S3151C006290AA8503A50725ADBF411122C426C23724F2
S3151C0062A0011CAA842E85B28506C623240432EF302F
S3151C0062B08043FD576316F5008327843291C39CC027
S3151C0062C0B24022449244410182806F300041AA8729
S3151C0062D0850703C7F7FF6DFF3385A7407D158280B1
S3151C0062E01C46797122D406D626D24AD04ECE52CC22
S3151C0062F056CA5AC85EC662C4328485E32322060087
S3151C0063000145B250225492540259F249624AD24A69
S3151C006310424BB24B224C45618280FC512E8913970D
S3151C0063202701635A070404422A8AFD5B1C4499E729
S3151C00633001452324040023220400E1B783A9440059
S3151C00634003AB0400814A13DC290063CB8A011C447D
S3151C00635093F9C9FFA104B389374123243401F9B742
S3151C00636083250B004A865285EF104008110B6307E4
S3151C0063707501850AD9BFEF10E03365BF7D5555BF42
S3151C00638069712324811223202113232E3111232CDE
S3151C00639041112326111223229112232A511123283B
