S00E0000626C696E6B792E737265638D
S3151C0008006F4010106F40D00F6F40900F6F40500F0D
S3151C0008106F40100F6F40D00E6F40900E6F40500E01
S3151C0008206F40100E6F40D00D6F40900D6F40500DF5
S3151C0008306F40100D6F40D00C6F40900C6F40500CE9
S3151C0008406F40100C6F40D00B6F40900B6F40500BDD
S3151C0008506F40100B6F40D00A6F40900A6F40500AD1
S3151C0008606F40100A6F40D0096F4090096F405009C5
S3151C0008706F4010096F40D0086F4090086F405008B9
S3151C0009004111714522C406C6EF40A0012A8411C5B7
S3151C000910232005001105EF8040112285B240224498
S3151C00092041018280011106CE22CC26CA4AC84EC677
S3151C00093052C456C25AC00DE1B706051C3706051C23
S3151C0009409386460613060601930500143715051CE7
S3151C0009501305C53CEF407060B70900FFB3F93501BC
S3151C0009602E84638D0900B706051C3706051C938665
S3151C00097006071306060193051014C9BF81EDB706B9
S3151C000980051C3706051C9386860913060601930566
S3151C00099020146DBF2A89B28A368B3A8AEF20C06131
S3151C0009A011ED630D0A00B706051C3706051C938658
S3151C0009B0060B130606019305501449BFEF10F07180
S3151C0009C083240900B377940063170B029DE78149C2
S3151C0009D0630C0A02B3355001E20563050B00B70729
S3151C0009E00004DD8D5286C18D13054900EF20C02CF5
S3151C0009F0D289814411A8E31CF4FC63870A0093473F
S3151C000A00F4FFE58F2320F900EF20B070638B0902F9
S3151C000A1019E1EF80004BEF20A05693176500AA84BE
S3151C000A2063CD0700EF80600A83240900B377940026
S3151C000A3063140B0285E7EF80E00B370500017D157B
S3151C000A40E98CF240624426854249D244B249224A84
S3151C000A50924A024B05618280E31FF4FCE38D0AFC7B
S3151C000A601344F4FF658C23208900F1B7011106CECF
S3151C000A7022CC0DE1B706051C3706051C93864606D7
S3151C000A80130646029305401D3715051C1305C53C68
S3151C000A90EF40B04CB70700FFED8F81CFB706051CA2
S3151C000AA03706051C93864610130646029305501DF1
S3151C000AB0E1BF2A842EC6EF804001B245084093C58B
S3151C000AC0F5FFE98D0CC02AC6EF80C002F2406244D5
S3151C000AD032450561828059BF2E86AA853715001CB2
S3151C000AE08146130565AD6F30D017797106D622D4B1
S3151C000AF026D24AD04ECE52CC56CA0DE1B706051C9C
S3151C000B003706051C938646061306C6039305202145
S3151C000B103715051C1305C53CEF403044B70700FFCD
S3151C000B20ED8F81CFB706051C3706051C9386C612AA
S3151C000B301306C60393053021E1BF2A849309C50019
S3151C000B402EC6EF1090591C40B245084837090001C3
S3151C000B50DD8D0CC081447D19370A00020C406312DE
S3151C000B60350393C4F4FFED8C04C0EF20905A084063
S3151C000B70B250225492540259F249624AD24A4561F1
S3151C000B8082801841832A4500B37727011316570024
S3151C000B90B3F6B7006345060089E65685C1B7E39EE2
S3151C000BA0D7FE9316770063D30600DD8CB3E54501AB
S3151C000BB0EF206026DDB715BFB2862E86AA853715AF
S3151C000BC0001C130565BB6F30D0090111B70700FF68
S3151C000BD006CE22CC26CA4AC84EC652C4F18F8DC335
S3151C000BE0B706051C3706051C938606071306060062
S3151C000BF09305600C3715051C1305C53CEF40F035F5
S3151C000C00B28401EEB706051C3706051C93868609B9
S3151C000C10130606009305700CF1BF2A892E8AB68925
S3151C000C20EF20803911ED638D0900B706051C3706C8
S3151C000C30051C9386060B130606009305A00C5DBFC8
S3151C000C40EF10B04903240900D2854A85793D3364E7
S3151C000C504401B3779400639497060327090093C74E
S3151C000C60F4FF8149F98F2320F900EF20904A638F06
S3151C000C70090219E1EF80E024EF208030931765000C
S3151C000C802A8463C10702EF70506403240900B3F77A
S3151C000C9084006397970093C4F4FFE18C232099008A
S3151C000CA0EF705065370500017D15698C2285F24071
S3151C000CB06244D2444249B249224A05618280638C0D
S3151C000CC00900B70500054E86C58D13054900EF10B2
S3151C000CD0B07E014459BF0324090041BF08418280EC
S3151C000CE0411122C42A8426C206C69304C400EF10EE
S3151C000CF0D03E5C4091EB2285EF3030492244B24015
S3151C000D00924441016F20F040084863129502B706D1
S3151C000D10051C3706051C3715051C93860615130678
S3151C000D200605930520271305C53CEF401023B70580
S3151C000D300002EF20400E75BF19C1084D8280014587
S3151C000D4082800CCD8280411122C42A8426C24AC0CC
S3151C000D5006C6EF7090578344540413094402E204F8
S3151C000D60E184634B9002FD57A302F404EF70905884
S3151C000D70EF70B0558344440413090401E204E18472
S3151C000D8063489002FD572302F4042244B240924465
S3151C000D90024941016F7010565C50F1D74A85EF101D
S3151C000DA0B07D19C1EF204020FD14E204E18455BF3B
S3151C000DB01C48E9DB4A85EF10307C19C1EF20C01EA8
S3151C000DC0FD14E204E1846DBF011106CE22CC2AC6B5
S3151C000DD0EF70B04F3245005DEF70D051F2401335C5
S3151C000DE0140062440561828041114AC03289304137
S3151C000DF026C2045D22C406C62A840DE21C41014596
S3151C000E0091E70844EF20802723240400850404DC92
S3151C000E10B240224492440249410182806310090275
S3151C000E204841EF40302E5C4038400145BA97184483
S3151C000E305CC0E3EDE7FC1C405CC0C9BF4845EF4005
S3151C000E40702C3C4058441440B307F0403E9758C49D
S3151C000E506375D7001844BA975CC489470145E317E4
S3151C000E60F9FACDD4FD145DB7AA87B0432E8501CE01
S3151C000E70D84794473297D8C76364D7009843D8C7D6
S3151C000E80CC476F4030288280397106DE22DC26DA98
S3151C000E904AD84ED652D456D25AD032C60DE1B706CF
S3151C000EA0051C3706051C9386C6381306462593056E
S3151C000EB0A02E3715051C1305C53CEF40100A2A84C5
S3151C000EC0AE89B68491ED3C4181CFB706051C370629
S3151C000ED0051C93864639130646259305B02ED1BFAD
S3151C000EE089476391F402585C8547630DF700B70682
S3151C000EF0051C3706051C9386C63E13064625930518
S3151C000F00C02E45BFEF20400B19EDB247014989CFD2
S3151C000F10B706051C3706051C9386060B13064625C5
S3151C000F209305F02E79B70149894A7D5A130B0401A2
S3151C000F3061A0B24789E7EF70F03B01457DA06315C0
S3151C000F4009002808EF204031EF70D03AEF10F01856
S3151C000F50EF70B03783474404E207E1876394470187
S3151C000F602302040483475404E207E1876394470180
S3151C000F70A3020404EF7010386C002808EF3000221E
S3151C000F803DEDEF709034185C5C5C6310F702EF70FB
S3151C000F907036B2455A85EF10904D22856D33EF2081
S3151C000FA0501711E9EF70F07139A0EF70B03422853B
S3151C000FB0593BEF2010160549EF703031185C5C5C0C
S3151C000FC06364F700E39754F72686CE852285293D70
S3151C000FD05C5089C713054402EF10105A01C5014520
S3151C000FE0EF70306EEF7010310545F2506254D254DA
S3151C000FF04259B259225A925A025B21618280228539
S3151C0010009933EF20101115BF397106DE22DC26DA62
S3151C0010104AD84ED652D432C60DE1B706051C370641
S3151C001020051C9386C6431306C62B9305C066371547
S3151C001030051C1305C53CEF4040722A842E8991ED90
S3151C0010403C4181CFB706051C3706051C9386864492
S3151C0010501306C62B93050067D9BFEF10F07519ED63
S3151C001060B247814489CFB706051C3706051C9386F3
S3151C001070060B1306C62B9305506755BF8144FD59B5
S3151C001080130A4402BDA0B24789E7EF70B02601459A
S3151C00109079A081E42808EF20201CEF70B025EF1002
S3151C0010A0D003EF70902283474404E207E1876394E0
S3151C0010B037012302040483475404E207E18763943F
S3151C0010C03701A3020404EF70F0226C002808EF30ED
S3151C0010D0E00C3DE12285CD3939C9B2455285EF1068
S3151C0010E0103922858D31EF20D00219E1EF70705D29
S3151C0010F08544EF70901D1C5CD9D7CA852285444453
S3151C001100A5335C5044C489CB13054402EF10D0466A
S3151C00111001C50145EF70F05AEF70D01D0545F25020
S3151C0011206254D2544259B259225A21618280228574
S3151C0011301939EF20007E6DBF22853131EF20607D8D
S3151C0011402285593155D5A1B7411106C622C426C2DE
S3151C0011500DE1B706051C3706051C9386C638130613
S3151C001160062E9305B0753715051C1305C53CEF40B7
S3151C001170C05E2A843C4189ED89CFB706051C37061B
S3151C001180051C9386464A1306062E9305C075E1BFB9
S3151C00119081EFB706051C3706051C9386864F13067A
S3151C0011A0062E9305D075C1B7185D814709C74445FE
S3151C0011B06539854744C4B240224492443E85410168
S3151C0011C08280397106DE22DC26DA4AD84ED652D403
S3151C0011D056D232C60DE1B706051C3706051C93868A
S3151C0011E0C64313068629930540503715051C13055F
S3151C0011F0C53CEF4080562A84AE8991ED3C4181CF97
S3151C001200B706051C3706051C9386864413068629D5
S3151C00121093058050D9BFEF10305A19EDB2470149DA
S3151C00122089CFB706051C3706051C9386060B1306C5
S3151C00123086299305D05055BF01497D5A930A44020D
S3151C00124085A8B24789E7EF70F00A014541A86315E6
S3151C00125009002808EF204000EF70D009EF10E06766
S3151C001260EF70B00683474404E207E18763944701A5
S3151C0012702302040483475404E207E187639447016D
S3151C001280A3020404EF7010076C002808EF201071ED
S3151C00129025E52285153E21CDB2455685EF10301D1C
S3151C0012A022855534EF20E06619E1EF70904105491F
S3151C0012B0EF70B001045CD1D4CE852285FD146D3649
S3151C0012C004DC1C4889CB13050401EF10F02A01C568
S3151C0012D00145EF70103FEF70F0010545F250625466
S3151C0012E0D2544259B259225A925A2161828022857D
S3151C0012F0993CEF20006265BF2285B134EF20606106
S3151C0013002285D9344DD591B7011106CE0DE1B7060C
S3151C001310051C3706051C3715051C938646511306F6
S3151C001320462F9305E0781305C53CEF4000432AC6BB
S3151C001330EF70A0793245085D2AC6EF70A07BF2409B
S3151C001340324505618280011106CE22CC0DE1B7061D
S3151C001350051C3706051C3715051C9386C63813064F
S3151C001360C6309305F0791305C53CEF40003F2A842F
S3151C001370EF70A0751C5C485C1D8D2AC6EF708077CB
S3151C001380F2406244324505618280011106CE22CCB0
S3151C00139026CA4AC84EC60DE1B706051C3706051CEB
S3151C0013A09386C638130686269305C03B3715051C3F
S3151C0013B01305C53CEF40603A2A84328991ED3C41C5
S3151C0013C081CFB706051C3706051C938646391306BE
S3151C0013D086269305D03BD9BF09475C5C6390E60221
S3151C0013E00547638DE700B706051C3706051C938663
S3151C0013F0C63E130686269305E03B4DBF185C636606
S3151C001400F700894701456392F602834454041C5C29
S3151C0014103686228593998401C13A93D98941FD5711
S3151C0014206397F9025C5089EB0545F2406244D2444D
S3151C0014304249B2490561828013054402EF10D0135C
S3151C00144065D5E30309FE85472320F900F1BF850412
S3151C001450E204E184A3029404C1BF011106CE0DE18E
S3151C001460B706051C3706051C9386C6381306462880
S3151C001470930540463715051C1305C53CEF40E02D6A
S3151C0014803C4181CFB706051C3706051C9386C65101
S3151C0014901306462893058046F1BF1C4191EF1C4557
S3151C0014A081CFB706051C3706051C93868653130683
S3151C0014B046289305D0467DBF185D545D8147637AE7
S3151C0014C0D70283475504050718DD93968701E186E5
S3151C0014D07D576394E6025C5199E3854719A8130569
S3151C0014E045022EC6EF105009B24565D9FDD5854774
S3151C0014F09CC1F2403E85056182808507E207E18733
S3151C001500A302F504D9BF011106CE22CC26CA4AC8AD
S3151C0015104EC652C40DE1B706051C3706051C93863C
S3151C001520C6381306862C9305F06F3715051C130554
S3151C001530C53CEF4080222A84B28991ED3C4181CF83
S3151C001540B706051C3706051C9386464A1306862CC9
S3151C00155093050070D9BF032984030145630309025F
S3151C0015608344440422850932139A84017D19135A33
S3151C0015708A41232C2403FD576318FA021C4891EB5D
S3151C0015800545F2406244D2444249B249224A0561A9
S3151C001590828013050401EF10207E7DD1E38209FEB3
S3151C0015A0854723A0F900E9BF8504E204E1842302F0
S3151C0015B09404F9B705E5B706051C3706051C8565B1
S3151C0015C03715051C41119386C63813064635938577
S3151C0015D0D5901305C53C06C6EF402018085D13358B
S3151C0015E01500828005E5B706051C3706051C8565B2
S3151C0015F03715051C41119386C63813060637938585
S3151C00160055931305C53C06C6EF4020151C5D485D69
S3151C0016101D8D1335150082801DE1B706051C370686
S3151C001620051C3715051C41119386C6381306463210
S3151C0016309305007B1305C53C06C6EF400012085DEA
S3151C0016408280397106DE22DC26DA4AD84ED652D47E
S3151C0016502EC60DE1B706051C3706051C9386C64328
S3151C0016601306862A930550593715051C1305C53CC8
S3151C001670EF40A00E3C412A8481CFB706051C3706D5
S3151C001680051C9386C6511306862A93059059E9BFF5
S3151C001690EF10901205E1B2478144014991CFB7067C
S3151C0016A0051C3706051C9386060B1306862A93050E
S3151C0016B0E0595DBF81440149FD59130A440279A8CA
S3151C0016C0B24785E381CCB706051C3706051C9386F5
S3151C0016D0C6591306862A9305505E79B7EF7080416A
S3151C0016E075A0631509002808EF101037EF708040AD
S3151C0016F0EF10A01EEF70603D83474404E207E187AC
S3151C001700639437012302040483475404E207E187E8
S3151C00171063943701A3020404EF70C03D6C002808D3
S3151C001720EF20D02759E12285EFF00FEA2DC91C4086
S3151C00173089EBEF7080390844EF10B009AA84EF706A
S3151C001740603BB2455285EF1080522285EFF0AFDF29
S3151C001750EF20201C19E1EF70C0760549EF70E036CA
S3151C0017601C5CB9DFFD171CDC1C4081E7EF10D02C7C
S3151C00177008C41C4889CB13050401EF10E05F01C5A2
S3151C0017800145EF700074EF70E0368544F2506254E8
S3151C00179026854259D254B259225A21618280228509
S3151C0017A0EFF06FDAEF20E0164DBF2285EFF0AFD9D0
S3151C0017B0EF2020162285EFF02FE145D1E1D8EF70FE
S3151C0017C0C0305C50814589C71C5895459C439D8DEE
S3151C0017D008448144EF10B016EF70C03145BF0111AB
S3151C0017E02AC606CEEF70602E32451C4189EB084591
S3151C0017F02AC6EF702030F2403245056182800145D1
S3151C001800C5BF1DE1B706051C3706051C3715051C8B
S3151C00181041119386C65C1306061E93057023130599
S3151C001820C53C06C6EF3070731841AA87014511E303
S3151C00183088478280011106CE22CC26CA0DE1B70646
S3151C001840051C3706051C3715051C9386865D130675
S3151C0018508621930590281305C53CEF30107004456E
S3151C0018602A842EC6EF108073B245639BA4005C4489
S3151C001870054585075CC4F2406244D24405618280FA
S3151C0018802285C1336DD95C4485075CC4EDB7411113
S3151C00189006C622C426C24AC00DE1B706051C370679
S3151C0018A0051C3715051C9386865D1306C61F9305F6
S3151C0018B020251305C53CEF30506A032985002A8470
S3151C0018C0EF10C06D8144631DA9005C448544FD175F
S3151C0018D05CC499E78146014681452285EFF0CFDA43
S3151C0018E0B240224426850249924441018280B72790
S3151C0018F0051C93860786014793870786214603A8FE
S3151C0019000600631708000E07BA978CC3C8C38280EB
S3151C0019100507A106E315C7FE8280B727051C93861B
S3151C00192007860147938707862146CC426399A50003
S3151C0019300E07BA9723A0070023A20700828005077B
S3151C001940A106E314C7FE8280411106C622C40DE11E
S3151C001950B706051C3706051C3715051C9386C638A5
S3151C001960130646349305B07B1305C53CEF30F05E79
S3151C0019702A84653722852244B24041016F30E0003B
S3151C0019803727051C930607868147130707862146BA
S3151C001990CC426396A5008E07BA978843828085073A
S3151C0019A0A106E397C7FE01458280011122CC2EC6F3
S3151C0019B02A8432C406CEEF704011834744047D57F7
S3151C0019C0B245E207E18722466394E700230204043A
S3151C0019D0834754047D57E207E1876394E700A3021B
S3151C0019E004042EC632C4EF70E0101C5CB2452246BD
S3151C0019F089E713054402EF10003322856244F24046
S3151C001A0005616FF04FB4011106CE22CC0DE1B7066D
S3151C001A10051C3706051C3715051C9386C638130688
S3151C001A20861B930530101305C53CEF3010532A84D2
S3151C001A302EC6EF7080093040585C1440232C0402DB
S3151C001A40B307E60254C03387F600918FB6975CC481
S3151C001A50FD572302F404A302F404B24518C495E10D
S3151C001A601C4889CB13050401EF10003101C5014543
S3151C001A70EF702045EF700008F24062440545056191
S3151C001A80828013050401EF60507A13054402EF604F
S3151C001A90D079CDB7011106CE22CC26CA4AC80DE193
S3151C001AA0B706051C3706051C3715051C9386065EEE
S3151C001AB01306C61C930560171305C53CEF30F04989
S3151C001AC0AA843305B5022EC6328913050505EF20F7
S3151C001AD050652A84B24511C985E108C02CC044DC76
S3151C001AE0854522850D37230624052285F24062444E
S3151C001AF0D244424905618280930705051CC1F9BF82
S3151C001B0041112A868145054522C406C661372A84A9
S3151C001B1001CD23240500232005002326050081462C
S3151C001B2001468145EFF04FB62285B2402244410161
S3151C001B308280411106C622C40DE1B706051C370674
S3151C001B40051C93864660130646239305E02C371521
S3151C001B50051C1305C53CEF3050402E84637DB50033
S3151C001B60B706051C3706051C9386466113064623D5
S3151C001B709305F02CE9BF09468145293F11C100DDBB
S3151C001B80B2402244410182802CC582802845828035
S3151C001B900345C504828018455C410841BA973385C4
S3151C001BA0A7406363E500198D8280011106CE22CC05
S3151C001BB026CA4AC84EC652C40DE2B716051C3706BD
S3151C001BC0051C938646821306467D930540443715AD
S3151C001BD0051C1305C53CEF30503840411C452A896D
S3151C001BE02E8AB3898740B28463733601B289330760
S3151C001BF0340163FDE700B716051C3706051C9386E2
S3151C001C00C6831306467D9305E044D1B70325890197
S3151C001C104E86D2852295EF30F04E63F999028327C2
S3151C001C2089003386344163FDC700B716051C370689
S3151C001C30051C938646871306467D9305604541BF62
S3151C001C4003258901B3053A01EF30D04B8327890060
S3151C001C5026946363F4001D8C23228900F24062449F
S3151C001C6026854249D244B249224A05618280011125
S3151C001C7022CC06CE26CA4AC84EC652C4368463E354
S3151C001C80C600328445C004411845B30997406373A6
S3151C001C903401A289328AAE872A8963723603B71643
S3151C001CA0051C3706051C9386C68A1306C67E930535
S3151C001CB000483715051C1305C53CEF30102AB386A2
S3151C001CC03401637DD700B716051C3706051C9386A1
S3151C001CD0868C1306C67E93051048E1BF0C4D4E86B6
S3151C001CE03E85A695EF30104263F68902637D8A0015
S3151C001CF0B716051C3706051C938606901306C67E6A
S3151C001D00930590487DB783258901330634414E954A
S3151C001D10EF30503F83278900A29463E3F4009D8C27
S3151C001D20232099002285F2406244D2444249B2499A
S3151C001D30224A05618280B716051C3716051C371505
S3151C001D40051C411193864691130646809305804CCB
S3151C001D501305C53C06C6EF305020797106D622D431
S3151C001D6026D24AD04ECE52CC56CA8DE1B716051C89
S3151C001D703706051C9386C695130646709305102DCB
S3151C001D803715051C1305C53CEF30301D2A8401EDA3
S3151C001D90B716051C3706051C9386869613064670D1
S3151C001DA09305202DF1BF8344C5012E8AB2898588EF
S3151C001DB0B68A8A04A1CAEF6050512285E93B2A895A
S3151C001DC063E5A4020145EF60705A1C4881CFB71623
S3151C001DD0051C3706051C93868697130646709305C5
S3151C001DE0502F79BFEF10801B08C8EF60B05063EA14
S3151C001DF02403D686014681450145EF20001F228516
S3151C001E0023280400493B2A8963EDA4008144B2506F
S3151C001E102254268502599254F249624AD24A456195
S3151C001E20828085C0CA8626866C002285832A040089
S3151C001E303D3DB2473309994063FBF9022320540107
S3151C001E408149CA864E86D28522851535AA845DDDD2
S3151C001E50EF00B0285C4889CB48488146014681453D
S3151C001E60EF20E005232A0400EF10B02A4DB7BE89E7
S3151C001E70C9BF797106D622D426D24AD04ECE52CCB0
S3151C001E8056CA5AC88DE1B716051C3706051C93861B
S3151C001E90C69513060674930550363715051C13058F
S3151C001EA0C53CEF30900B2A8401EDB716051C37068E
S3151C001EB0051C938686961306067493056036F1BF39
S3151C001EC08344C5012E8AB2898588B68A8A04E13183
S3151C001ED02A8963EEA4008144B250225426850259F5
S3151C001EE09254F249624AD24A424B4561828085C06D
S3151C001EF0AA8626866C002285032B04008D3BB247DE
S3151C001F003309994063F8F902232064018149CA8682
S3151C001F104E86D2852285A13BAA8455DD5C48CDDF41
S3151C001F2048485687814601468145EF003021232AC1
S3151C001F3004005DB7BE89E1BF1DE1B716051C370657
S3151C001F40051C3715051C41119386869613060665D6
S3151C001F509305B0161305C53C06C6EF301000834723
S3151C001F60C501898B99E36F205022130640028145D7
S3151C001F706F3030251DE1B716051C3706051C3715B5
S3151C001F80051C4111938686961306C6759305003D5E
S3151C001F901305C53C06C6EF30407C1C4148411D8DCF
S3151C001FA0133515008280797106D622D426D24AD0E2
S3151C001FB04ECE52CC56CA0DE1B716051C3706051C6B
S3151C001FC03715051C938686961306466693051019C7
S3151C001FD01305C53CEF3060782A8483290502EF601F
S3151C001FE0D02E1C480145A1E758483E8529E3044CE0
S3151C001FF0032984009305500526854A86832AC40036
S3151C002000034AC401EF30F01B6383A4002D3313066F
S3151C002010000281452285EF30D01A054504CC2324C5
S3151C002020240123265401230E4401232034032AC6EB
S3151C002030EF60502CB2502254324592540259F24948
S3151C002040624AD24A456182801DE1B716051C3706D5
S3151C002050051C3715051C4111938686961306866941
S3151C0020609305B01D1305C53C06C6EF30006F1C4119
S3151C002070184554413305F7007D15158D6363E5003E
S3151C002080198D8280397106DE22DC26DA4AD84ED6B4
S3151C00209052D436C68DE1B716051C3706051C938629
S3151C0020A0069B1306466D930540203715051C130524
S3151C0020B0C53CEF30806A2A8401EDB716051C37062D
S3151C0020C0051C938686961306466D93055020F1BF14
S3151C0020D08347C5012E8A3289858B85C393094600A1
S3151C0020E0636E3601B716051C3706051C9386C69B00
S3151C0020F01306466D930500214DBFB289B24785E391
S3151C00210022859937AA844ACAA5EC8144F2506254A6
S3151C00211026854259D254B259225A216182802808F6
S3151C002120EF202003EF60701A2285393FAA8463765C
S3151C00213035050145EF6090235C4881CFB716051C19
S3151C0021403706051C9386069E1306466D930590223C
S3151C002150A9BFEF00B06448C8EF60D019B2468145EC
S3151C00216001460145EF1070686C00232A04002808FC
S3151C002170EF20C00245D9C9D479B7EF60B017E5BFC7
S3151C0021808347C401858B9DEF63739900CA8426CA55
S3151C0021905246D2852285113CAA8425D92285E53A48
S3151C0021A05C44E365F5F6EF0040731C4889CB084890
S3151C0021B0814601468145EF10905023280400EF10FC
S3151C0021C04075A9B7E3E334F511464C082285F13A6C
S3151C0021D0C1B7397106DE22DC26DA4AD84ED68DE125
S3151C0021E0B716051C3706051C9386069B1306866EBA
S3151C0021F09305B0263715051C1305C53CEF30E05575
S3151C0022002A8401EDB716051C3706051C938686968F
S3151C0022101306866E9305C026F1BF8347C501AE849F
S3151C002220B689858B328999C313094600228532C625
S3151C002230213D324632CE11E98144F2506254268544
S3151C0022404259D254B259216182808347C401858B7D
S3151C00225085EF6373C5002A8632CE7246A685228513
S3151C002260A932AA8471D922853D325C44E367F5FC08
S3151C0022701C48E1D708484E87814601468145EF0038
S3151C002280E06B2328040055BFE36825FB11466C0848
S3151C0022902285213AD9B7411106C622C40DE1B716CB
S3151C0022A0051C3706051C3715051C938686961306D2
S3151C0022B046779305703E1305C53CEF30004A034430
S3151C0022C0C5015933B24005880A043335A40022449B
S3151C0022D013451500410182801DE1B716051C370602
S3151C0022E0051C3715051C4111938686961306866BAD
S3151C0022F09305301F1305C53C06C6EF30004661B872
S3151C0023001DE1B716051C3706051C3715051C4111A2
S3151C00231093868696130686679305E01B1305C53CB4
S3151C00232006C6EF308043AA8791E18545984701454B
S3151C0023306364B700CCC705458280411106C622C41A
S3151C0023400DE1B716051C3706051C3715051C9386AB
S3151C0023508696130686789305A0401305C53CEF3078
S3151C002360C03F1C492A84014591CB08482E878146CB
S3151C00237001468145E123054523280400B240224439
S3151C00238041018280411106C622C40DE1B716051C07
S3151C0023903706051C3715051C938686961306C67AC2
S3151C0023A0930580421305C53CEF30203B5C492A84CB
S3151C0023B0014591CB48482E87814601468145BD2B58
S3151C0023C00545232A0400B2402244410182800111A2
S3151C0023D026CA4AC806CE22CC4EC652C48547AA84F3
S3151C0023E02E896316F6029147054A63EFA702B716B4
S3151C0023F0051C3706051C938646A1130646639305E2
S3151C002400800E3715051C1305C53CEF300035014AF7
S3151C00241001EDB716051C3706051C9386C6A31306C5
S3151C00242046639305E00EF1BF63FD2401B716051C38
S3151C0024303706051C938646A5130646639305000FAF
S3151C002440C9B763130900054913855402EF20604D73
S3151C0024502A8415C9930945028504268693055005C9
S3151C0024604E85EF3000566383A900F13013064002F7
S3151C00247081452285EF30E054232C340104C42326E5
S3151C0024802401230E44012285F2406244D24442496F
S3151C002490B249224A05618280011106CE22CC26CA87
S3151C0024A00DE1B716051C3706051C93868696130682
S3151C0024B0C671930570333715051C1305C53CEF30E3
S3151C0024C0C0298347C5012A84858BA1C3EFF0AFECD5
S3151C0024D09147AA8663FFA70011466C00228504401B
S3151C0024E0EFF0EFF8324504C0F2406244D244056175
S3151C0024F0828001CDB716051C3706051C9386C6A718
S3151C0025001306C671930500357DB70145F1BF0CD185
S3151C0025108280085182800345C50105898280184145
S3151C002520AA8729CB584113068500584358C1631402
S3151C002530C700584558C1D8438328C700D8435843B9
S3151C002540D8C36314E600D847D8C3D843AE864847D9
S3151C0025501307850813038509038E06000308070065
S3151C0025606318C801630A080005078506E316E3FE1F
S3151C002570E396A8FC01458280828079715AC82A8B11
S3151C0025800325480826D24ECEB70400809319260090
S3151C0025904AD056CA2E89B28A93C4F4FF4E86930536
S3151C0025A0500A22D452CC5EC662C466C23E8A42849B
S3151C0025B006D6B68BC68C135CF701F98CEF306040DF
S3151C0025C083274408F119BE9993F909FF630F090E75
S3151C0025D0CA8593078408130709018386050023808F
S3151C0025E0D7008386050089C685058507E397E5FE22
S3151C0025F0A30B0408914763F3970091442320940886
S3151C0026002322940A130584052324040AEF6020431D
S3151C0026101305C406EF60A042154703264408B304FD
S3151C0026209740D686E6851305440060D064D420DC2A
S3151C002630232C0408EF60700C232C045013068042D4
S3151C0026408145230E04501305040FEF308037930782
S3151C002650C43D232AF40E93074444232CF40E9307FB
S3151C002660C44A232EF40E8547232CF418B737CDAB5A
S3151C0026709387E7302320F41AB7176DE69387472311
S3151C0026802322F41AB7E705009387C7EE2324F41A0E
S3151C002690AD472316F41A230F0450E2865E86DA85AC
S3151C0026A04E85EF60304F08C063040A0023208A0061
S3151C0026B0B250225492540259F249624AD24A424BAF
S3151C0026C0B24B224C924C45618280230404081DB7F0
S3151C0026D0797122D43724051C4AD01309048A26D2C0
S3151C0026E04ECEAA8483290900832749000325490065
S3151C0026F006D6238F0750130585052EC6EF60E038D6
S3151C002700FD571304048AB2456391F40299CD8325BF
S3151C00271049002254B2509254F249130589000259B9
S3151C0027209385850545616F60E0315C40CE94A4CFEE
S3151C00273063FE3401484C4C402254B2509254025908
S3151C002740F2499385850545616F60403108504C40C0
S3151C00275093858505EF6080305C5063F3F40044D0AC
S3151C002760B250225492540259F24945618280B716DE
S3151C002770051C3716051C3715051C41119386C6D238
S3151C002780130686B09305D0721305C53C06C6EF200A
S3151C002790D07C411122C42A841305050F06C6EF30CE
S3151C0027A0A0368347D45199EB03254408EF20E01D3E
S3151C0027B022852244B24041016F20201D0547E38932
S3151C0027C0E7FE09476383E702B716051C3716051C87
S3151C0027D085653715051C938646D3130686C99385CE
S3151C0027E055F91305C53CEF205077B24022444101F0
S3151C0027F0828011E5B727051C9387078AC843814643
S3151C002800014611056F60606F11E5B727051C93879C
S3151C002810078AC843032505088280011106CE22CCEF
S3151C00282026CA4AC80DE1B716051C3716051C3715EE
S3151C002830051C938686D61306C6B29305E078130547
S3151C002840C53CEF2090713724051C38559307048A24
S3151C002850A107AA841304048A0149631AF7047C5D40
S3151C002860130584026385A704B9E35C5C9385C406DF
S3151C0028708DEF5C4003A904089385840583A707088C
S3151C0028802E852EC63339F900EF60202003A50408D7
S3151C0028903C4013491900B24563F3A70028C0D14731
S3151C0028A03305F502130444042295EF60A019F24087
S3151C0028B062444A85D24442490561828041110545DC
S3151C0028C006C6EF600060B727051CB2409387078ACF
S3151C0028D023A4070A41016F60205EB727051C938756
S3151C0028E0078AD85F0507D8DF8280B727051C03A592
S3151C0028F0078A8280B727051C9387078A03A5C70A00
S3151C002900828015E9B727051C9387078AC84305E506
S3151C002910B716051C3716051C85653715051C411190
S3151C002920938686D7130646B6938585951305C53CAF
S3151C00293006C6EF209062130585088280011106CE1B
S3151C00294022CC26CA4AC815E1B716051C3716051C23
S3151C0029508565938606D8130686CF93850536371567
S3151C002960051C1305C53CEF20505F2A843A8981C695
S3151C002970832785519CC28347C4510947230EE450C3
S3151C002980114793F7F70F6364C7043717051C130722
S3151C002990C7430A063A961842028703278451D98DE3
S3151C0029A0232CB45031A0032784510507232CE45053
S3151C0029B00547638FE7020545F2406244D24442490B
S3151C0029C0056182800947E39DE7FC0145F5B783262F
S3151C0029D084517D57E38EE6FCB716051C3716051C7D
S3151C0029E08565938606D9130686CF9385353A85BFAA
S3151C0029F07C5C89CFB716051C3716051C8565938626
S3151C002A0006DB130686CF9385E53A91BFB724051CD2
S3151C002A109387048ADC5F9384048AB1E79305840553
S3151C002A202E852EC6EF60600683270408B840B24583
S3151C002A306373F700BCC05147B387E7021385440490
S3151C002A403E95EF602000DC400327040883A7070897
S3151C002A50E3F3E7F66305090085472320F90085475C
S3151C002A6023A8F40A89BF9305C40613858402D1BF23
S3151C002A70011106CE22CC26CA4AC815E1B716051C7A
S3151C002A803716051C8565938606D8130646D193858D
S3151C002A90053E3715051C1305C53CEF20104C894710
S3151C002AA00347C551230EF550832785512A84850774
S3151C002AB0232CF5508547639DE7067C5D89CFB716A9
S3151C002AC0051C3716051C8565938606DB130646D141
S3151C002AD0938565407DBFB724051C9387048ADC5FFC
S3151C002AE02E899384048AB9EB930585052E852EC6FB
S3151C002AF0EF50B07983270408B840B2456373F700DA
S3151C002B00BCC05147B387E702138544043E95EF507A
S3151C002B107073DC400327040883A7070863FAE700E1
S3151C002B206305090085472320F900854723A8F40A75
S3151C002B30F2406244D2444249056182809305C5062F
S3151C002B4013858402E9B7011122CC3724051C93078F
S3151C002B50048AD85F06CE26CA4AC84EC652C456C276
S3151C002B605AC0631D070E03AA07001304048A050A2C
S3151C002B7023A0470163110A049C539C4395C3B716B3
S3151C002B80051C3716051C85653715051C938606DF3F
S3151C002B90130686BA938515AE1305C53CEF20F03B8C
S3151C002BA01C50584C18D05CCC8327440B8507232A11
S3151C002BB0F40AEF50B06F5C5081496372FA045C40B2
S3151C002BC0514783A70708B387E702A297F8438547AF
S3151C002BD063F3E70085498327840B99E3EF60F0468E
S3151C002BE08327040B91C38549F24062444E85D24427
S3151C002BF04249B249224A924A024B05618280930A93
S3151C002C004404514B1C509C4381E7FD575CD045BF87
S3151C002C101C50DC47C447BC4CE36AFAFE1389840586
S3151C002C204A85EF509066FC5C89C71385C406EF5035
S3151C002C30D06503A504083C4063F3A70028C03305F0
S3151C002C406503CA855695EF50F05F5C4003A70408E0
S3151C002C5083A70708E368F7FA85496DB703A7870BAF
S3151C002C608149050723ACE70AEF60303EB5BF411129
S3151C002C7006C622C415E1B716051C3716051C856544
S3151C002C803715051C938686E6130606BD938525C354
S3151C002C901305C53CEF20702CB727051C9387078AA4
S3151C002CA02E84CC439385C506EF50505B2285224467
S3151C002CB0B2408545410129BC011106CE15E1B71666
S3151C002CC0051C3716051C8565938686E6130686BE87
S3151C002CD0938535C43715051C1305C53CEF20F02715
S3151C002CE0B727051C9387078AD85F09EFB716051CFB
S3151C002CF03716051C8565938646E7130686BE93859F
S3151C002D0075C4C9BFD843B7060080D58D6CD7CC43D4
S3151C002D1032C69385C506EF50F0523246F2408545C1
S3151C002D203285056175B2011106CE22CC15E1B716A6
S3151C002D30051C3716051C85653715051C938686E606
S3151C002D40130686C09385D5C51305C53CEF20F02018
S3151C002D50B727051C9387078A2E84CC4332C69385D6
S3151C002D60C506EF50304E324611C27D542285624450
S3151C002D70F240B2850561A9BA5C45011126CAC44751
S3151C002D8006CE22CC95E0B716051C3716051C8565A4
S3151C002D903715051C938606E9130686C29385D5C886
S3151C002DA01305C53CEF20701B9385C4062E852EC6C5
S3151C002DB03724051CEF50704D9307048ADC5F1304FF
S3151C002DC0048AB2451305840285E7938584052E85FE
S3151C002DD02EC6EF50904B83A704083840B245637348
S3151C002DE0F7003CC05147B387E702130544043E95E0
S3151C002DF0EF5050455C4003A70408014583A707080C
S3151C002E0063F6E70085472328F40A0545F240624429
S3151C002E10D24405618280011122CC3724051C13077C
S3151C002E20048A585F06CE26CA15E3B716051C371644
S3151C002E30051C8565938606EA130646C4938545CC10
S3151C002E403715051C1305C53CEF20301137070080CC
S3151C002E504445D98D0CC189ECB716051C3716051CC3
S3151C002E608565938606E9130646C49385C5CCC9BFFA
S3151C002E70EF50B041938584052E852EC61304048A13
S3151C002E80EF50B04083A704083840B2456373F7007F
S3151C002E903CC05147B387E702130544043E95EF50E7
S3151C002EA0703A5C4003A7040883A7070863F5E7008C
S3151C002EB085472328F40AF2406244D2440561828085
S3151C002EC0411122C43724051C9307048AD85F06C601
S3151C002ED001CB054723A8E70AB24022444101828060
S3151C002EE01304048A2328040A5C4037A7A5A51307E4
S3151C002EF0575A83A747089043631BE600D44363983D
S3151C002F00C60098476315D700DC476388E70048402E
S3151C002F104C4093858508EF6070123C40D145338741
S3151C002F20B702B306E400F04205CAB0461387C604CE
S3151C002F305042B0C66314E6005842B8C651473387A0
S3151C002F40E70222973847584758C03CC05C409387D5
S3151C002F50070F23A0F11A49B795E3B716051C3716B8
S3151C002F60051C85653715051C938606ED1306C6BB21
S3151C002F70938595C11305C53CEF20207EFD1745B7EB
S3151C002F80B727051C9387078AD843D443685783A65B
S3151C002F900608D8439547958F7CD78280B727051C92
S3151C002FA09387078AC8438280B727051C9387078A9D
S3151C002FB0054723A8E70A8280B727051C9387078A3B
S3151C002FC003A7870A054509C7C85F133515000605FB
S3151C002FD082805DC1011126CAB724051C1387048A89
S3151C002FE054438327050806CE83A6060822CC938461
S3151C002FF0048A63FBD706785563480700D8408326A6
S3151C00300007081547158F78D5D146B387D70213877E
S3151C0030104404BA9738556313F704930585052A8427
S3151C0030202E852EC6EF507026DC40B24503A5070838
S3151C003030BC402320A40863F3A700A8C0D1473305CE
S3151C003040F502B727051C9387478E3E95EF50901FB8
S3151C0030500545F2406244D24405618280DC4083A768
S3151C00306007082320F508EDB75C430325450A83A70B
S3151C00307007083335F500F1BF0145828009E9014592
S3151C00308082800145F2406244D2440561828001116E
S3151C00309026CAB724051C9387048A22CCC04306CEB5
S3151C0030A09384048A6303A402B716051C3716051CF1
S3151C0030B085653715051C938606EE130686CA938509
S3151C0030C0B5041305C53CEF2040698327840A95E3A4
S3151C0030D0B716051C3716051C85653715051C938602
S3151C0030E086EF130686CA9385C5041305C53CEF20D7
S3151C0030F0C066832604080327440AFD172324F40A02
S3151C003100E381E6F8BDFF930584052E852EC6EF5098
S3151C003110D0170325440A9547B245898F7CD4BC40F9
S3151C0031202320A40863F3A700A8C0D1473305F502E2
S3151C003130938444042695EF50F0100545A1B775C13C
S3151C0031408326850A011122CC06CE26CA2A8495E23C
S3151C003150B716051C3716051C85653715051C938681
S3151C00316086EF130606CC9385A5091305C53CEF20EF
S3151C003170C05E8327450A63F3B700AE87032704089E
S3151C003180630CF70805466399C608B724051C938685
S3151C003190048AD4429384048A63938602B716051C58
S3151C0031A03716051C85653715051C938606F113060F
S3151C0031B006CC9385550B1305C53CEF20005A745459
S3151C0031C02320F40863C606009546B387F6407CD4D4
S3151C0031D0D1463307D702938744043E973C54639DDC
S3151C0031E0E702930584052E852EC6EF50100A03258B
S3151C0031F00408BC40B24563F3A700A8C0D1473305F9
S3151C003200F5026244F240D244B727051C9387478EC9
S3151C00321005613E956F501003F2406244D24405612D
S3151C0032208280828001C50325050A82800145828031
S3151C00323019C12320B50A8280B727051C1387078A64
S3151C00324058439387078A19C7D44303A7860A0507D9
S3151C00325023A4E60AC8438280B727051C9387078ADE
S3151C00326003A7470B9C4318C15CC18280011122CC69
S3151C00327026CA52C4AA843724051C06CE4AC84EC682
S3151C003280EF50B0049307048A03A7C70A3725051C09
S3151C0032901304048A050723A6E70ADC43130A458E92
S3151C0032A0E1E344C00327C40A85476310F7061305E8
S3151C0032B0458EEF50807713058405EF500077130574
S3151C0032C0C406EF50807613050408EF5000761305EC
S3151C0032D04409EF5080759309C40B4E85EF50E0747A
S3151C0032E01309040D4A85EF50407413058402EF50F0
S3151C0032F0C0731305440EEF50407313058400EF5042
S3151C003300C07223203403232E24018327840F03A594
S3151C00331004088507232CF40E23AEF4083C4063F303
S3151C003320A70028C0D1473305F5029385840552951D
S3151C003330EF504071EF50007C8327840A95CF5C4088
S3151C00334003A7070883A704086378F7026244F240C0
S3151C003350D2444249B249224A014505616F50703632
S3151C0033608327840ADDF35C4003A7070883A70408A8
S3151C003370E3EDE7F844C051BFF2406244D2444249EF
S3151C003380B249224A0561828079714AD02A8913156D
S3151C00339026004ECE52CC56CA06D622D426D2BA897E
S3151C0033A03E8AC28A2EC632C4EF10A05731C5AA84E3
S3151C0033B013050052EF10E0562A842A8EB245224687
S3151C0033C00DC92A8823229508A30E05508148D68745
S3151C0033D05287CE864A85EFF04F9A2285413D054598
S3151C0033E0B250225492540259F249624AD24A456159
S3151C0033F082802685EF1060597D55DDB7411122C4A8
S3151C0034003724051C1304048AB715051C3795001CA4
S3151C0034101308C40FB7070080014781461306800CAA
S3151C003420938585F2130545B226C24AC006C60549D0
S3151C003430A13FAA84631B2503EF10C01AAA84631636
S3151C0034402503EF5010285C40B2409387070F23A03A
S3151C003450F11AFD575CD02324940A2320040022442D
S3151C0034609244024941016F501021FD576393F402A7
S3151C003470B716051C3716051C85653715051C93865E
S3151C00348006F3130606B4938555841305C53CEF2035
S3151C003490C02CB240224492440249410182805849C0
S3151C0034A0011106CE22CC26CA0DE3B716051C37160B
S3151C0034B0051C3715051C938646F4130646A9930569
S3151C0034C0502B1305C53CEF2040292A8413050052B6
S3151C0034D02EC6EF100045AA842A8E7D55B2479DCC78
S3151C0034E0584893088401268823A2E4080547A38E1E
S3151C0034F0E45018485444035684004C400840EFF0EE
S3151C003500CF87B705001C1306000493850504138595
S3151C003510C40AEF20203F2685913B0545F2406244B4
S3151C003520D24405618280411122C426C23724051C5F
S3151C003530AA8406C64AC01304048AEF50005991E0B7
S3151C0035404440138984054A85EF502054FC5C89C786
S3151C0035501385C406EF5060538327840F8507232CDD
S3151C003560F40E5C4063969704CA851305440EEF500F
S3151C003570604D8327041085072320F410EF508057D5
S3151C0035808327840AA9CB5C40639797045C5C85CF30
S3151C003590B716051C3716051C3715051C938686F6AB
S3151C0035A01306C6AA9305104F1305C53CEF20E01A57
S3151C0035B08327C40A2685FD172326F40AEFF06F9D80
S3151C0035C0EF50C04E65BF2244B240924402490145A9
S3151C0035D041016F50100FB2402244924402494101EE
S3151C0035E0828001112AC606CEEF50204E324511E5C7
S3151C0035F0B727051C9387078AC843032505082AC6CF
S3151C003600EF50404FF240324505618280011106CED3
S3151C00361022CC26CA4AC84EC652C40DE1B716051C92
S3151C0036203716051C3715051C938686D7130646AD1B
S3151C003630930570581305C53CEF2020123724051C32
S3151C0036401304048A58402A890145630E2703EF5048
S3151C003650C047032A0402832489068329C401EF5028
S3151C0036606049094563814403638F340193078400D1
S3151C0036706393F4020327C90719E70347C951854613
S3151C0036806383E6000D45F2406244D2444249B24986
S3151C003690224A056182801304440E1145E38584FE8B
S3151C0036A0FDD00545CDB7011106CE22CC26CA4AC887
S3151C0036B0914763F2B702B716051C3716051C37155A
S3151C0036C0051C938646F8130646AE93051062130531
S3151C0036D0C53CEF2080082EC62A84EF50003FB24519
S3151C0036E011E4B727051C9387078AC0430327440A9E
S3151C0036F0638AE5083729051C1309098A637BB70801
S3151C003700832749008144638A87008327490083A451
S3151C0037100708B3B4950093C41400832704086314E4
S3151C003720F7002320B40878542322B40A6346070002
S3151C0037301547B305B7406CD4D146B387D7021307D8
S3151C0037404904BA973854631BF702930584052E85E2
S3151C0037502EC6EF5080330325040883270904B2457F
S3151C00376063F4A7002320A904D1473305F502B72724
S3151C003770051C9387478E3E95EF50C02C81C401458E
S3151C003780EF5020746244F240D244424905616F50A6
S3151C003790603683244900818C93B41400BDBF41114B
S3151C0037A022C426C23724051CAA8406C64AC0130492
S3151C0037B0048AEF50803191E04440138984054A8580
S3151C0037C0EF50A02CFC5C89C71385C406EF50E02B78
S3151C0037D0CA8513058400EF50E02683C7C4510547EC
S3151C0037E06314F700238E0450EF50C0308327840ADD
S3151C0037F099C7EF50802DEF50602BEF50A02F5C40E7
S3151C003800639697048327840A9DCB5C5C8DC3B7168D
S3151C003810051C3716051C3715051C938686F61306DC
S3151C00382086AF930530701305C53CEF101073224408
S3151C003830B24092440249014541016F5080681844C8
S3151C0038408327C40A631AF70023220400B2402244C9
S3151C00385092440249410182802244B2409244024968
S3151C00386041016FF0EFE5011106CE22CC26CA0DE10F
S3151C003870B716051C3716051C3715051C938686D6E8
S3151C003880130606B2930570751305C53CEF10F06C54
S3151C0038903724051C9307048ADC43AA841304048A70
S3151C0038A06384A706EF506022B854930784006317FD
S3151C0038B0F704FC5C130784026382E704A1E3938587
S3151C0038C084052E852EC6EF50401C83A7040838405D
S3151C0038D0B2456373F7003CC05147B387E702130533
S3151C0038E044043E95EF5000165C4003A7040883A7CA
S3151C0038F007086365F7000145EF50A05C6244F2407F
S3151C003900D24405616F50001FF2406244D2440561E7
S3151C0039108280797122D43724051C9307048ADC5FC4
S3151C00392006D626D24AD04ECE52CC95E3B716051CE7
S3151C0039303716051C85653715051C938606FA13066E
S3151C00394046B59385458B1305C53CEF1010611304D2
S3151C003950048AEF5080175C5CFD175CDC5C5C91CFC5
S3151C00396001452AC6EF500019B250225432459254D2
S3151C0039700259F249624A456182808327C40A8144FE
S3151C003980E5D313094404D149054A1C548DEB99C04F
S3151C003990EF50C0118324840B99C80549EFF0AF9AE8
S3151C0039A019C12328240BFD14F5F8232C040A83279C
S3151C0039B0040BDDD70145EF50C05005455DB75C587B
S3151C0039C0C4471385C406EF50400C938584052E8589
S3151C0039D02EC6EF50800B03A504083C40B24563F38A
S3151C0039E0A70028C0330535034A95EF50A0055C4057
S3151C0039F003A7040883A70708E369F7F82328440BE1
S3151C003A0069B701E9014521A0F240014505616F50E6
S3151C003A10404BB727051C9387078ADC5F011106CE2E
S3151C003A208DC3B716051C3716051C3715051C938642
S3151C003A3086F6130686AC9305B0551305C53CEF10E8
S3151C003A40D0512AC6EFE07FE932458145EFE05FC8D9
S3151C003A50C9355DD9F24005618280011106CE22CCA2
S3151C003A6026CA0DE1B716051C3716051C938686FB60
S3151C003A70130686AB930550503715051C1305C53C1C
S3151C003A80EF10B04D81EDB716051C3716051C938635
S3151C003A90C6FC130686AB93056050F9BFB724051CFC
S3151C003AA09384048ADC5C81CFB716051C3716051C6B
S3151C003AB0938686F6130686AB9305705075BF2A84CB
S3151C003AC02EC6EFE09FE11840B2458840B307B70009
S3151C003AD01CC0637CE50063ECE700253D0DE16244F8
S3151C003AE0F240D24405616F50C03D63E4E700E376C3
S3151C003AF0F5FE81453385A740EFE09FBDF9BFF24037
S3151C003B006244D24405618280411122C426C24AC045
S3151C003B1006C62E843289AA8411E5B727051C93870D
S3151C003B20078AC443938784085CC083A7040804C01F
S3151C003B301CC883A744085CCC83A7C4091CC483A7E0
S3151C003B40440A232C04005CC89547638DF604B727EA
S3151C003B50051C9387078ADC43639A97022326040075
S3151C003B606308090483A644081306500A368783454E
S3151C003B700700B307D740638BC50289832310F40261
S3151C003B80B2402244924402494101828054C48D476A
S3151C003B90E398F6FCEFE07FD4FC5C99C389475CC4D0
S3151C003BA08D3B7DBF26859D3448C45DBF0507C1B7C7
S3151C003BB023100402F1B79C41797126D206D622D471
S3151C003BC04AD04ECE52CC56CA5AC85EC68144B9C7D4
S3151C003BD0DC41938A8500DC43DCC163945701DC45D8
S3151C003BE0DCC1DC41B2892E8403ABC7002A8981441F
S3151C003BF0930B40025C40DC435CC06394FA005C445B
S3151C003C005CC0B38574035C40CE86054603AAC70018
S3151C003C1085045285CA95CD3DE31E4BFDB2502254F8
S3151C003C20268502599254F249624AD24A424BB24BF9
S3151C003C304561828001114AC806CE22CC26CA4EC6D0
S3151C003C4052C456C22A89EF20800FBD4763F3A702D0
S3151C003C50B716051C3716051C85653715051C938676
S3151C003C6046FE130646B79385659C1305C53CEF10A7
S3151C003C70D02EB724051C9384048AEFE01FC6814905
S3151C003C80938A4409130AC0F9CA8533853A01EFE0C1
S3151C003C901F892A840DEDB119E39849FF8850CA85FE
S3151C003CA0EFE0FF872A8405E5C84CCA85EFE03F870D
S3151C003CB02A8411EDCA8513858400EFE05F862A8469
S3151C003CC019E5CA851385440EEFE07F852A84913158
S3151C003CD02285F2406244D2444249B249224A924A5F
S3151C003CE005618280397122DC26DA52D456D22EC660
S3151C003CF006DE4AD84ED65AD05ECE2A8AB28AB72457
S3151C003D00051CEFE09FBD9387048A83A7C70AB245AB
S3151C003D10014463E9F5069384048A81490144938B23
S3151C003D20440913094002130BC0F933052403B38558
S3151C003D303B010546B1195295BD3D2A94E39769FF8F
S3151C003D40330524038C5009465295B5352A94330500
S3151C003D502403CC4C09465295B93D2A9433052403B9
S3151C003D6011469385440E5295B9352A94330524037E
S3151C003D700D469385840052953D3D2A9463840A0022
S3151C003D8023A00A0079362285F2506254D254425935
S3151C003D90B259225A925A025BF24B2161828001115E
S3151C003DA022CC3724051C1304048A5C5C06CE95C3FE
S3151C003DB0B716051C3716051C85653715051C938615
S3151C003DC086F6130646B89385F5A61305C53CEF1073
S3151C003DD0D0182AC6EFE07FB08327840B3245F24009
S3151C003DE03E95232CA40A6244056125B6411106C6DC
S3151C003DF022C426C24AC015E1B716051C3716051C77
S3151C003E0085653715051C938686D7130686B9938553
S3151C003E1025A81305C53CEF1050142A84EFE0FFAB10
S3151C003E202285EFF0AFFE894701496313F506130996
S3151C003E3084054A85EF407045EF4030497C5C81CB58
S3151C003E401305C406EF4070448547230FF450EF401A
S3151C003E50704AB724051C1387048A83270408384331
S3151C003E609384048A6373F700BCC05147B387E70287
S3151C003E7013854404CA8505493E95EF40B03CDC4099
S3151C003E800327040883A7070863F4E70023A8240B69
S3151C003E904934B24022444A859244024941018280F7
S3151C003EA0011106CEEF407042B727051C03A5078AF1
S3151C003EB02AC6EF403044F24032450561828001112A
S3151C003EC006CE22CC26CA15E1B716051C3716051CCC
S3151C003ED08565938606D8130646CE9385D52E37154B
S3151C003EE0051C1305C53CEF10500732C636C42A8480
S3151C003EF0AE84EF40903DA246324681C6832784514C
S3151C003F009CC28347C4510947230EE450114793F7BB
S3151C003F10F70F6367C7043717051C130707450A06FF
S3151C003F203A961842028783258451CD8C232C9450B3
S3151C003F3031A0032784510507232CE45005476382CF
S3151C003F40E70405452AC6EF40F03AF2406244324582
S3151C003F50D244056182800947E39AE7FC0145DDB737
S3151C003F60832684517D57E38BE6FCB716051C371652
S3151C003F70051C8565938606D9130646CE9385E531C1
S3151C003F80B9BF930584052E852EC6B724051CEF40A4
S3151C003F90D02F1387048A8327040838439384048A02
S3151C003FA0B2456373F700BCC05147B387E70213855C
S3151C003FB044043E95EF4010297C5C89CFB716051C3E
S3151C003FC03716051C8565938606DB130646CE938538
S3151C003FD0D53231B7DC400327040883A70708E3F270
S3151C003FE0E7F60145EF40F06DA9BF797122D426D2C0
S3151C003FF04AD04ECE36C63724051C06D62A89AE8430
S3151C004000B289EF40902C9307048ADC4309471304BA
S3151C004010048A83C7C751B2466307F7025C4013493B
S3151C004020F9FF054703A587513379A90023AC27510E
S3151C0040305C40238EE75081CA36858545EFE04FE903
S3151C0040400145EF401068EF40F02AEF4010286387C7
S3151C00405009005C4083A7875123A0F9005C400947EF
S3151C004060014583C7C751631BF7005C4093C4F4FF2B
S3151C004070054503A78751F98C23AC97505C40238ECA
S3151C00408007502AC6EF401027B2502254324592548C
S3151C0040900259F24945618280011122CC26CA372475
S3151C0040A0051CAA8406CE2EC6EF4030229307048A2E
S3151C0040B0DC431304048A324583A7875181EF5C4095
S3151C0040C00547238EE75019C58545EFE06FE001458E
S3151C0040D0EF40305FEF401022EF40301F5C4003A5DD
S3151C0040E0875109C55C4099CC23AC07505C40238E94
S3151C0040F007502AC6EF401020F24062443245D24493
S3151C004100056182801307F5FF23ACE750C5B7011183
S3151C00411022CC26CA06CEB724051C9384048A2A847C
S3151C00412011E1C0402EC6EF40501ADC40B24503A533
S3151C00413087518327845193C5F5FFFD8D232CB450DD
S3151C0041402AC6EF40301BF24062443245D244056118
S3151C0041508280011106CE15E1B716051C3716051C03
S3151C00416085653715051C93868600130686C69385BA
S3151C00417005CF1305C53CEF10405E2AC6EF40F01470
S3151C004180B727051C9387078A324503A7470B9C4311
S3151C004190F24018C15CC105616F40D015011106CEF5
S3151C0041A022CC15E1B716051C3716051C85659386AA
S3151C0041B08600130606C8938565D03715051C13059E
S3151C0041C0C53CEF10805989EDB716051C3716051C22
S3151C0041D0856593864601130606C8938575D0F1BF7F
S3151C0041E02AC62EC4EF40700EB727051C9387078A74
S3151C0041F09443D8433245A2450347E75111C7DC43D4
S3151C004200238F075005440DA898417D56014463052C
S3151C004210C70283A7470B0328050050416305F80016
S3151C004220054463FBC600B387C64063FEE7001D8FCB
S3151C00423098C1EFF06F820144EF40D00B2285F2400B
S3151C00424062440561828023A005006DBF411122C412
S3151C0042503724051C06C626C24AC01304449AEF40DE
S3151C004260D0061C409DEB130944004A85EF40E07BB9
S3151C004270930484012685EF40407B0146C1451145C8
S3151C0042802326240304D8EFD0FF8008C019C5B71510
S3151C004290051C93858518EFD08FE52244B2409244C5
S3151C0042A0024941016F401005411106C64CC108C99F
S3151C0042B0AA876363B602184D158E0545637BE60017
S3151C0042C093854700B727051C03A5479DEF4000793A
S3151C0042D00145B240410182806375D6000545E3FA6B
S3151C0042E0D5FE93854700B727051C03A5079DF9BF77
S3151C0042F0011156C2AA8A1305C00222CC26CA4AC874
S3151C0043004EC652C406CEAE843289368ABA89112D5F
S3151C0043102A8421C9230405028DE0B716051C37160D
S3151C004320051C3715051C938606191306C60393052B
S3151C00433060161305C53CEF104042093F13054400A7
S3151C0043402320540104CC232E440123203403EF40A4
S3151C004350006F630809008347840293E74700230420
S3151C004360F4022285F2406244D2444249B249224AAE
S3151C004370924A05618280011106CE0DE1B716051C15
S3151C0043803716051C3715051C9386C61A1306861484
S3151C0043909305F03F1305C53CEF10203C2AC6EF40A1
S3151C0043A0C0723245484D2AC6EF40C074F2403245B1
S3151C0043B005618280011106CE0DE1B716051C371664
S3151C0043C0051C3715051C9386C61A1306C6159305B8
S3151C0043D0F0401305C53CEF1040382AC62EC4EF40EA
S3151C0043E0C06E3245A245F2404CCD05616F408070CF
S3151C0043F0011106CE0DE1B716051C3716051C37151F
S3151C004400051C9386C61A130646139305603E1305B0
S3151C004410C53CEF1080342AC6EF40206B324503455D
S3151C004420850205892AC6EF40E06CF24032450561DB
S3151C0044308280B727051C03A5879D1DE1B716051CA1
S3151C0044403716051C3715051C41119386461B13068A
S3151C004450C6069305D01A1305C53C06C6EF10E02FF9
S3151C00446082800111B68732C63E86B727051C2AC232
S3151C00447003A5479A2EC479578A85814606CE3AC02B
S3151C004480EFC0BFF0F24005618280B727051C83A7E9
S3151C004490479A011106CE8DE3B716051C3716051C67
S3151C0044A03715051C9386861D130606179305B04300
S3151C0044B01305C53CEF10602A3687FD5636C02AC246
S3151C0044C02EC432C68A8581463A863E85EFC0DF9B5E
S3151C0044D0F240056182801DE1B716051C3716051CC6
S3151C0044E03715051C41119386C61A1306C60D93056E
S3151C0044F0701F1305C53C06C6EF1020260841828096
S3151C004500011106CE0DE1B716051C3716051C37150D
S3151C004510051C9386C61A1306C6099305F01B1305BC
S3151C004520C53CEF1080232AC62EC4EF40005A3245E4
S3151C004530A2458347850289C993E747002304F502F0
S3151C004540F24005616F40005BED9BCDBF011106CEAD
S3151C0045500DE1B716051C3716051C3715051C938669
S3151C004560C61A1306060B9305401D1305C53CEF1012
S3151C004570C01E2AC6EF406055324503458502098197
S3151C00458005892AC6EF400057F240324505618280F4
S3151C0045901DE1B716051C3716051C3715051C4111E0
S3151C0045A09386C61A1306C6089305601B1305C53CDD
S3151C0045B006C6EF10801A084D82801DE1B716051C31
S3151C0045C03716051C3715051C41119386C61A13068A
S3151C0045D0860C9305D01E1305C53C06C6EF10E017C6
S3151C0045E048418280411106C695313728051C13089F
S3151C0045F0489A832708008DE3B716051C3716051C39
S3151C0046003715051C9386461E130646029305401154
S3151C0046101305C53CEF106014B7070080B715051CC1
S3151C0046203745001C130848039107014781461306AA
S3151C004630800C9385C51E1305A574EFE0FFD44DDDD4
S3151C004640B24041018280797106D622D40DE1B7169B
S3151C004650051C3716051C3715051C9386C61A13062A
S3151C0046604605930530181305C53CEF10000F37247B
S3151C004670051C1304449A1C402A88014595C7B68814
S3151C0046802EC832CA42CC954663C4B6023AC6EFE07F
S3151C004690BF923247894781463A866303F500014635
S3151C0046A008400C08EFC04FFEB25022544561828070
S3151C0046B0814646860C083E85EFC03FCDF5B70111F5
S3151C0046C026CAB724051C06CE22CC9384449ADC54F5
S3151C0046D0984309EB9858F2406244D8D49CD8D244EB
S3151C0046E005618280DC47C0479043930544002E85B4
S3151C0046F02EC632C4EF4060391C50228582978347F0
S3151C0047008402B2452246918BF9D31C4CB29763782E
S3151C004710F600C8545CC000C8EF4040344DBF01478A
S3151C00472081468145228505375DF1B716051C37166E
S3151C004730051C3715051C9386461F13060612930582
S3151C004740E0391305C53CEF104001397126DA52D405
S3151C004750B724051C371A051C56D206DE22DC4AD89D
S3151C0047604ED69384449AA54A130A4A46DC54984367
S3151C00477015CFDC47014483A90700EFE00F96EFF045
S3151C0047802FF29C5C2A896366F50288DC41C09C5822
S3151C0047909043133616008840B3852941EFD0EFA00D
S3151C0047A0EFF02F9701EDEF40C07109A80544814930
S3151C0047B0E9B7313723AC2403EFF0AF9588400146A7
S3151C0047C00C08EFC01FA05DD1C24763D60700F24597
S3151C0047D06245D2478297C247E3C207FE62445C48E1
S3151C0047E089C713054400EF40402AEFF06FEB9C5C31
S3151C0047F02A866375F5002AC6D9353246C24790DC2F
S3151C004800E3EEFAFA8A07D2979C4382870146E36451
S3151C00481035F9EFF00F90DC54DC47C0471305440014
S3151C004820EF40A0268347840213F747001DCF0C4C8C
S3151C004830CE864A86CE952285853C1DC90147814672
S3151C0048404E8681452285013505E5B716051C3716AA
S3151C004850051C9386461F1306C60E93052021371585
S3151C004860051C1305C53CEF00506FF99B2304F4028D
S3151C0048701C502285829799B7834784020C4CD246DA
S3151C00488093E717002304F402B6952285313CE3070F
S3151C00489005F21C502285829783478402918BE38FF5
S3151C0048A007F01C4C5246014781463E96814522859F
S3151C0048B0593BE31505F0B716051C3716051C9386E0
S3151C0048C0461F130646109305D03251BF83478402F8
S3151C0048D0F99B2304F402DDB583478402D24593E792
S3151C0048E017002304F4020CCC81EDB716051C3716F1
S3151C0048F0051C9386C61F130646109305503485B7B0
S3151C004900B286B29522854D3255BD8347840213F774
S3151C00491027005DFF2285952855B54CD182804851CC
S3151C0049208280411122C406C626C29377F5002A84CA
S3151C00493081C7137405FF4104EFD03FFA03A7C11EBC
S3151C0049409387C11E19E73737051C13070751419B6F
S3151C00495098C31387011F144311663D16369463785A
S3151C0049608600EFE01FFBEF40B06B814409A8E3FA19
S3151C00497086FE844300C3B694EFE0BFF9EDD4B24083
S3151C004980224426859244410182801DC1B716051C0E
S3151C0049903716051C3715051C411193860630130660
S3151C0049A0462F930510081305C53C06C6EF00F05AA2
S3151C0049B0828023A8011E828003A5011F9167C1174F
S30B1C0049C03385A74082802E
S3151C00500097D1040093810120173105001301810FEC
S3151C00501017B5FFFF1305057F7310553097D2040093
S3151C0050209382423917D304001303834523A002003D
S3151C0050309102E3ED62FE1705000013052579EF00CA
S3151C0050400076EF00100102454C000146EF406079E6
S3151C0050506F00A075828000000000000000000000A8
S3151C005060000000000000000000000000000000001E
S3151C005070000000000000000000000000000000000E
S3151C00508000000000000000000000000000000000FE
S3151C00509000000000000000000000000000000000EE
S3151C0050A000000000000000000000000000000000DE
S3151C0050B000000000000000000000000000000000CE
S3151C0050C000000000000000000000000000000000BE
S3151C0050D000000000000000000000000000000000AE
S3151C0050E0000000000000000000000000000000009E
S3151C0050F0000000000000000000000000000000008E
S3151C00510073900234F322203463C4021A93F2F23FE2
S3151C005110E11263C50200F11263CC020AF3220034C9
S3151C0051207310013417D104000321C18B130181F7BD
S3151C00513006C20EC612C816CA1ACC1ECE22D026D23B
S3151C0051402AD42ED632D836DA3ADC3EDEC2C0C6C2E5
S3151C005150CAC4CEC6D2C8D6CADACCDECEE2D0E6D215
S3151C005160EAD4EED6F2D8F6DAFADCFEDE7327103471
S3151C005170F32700303AC13EC3F392023416C4EF4003
S3151C005180C0608A421A4373901234731003309240E3
S3151C005190B2414242D2426243F243025492542255D5
S3151C0051A0B2554256D2566257F25706489648264979
S3151C0051B0B649464AD64A664BF64B065C965C265D55
S3151C0051C0B65D465ED65E665FF65F22417300203092
S3151C0051D0914263C4A206970200009382E2000A056C
S3151C0051E0AA9282826F0080056F0000016F00600129
S3151C0051F06F00C0016F006002130500087330053094
S3151C00520025A0130500087320053039A83725000092
S3151C005210130505807320053001A8372500001305EA
S3151C00522005807330053009A0F32210349102739067
S3151C0052301234F32200347300203039A2F3220034D6
S3151C005240130181F706C20EC612C816CA1ACC1ECE88
S3151C00525022D026D22AD42ED632D836DA3ADC3EDEF4
S3151C005260C2C0C6C2CAC4CEC6D2C8D6CADACCDECE64
S3151C005270E2D0E6D2EAD4EED6F2D8F6DAFADCFEDED4
S3151C00528073271034F32700303AC13EC393024700FC
S3151C00529016C19302810816C417C404000324C460F3
S3151C0052A0232024008A8417C104000321A17375A03E
S3151C0052B0F3220034130181F706C20EC612C816CAA1
S3151C0052C01ACC1ECE22D026D22AD42ED632D836DAE4
S3151C0052D03ADC3EDEC2C0C6C2CAC4CEC6D2C8D6CA14
S3151C0052E0DACCDECEE2D0E6D2EAD4EED6F2D8F6DAC4
S3151C0052F0FADCFEDE73271034F32700303AC13EC3B6
S3151C0053009302810816C417C404000324E4592320FD
S3151C00531024008A8417C104000321C16CF3232034A2
S3151C00532093F3F33F1303700063986300EFD0BF81C0
S3151C00533011C125A0268125A817C104000321816A55
S3151C005340EF40A044268125A0F32220347323103479
S3151C005350F323003073005010C5BFEFD07FB617C4BF
S3151C00536004000324645403210400EF30501F17C4A7
S3151C0053700400032464531A45EF30D07F17C404007D
S3151C005380032484522243232064008A421A437390C6
S3151C0053901234731003309240B2414242D2426243ED
S3151C0053A0F243025492542255B2554256D256625773
S3151C0053B0F257064896482649B649464AD64A664B87
S3151C0053C0F64B065C965C265DB65D465ED65E665FF3
S3151C0053D0F65F22417300203013000000130000000A
S3151C0053E0130000001300000013000000130000004F
S3151C0053F0130000001300000013000000130000003F
S3151C0054007310013417C104000321C15D130101008F
S3151C00541013018108130181F706C20EC612C816CAEB
S3151C0054201ACC1ECE22D026D22AD42ED632D836DA82
S3151C0054303ADC3EDEC2C0C6C2CAC4CEC6D2C8D6CAB2
S3151C005440DACCDECEE2D0E6D2EAD4EED6F2D8F6DA62
S3151C005450FADCFEDE73271034F32700303AC13EC354
S3151C005460F392023416C406C297C3040083A3C34333
S3151C00547003A103001A45EF30F06FEF30500E97C3AF
S3151C005480040083A3634203A1030097C3040083A300
S3151C005490A341224323A06300B71200009382028813
S3151C0054A073A042308A421A4373901234731003302D
S3151C0054B09240B2414242D2426243F2430254925457
S3151C0054C02255B2554256D2566257F257064896484E
S3151C0054D02649B649464AD64A664BF64B065C965C46
S3151C0054E0265DB65D465ED65E665FF65F8A402241E5
S3151C0054F0730020301300000013000000130000008E
S3151C005500930385F723A2030023A4A30023A6330039
S3151C00551023A8430023AA030023AC030023AE0300E5
S3151C00552023A0030223A2030223A4C30223A603026D
S3151C00553023A8030223AA030223AC030223AE0302FD
S3151C00554023A0030423A2030423A4030423A6030405
S3151C00555023A8030423AA030423AC030423AE0304D5
S3151C00556023A0030623A2030623A4030623A60306DD
S3151C00557023A8030623AA030623AC030623AE0306AD
S3151C00558023A0B30823A2D30893020000638702005A
S3151C005590F11323A00300FD12D5BF1E8582801300C4
S3151C0055A0000013000000130000001300000013008D
S3151C0055B0000013000000130000001300000013007D
S3151C0055C0000013000000130000001300000013006D
S3151C0055D0000013000000130000001300000013005D
S3151C0055E0000013000000130000001300000013004D
S3151C0055F0000013000000130000001300000001004F
S3151C00560017C104000321013E8A421A4373901234C7
S3151C005610731003309240B2414242D2426243F2437B
S3151C005620025492542255B2554256D2566257F257DC
S3151C005630064896482649B649464AD64A664BF64B0C
S3151C005640065C965C265DB65D465ED65E665FF65F5C
S3151C005650224182801300000013000000130000008A
S3151C00566013000000130000001300000013000000CC
S3151C00567013000000130000001300000013000000BC
S3151C00568013000000130000001300000013000000AC
S3151C005690130000001300000013000000130000009C
S3151C0056A0130000001300000013000000130000008C
S3151C0056B0130000001300000013000000130000007C
S3151C0056C0130000001300000013000000130000006C
S3151C0056D0130000001300000013000000130000005C
S3151C0056E0130000001300000013000000130000004C
S3151C0056F0130000001300000013000000130000003C
S3151C00570083220500638202021303800893030300AD
S3151C00571063EC630063EA620033836240137303FF26
S3151C005720232065001A8511A0014582800000000017
S3151C0057300000000000000000000000000000000047
S3151C0057400000000000000000000000004111194587
S3151C00575006C6692B0545EF30107783A7011A411140
S3151C005760328806C6AA882E873686C847630D080067
S3151C005770B717051C9387073CB715051CC68693856A
S3151C005780053D7520E1373718051C9307C83C1308DF
S3151C005790C83CDDB74111B286014606C67D3FAA85C7
S3151C0057A08146014601456F1020094111814522C4DD
S3151C0057B006C62A84EF10400E03A5C1195C5D91C371
S3151C0057C082972285EF3030700111B707000037072A
S3151C0057D0000022CC1307070013840700198C26CA65
S3151C0057E04AC84EC606CE0984814413890700F1595E
S3151C0057F0631A94006244F240D2444249B24905619C
S3151C0058006FF05F85B38734038504CA9783A7C7FFE8
S3151C0058108297F9BF397136D6741006CE3AD83EDA5D
S3151C00582042DC46DE36C6E923F240216182803971AC
S3151C0058303EDA32D42E86AA8503A5011A36D6341032
S3151C00584006CE3AD842DC46DE36C65D23F2402161DE
S3151C0058508280411122C426C237040000B70400000E
S3151C00586093870400130404001D8C4AC006C60984D1
S3151C00587093840400014963198902B7040000EFF000
S3151C0058806FFD3704000093870400130404001D8C6D
S3151C0058900984938404000149631D8900B240224493
S3151C0058A092440249410182809C40050991048297D9
S3151C0058B0D9B79C40050991048297F9BF39713EDA24
S3151C0058C083A7011A32D436D62ED23AD842DC46DE0B
S3151C0058D08C4754102A863E8506CE36C6112BF240BE
S3151C0058E021618280397132D436D63AD83EDA42DC0E
S3151C0058F046DE2E860C45341006CE36C6D529F24019
S3151C00590021618280B3C7A5008D8B3307C50081E753
S3151C0059108D4763EFC700AA876369E500828083C64B
S3151C005920050085078505A38FD7FEE3EAE7FE82807F
S3151C00593093773500BDEBAA879376C7FF138606FEC1
S3151C00594063FCC70683A3050083A2450083AF8500BD
S3151C00595003AFC50083AE050103AE450103A3850154
S3151C00596083A8C501938545029387470203A8C5FFF3
S3151C00597023AE77FC23A057FE23A2F7FF23A4E7FF41
S3151C00598023A6D7FF23A8C7FF23AA67FE23AC17FFAE
S3151C00599023AE07FF75B783C6050085078505A38F4C
S3151C0059A0D7FE93F63700E5FA41BFAA87DDBF9041C3
S3151C0059B09107910523AEC7FEE3EBD7FEE3E7E7F6B7
S3151C0059C082803D482A876373C8029377F700BDEF30
S3151C0059D0ADE5937606FF3D8ABA960CC34CC30CC73D
S3151C0059E04CC74107E36BD7FE11E28280B306C84061
S3151C0059F08A069702000096966780A6002307B700C2
S3151C005A00A306B7002306B700A305B7002305B700F6
S3151C005A10A304B7002304B700A303B7002303B700EE
S3151C005A20A302B7002302B700A301B7002301B700E6
S3151C005A30A300B7002300B700828093F5F50F939659
S3151C005A408500D58D93960501D58D61B79396270054
S3151C005A509702000096968682E78086FA9680C11782
S3151C005A601D8F3E96E374C8F8A5B7397122DC2A84CB
S3151C005A702E852EC606DEE124B717051C9387074024
S3151C005A803ED485473ED61C10B2453ECA89473ECCFD
S3151C005A901C5C2AD205052ED02ACE0C4491E7228501
S3151C005AA02EC6EF10E010B2458397C5001397270149
S3151C005AB0634B07008966F851D58F2396F500F97755
S3151C005AC0FD17F98FFCD150082285EF10A054FD5705
S3151C005AD011E1A947F25062543E8521618280AA8554
S3151C005AE003A5011A59B7411122C42E848C4126C222
S3151C005AF006C6AA8491C1C53FA2852244B24026850A
S3151C005B00924441016F10203783A7011A638FA7089F
S3151C005B107C45011122CC26CA4AC806CE4EC62A840A
S3151C005B2081441309000885EB2C4081C52285EF10A2
S3151C005B3080348325841495CD9304C414638B9502F9
S3151C005B4003A905002285EF100033CA85C5BFA6959B
S3151C005B508C4189E991046C44E39B24FF2285EF1058
S3151C005B608031D9B783A905002285EF10C030CE85B8
S3151C005B70CDB76C4881C52285EF10E02F1C5C99CFF0
S3151C005B805C5C228582978325042E89C92285624402
S3151C005B90F240D2444249B2490561B1B7F24062446F
S3151C005BA0D2444249B2490561828082800327C52DB1
S3151C005BB015EB41119305000822C406C62A84EF1072
S3151C005BC0701B232EA42CFD5709C9930705082320F7
S3151C005BD005001105E31DF5FE8147B24022443E85B2
S3151C005BE04101828081473E858280411126C206C6BC
S3151C005BF022C44AC07D47AA846376B700594718C198
S3151C005C007D5531A88327C52D32892E8499CF9315AE
S3151C005C10240003A4C42DA295884123A02501B240CB
S3151C005C202244924402494101828049376DD1C9BF41
S3151C005C30FD4763F6B700D9471CC17D558280832773
S3151C005C40C52D011122CC06CE2E862A8491C7139708
S3151C005C502500BA97984319EB228532C6F928AA85DE
S3151C005C60228562443246F24005614DA085460145B7
S3151C005C706308D700FD566319D700D9471CC00545D4
S3151C005C80F2406244056182802E8523A0070002979C
S3151C005C900145FDB7FD4763F4B7007D558280832718
S3151C005CA0C52D411122C426C206C6AA842E849DC7B0
S3151C005CB083A7C42D1317240005453E971C4395C383
S3151C005CC0FD560945638FD70085460D45638BD70066
S3151C005CD02285232007008297014521A0C13D69D951
S3151C005CE07D55B2402244924441018280AA8503A577
S3151C005CF0011A3DBF2E86AA8503A5011AFDB503A56B
S3151C005D00011A6DB5AA8503A5011A69B7411122C4EA
S3151C005D1026C2AA842E85B28506C623AC0126EF3080
S3151C005D20301DFD576316F50083A7812791C39CC0C0
S3151C005D30B24022449244410182806F30B01AAA8735
S3151C005D40850703C7F7FF6DFF3385A7407D15828046
S3151C005D501C46797122D406D626D24AD04ECE52CCB7
S3151C005D6056CA5AC85EC662C4328485E3232206001C
S3151C005D700145B250225492540259F249624AD24AFF
S3151C005D80424BB24B224C45618280FC512E891397A3
S3151C005D902701635A070404422A8AFD5B1C4499E7BF
S3151C005DA001452324040023220400E1B783A94400EF
S3151C005DB003AB0400814A13DC290063CB8A011C4413
S3151C005DC093F9C9FFA104B389374123243401F9B7D8
S3151C005DD083250B004A865285EF00D079110B630789
S3151C005DE07501850AD9BFEF10E02265BF7D5555BFE9
S3151C005DF069712324811223202113232E3111232C74
S3151C005E0041112326111223229112232A51112328D0
S3151C005E106111232671112324811123229111232020
S3151C005E20A111EEDFAA892E84328A368909C51C5D2A
S3151C005E3099E3EF00F0578317C40013972701634BB0
S3151C005E40070089667850D58F2316F400F977FD175D
S3151C005E50F98F7CD08357C400A18BA5C31C48B1CF36
S3151C005E608357C4002947E98B6390E7068317E40030
S3151C005E7063CC0704CA865286A2854E85EF00D005E0
S3151C005E80AA8B8320C112032481125E8583244112AE
S3151C005E90032901128329C111032A8111832A411165
S3151C005EA0032B0111832BC110032C8110832C411051
S3151C005EB0032D0110FE5D55618280A2854E85EF0083
S3151C005EC0500A59DDFD5B75BF130BC104DAC082C4D1
S3151C005ED082C25A8702D202CE02D002D4814BD2840D
S3151C005EE09306500283C7040099C3639CD706B38AE2
S3151C005EF0444163880A02A6472320470123225701EF
S3151C005F00D697BEC496479D4621078507BEC263D950
S3151C005F10F6009000A2854E85253D631705765A87A7
S3151C005F20D69B83C70400638A0778138A1400A30DC3
S3151C005F300102FD54814A014D294C930CA002130801
S3151C005F40A005A54503460A00050A930606FE6364DA
S3151C005F50D866B717051C8A069387C748BE9694420F
S3151C005F608286850441B7B716051C9386464036D2F1
S3151C005F7093760D026382064E1D09137989FF8328C9
S3151C005F800900832C4900130C890093761D0081CED1
S3151C005F90B3E6980189CA93060003230ED102A30E09
S3151C005FA0C102136D2D00137DFDBFADA44E853AC8ED
S3151C005FB0EF10A04148412AD459332AD04E85EF1000
S3151C005FC0C0400845825742472ACEB5DB2DD98346A9
S3151C005FD00500B5D6136D0D409DB78346B103A5F2DA
S3151C005FE093060002A30DD10299BF136D1D0081BF3C
S3151C005FF0832A09001109E3D40AF4B30A5041136D2C
S3151C0060004D0035BF9306B002F1BF03460A00930646
S3151C0060101A0063189603832409001306490063D3E8
S3151C0060200400FD543289368A19BFB384840385065D
S3151C00603003C6F6FFAA94130506FDE3F8A5FE368AE9
S3151C00604029B78144CDBF136D0D08D5BDD286814AB3
S3151C006050B38A8A03130606FD8506B29A03C6F6FFA3
S3151C006060130506FDE3F6A5FED9BF03460A009306F3
S3151C00607080066316D600050A136D0D20C9B5136D6F
S3151C0060800D0475BD03460A009306C0066316D600AA
S3151C006090050A136D0D0265B5136D0D014DB58326ED
S3151C0060A00900130C4900A30D01022306D1088544DF
S3151C0060B0814C1309C10869A2136D0D0193760D025B
S3151C0060C0B9C61D09137989FF83280900832C490049
S3151C0060D0130C890063DE0C00B3081041B3361001A3
S3151C0060E033039041B30CD3409306D002A30DD102C7
S3151C0060F0FD566398D43863950C3EA54663E2163F5D
S3151C00610093880803A307110F1309F10ED9A69376DA
S3151C0061100D01130C490091C68328090093DCF84134
S3151C00612055BF93760D048328090089C6C20893D8E7
S3151C0061300841EDB793760D20F5D2E20893D8884135
S3151C006140F1BF13760D0283260900110919C693D7D0
S3151C006150FB4123A07601DCC259B313760D0101C69F
S3151C00616023A07601ADBB13760D0409C6DE872390EA
S3151C006170F600B5B393770D20E5D7DE872380F600AE
S3151C006180B9BB136D0D0193760D029DCE1D091379B6
S3151C00619089FF83280900832C4900130C8900137D71
S3151C0061A0FDBF8146A30D01027D56638FC42C6A86F2
S3151C0061B0B3E59801137DFDF76398052C6383043EB4
S3151C0061C005466396C62C2DBF93760D01130C49000C
S3151C0061D081C68328090031A093760D0489C683588D
S3151C0061E00900814C6DBF93760D20E5D683480900C6
S3151C0061F0CDBFE17693C60683231ED10283280900F0
S3151C006200B716051C93868641130C4900814C136DE9
S3151C0062102D0036D2894679B7A30D0102FD56130C03
S3151C0062204900032909006388D41C268681454A85B2
S3151C0062303AC8EF101002814C424719C1B3042541DC
S3151C00624066CC63D39C0026CC8346B10381C6E24749
S3151C00625085073ECC937D2D0063850D00E24789079B
S3151C0062603ECC93774D083ED6A1E7E247B386FA406B
S3151C0062706350D004B717051CC1481388875F1D439C
S3151C006280164623200701A64505061305870063CC81
S3151C006290D83254C3AE96B6C4B2C29D462A8763D9B9
S3151C0062A0C6009000A2854E856534631F053C5A873F
S3151C0062B08346B1039DC61306B10310C30546964615
S3151C0062C050C326468506B6C20506B2C41D4621071E
S3151C0062D06359D6009000A2854E859D3C6316053AEF
S3151C0062E05A8763870D02701810C30946964650C319
S3151C0062F026468506B6C20906B2C41D462107635941
S3151C006300D6009000A2854E85A134631F05365A8798
S3151C006310B257930600086395D704E247B38DFA403B
S3151C0063206350B00541489D489646B717051C938790
S3151C00633087601CC32646850693058700634EB82BCB
S3151C0063402322B701B29DEEC4B6C21D462E876359E1
S3151C006350D6009000A2854E85E53A631705325A870A
S3151C006360B38C9C4063509005C14D1D489646B7178B
S3151C006370051C938787601CC32646850693058700E4
S3151C00638063C19D2B23229701B29CE6C4B6C21D464F
S3151C0063902E876359D6009000A2854E85553A631503
S3151C0063A0052E5A87A64644C323202701B694964633
S3151C0063B0A6C41D468506B6C221076359D6009000A1
