S00E0000626C696E6B792E737265638D
S3151C0008006F4010106F40D00F6F40900F6F40500F0D
S3151C0008106F40100F6F40D00E6F40900E6F40500E01
S3151C0008206F40100E6F40D00D6F40900D6F40500DF5
S3151C0008306F40100D6F40D00C6F40900C6F40500CE9
S3151C0008406F40100C6F40D00B6F40900B6F40500BDD
S3151C0008506F40100B6F40D00A6F40900A6F40500AD1
S3151C0008606F40100A6F40D0096F4090096F405009C5
S3151C0008706F4010096F40D0086F4090086F405008B9
S3151C0009004111714522C406C6EF30707E2A8411C57A
S3151C000910232005001105EF8040112285B240224498
S3151C00092041018280011106CE22CC26CA4AC84EC677
S3151C00093052C456C25AC00DE1B706051C3706051C23
S3151C0009409386460613060601930500143715051CE7
S3151C00095013050541EF407060B70900FFB3F9350177
S3151C0009602E84638D0900B706051C3706051C938665
S3151C00097006071306060193051014C9BF81EDB706B9
S3151C000980051C3706051C9386860913060601930566
S3151C00099020146DBF2A89B28A368B3A8AEF20805E74
S3151C0009A011ED630D0A00B706051C3706051C938658
S3151C0009B0060B130606019305501449BFEF1050721F
S3151C0009C083240900B377940063170B029DE78149C2
S3151C0009D0630C0A02B3355001E20563050B00B70729
S3151C0009E00004DD8D5286C18D13054900EF20202D94
S3151C0009F0D289814411A8E31CF4FC63870A0093473F
S3151C000A00F4FFE58F2320F900EF20706D638B09023C
S3151C000A1019E1EF80204BEF20605393176500AA84E1
S3151C000A2063CD0700EF80600A83240900B377940026
S3151C000A3063140B0285E7EF80E00B370500017D157B
S3151C000A40E98CF240624426854249D244B249224A84
S3151C000A50924A024B05618280E31FF4FCE38D0AFC7B
S3151C000A601344F4FF658C23208900F1B7011106CECF
S3151C000A7022CC0DE1B706051C3706051C93864606D7
S3151C000A80130646029305401D3715051C1305054123
S3151C000A90EF40B04CB70700FFED8F81CFB706051CA2
S3151C000AA03706051C93864610130646029305501DF1
S3151C000AB0E1BF2A842EC6EF804001B245084093C58B
S3151C000AC0F5FFE98D0CC02AC6EF80C002F2406244D5
S3151C000AD032450561828059BF2E86AA853715001CB2
S3151C000AE08146130565AD6F309014797106D622D4F4
S3151C000AF026D24AD04ECE52CC56CA0DE1B706051C9C
S3151C000B003706051C938646061306C6039305202145
S3151C000B103715051C13050541EF403044B70700FF88
S3151C000B20ED8F81CFB706051C3706051C9386C612AA
S3151C000B301306C60393053021E1BF2A849309C50019
S3151C000B402EC6EF10F0591C40B24508483709000163
S3151C000B50DD8D0CC081447D19370A00020C406312DE
S3151C000B60350393C4F4FFED8C04C0EF2050570840A6
S3151C000B70B250225492540259F249624AD24A4561F1
S3151C000B8082801841832A4500B37727011316570024
S3151C000B90B3F6B7006345060089E65685C1B7E39EE2
S3151C000BA0D7FE9316770063D30600DD8CB3E54501AB
S3151C000BB0EF20C026DDB715BFB2862E86AA8537154F
S3151C000BC0001C130565BB6F3090060111B70700FFAB
S3151C000BD006CE22CC26CA4AC84EC652C4F18F8DC335
S3151C000BE0B706051C3706051C938606071306060062
S3151C000BF09305600C3715051C13050541EF40F035B0
S3151C000C00B28401EEB706051C3706051C93868609B9
S3151C000C10130606009305700CF1BF2A892E8AB68925
S3151C000C20EF20403611ED638D0900B706051C37060B
S3151C000C30051C9386060B130606009305A00C5DBFC8
S3151C000C40EF10104A03240900D2854A85793D336486
S3151C000C504401B3779400639497060327090093C74E
S3151C000C60F4FF8149F98F2320F900EF205047638F49
S3151C000C70090219E1EF800025EF20402D931765002E
S3151C000C802A8463C10702EF70506403240900B3F77A
S3151C000C9084006397970093C4F4FFE18C232099008A
S3151C000CA0EF705065370500017D15698C2285F24071
S3151C000CB06244D2444249B249224A05618280638C0D
S3151C000CC00900B70500054E86C58D13054900EF10B2
S3151C000CD0107F014459BF0324090041BF084182808B
S3151C000CE0411122C42A8426C206C69304C400EF10EE
S3151C000CF0303F5C4091EB2285EF30F0452244B240F8
S3151C000D00924441016F20B03D084863129502B70614
S3151C000D10051C3706051C3715051C93860615130678
S3151C000D2006059305202713050541EF401023B7053B
S3151C000D300002EF20A00E75BF19C1084D8280014527
S3151C000D4082800CCD8280411122C42A8426C24AC0CC
S3151C000D5006C6EF7090578344540413094402E204F8
S3151C000D60E184634B9002FD57A302F404EF70905884
S3151C000D70EF70B0558344440413090401E204E18472
S3151C000D8063489002FD572302F4042244B240924465
S3151C000D90024941016F7010565C50F1D74A85EF101D
S3151C000DA0107E19C1EF20001DFD14E204E18455BF1D
S3151C000DB01C48E9DB4A85EF10907C19C1EF20801B8B
S3151C000DC0FD14E204E1846DBF011106CE22CC2AC6B5
S3151C000DD0EF70B04F3245005DEF70D051F2401335C5
S3151C000DE0140062440561828041114AC03289304137
S3151C000DF026C2045D22C406C62A840DE21C41014596
S3151C000E0091E70844EF20402423240400850404DCD5
S3151C000E10B240224492440249410182806310090275
S3151C000E204841EF40302E5C4038400145BA97184483
S3151C000E305CC0E3EDE7FC1C405CC0C9BF4845EF4005
S3151C000E40702C3C4058441440B307F0403E9758C49D
S3151C000E506375D7001844BA975CC489470145E317E4
S3151C000E60F9FACDD4FD145DB7AA87B0432E8501CE01
S3151C000E70D84794473297D8C76364D7009843D8C7D6
S3151C000E80CC476F4030288280397106DE22DC26DA98
S3151C000E904AD84ED652D456D25AD032C60DE1B706CF
S3151C000EA0051C3706051C9386C6381306462593056E
S3151C000EB0A02E3715051C13050541EF40100A2A8480
S3151C000EC0AE89B68491ED3C4181CFB706051C370629
S3151C000ED0051C93864639130646259305B02ED1BFAD
S3151C000EE089476391F402585C8547630DF700B70682
S3151C000EF0051C3706051C9386C63E13064625930518
S3151C000F00C02E45BFEF20000819EDB247014989CF15
S3151C000F10B706051C3706051C9386060B13064625C5
S3151C000F209305F02E79B70149894A7D5A130B0401A2
S3151C000F3061A0B24789E7EF70F03B01457DA06315C0
S3151C000F4009002808EF20002EEF70D03AEF10501938
S3151C000F50EF70B03783474404E207E1876394470187
S3151C000F602302040483475404E207E1876394470180
S3151C000F70A3020404EF7010386C002808EF30C01E62
S3151C000F803DEDEF709034185C5C5C6310F702EF70FB
S3151C000F907036B2455A85EF10F04D22856D33EF2021
S3151C000FA0101411E9EF70107239A0EF70B03422855D
S3151C000FB0593BEF20D0120549EF703031185C5C5C50
S3151C000FC06364F700E39754F72686CE852285293D70
S3151C000FD05C5089C713054402EF10705A01C50145C0
S3151C000FE0EF70506EEF7010310545F2506254D254BA
S3151C000FF04259B259225A925A025B21618280228539
S3151C0010009933EF20D00D15BF397106DE22DC26DAA6
S3151C0010104AD84ED652D432C60DE1B706051C370641
S3151C001020051C9386C6431306C62B9305C066371547
S3151C001030051C13050541EF4040722A842E8991ED4B
S3151C0010403C4181CFB706051C3706051C9386864492
S3151C0010501306C62B93050067D9BFEF10B07219EDA6
S3151C001060B247814489CFB706051C3706051C9386F3
S3151C001070060B1306C62B9305506755BF8144FD59B5
S3151C001080130A4402BDA0B24789E7EF70B02601459A
S3151C00109079A081E42808EF20E018EF70B025EF1046
S3151C0010A03004EF70902283474404E207E18763947F
S3151C0010B037012302040483475404E207E18763943F
S3151C0010C03701A3020404EF70F0226C002808EF30ED
S3151C0010D0A0093DE12285CD3939C9B2455285EF10AB
S3151C0010E0703922858D31EF20807F19E1EF70905D7C
S3151C0010F08544EF70901D1C5CD9D7CA852285444453
S3151C001100A5335C5044C489CB13054402EF10304709
S3151C00111001C50145EF70105BEF70D01D0545F250FF
S3151C0011206254D2544259B259225A21618280228574
S3151C0011301939EF20C07A6DBF22853131EF20207A14
S3151C0011402285593155D5A1B7411106C622C426C2DE
S3151C0011500DE1B706051C3706051C9386C638130613
S3151C001160062E9305B0753715051C13050541EF4072
S3151C001170C05E2A843C4189ED89CFB706051C37061B
S3151C001180051C9386464A1306062E9305C075E1BFB9
S3151C00119081EFB706051C3706051C9386864F13067A
S3151C0011A0062E9305D075C1B7185D814709C74445FE
S3151C0011B06539854744C4B240224492443E85410168
S3151C0011C08280397106DE22DC26DA4AD84ED652D403
S3151C0011D056D232C60DE1B706051C3706051C93868A
S3151C0011E0C64313068629930540503715051C13055F
S3151C0011F00541EF4080562A84AE8991ED3C4181CF52
S3151C001200B706051C3706051C9386864413068629D5
S3151C00121093058050D9BFEF10F05619EDB24701491E
S3151C00122089CFB706051C3706051C9386060B1306C5
S3151C00123086299305D05055BF01497D5A930A44020D
S3151C00124085A8B24789E7EF70F00A014541A86315E6
S3151C00125009002808EF10107DEF70D009EF104068C8
S3151C001260EF70B00683474404E207E18763944701A5
S3151C0012702302040483475404E207E187639447016D
S3151C001280A3020404EF7010076C002808EF20D06D31
S3151C00129025E52285153E21CDB2455685EF10901DBC
S3151C0012A022855534EF20A06319E1EF70B041054942
S3151C0012B0EF70B001045CD1D4CE852285FD146D3649
S3151C0012C004DC1C4889CB13050401EF10502B01C507
S3151C0012D00145EF70303FEF70F0010545F250625446
S3151C0012E0D2544259B259225A925A2161828022857D
S3151C0012F0993CEF20C05E65BF2285B134EF20205E8D
S3151C0013002285D9344DD591B7011106CE0DE1B7060C
S3151C001310051C3706051C3715051C938646511306F6
S3151C001320462F9305E07813050541EF4000432AC676
S3151C001330EF70A0793245085D2AC6EF70A07BF2409B
S3151C001340324505618280011106CE22CC0DE1B7061D
S3151C001350051C3706051C3715051C9386C63813064F
S3151C001360C6309305F07913050541EF40003F2A84EA
S3151C001370EF70A0751C5C485C1D8D2AC6EF708077CB
S3151C001380F2406244324505618280011106CE22CCB0
S3151C00139026CA4AC84EC60DE1B706051C3706051CEB
S3151C0013A09386C638130686269305C03B3715051C3F
S3151C0013B013050541EF40603A2A84328991ED3C4180
S3151C0013C081CFB706051C3706051C938646391306BE
S3151C0013D086269305D03BD9BF09475C5C6390E60221
S3151C0013E00547638DE700B706051C3706051C938663
S3151C0013F0C63E130686269305E03B4DBF185C636606
S3151C001400F700894701456392F602834454041C5C29
S3151C0014103686228593998401C13A93D98941FD5711
S3151C0014206397F9025C5089EB0545F2406244D2444D
S3151C0014304249B2490561828013054402EF103014FB
S3151C00144065D5E30309FE85472320F900F1BF850412
S3151C001450E204E184A3029404C1BF011106CE0DE18E
S3151C001460B706051C3706051C9386C6381306462880
S3151C001470930540463715051C13050541EF40E02D25
S3151C0014803C4181CFB706051C3706051C9386C65101
S3151C0014901306462893058046F1BF1C4191EF1C4557
S3151C0014A081CFB706051C3706051C93868653130683
S3151C0014B046289305D0467DBF185D545D8147637AE7
S3151C0014C0D70283475504050718DD93968701E186E5
S3151C0014D07D576394E6025C5199E3854719A8130569
S3151C0014E045022EC6EF10B009B24565D9FDD5854714
S3151C0014F09CC1F2403E85056182808507E207E18733
S3151C001500A302F504D9BF011106CE22CC26CA4AC8AD
S3151C0015104EC652C40DE1B706051C3706051C93863C
S3151C001520C6381306862C9305F06F3715051C130554
S3151C0015300541EF4080222A84B28991ED3C4181CF3E
S3151C001540B706051C3706051C9386464A1306862CC9
S3151C00155093050070D9BF032984030145630309025F
S3151C0015608344440422850932139A84017D19135A33
S3151C0015708A41232C2403FD576318FA021C4891EB5D
S3151C0015800545F2406244D2444249B249224A0561A9
S3151C001590828013050401EF10807E7DD1E38209FE53
S3151C0015A0854723A0F900E9BF8504E204E1842302F0
S3151C0015B09404F9B705E5B706051C3706051C8565B1
S3151C0015C03715051C41119386C63813064635938577
S3151C0015D0D5901305054106C6EF402018085D133546
S3151C0015E01500828005E5B706051C3706051C8565B2
S3151C0015F03715051C41119386C63813060637938585
S3151C00160055931305054106C6EF4020151C5D485D24
S3151C0016101D8D1335150082801DE1B706051C370686
S3151C001620051C3715051C41119386C6381306463210
S3151C0016309305007B1305054106C6EF400012085DA5
S3151C0016408280397106DE22DC26DA4AD84ED652D47E
S3151C0016502EC60DE1B706051C3706051C9386C64328
S3151C0016601306862A930550593715051C1305054183
S3151C001670EF40A00E3C412A8481CFB706051C3706D5
S3151C001680051C9386C6511306862A93059059E9BFF5
S3151C001690EF10500F05E1B2478144014991CFB706BF
S3151C0016A0051C3706051C9386060B1306862A93050E
S3151C0016B0E0595DBF81440149FD59130A440279A8CA
S3151C0016C0B24785E381CCB706051C3706051C9386F5
S3151C0016D0C6591306862A9305505E79B7EF7080416A
S3151C0016E075A0631509002808EF10D033EF708040F1
S3151C0016F0EF10001FEF70603D83474404E207E1874B
S3151C001700639437012302040483475404E207E187E8
S3151C00171063943701A3020404EF70C03D6C002808D3
S3151C001720EF20902459E12285EFF00FEA2DC91C40C9
S3151C00173089EBEF7080390844EF107006AA84EF70AD
S3151C001740603BB2455285EF10E0522285EFF0AFDFC9
S3151C001750EF20E01819E1EF70E0760549EF70E036EE
S3151C0017601C5CB9DFFD171CDC1C4081E7EF109029BF
S3151C00177008C41C4889CB13050401EF10406001C541
S3151C0017800145EF702074EF70E0368544F2506254C8
S3151C00179026854259D254B259225A21618280228509
S3151C0017A0EFF06FDAEF20A0134DBF2285EFF0AFD913
S3151C0017B0EF20E0122285EFF02FE145D1E1D8EF7042
S3151C0017C0C0305C50814589C71C5895459C439D8DEE
S3151C0017D008448144EF107013EF70C03145BF0111EE
S3151C0017E02AC606CEEF70602E32451C4189EB084591
S3151C0017F02AC6EF702030F2403245056182800145D1
S3151C001800C5BF1DE1B706051C3706051C3715051C8B
S3151C00181041119386C65C1306061E93057023130599
S3151C001820054106C6EF3070731841AA87014511E3BE
S3151C00183088478280011106CE22CC26CA0DE1B70646
S3151C001840051C3706051C3715051C9386865D130675
S3151C00185086219305902813050541EF301070044529
S3151C0018602A842EC6EF104070B245639BA4005C44CC
S3151C001870054585075CC4F2406244D24405618280FA
S3151C0018802285C1336DD95C4485075CC4EDB7411113
S3151C00189006C622C426C24AC00DE1B706051C370679
S3151C0018A0051C3715051C9386865D1306C61F9305F6
S3151C0018B0202513050541EF30506A032985002A842B
S3151C0018C0EF10806A8144631DA9005C448544FD17A2
S3151C0018D05CC499E78146014681452285EFF0CFDA43
S3151C0018E0B240224426850249924441018280B72790
S3151C0018F0051C9386078A01479387078A214603A8F6
S3151C0019000600631708000E07BA978CC3C8C38280EB
S3151C0019100507A106E315C7FE8280B727051C93861B
S3151C001920078A01479387078A2146CC426399A500FB
S3151C0019300E07BA9723A0070023A20700828005077B
S3151C001940A106E314C7FE8280411106C622C40DE11E
S3151C001950B706051C3706051C3715051C9386C638A5
S3151C001960130646349305B07B13050541EF30F05E34
S3151C0019702A84653722852244B24041016F20B07DFE
S3151C0019803727051C9306078A81471307078A2146B2
S3151C001990CC426396A5008E07BA978843828085073A
S3151C0019A0A106E397C7FE01458280011122CC2EC6F3
S3151C0019B02A8432C406CEEF704011834744047D57F7
S3151C0019C0B245E207E18722466394E700230204043A
S3151C0019D0834754047D57E207E1876394E700A3021B
S3151C0019E004042EC632C4EF70E0101C5CB2452246BD
S3151C0019F089E713054402EF10603322856244F240E6
S3151C001A0005616FF04FB4011106CE22CC0DE1B7066D
S3151C001A10051C3706051C3715051C9386C638130688
S3151C001A20861B9305301013050541EF3010532A848D
S3151C001A302EC6EF7080093040585C1440232C0402DB
S3151C001A40B307E60254C03387F600918FB6975CC481
S3151C001A50FD572302F404A302F404B24518C495E10D
S3151C001A601C4889CB13050401EF10603101C50145E3
S3151C001A70EF704045EF700008F24062440545056171
S3151C001A80828013050401EF60507A13054402EF604F
S3151C001A90D079CDB7011106CE22CC26CA4AC80DE193
S3151C001AA0B706051C3706051C3715051C9386065EEE
S3151C001AB01306C61C9305601713050541EF30F04944
S3151C001AC0AA843305B5022EC6328913050505EF20F7
S3151C001AD010622A84B24511C985E108C02CC044DCB9
S3151C001AE0854522850D37230624052285F24062444E
S3151C001AF0D244424905618280930705051CC1F9BF82
S3151C001B0041112A868145054522C406C661372A84A9
S3151C001B1001CD23240500232005002326050081462C
S3151C001B2001468145EFF04FB62285B2402244410161
S3151C001B308280411106C622C40DE1B706051C370674
S3151C001B40051C93864660130646239305E02C371521
S3151C001B50051C13050541EF3050402E84637DB500EE
S3151C001B60B706051C3706051C9386466113064623D5
S3151C001B709305F02CE9BF09468145293F11C100DDBB
S3151C001B80B2402244410182802CC582802845828035
S3151C001B900345C504828018455C410841BA973385C4
S3151C001BA0A7406363E500198D8280011106CE22CC05
S3151C001BB026CA4AC84EC652C40DE2B716051C3706BD
S3151C001BC0051C938646821306467D930540443715AD
S3151C001BD0051C13050541EF30503840411C452A8928
S3151C001BE02E8AB3898740B28463733601B289330760
S3151C001BF0340163FDE700B716051C3706051C9386E2
S3151C001C00C6831306467D9305E044D1B70325890197
S3151C001C104E86D2852295EF30F04E63F999028327C2
S3151C001C2089003386344163FDC700B716051C370689
S3151C001C30051C938646871306467D9305604541BF62
S3151C001C4003258901B3053A01EF30D04B8327890060
S3151C001C5026946363F4001D8C23228900F24062449F
S3151C001C6026854249D244B249224A05618280011125
S3151C001C7022CC06CE26CA4AC84EC652C4368463E354
S3151C001C80C600328445C004411845B30997406373A6
S3151C001C903401A289328AAE872A8963723603B71643
S3151C001CA0051C3706051C9386C68A1306C67E930535
S3151C001CB000483715051C13050541EF30102AB3865D
S3151C001CC03401637DD700B716051C3706051C9386A1
S3151C001CD0868C1306C67E93051048E1BF0C4D4E86B6
S3151C001CE03E85A695EF30104263F68902637D8A0015
S3151C001CF0B716051C3706051C938606901306C67E6A
S3151C001D00930590487DB783258901330634414E954A
S3151C001D10EF30503F83278900A29463E3F4009D8C27
S3151C001D20232099002285F2406244D2444249B2499A
S3151C001D30224A05618280B716051C3716051C371505
S3151C001D40051C411193864691130646809305804CCB
S3151C001D501305054106C6EF305020797106D622D4EC
S3151C001D6026D24AD04ECE52CC56CA8DE1B716051C89
S3151C001D703706051C9386C695130646709305102DCB
S3151C001D803715051C13050541EF30301D2A8401ED5E
S3151C001D90B716051C3706051C9386869613064670D1
S3151C001DA09305202DF1BF8344C5012E8AB2898588EF
S3151C001DB0B68A8A04A1CAEF6050512285E93B2A895A
S3151C001DC063E5A4020145EF60705A1C4881CFB71623
S3151C001DD0051C3706051C93868697130646709305C5
S3151C001DE0502F79BFEF10401808C8EF60B05063EA57
S3151C001DF02403D686014681450145EF20C01B22855A
S3151C001E0023280400493B2A8963EDA4008144B2506F
S3151C001E102254268502599254F249624AD24A456195
S3151C001E20828085C0CA8626866C002285832A040089
S3151C001E303D3DB2473309994063FBF9022320540107
S3151C001E408149CA864E86D28522851535AA845DDDD2
S3151C001E50EF0010295C4889CB4848814601468145DC
S3151C001E60EF20A002232A0400EF1070274DB7BE896D
S3151C001E70C9BF797106D622D426D24AD04ECE52CCB0
S3151C001E8056CA5AC88DE1B716051C3706051C93861B
S3151C001E90C69513060674930550363715051C13058F
S3151C001EA00541EF30900B2A8401EDB716051C370649
S3151C001EB0051C938686961306067493056036F1BF39
S3151C001EC08344C5012E8AB2898588B68A8A04E13183
S3151C001ED02A8963EEA4008144B250225426850259F5
S3151C001EE09254F249624AD24A424B4561828085C06D
S3151C001EF0AA8626866C002285032B04008D3BB247DE
S3151C001F003309994063F8F902232064018149CA8682
S3151C001F104E86D2852285A13BAA8455DD5C48CDDF41
S3151C001F2048485687814601468145EF009021232A61
S3151C001F3004005DB7BE89E1BF1DE1B716051C370657
S3151C001F40051C3715051C41119386869613060665D6
S3151C001F509305B0161305054106C6EF3010008347DE
S3151C001F60C501898B99E36F20101F1306400281451A
S3151C001F706F3030251DE1B716051C3706051C3715B5
S3151C001F80051C4111938686961306C6759305003D5E
S3151C001F901305054106C6EF30407C1C4148411D8D8A
S3151C001FA0133515008280797106D622D426D24AD0E2
S3151C001FB04ECE52CC56CA0DE1B716051C3706051C6B
S3151C001FC03715051C938686961306466693051019C7
S3151C001FD013050541EF3060782A8483290502EF60DA
S3151C001FE0D02E1C480145A1E758483E8529E3044CE0
S3151C001FF0032984009305500526854A86832AC40036
S3151C002000034AC401EF30F01B6383A4002D3313066F
S3151C002010000281452285EF30D01A054504CC2324C5
S3151C002020240123265401230E4401232034032AC6EB
S3151C002030EF60502CB2502254324592540259F24948
S3151C002040624AD24A456182801DE1B716051C3706D5
S3151C002050051C3715051C4111938686961306866941
S3151C0020609305B01D1305054106C6EF30006F1C41D4
S3151C002070184554413305F7007D15158D6363E5003E
S3151C002080198D8280397106DE22DC26DA4AD84ED6B4
S3151C00209052D436C68DE1B716051C3706051C938629
S3151C0020A0069B1306466D930540203715051C130524
S3151C0020B00541EF30806A2A8401EDB716051C3706E8
S3151C0020C0051C938686961306466D93055020F1BF14
S3151C0020D08347C5012E8A3289858B85C393094600A1
S3151C0020E0636E3601B716051C3706051C9386C69B00
S3151C0020F01306466D930500214DBFB289B24785E391
S3151C00210022859937AA844ACAA5EC8144F2506254A6
S3151C00211026854259D254B259225A216182802808F6
S3151C002120EF10F07FEF60701A2285393FAA84637620
S3151C00213035050145EF6090235C4881CFB716051C19
S3151C0021403706051C9386069E1306466D930590223C
S3151C002150A9BFEF00706148C8EF60D019B24681452F
S3151C00216001460145EF1030656C00232A040028083F
S3151C002170EF10907F45D9C9D479B7EF60B017E5BF8A
S3151C0021808347C401858B9DEF63739900CA8426CA55
S3151C0021905246D2852285113CAA8425D92285E53A48
S3151C0021A05C44E365F5F6EF00A0731C4889CB084830
S3151C0021B0814601468145EF10504D23280400EF103F
S3151C0021C00072A9B7E3E334F511464C082285F13AAF
S3151C0021D0C1B7397106DE22DC26DA4AD84ED68DE125
S3151C0021E0B716051C3706051C9386069B1306866EBA
S3151C0021F09305B0263715051C13050541EF30E05530
S3151C0022002A8401EDB716051C3706051C938686968F
S3151C0022101306866E9305C026F1BF8347C501AE849F
S3151C002220B689858B328999C313094600228532C625
S3151C002230213D324632CE11E98144F2506254268544
S3151C0022404259D254B259216182808347C401858B7D
S3151C00225085EF6373C5002A8632CE7246A685228513
S3151C002260A932AA8471D922853D325C44E367F5FC08
S3151C0022701C48E1D708484E87814601468145EF0038
S3151C002280406C2328040055BFE36825FB11466C08E7
S3151C0022902285213AD9B7411106C622C40DE1B716CB
S3151C0022A0051C3706051C3715051C938686961306D2
S3151C0022B046779305703E13050541EF30004A0344EB
S3151C0022C0C5015933B24005880A043335A40022449B
S3151C0022D013451500410182801DE1B716051C370602
S3151C0022E0051C3715051C4111938686961306866BAD
S3151C0022F09305301F1305054106C6EF30004661B82D
S3151C0023001DE1B716051C3706051C3715051C4111A2
S3151C00231093868696130686679305E01B130505416F
S3151C00232006C6EF308043AA8791E18545984701454B
S3151C0023306364B700CCC705458280411106C622C41A
S3151C0023400DE1B716051C3706051C3715051C9386AB
S3151C0023508696130686789305A04013050541EF3033
S3151C002360C03F1C492A84014591CB08482E878146CB
S3151C00237001468145F923054523280400B240224421
S3151C00238041018280411106C622C40DE1B716051C07
S3151C0023903706051C3715051C938686961306C67AC2
S3151C0023A09305804213050541EF30203B5C492A8486
S3151C0023B0014591CB48482E878146014681455123CC
S3151C0023C00545232A0400B2402244410182800111A2
S3151C0023D026CA4AC806CE22CC4EC652C48547AA84F3
S3151C0023E02E896316F6029147054A63EFA702B716B4
S3151C0023F0051C3706051C938646A1130646639305E2
S3151C002400800E3715051C13050541EF300035014AB2
S3151C00241001EDB716051C3706051C9386C6A31306C5
S3151C00242046639305E00EF1BF63FD2401B716051C38
S3151C0024303706051C938646A5130646639305000FAF
S3151C002440C9B763130900054913855402EF20204AB6
S3151C0024502A8415C9930945028504268693055005C9
S3151C0024604E85EF3000566383A900F13013064002F7
S3151C00247081452285EF30E054232C340104C42326E5
S3151C0024802401230E44012285F2406244D24442496F
S3151C002490B249224A05618280011106CE22CC26CA87
S3151C0024A00DE1B716051C3706051C93868696130682
S3151C0024B0C671930570333715051C13050541EF309E
S3151C0024C0C0298347C5012A84858BA1C3EFF0AFECD5
S3151C0024D09147AA8663FFA70011466C00228504401B
S3151C0024E0EFF0EFF8324504C0F2406244D244056175
S3151C0024F0828001CDB716051C3706051C9386C6A718
S3151C0025001306C671930500357DB70145F1BF0CD185
S3151C0025108280085182800345C50105898280184145
S3151C002520AA8729CB584113068500584358C1631402
S3151C002530C700584558C1D8438328C700D8435843B9
S3151C002540D8C36314E600D847D8C3D843AE864847D9
S3151C0025501307850813038509038E06000308070065
S3151C0025606318C801630A080005078506E316E3FE1F
S3151C002570E396A8FC01458280828079715AC82A8B11
S3151C0025800325480826D24ECEB70400809319260090
S3151C0025904AD056CA2E89B28A93C4F4FF4E86930536
S3151C0025A0500A22D452CC5EC662C466C23E8A42849B
S3151C0025B006D6B68BC68C135CF701F98CEF306040DF
S3151C0025C083274408F119BE9993F909FF6301091081
S3151C0025D0CA8593078408130709018386050023808F
S3151C0025E0D7008386050089C685058507E397E5FE22
S3151C0025F0A30B0408914763F3970091442320940886
S3151C0026002322940A130584052324040AEF6020431D
S3151C0026101305C406EF60A042154703264408B304FD
S3151C0026209740D68613070002E6851305440060D042
S3151C00263064D420DC232C0408EF60500C232C04509B
S3151C002640130680428145230E04501305040FEF30F8
S3151C00265040379307C43D232AF40E93074444232C86
S3151C002660F40E9307C44A232EF40E8547232CF41824
S3151C002670B737CDAB9387E7302320F41AB7176DE62F
S3151C002680938747232322F41AB7E705009387C7EEDF
S3151C0026902324F41AAD472316F41A230F0450E2869A
S3151C0026A05E86DA854E85EF60B05108C063040A0069
S3151C0026B023208A00B250225492540259F249624A8B
S3151C0026C0D24A424BB24B224C924C45618280230427
S3151C0026D004080DB7797122D43724051C4AD0130976
S3151C0026E0048E26D24ECEAA8483290900832749004C
S3151C0026F00325490006D6238F0750130585052EC6CC
S3151C002700EF60A038FD571304048EB2456391F402A2
S3151C00271099CD832549002254B2509254F24913058F
S3151C002720890002599385850545616F60A0315C401F
S3151C002730CE94A4CF63FE3401484C4C402254B25074
S3151C00274092540259F2499385850545616F600031A3
S3151C00275008504C4093858505EF6040305C5063F310
S3151C002760F40044D0B250225492540259F2494561A5
S3151C0027708280B716051C3716051C3715051C41111A
S3151C0027809386C6D2130686B09305E07213050541DF
S3151C00279006C6EF20907C411122C42A841305050F1E
S3151C0027A006C6EF3060368347D45199EB032544089F
S3151C0027B0EF20601A22852244B24041016F20A019E5
S3151C0027C00547E389E7FE09476383E702B716051C3D
S3151C0027D03716051C85653715051C938646D31306C7
S3151C0027E086C9938565F913050541EF201077B2401C
S3151C0027F022444101828011E5B727051C9387078E69
S3151C002800C84301478146014611056F60206F11E5DB
S3151C002810B727051C9387078EC843032505088280A6
S3151C002820011106CE22CC26CA4AC80DE1B716051CD4
S3151C0028303716051C3715051C938686D61306C6B295
S3151C0028409305F07813050541EF2030713724051CDC
S3151C00285038559307048EA107AA841304048E0149D4
S3151C002860631AF7047C5D130584026385A704B9E328
S3151C0028705C5C9385C4068DEF5C4003A904089385B4
S3151C002880840583A707082E852EC63339F900EF6009
S3151C002890C01F03A504083C4013491900B24563F345
S3151C0028A0A70028C0D1473305F5021304440422951A
S3151C0028B0EF604019F24062444A85D24442490561A0
S3151C0028C082804111054506C6EF60C05FB727051C0F
S3151C0028D0B2409387078E23A4070A41016F60E05D0F
S3151C0028E0B727051C9387078ED85F0507D8DF82801C
S3151C0028F0B727051C03A5078E8280B727051C93875F
S3151C002900078E03A5C70A828015E9B727051C93877E
S3151C002910078EC84305E5B716051C3716051C8565C5
S3151C0029203715051C4111938686D7130646B6938523
S3151C00293095951305054106C6EF20306213058508DB
S3151C0029408280011106CE22CC26CA4AC815E1B716CA
S3151C002950051C3716051C8565938606D8130686CF77
S3151C002960938515363715051C13050541EF20F05EBA
S3151C0029702A843A8981C6832785519CC28347C451C0
S3151C0029800947230EE450114793F7F70F6364C704F6
S3151C0029903717051C130707480A063A96184202877A
S3151C0029A003278451D98D232CB45031A0032784517D
S3151C0029B00507232CE4500547638FE7020545F240C3
S3151C0029C06244D2444249056182800947E39DE7FC83
S3151C0029D00145F5B7832684517D57E38EE6FCB71671
S3151C0029E0051C3716051C8565938606D9130686CFE6
S3151C0029F09385453A85BF7C5C89CFB716051C37166F
S3151C002A00051C8565938606DB130686CF9385F53AEA
S3151C002A1091BFB724051C9387048EDC5F9384048EB8
S3151C002A20B1E7930584052E852EC6EF600006832725
S3151C002A300408B840B2456373F700BCC05147B3875E
S3151C002A40E702138544043E95EF50D07FDC400327F4
S3151C002A50040883A70708E3F3E7F66305090085471F
S3151C002A602320F900854723A8F40A89BF9305C406C9
S3151C002A7013858402D1BF011106CE22CC26CA4AC8B0
S3151C002A8015E1B716051C3716051C8565938606D8F1
S3151C002A90130646D19385153E3715051C13050541AE
S3151C002AA0EF20B04B89470347C551230EF5508327AA
S3151C002AB085512A848507232CF5508547639DE70697
S3151C002AC07C5D89CFB716051C3716051C8565938654
S3151C002AD006DB130646D1938575407DBFB724051CBE
S3151C002AE09387048EDC5F2E899384048EB9EB930541
S3151C002AF085052E852EC6EF50507983270408B840CD
S3151C002B00B2456373F700BCC05147B387E702138510
S3151C002B1044043E95EF501073DC400327040883A73A
S3151C002B20070863FAE7006305090085472320F900B7
S3151C002B30854723A8F40AF2406244D24442490561FF
S3151C002B4082809305C50613858402E9B7011122CC40
S3151C002B503724051C9307048ED85F06CE26CA4AC89E
S3151C002B604EC652C456C25AC0631D070E03AA07009E
S3151C002B701304048E050A23A0470163110A049C53FF
S3151C002B809C4395C3B716051C3716051C856537155A
S3151C002B90051C938606DF130686BA938525AE130598
S3151C002BA00541EF20903B1C50584C18D05CCC832719
S3151C002BB0440B8507232AF40AEF50506F5C50814959
S3151C002BC06372FA045C40514783A70708B387E70280
S3151C002BD0A297F843854763F3E70085498327840B4F
S3151C002BE099E3EF6070488327040B91C38549F24033
S3151C002BF062444E85D2444249B249224A924A024B09
S3151C002C0005618280930A4404514B1C509C4381E706
S3151C002C10FD575CD045BF1C50DC47C447BC4CE36A1F
S3151C002C20FAFE138984054A85EF503066FC5C89C719
S3151C002C301385C406EF50706503A504083C4063F376
S3151C002C40A70028C033056503CA855695EF50905FCB
S3151C002C505C4003A7040883A70708E368F7FA8549BD
S3151C002C606DB703A7870B8149050723ACE70AEF60FD
S3151C002C70B03FB5BF411106C622C415E1B716051CE7
S3151C002C803716051C85653715051C938686E61306BF
S3151C002C9006BD938535C313050541EF20102CB727B8
S3151C002CA0051C9387078E2E84CC439385C506EF504F
S3151C002CB0F05A22852244B2408545410121BC0111AE
S3151C002CC006CE15E1B716051C3716051C85659386B9
S3151C002CD086E6130686BE938545C43715051C130563
S3151C002CE00541EF209027B727051C9387078ED85FD1
S3151C002CF009EFB716051C3716051C8565938646E72E
S3151C002D00130686BE938585C4C9BFD843B706008003
S3151C002D10D58D6CD7CC4332C69385C506EF509052E1
S3151C002D203246F2408545328505616DB2011106CEEB
S3151C002D3022CC15E1B716051C3716051C85653715FB
S3151C002D40051C938686E6130686C09385E5C5130582
S3151C002D500541EF209020B727051C9387078E2E84EC
S3151C002D60CC4332C69385C506EF50D04D324611C2B0
S3151C002D707D5422856244F240B2850561A1BA5C4548
S3151C002D80011126CAC44706CE22CC95E0B716051CEF
S3151C002D903716051C85653715051C938606E913062B
S3151C002DA086C29385E5C813050541EF20101B938544
S3151C002DB0C4062E852EC63724051CEF50104D9307CE
S3151C002DC0048EDC5F1304048EB2451305840285E76A
S3151C002DD0938584052E852EC6EF50304B83A7040899
S3151C002DE03840B2456373F7003CC05147B387E702CE
S3151C002DF0130544043E95EF50F0445C4003A70408B9
S3151C002E00014583A7070863F6E70085472328F40ACC
S3151C002E100545F2406244D24405618280011122CCF0
S3151C002E203724051C1307048E585F06CE26CA15E3E5
S3151C002E30B716051C3716051C8565938606EA130608
S3151C002E4046C4938555CC3715051C13050541EF2043
S3151C002E50D010370700804445D98D0CC189ECB716B4
S3151C002E60051C3716051C8565938606E9130646C49C
S3151C002E709385D5CCC9BFEF505041938584052E85CB
S3151C002E802EC61304048EEF50504083A70408384006
S3151C002E90B2456373F7003CC05147B387E70213057D
S3151C002EA044043E95EF50103A5C4003A7040883A7E0
S3151C002EB0070863F5E70085472328F40AF2406244B5
S3151C002EC0D24405618280B727051C1387078E545F81
S3151C002ED089C685472328F70A82809387078E23A8ED
S3151C002EE0070AB8435145B306A7023386D7006C427E
S3151C002EF085C92C469306C604CC412CC66394D500C2
S3151C002F00D44134C6D146B306D702BE96B446D4467F
S3151C002F10D4C3B8C3DC439387070F23A0F11A82805E
S3151C002F2005E7B716051C3716051C85653715051CE0
S3151C002F304111938606ED1306C6BB9385A5C11305E1
S3151C002F40054106C6EF2070017D1771BFB727051C0A
S3151C002F509387078ED843D443685783A60608D8435D
S3151C002F609547958F7CD78280B727051C9387078E3C
S3151C002F70C8438280B727051C9387078E054723A85D
S3151C002F80E70A8280B727051C9387078E03A7870A43
S3151C002F90054509C7C85F13351500060582805DC146
S3151C002FA0011126CAB724051C1387048E5443832794
S3151C002FB0050806CE83A6060822CC9384048E63FBE2
S3151C002FC0D706785563480700D84083260708154757
S3151C002FD0158F78D5D146B387D70213874404BA9781
S3151C002FE038556313F704930585052A842E852EC64A
S3151C002FF0EF50B029DC40B24503A50708BC4023208E
S3151C003000A40863F3A700A8C0D1473305F502B72768
S3151C003010051C938747923E95EF50D0220545F240FA
S3151C0030206244D24405618280DC4083A707082320C2
S3151C003030F508EDB75C430325450A83A70708333516
S3151C003040F500F1BF0145828009E9014582800145F1
S3151C003050F2406244D24405618280011126CAB7241B
S3151C003060051C9387048E22CCC04306CE9384048E03
S3151C0030706303A402B716051C3716051C8565371590
S3151C003080051C938606EE130686CA9385C50413058E
S3151C0030900541EF20806C8327840A95E3B716051C2F
S3151C0030A03716051C85653715051C938686EF130692
S3151C0030B086CA9385D50413050541EF20006A83262D
S3151C0030C004080327440AFD172324F40AE381E6F8BF
S3151C0030D0BDFF930584052E852EC6EF50101B0325B8
S3151C0030E0440A9547B245898F7CD4BC402320A4084A
S3151C0030F063F3A700A8C0D1473305F50293844404A3
S3151C0031002695EF5030140545A1B775C18326850A4F
S3151C003110011122CC06CE26CA2A8495E2B716051CB6
S3151C0031203716051C85653715051C938686EF130611
S3151C00313006CC9385B50913050541EF20006283274C
S3151C003140450A63F3B700AE8703270408630CF70828
S3151C00315005466399C608B724051C9386048ED4427B
S3151C0031609384048E63938602B716051C3716051CBA
S3151C00317085653715051C938606F1130606CC9385C3
S3151C003180650B13050541EF20405D74542320F4089C
S3151C00319063C606009546B387F6407CD4D1463307F2
S3151C0031A0D702938744043E973C54639DE7029305DC
S3151C0031B084052E852EC6EF50500D03250408BC40F1
S3151C0031C0B24563F3A700A8C0D1473305F502624494
S3151C0031D0F240D244B727051C9387479205613E955A
S3151C0031E06F505006F2406244D24405618280828050
S3151C0031F001C50325050A82800145828019C1232049
S3151C003200B50A8280B727051C1387078E58439387F8
S3151C003210078E19C7D44303A7860A050723A4E60A03
S3151C003220C8438280B727051C9387078E03A7470BC5
S3151C0032309C4318C15CC18280011122CC26CA52C48F
S3151C003240AA843724051C06CE4AC84EC6EF50F00782
S3151C0032509307048E03A7C70A3725051C1304048E7F
S3151C003260050723A6E70ADC43130A4592E1E344C09B
S3151C0032700327C40A85476310F70613054592EF50CA
S3151C003280C07A13058405EF50407A1305C406EF5027
S3151C003290C07913050408EF50407913054409EF5013
S3151C0032A0C0789309C40B4E85EF5020781309040D82
S3151C0032B04A85EF50807713058402EF50007713057B
S3151C0032C0440EEF50807613058400EF5000762320C1
S3151C0032D03403232E24018327840F03A504088507A2
S3151C0032E0232CF40E23AEF4083C4063F3A70028C03D
S3151C0032F0D1473305F502938584055295EF508074AA
S3151C003300EF50407F8327840A95CF5C4003A70708AC
S3151C00331083A704086378F7026244F240D244424908
S3151C003320B249224A014505616F50D0398327840A68
S3151C003330DDF35C4003A7070883A70408E3EDE7F861
S3151C00334044C051BFF2406244D2444249B249224A67
S3151C0033500561828079714AD02A89131526004ECEC2
S3151C00336052CC56CA06D622D426D2BA893E8AC28ADC
S3151C0033702EC632C4EF10A05731C5AA8413050052BD
S3151C003380EF10E0562A842A8EB24522460DC92A8899
S3151C00339023229508A30E05508148D6875287CE86D0
S3151C0033A04A85EFF08F9D2285413D0545B25022543A
S3151C0033B092540259F249624AD24A45618280268554
S3151C0033C0EF1060597D55DDB7411122C43724051C09
S3151C0033D01304048EB715051C3795001C1308C40F5F
S3151C0033E0B7070080014781461306800C938585F23A
S3151C0033F0130545B226C24AC006C60549A13FAA8482
S3151C003400631B2503EF10C01AAA8463162503EF500D
S3151C003410702B5C40B2409387070F23A0F11AFD570F
S3151C0034205CD02324940A232004002244924402499B
S3151C00343041016F507024FD576393F402B716051CA7
S3151C0034403716051C85653715051C938606F313066A
S3151C00345006B49385658413050541EF200030B24000
S3151C003460224492440249410182805849011106CEE8
S3151C00347022CC26CA0DE3B716051C3716051C3715B4
S3151C003480051C938646F4130646A99305502B130573
S3151C0034900541EF20802C2A84130500522EC6EF10FE
S3151C0034A00045AA842A8E7D55B2479DCC5848930860
S3151C0034B08401268823A2E4080547A38EE4501848F5
S3151C0034C05444035684004C400840EFF00F8BB7055C
S3151C0034D0001C13060004938505041385C40AEF20FB
S3151C0034E060422685913B0545F2406244D244056103
S3151C0034F08280411122C426C23724051CAA8406C612
S3151C0035004AC01304048EEF50405C91E0444013897A
S3151C00351084054A85EF506057FC5C89C71385C40631
S3151C003520EF50A0568327840F8507232CF40E5C408E
S3151C00353063969704CA851305440EEF50A050832743
S3151C003540041085072320F410EF50C05A8327840AE1
S3151C003550A9CB5C40639797045C5C85CFB716051CAA
S3151C0035603716051C3715051C938686F61306C6AA40
S3151C0035709305204F13050541EF20201E8327C40AFF
S3151C0035802685FD172326F40AEFF0EFA0EF50005214
S3151C00359065BF2244B24092440249014541016F5025
S3151C0035A07012B240224492440249410182800111A8
S3151C0035B02AC606CEEF506051324511E5B727051CC9
S3151C0035C09387078EC843032505082AC6EF508052E9
S3151C0035D0F240324505618280011106CE22CC26CAF4
S3151C0035E04AC84EC652C40DE1B716051C3716051C33
S3151C0035F03715051C938686D7130646AD930580584A
S3151C00360013050541EF2060153724051C1304048E91
S3151C00361058402A890145630E2703EF50004B032AA5
S3151C0036200402832489068329C401EF50A04C094552
S3151C00363063814403638F3401930784006393F4020C
S3151C0036400327C90719E70347C95185466383E60063
S3151C0036500D45F2406244D2444249B249224A0561B0
S3151C00366082801304440E1145E38584FEFDD0054576
S3151C003670CDB7011106CE22CC26CA4AC8914763F2A1
S3151C003680B702B716051C3716051C3715051C93867D
S3151C00369046F8130646AE9305206213050541EF2036
S3151C0036A0C00B2EC62A84EF504042B24511E4B72700
S3151C0036B0051C9387078EC0430327440A638AE508C3
S3151C0036C03729051C1309098E637BB7088327490014
S3151C0036D08144638A87008327490083A40708B3B4FF
S3151C0036E0950093C41400832704086314F700232051
S3151C0036F0B40878542322B40A634607001547B30559
S3151C003700B7406CD4D146B387D70213074904BA977E
S3151C0037103854631BF702930584052E852EC6EF507D
S3151C003720C0360325040883270904B24563F4A700A1
S3151C0037302320A904D1473305F502B727051C938717
S3151C00374047923E95EF50003081C40145EF5080777B
S3151C0037506244F240D244424905616F50A039832429
S3151C0037604900818C93B41400BDBF411122C426C2EA
S3151C0037703724051CAA8406C64AC01304048EEF50BF
S3151C003780C03491E04440138984054A85EF50E02FEC
S3151C003790FC5C89C71385C406EF50202FCA85130508
S3151C0037A08400EF50202A83C7C45105476314F700D1
S3151C0037B0238E0450EF5000348327840A99C7EF5098
S3151C0037C0C030EF50A02EEF50E0325C406396970459
S3151C0037D08327840A9DCB5C5C8DC3B716051C3716E4
S3151C0037E0051C3715051C938686F6130686AF9305AE
S3151C0037F0407013050541EF1050762244B2409244A6
S3151C0038000249014541016F50E06B18448327C40AE5
S3151C003810631AF70023220400B24022449244024950
S3151C003820410182802244B2409244024941016FF018
S3151C0038308FE9011106CE22CC26CA0DE1B716051C4E
S3151C0038403716051C3715051C938686D6130606B235
S3151C0038509305807513050541EF1030703724051C40
S3151C0038609307048EDC43AA841304048E6384A70680
S3151C003870EF50A025B854930784006317F704FC5C2B
S3151C003880130784026382E704A1E3938584052E85CE
S3151C0038902EC6EF50801F83A704083840B2456373B9
S3151C0038A0F7003CC05147B387E702130544043E9515
S3151C0038B0EF5040195C4003A7040883A707086365FB
S3151C0038C0F7000145EF5000606244F240D2440561A6
S3151C0038D06F504022F2406244D24405618280797165
S3151C0038E022D43724051C9307048EDC5F06D626D209
S3151C0038F04AD04ECE52CC95E3B716051C3716051C7E
S3151C00390085653715051C938606FA130646B59385F9
S3151C003910558B13050541EF1050641304048EEF50AC
S3151C003920C01A5C5CFD175CDC5C5C91CF01452AC649
S3151C003930EF50401CB2502254324592540259F2495F
S3151C003940624A456182808327C40A8144E5D31309F0
S3151C0039504404D149054A1C548DEB99C0EF500015FF
S3151C0039608324840B99C80549EFF04F9E19C123285F
S3151C003970240BFD14F5F8232C040A8327040BDDD72E
S3151C0039800145EF50205405455DB75C58C447138567
S3151C003990C406EF50800F938584052E852EC6EF50E6
S3151C0039A0C00E03A504083C40B24563F3A70028C01B
S3151C0039B0330535034A95EF50E0085C4003A704081D
S3151C0039C083A70708E369F7F82328440B69B701E9BD
S3151C0039D0014521A0F240014505616F50A04EB72755
S3151C0039E0051C9387078EDC5F011106CE8DC3B716A7
S3151C0039F0051C3716051C3715051C938686F61306FB
S3151C003A0086AC9305C05513050541EF1010552AC603
S3151C003A10EFE01FED32458145EFE0DFCBC9355DD9BF
S3151C003A20F24005618280011106CE22CC26CA0DE128
S3151C003A30B716051C3716051C938686FB130686AB24
S3151C003A40930560503715051C13050541EF10F05002
S3151C003A5081EDB716051C3716051C9386C6FC130686
S3151C003A6086AB93057050F9BFB724051C9384048E4E
S3151C003A70DC5C81CFB716051C3716051C938686F6AB
S3151C003A80130686AB9305805075BF2A842EC6EFE0BD
S3151C003A903FE51840B2458840B307B7001CC0637C9D
S3151C003AA0E50063ECE700253D0DE16244F240D2449B
S3151C003AB005616F50204163E4E700E376F5FE81451E
S3151C003AC03385A740EFE01FC1F9BFF2406244D244E0
S3151C003AD005618280411122C426C24AC006C62E84B4
S3151C003AE03289AA8411E5B727051C9387078EC44320
S3151C003AF0938784085CC083A7040804C01CC883A7DA
S3151C003B0044085CCC83A7C4091CC483A7440A232C81
S3151C003B1004005CC89547638DF604B727051C93877C
S3151C003B20078EDC43639A9702232604006308090464
S3151C003B3083A644081306500A368783450700B30735
S3151C003B40D740638BC50289832310F402B2402244FA
S3151C003B50924402494101828054C48D47E398F6FC85
S3151C003B60EFE01FD8FC5C99C389475CC48D3B7DBFC5
S3151C003B7026859D3448C45DBF0507C1B723100402C2
S3151C003B80F1B79C41797126D206D622D44AD04ECEA4
S3151C003B9052CC56CA5AC85EC68144B9C7DC41938A00
S3151C003BA08500DC43DCC163945701DC45DCC1DC4188
S3151C003BB0B2892E8403ABC7002A898144930B400229
S3151C003BC05C40DC435CC06394FA005C445CC0B38517
S3151C003BD074035C40CE86054603AAC700850452853D
S3151C003BE0CA95CD3DE31E4BFDB25022542685025983
S3151C003BF09254F249624AD24A424BB24B4561828088
S3151C003C0001114AC806CE22CC26CA4EC652C456C27A
S3151C003C102A89EF20C012BD4763F3A702B716051CFD
S3151C003C203716051C85653715051C938646FE130637
S3151C003C3046B79385759C13050541EF101032B724C2
S3151C003C40051C9384048EEFE0BFC98149938A4409FD
S3151C003C50130AC0F9CA8533853A01EFE05F8C2A84C2
S3151C003C600DEDB119E39849FF8850CA85EFE03F8BEB
S3151C003C702A8405E5C84CCA85EFE07F8A2A8411EDA3
S3151C003C80CA8513858400EFE09F892A8419E5CA85B5
S3151C003C901385440EEFE0BF882A8491312285F240B9
S3151C003CA06244D2444249B249224A924A0561828000
S3151C003CB0397122DC26DA52D456D22EC606DE4AD8F2
S3151C003CC04ED65AD05ECE2A8AB28AB724051CEFE09D
S3151C003CD03FC19387048E83A7C70AB245014463E993
S3151C003CE0F5069384048E81490144938B4409130978
S3151C003CF04002130BC0F933052403B3853B0105466B
S3151C003D00B1195295BD3D2A94E39769FF33052403E7
S3151C003D108C5009465295B5352A9433052403CC4C50
S3151C003D2009465295B93D2A943305240311469385B9
S3151C003D30440E5295B9352A94330524030D469385B2
S3151C003D40840052953D3D2A9463840A0023A00A00F0
S3151C003D5079362285F2506254D2544259B259225AAB
S3151C003D60925A025BF24B21618280011122CC3724CC
S3151C003D70051C1304048E5C5C06CE95C3B716051C85
S3151C003D803716051C85653715051C938686F613069E
S3151C003D9046B8938505A713050541EF10101C2AC6C6
S3151C003DA0EFE01FB48327840B3245F2403E95232C4B
S3151C003DB0A40A6244056125B6411106C622C426C260
S3151C003DC04AC015E1B716051C3716051C856537153F
S3151C003DD0051C938686D7130686B9938535A81305C5
S3151C003DE00541EF1090172A84EFE09FAF2285EFF074
S3151C003DF0AFFE894701496313F506130984054A85F5
S3151C003E00EF40B048EF40704C7C5C81CB1305C40678
S3151C003E10EF40B0478547230FF450EF40B04DB72411
S3151C003E20051C1387048E8327040838439384048E49
S3151C003E306373F700BCC05147B387E702138544047C
S3151C003E40CA8505493E95EF40F03FDC400327040830
S3151C003E5083A7070863F4E70023A8240B4934B24060
S3151C003E6022444A859244024941018280011106CEB0
S3151C003E70EF40B045B727051C03A5078E2AC6EF40A1
S3151C003E807047F240324505618280011106CE22CC74
S3151C003E9026CA15E1B716051C3716051C85659386BB
S3151C003EA006D8130646CE9385E52E3715051C130535
S3151C003EB00541EF10900A32C636C42A84AE84EF4000
S3151C003EC0D040A246324681C6832784519CC2834772
S3151C003ED0C4510947230EE450114793F7F70F636744
S3151C003EE0C7043717051C130747490A063A96184292
S3151C003EF0028783258451CD8C232C945031A0032713
S3151C003F0084510507232CE45005476382E7040545C5
S3151C003F102AC6EF40303EF24062443245D244056127
S3151C003F2082800947E39AE7FC0145DDB78326845165
S3151C003F307D57E38BE6FCB716051C3716051C8565F5
S3151C003F40938606D9130646CE9385F531B9BF9305DC
S3151C003F5084052E852EC6B724051CEF401033138707
S3151C003F60048E8327040838439384048EB2456373F6
S3151C003F70F700BCC05147B387E702138544043E953E
S3151C003F80EF40502C7C5C89CFB716051C3716051CD8
S3151C003F908565938606DB130646CE9385E53231B7D7
S3151C003FA0DC400327040883A70708E3F2E7F601456C
S3151C003FB0EF405071A9BF797122D426D24AD04ECE79
S3151C003FC036C63724051C06D62A89AE84B289EF402C
S3151C003FD0D02F9307048EDC4309471304048E83C732
S3151C003FE0C751B2466307F7025C401349F9FF054700
S3151C003FF003A587513379A90023AC27515C40238E36
S3151C004000E75081CA36858545EFE0CFEC0145EF4088
S3151C004010706BEF40302EEF40502B638709005C40DD
S3151C00402083A7875123A0F9005C400947014583C734
S3151C004030C751631BF7005C4093C4F4FF054503A7F7
S3151C0040408751F98C23AC97505C40238E07502AC6A7
S3151C004050EF40502AB2502254324592540259F2492A
S3151C00406045618280011122CC26CA3724051CAA84EC
S3151C00407006CE2EC6EF4070259307048EDC43130430
S3151C004080048E324583A7875181EF5C400547238EFA
S3151C004090E75019C58545EFE0EFE30145EF40906217
S3151C0040A0EF405025EF4070225C4003A5875109C59F
S3151C0040B05C4099CC23AC07505C40238E07502AC623
S3151C0040C0EF405023F24062443245D244056182805F
S3151C0040D01307F5FF23ACE750C5B7011122CC26CA3E
S3151C0040E006CEB724051C9384048E2A8411E1C04095
S3151C0040F02EC6EF40901DDC40B24503A58751832791
S3151C004100845193C5F5FFFD8D232CB4502AC6EF4070
S3151C004110701EF24062443245D24405618280011110
S3151C00412006CE15E1B716051C3716051C8565371511
S3151C004130051C93868600130686C6938515CF130524
S3151C0041400541EF1080612AC6EF403018B727051CC1
S3151C0041509387078E324503A7470B9C43F24018C131
S3151C0041605CC105616F401019011106CE22CC15E108
S3151C004170B716051C3716051C85659386860013061F
S3151C00418006C8938575D03715051C13050541EF1018
S3151C004190C05C89EDB716051C3716051C856593860C
S3151C0041A04601130606C8938585D0F1BF2AC62EC4C0
S3151C0041B0EF40B011B727051C9387078E9443D8434D
S3151C0041C03245A2450347E75111C7DC43238F0750ED
S3151C0041D005440DA898417D5601446305C70283A773
S3151C0041E0470B0328050050416305F800054463FB93
S3151C0041F0C600B387C64063FEE7001D8F98C1EFF06B
S3151C0042006F820144EF40100F2285F2406244056123
S3151C004210828023A005006DBF411122C43724051CD2
S3151C00422006C626C24AC01304449EEF40100A1C4010
S3151C0042309DEB130944004A85EF40207F93048401BB
S3151C0042402685EF40807E0146C14511452326240361
S3151C00425004D8EFD03F8408C019C5B715051C938533
S3151C0042608518EFD0CFE82244B2409244024941015E
S3151C0042706F405008411106C64CC108C9AA87636322
S3151C004280B602184D158E0545637BE60093854700DF
S3151C004290B727051C03A547A1EF40407C0145B2404A
S3151C0042A0410182806375D6000545E3FAD5FE9385E8
S3151C0042B04700B727051C03A507A1F9BF011156C264
S3151C0042C0AA8A1305C00222CC26CA4AC84EC652C4A4
S3151C0042D006CEAE843289368ABA89112D2A8421C922
S3151C0042E0230405028DE0B716051C3716051C371569
S3151C0042F0051C938606191306C6039305601613053B
S3151C0043000541EF108045093F130544002320540145
S3151C00431004CC232E440123203403EF40407263084F
S3151C00432009008347840293E747002304F40222858D
S3151C004330F2406244D2444249B249224A924A056139
S3151C0043408280011106CE0DE1B716051C3716051C19
S3151C0043503715051C9386C61A130686149305F03F5B
S3151C00436013050541EF10603F2AC6EF400076324523
S3151C004370484D2AC6EF400078F240324505618280DE
S3151C004380011106CE0DE1B716051C3716051C37158F
S3151C004390051C9386C61A1306C6159305F04013050D
S3151C0043A00541EF10803B2AC62EC4EF4000723245F1
S3151C0043B0A245F2404CCD05616F40C073011106CE7B
S3151C0043C00DE1B716051C3716051C3715051C9386FB
S3151C0043D0C61A130646139305603E13050541EF10D6
S3151C0043E0C0372AC6EF40606E3245034585020589F3
S3151C0043F02AC6EF402070F240324505618280B727FD
S3151C004400051C03A587A11DE1B716051C3716051C3F
S3151C0044103715051C41119386461B1306C6069305C4
S3151C004420D01A1305054106C6EF10203382800111F0
S3151C004430B68732C63E86B727051C2AC203A5479EE9
S3151C0044402EC479578A85814606CE3AC0EFC0FFF343
S3151C004450F24005618280B727051C83A7479E011180
S3151C00446006CE8DE3B716051C3716051C3715051C1D
S3151C0044709386861D130606179305B043130505413F
S3151C004480EF10A02D3687FD5636C02AC22EC432C662
S3151C0044908A8581463A863E85EFC01F9FF24005619C
S3151C0044A082801DE1B716051C3716051C3715051C21
S3151C0044B041119386C61A1306C60D9305701F130564
S3151C0044C0054106C6EF10602908418280011106CEFF
S3151C0044D00DE1B716051C3716051C3715051C9386EA
S3151C0044E0C61A1306C6099305F01B13050541EF10E2
S3151C0044F0C0262AC62EC4EF40405D3245A2458347DE
S3151C004500850289C993E747002304F502F240056139
S3151C0045106F40405EED9BCDBF011106CE0DE1B71677
S3151C004520051C3716051C3715051C9386C61A13065B
S3151C004530060B9305401D13050541EF1000222AC6E4
S3151C004540EF40A058324503458502098105892AC6D4
S3151C004550EF40405AF2403245056182801DE1B71694
S3151C004560051C3716051C3715051C41119386C61AE2
S3151C0045701306C6089305601B1305054106C6EF10F6
S3151C004580C01D084D82801DE1B716051C3716051C7B
S3151C0045903715051C41119386C61A1306860C9305FE
S3151C0045A0D01E1305054106C6EF10201B484182800C
S3151C0045B0411106C695313728051C1308489E8327CA
S3151C0045C008008DE3B716051C3716051C3715051C88
S3151C0045D09386461E13064602930540111305054194
S3151C0045E0EF10A017B7070080B715051C3745001C30
S3151C0045F0130848039107014781461306800C9385CF
S3151C004600C51E13056571EFE0FFD44DDDB2404101B7
S3151C0046108280797106D622D40DE1B716051C371691
S3151C004620051C3715051C9386C61A130646059305E5
S3151C004630301813050541EF1040123724051C1304CE
S3151C004640449E1C402A88014595C7B6882EC832CA86
S3151C00465042CC954663C4B6023AC6EFE0BF923247D7
S3151C004660894781463A866303F500014608400C08D3
S3151C004670EFC09F81B2502254456182808146468696
S3151C0046800C083E85EFC07FD0F5B7011126CAB724AA
S3151C004690051C06CE22CC9384449EDC54984309EB1D
S3151C0046A09858F2406244D8D49CD8D2440561828082
S3151C0046B0DC47C0479043930544002E852EC632C462
S3151C0046C0EF40A03C1C502285829783478402B2454A
S3151C0046D02246918BF9D31C4CB2976378F600C854CA
S3151C0046E05CC000C8EF4080374DBF014781468145FD
S3151C0046F0228505375DF1B716051C3716051C3715BF
S3151C004700051C9386461F130606129305E0391305EE
S3151C0047100541EF108004397126DA52D4B724051CE2
S3151C004720371A051C56D206DE22DC4AD84ED693848E
S3151C004730449EA54A130A8A4ADC54984315CFDC4783
S3151C004740014483A90700EFE0AF99EFF02FF29C5CC0
S3151C0047502A896366F50288DC41C09C58904313364F
S3151C00476016008840B3852941EFD02FA4EFF02F9770
S3151C00477001EDEF40207509A805448149E9B7313799
S3151C00478023AC2403EFF0AF95884001460C08EFC01C
S3151C0047905FA35DD1C24763D60700F2456245D24787
S3151C0047A08297C247E3C207FE62445C4889C7130569
S3151C0047B04400EF40802DEFF06FEB9C5C2A866375FE
S3151C0047C0F5002AC6D9353246C24790DCE3EEFAFA22
S3151C0047D08A07D2979C4382870146E36435F9EFF03A
S3151C0047E00F90DC54DC47C04713054400EF40E0291A
S3151C0047F08347840213F747001DCF0C4CCE864A868E
S3151C004800CE952285853C1DC9014781464E8681452C
S3151C0048102285013505E5B716051C3716051C93863A
S3151C004820461F1306C60E930520213715051C1305B6
S3151C0048300541EF009072F99B2304F4021C5022855B
S3151C004840829799B7834784020C4CD24693E717008C
S3151C0048502304F402B6952285313CE30705F21C506D
S3151C0048602285829783478402918BE38F07F01C4C29
S3151C0048705246014781463E9681452285593BE315A2
S3151C00488005F0B716051C3716051C9386461F13061E
S3151C00489046109305D03251BF83478402F99B2304EB
S3151C0048A0F402DDB583478402D24593E7170023043F
S3151C0048B0F4020CCC81EDB716051C3716051C938625
S3151C0048C0C61F130646109305503485B7B286B2959B
S3151C0048D022854D3255BD8347840213F727005DFFA1
S3151C0048E02285952855B54CD182804851828041112C
S3151C0048F022C406C626C29377F5002A8481C7137480
S3151C00490005FF4104EFD0DFFD03A7C11E9387C11E1F
S3151C00491019E73767051C13070701419B98C31387C3
S3151C004920011F144311663D16369463788600EFE02A
S3151C0049301FFBEF40B071814409A8E3FA86FE84434D
S3151C00494000C3B694EFE0BFF9EDD4B24022442685ED
S3151C0049509244410182801DC1B716051C3716051CE1
S3151C0049603715051C4111938606301306462F9305F1
S3151C00497010081305054106C6EF00305E828023A889
S3151C004980011E828003A5011F9167C1173385A740AD
S3071C004990828001
S3151C00500097D104009381012417610500130181BF08
S3151C00501017B5FFFF1305057F7310553097D2040093
S3151C0050209382423D17D304001303834923A0020035
S3151C0050309102E3ED62FE1705000013052579EF00CA
S3151C0050400076EF00100102454C000146EF40207C23
S3151C0050506F00A075828000000000000000000000A8
S3151C005060000000000000000000000000000000001E
S3151C005070000000000000000000000000000000000E
S3151C00508000000000000000000000000000000000FE
S3151C00509000000000000000000000000000000000EE
S3151C0050A000000000000000000000000000000000DE
S3151C0050B000000000000000000000000000000000CE
S3151C0050C000000000000000000000000000000000BE
S3151C0050D000000000000000000000000000000000AE
S3151C0050E0000000000000000000000000000000009E
S3151C0050F0000000000000000000000000000000008E
S3151C00510073900234F322203463C4021A93F2F23FE2
S3151C005110E11263C50200F11263CC020AF3220034C9
S3151C0051207310013417D104000321C18F130181F7B9
S3151C00513006C20EC612C816CA1ACC1ECE22D026D23B
S3151C0051402AD42ED632D836DA3ADC3EDEC2C0C6C2E5
S3151C005150CAC4CEC6D2C8D6CADACCDECEE2D0E6D215
S3151C005160EAD4EED6F2D8F6DAFADCFEDE7327103471
S3151C005170F32700303AC13EC3F392023416C4EF4003
S3151C00518080638A421A437390123473100330924020
S3151C005190B2414242D2426243F243025492542255D5
S3151C0051A0B2554256D2566257F25706489648264979
S3151C0051B0B649464AD64A664BF64B065C965C265D55
S3151C0051C0B65D465ED65E665FF65F22417300203092
S3151C0051D0914263C4A206970200009382E2000A056C
S3151C0051E0AA9282826F0080056F0000016F00600129
S3151C0051F06F00C0016F006002130500087330053094
S3151C00520025A0130500087320053039A83725000092
S3151C005210130505807320053001A8372500001305EA
S3151C00522005807330053009A0F32210349102739067
S3151C0052301234F32200347300203039A2F3220034D6
S3151C005240130181F706C20EC612C816CA1ACC1ECE88
S3151C00525022D026D22AD42ED632D836DA3ADC3EDEF4
S3151C005260C2C0C6C2CAC4CEC6D2C8D6CADACCDECE64
S3151C005270E2D0E6D2EAD4EED6F2D8F6DAFADCFEDED4
S3151C00528073271034F32700303AC13EC393024700FC
S3151C00529016C19302810816C417C404000324C464EF
S3151C0052A0232024008A8417C104000321A17775A03A
S3151C0052B0F3220034130181F706C20EC612C816CAA1
S3151C0052C01ACC1ECE22D026D22AD42ED632D836DAE4
S3151C0052D03ADC3EDEC2C0C6C2CAC4CEC6D2C8D6CA14
S3151C0052E0DACCDECEE2D0E6D2EAD4EED6F2D8F6DAC4
S3151C0052F0FADCFEDE73271034F32700303AC13EC3B6
S3151C0053009302810816C417C404000324E45D2320F9
S3151C00531024008A8417C104000321C170F32320349E
S3151C00532093F3F33F1303700063986300EFD01F825F
S3151C00533011C125A0268125A817C104000321816E51
S3151C005340EF406047268125A0F322203473231034B6
S3151C005350F323003073005010C5BFEFD0DFB617C45F
S3151C00536004000324645803210400EF30701F17C483
S3151C0053700400032464571A45EF40800217C4040036
S3151C005380032484562243232064008A421A437390C2
S3151C0053901234731003309240B2414242D2426243ED
S3151C0053A0F243025492542255B2554256D256625773
S3151C0053B0F257064896482649B649464AD64A664B87
S3151C0053C0F64B065C965C265DB65D465ED65E665FF3
S3151C0053D0F65F22417300203013000000130000000A
S3151C0053E0130000001300000013000000130000004F
S3151C0053F0130000001300000013000000130000003F
S3151C0054007310013417C104000321C161130101008B
S3151C00541013018108130181F706C20EC612C816CAEB
S3151C0054201ACC1ECE22D026D22AD42ED632D836DA82
S3151C0054303ADC3EDEC2C0C6C2CAC4CEC6D2C8D6CAB2
S3151C005440DACCDECEE2D0E6D2EAD4EED6F2D8F6DA62
S3151C005450FADCFEDE73271034F32700303AC13EC354
S3151C005460F392023416C406C297C3040083A3C3472F
S3151C00547003A103001A45EF30B072EF30700E97C3CC
S3151C005480040083A3634603A1030097C3040083A3FC
S3151C005490A345224323A06300B7120000938202880F
S3151C0054A073A042308A421A4373901234731003302D
S3151C0054B09240B2414242D2426243F2430254925457
S3151C0054C02255B2554256D2566257F257064896484E
S3151C0054D02649B649464AD64A664BF64B065C965C46
S3151C0054E0265DB65D465ED65E665FF65F8A402241E5
S3151C0054F0730020301300000013000000130000008E
S3151C005500930385F723A2030023A4A30023A6330039
S3151C00551023A8430023AA030023AC030023AE0300E5
S3151C00552023A0030223A2030223A4C30223A603026D
S3151C00553023A8030223AA030223AC030223AE0302FD
S3151C00554023A0030423A2030423A4030423A6030405
S3151C00555023A8030423AA030423AC030423AE0304D5
S3151C00556023A0030623A2030623A4030623A60306DD
S3151C00557023A8030623AA030623AC030623AE0306AD
S3151C00558023A0B30823A2D30893020000638702005A
S3151C005590F11323A00300FD12D5BF1E8582801300C4
S3151C0055A0000013000000130000001300000013008D
S3151C0055B0000013000000130000001300000013007D
S3151C0055C0000013000000130000001300000013006D
S3151C0055D0000013000000130000001300000013005D
S3151C0055E0000013000000130000001300000013004D
S3151C0055F0000013000000130000001300000001004F
S3151C00560017C10400032101428A421A4373901234C3
S3151C005610731003309240B2414242D2426243F2437B
S3151C005620025492542255B2554256D2566257F257DC
S3151C005630064896482649B649464AD64A664BF64B0C
S3151C005640065C965C265DB65D465ED65E665FF65F5C
S3151C005650224182801300000013000000130000008A
S3151C00566013000000130000001300000013000000CC
S3151C00567013000000130000001300000013000000BC
S3151C00568013000000130000001300000013000000AC
S3151C005690130000001300000013000000130000009C
S3151C0056A0130000001300000013000000130000008C
S3151C0056B0130000001300000013000000130000007C
S3151C0056C0130000001300000013000000130000006C
S3151C0056D0130000001300000013000000130000005C
S3151C0056E0130000001300000013000000130000004C
S3151C0056F0130000001300000013000000130000003C
S3151C00570083220500638202021303800893030300AD
S3151C00571063EC630063EA620033836240137303FF26
S3151C005720232065001A8511A0014582800000000017
S3151C0057300000000000000000000000000000000047
S3151C0057400000000000000000000000004111194587
S3151C00575006C6692B0545EF30D07983A7011A41117E
S3151C005760328806C6AA882E873686C847630D080067
S3151C005770B717051C93874740B715051CC686938526
S3151C00578045417520E1373718051C93070841130856
S3151C0057900841DDB74111B286014606C67D3FAA8582
S3151C0057A08146014601456F1020094111814522C4DD
S3151C0057B006C62A84EF10400E03A5C1195C5D91C371
S3151C0057C082972285EF30F0720111B7070000370768
S3151C0057D0000022CC1307070013840700198C26CA65
S3151C0057E04AC84EC606CE0984814413890700F1595E
S3151C0057F0631A94006244F240D2444249B24905619C
S3151C0058006FF05F85B38734038504CA9783A7C7FFE8
S3151C0058108297F9BF397136D6741006CE3AD83EDA5D
S3151C00582042DC46DE36C6E923F240216182803971AC
S3151C0058303EDA32D42E86AA8503A5011A36D6341032
S3151C00584006CE3AD842DC46DE36C65D23F2402161DE
S3151C0058508280411122C426C237040000B70400000E
S3151C00586093870400130404001D8C4AC006C60984D1
S3151C00587093840400014963198902B7040000EFF000
S3151C0058806FFD3704000093870400130404001D8C6D
S3151C0058900984938404000149631D8900B240224493
S3151C0058A092440249410182809C40050991048297D9
S3151C0058B0D9B79C40050991048297F9BF39713EDA24
S3151C0058C083A7011A32D436D62ED23AD842DC46DE0B
S3151C0058D08C4754102A863E8506CE36C6112BF240BE
S3151C0058E021618280397132D436D63AD83EDA42DC0E
S3151C0058F046DE2E860C45341006CE36C6D529F24019
S3151C00590021618280B3C7A5008D8B3307C50081E753
S3151C0059108D4763EFC700AA876369E500828083C64B
S3151C005920050085078505A38FD7FEE3EAE7FE82807F
S3151C00593093773500BDEBAA879376C7FF138606FEC1
S3151C00594063FCC70683A3050083A2450083AF8500BD
S3151C00595003AFC50083AE050103AE450103A3850154
S3151C00596083A8C501938545029387470203A8C5FFF3
S3151C00597023AE77FC23A057FE23A2F7FF23A4E7FF41
S3151C00598023A6D7FF23A8C7FF23AA67FE23AC17FFAE
S3151C00599023AE07FF75B783C6050085078505A38F4C
S3151C0059A0D7FE93F63700E5FA41BFAA87DDBF9041C3
S3151C0059B09107910523AEC7FEE3EBD7FEE3E7E7F6B7
S3151C0059C082803D482A876373C8029377F700BDEF30
S3151C0059D0ADE5937606FF3D8ABA960CC34CC30CC73D
S3151C0059E04CC74107E36BD7FE11E28280B306C84061
S3151C0059F08A069702000096966780A6002307B700C2
S3151C005A00A306B7002306B700A305B7002305B700F6
S3151C005A10A304B7002304B700A303B7002303B700EE
S3151C005A20A302B7002302B700A301B7002301B700E6
S3151C005A30A300B7002300B700828093F5F50F939659
S3151C005A408500D58D93960501D58D61B79396270054
S3151C005A509702000096968682E78086FA9680C11782
S3151C005A601D8F3E96E374C8F8A5B7397122DC2A84CB
S3151C005A702E852EC606DEE124B717051C93874744E0
S3151C005A803ED485473ED61C10B2453ECA89473ECCFD
S3151C005A901C5C2AD205052ED02ACE0C4491E7228501
S3151C005AA02EC6EF10E010B2458397C5001397270149
S3151C005AB0634B07008966F851D58F2396F500F97755
S3151C005AC0FD17F98FFCD150082285EF10A054FD5705
S3151C005AD011E1A947F25062543E8521618280AA8554
S3151C005AE003A5011A59B7411122C42E848C4126C222
S3151C005AF006C6AA8491C1C53FA2852244B24026850A
S3151C005B00924441016F10203783A7011A638FA7089F
S3151C005B107C45011122CC26CA4AC806CE4EC62A840A
S3151C005B2081441309000885EB2C4081C52285EF10A2
S3151C005B3080348325841495CD9304C414638B9502F9
S3151C005B4003A905002285EF100033CA85C5BFA6959B
S3151C005B508C4189E991046C44E39B24FF2285EF1058
S3151C005B608031D9B783A905002285EF10C030CE85B8
S3151C005B70CDB76C4881C52285EF10E02F1C5C99CFF0
S3151C005B805C5C228582978325042E89C92285624402
S3151C005B90F240D2444249B2490561B1B7F24062446F
S3151C005BA0D2444249B2490561828082800327C52DB1
S3151C005BB015EB41119305000822C406C62A84EF1072
S3151C005BC0701B232EA42CFD5709C9930705082320F7
S3151C005BD005001105E31DF5FE8147B24022443E85B2
S3151C005BE04101828081473E858280411126C206C6BC
S3151C005BF022C44AC07D47AA846376B700594718C198
S3151C005C007D5531A88327C52D32892E8499CF9315AE
S3151C005C10240003A4C42DA295884123A02501B240CB
S3151C005C202244924402494101828049376DD1C9BF41
S3151C005C30FD4763F6B700D9471CC17D558280832773
S3151C005C40C52D011122CC06CE2E862A8491C7139708
S3151C005C502500BA97984319EB228532C6F928AA85DE
S3151C005C60228562443246F24005614DA085460145B7
S3151C005C706308D700FD566319D700D9471CC00545D4
S3151C005C80F2406244056182802E8523A0070002979C
S3151C005C900145FDB7FD4763F4B7007D558280832718
S3151C005CA0C52D411122C426C206C6AA842E849DC7B0
S3151C005CB083A7C42D1317240005453E971C4395C383
S3151C005CC0FD560945638FD70085460D45638BD70066
S3151C005CD02285232007008297014521A0C13D69D951
S3151C005CE07D55B2402244924441018280AA8503A577
S3151C005CF0011A3DBF2E86AA8503A5011AFDB503A56B
S3151C005D00011A6DB5AA8503A5011A69B7411122C4EA
S3151C005D1026C2AA842E85B28506C623AC0126EF3080
S3151C005D20F01FFD576316F50083A7812791C39CC0FE
S3151C005D30B24022449244410182806F30701DAA8772
S3151C005D40850703C7F7FF6DFF3385A7407D15828046
S3151C005D501C46797122D406D626D24AD04ECE52CCB7
S3151C005D6056CA5AC85EC662C4328485E3232206001C
S3151C005D700145B250225492540259F249624AD24AFF
S3151C005D80424BB24B224C45618280FC512E891397A3
S3151C005D902701635A070404422A8AFD5B1C4499E7BF
S3151C005DA001452324040023220400E1B783A94400EF
S3151C005DB003AB0400814A13DC290063CB8A011C4413
S3151C005DC093F9C9FFA104B389374123243401F9B7D8
S3151C005DD083250B004A865285EF00D079110B630789
S3151C005DE07501850AD9BFEF10E02265BF7D5555BFE9
S3151C005DF069712324811223202113232E3111232C74
S3151C005E0041112326111223229112232A51112328D0
S3151C005E106111232671112324811123229111232020
S3151C005E20A111EEDFAA892E84328A368909C51C5D2A
S3151C005E3099E3EF00F0578317C40013972701634BB0
S3151C005E40070089667850D58F2316F400F977FD175D
S3151C005E50F98F7CD08357C400A18BA5C31C48B1CF36
S3151C005E608357C4002947E98B6390E7068317E40030
S3151C005E7063CC0704CA865286A2854E85EF00D005E0
S3151C005E80AA8B8320C112032481125E8583244112AE
S3151C005E90032901128329C111032A8111832A411165
S3151C005EA0032B0111832BC110032C8110832C411051
S3151C005EB0032D0110FE5D55618280A2854E85EF0083
S3151C005EC0500A59DDFD5B75BF130BC104DAC082C4D1
S3151C005ED082C25A8702D202CE02D002D4814BD2840D
S3151C005EE09306500283C7040099C3639CD706B38AE2
S3151C005EF0444163880A02A6472320470123225701EF
S3151C005F00D697BEC496479D4621078507BEC263D950
S3151C005F10F6009000A2854E85253D631705765A87A7
S3151C005F20D69B83C70400638A0778138A1400A30DC3
S3151C005F300102FD54814A014D294C930CA002130801
S3151C005F40A005A54503460A00050A930606FE6364DA
S3151C005F50D866B717051C8A069387074DBE969442CA
S3151C005F608286850441B7B716051C9386864436D2AD
S3151C005F7093760D026382064E1D09137989FF8328C9
S3151C005F800900832C4900130C890093761D0081CED1
S3151C005F90B3E6980189CA93060003230ED102A30E09
S3151C005FA0C102136D2D00137DFDBFADA44E853AC8ED
S3151C005FB0EF10A04148412AD459332AD04E85EF1000
S3151C005FC0C0400845825742472ACEB5DB2DD98346A9
S3151C005FD00500B5D6136D0D409DB78346B103A5F2DA
S3151C005FE093060002A30DD10299BF136D1D0081BF3C
S3151C005FF0832A09001109E3D40AF4B30A5041136D2C
S3151C0060004D0035BF9306B002F1BF03460A00930646
S3151C0060101A0063189603832409001306490063D3E8
S3151C0060200400FD543289368A19BFB384840385065D
S3151C00603003C6F6FFAA94130506FDE3F8A5FE368AE9
S3151C00604029B78144CDBF136D0D08D5BDD286814AB3
S3151C006050B38A8A03130606FD8506B29A03C6F6FFA3
S3151C006060130506FDE3F6A5FED9BF03460A009306F3
S3151C00607080066316D600050A136D0D20C9B5136D6F
S3151C0060800D0475BD03460A009306C0066316D600AA
S3151C006090050A136D0D0265B5136D0D014DB58326ED
S3151C0060A00900130C4900A30D01022306D1088544DF
S3151C0060B0814C1309C10869A2136D0D0193760D025B
S3151C0060C0B9C61D09137989FF83280900832C490049
S3151C0060D0130C890063DE0C00B3081041B3361001A3
S3151C0060E033039041B30CD3409306D002A30DD102C7
S3151C0060F0FD566398D43863950C3EA54663E2163F5D
S3151C00610093880803A307110F1309F10ED9A69376DA
S3151C0061100D01130C490091C68328090093DCF84134
S3151C00612055BF93760D048328090089C6C20893D8E7
S3151C0061300841EDB793760D20F5D2E20893D8884135
S3151C006140F1BF13760D0283260900110919C693D7D0
S3151C006150FB4123A07601DCC259B313760D0101C69F
S3151C00616023A07601ADBB13760D0409C6DE872390EA
S3151C006170F600B5B393770D20E5D7DE872380F600AE
S3151C006180B9BB136D0D0193760D029DCE1D091379B6
S3151C00619089FF83280900832C4900130C8900137D71
S3151C0061A0FDBF8146A30D01027D56638FC42C6A86F2
S3151C0061B0B3E59801137DFDF76398052C6383043EB4
S3151C0061C005466396C62C2DBF93760D01130C49000C
S3151C0061D081C68328090031A093760D0489C683588D
S3151C0061E00900814C6DBF93760D20E5D683480900C6
S3151C0061F0CDBFE17693C60683231ED10283280900F0
S3151C006200B716051C9386C645130C4900814C136DA5
S3151C0062102D0036D2894679B7A30D0102FD56130C03
S3151C0062204900032909006388D41C268681454A85B2
S3151C0062303AC8EF101002814C424719C1B3042541DC
S3151C00624066CC63D39C0026CC8346B10381C6E24749
S3151C00625085073ECC937D2D0063850D00E24789079B
S3151C0062603ECC93774D083ED6A1E7E247B386FA406B
S3151C0062706350D004B717051CC1481388C7631D4358
S3151C006280164623200701A64505061305870063CC81
S3151C006290D83254C3AE96B6C4B2C29D462A8763D9B9
S3151C0062A0C6009000A2854E856534631F053C5A873F
S3151C0062B08346B1039DC61306B10310C30546964615
S3151C0062C050C326468506B6C20506B2C41D4621071E
S3151C0062D06359D6009000A2854E859D3C6316053AEF
S3151C0062E05A8763870D02701810C30946964650C319
S3151C0062F026468506B6C20906B2C41D462107635941
S3151C006300D6009000A2854E85A134631F05365A8798
S3151C006310B257930600086395D704E247B38DFA403B
S3151C0063206350B00541489D489646B717051C938790
S3151C006330C7641CC32646850693058700634EB82B87
S3151C0063402322B701B29DEEC4B6C21D462E876359E1
S3151C006350D6009000A2854E85E53A631705325A870A
S3151C006360B38C9C4063509005C14D1D489646B7178B
S3151C006370051C9387C7641CC32646850693058700A0
S3151C00638063C19D2B23229701B29CE6C4B6C21D464F
S3151C0063902E876359D6009000A2854E85553A631503
S3151C0063A0052E5A87A64644C323202701B694964633
S3151C0063B0A6C41D468506B6C221076359D6009000A1
S3151C0063C0A2854E8571326311052C5A8793774D0031
S3151C0063D0639C0726624763D3EA00BA8AA647D69B04
S3151C0063E099C79000A2854E85A532631F052882C2D7
